:020000040800F2
:1000000000000220154A00081D4800081F4800088B
:100010002148000823480008254800080000000087
:100020000000000000000000000000002748000859
:1000300029480008000000002B4800082D4800084F
:10004000654A0008654A0008654A0008654A0008D4
:10005000654A0008654A0008654A0008654A0008C4
:10006000654A0008654A0008654A0008654A0008B4
:10007000654A0008654A0008654A0008654A0008A4
:10008000654A0008654A000825490008654A0008D5
:10009000654A0008654A0008654A0008654A000884
:1000A000654A0008B5480008654A0008654A000826
:1000B000654A0008654A0008654A0008654A000864
:1000C000654A0008654A0008654A0008654A000854
:1000D000654A0008354800084548000855480008AA
:1000E000C5480008654A0008654A0008654A0008D6
:1000F000654A0008654A0008654A0008654A000824
:10010000654A0008654A0008654A0008654A000813
:1001100065480008654A00087548000895480008C9
:10012000654A0008654A0008654A0008654A0008F3
:10013000654A0008654A0008654A0008654A0008E3
:10014000654A0008654A0008654A0008654A0008D3
:10015000654A0008654A0008654A0008A548000885
:10016000654A0008654A0008654A0008654A0008B3
:10017000654A0008654A0008654A0008000000005A
:08018000654A0008654A000809
:1001C00081F0004102E000BF83F0004330B54FEA08
:1001D00041044FEA430594EA050F08BF90EA020F75
:1001E0001FBF54EA000C55EA020C7FEA645C7FEA08
:1001F000655C00F0E2804FEA5454D4EB5555B8BF2B
:100200006D420CDD2C4480EA020281EA030382EA9B
:10021000000083EA010180EA020281EA0303362D2D
:1002200088BF30BD11F0004F4FEA01314FF4801C00
:100230004CEA113102D0404261EB410113F0004F12
:100240004FEA03334CEA133302D0524263EB4303C9
:1002500094EA050F00F0A780A4F10104D5F1200E67
:100260000DDB02FA0EFC22FA05F2801841F10001C2
:1002700003FA0EF2801843FA05F359410EE0A5F196
:1002800020050EF1200E012A03FA0EFC28BF4CF0C7
:10029000020C43FA05F3C01851EBE37101F000457D
:1002A00007D54FF0000EDCF1000C7EEB00006EEB8A
:1002B0000101B1F5801F1BD3B1F5001F0CD3490814
:1002C0005FEA30004FEA3C0C04F101044FEA44526B
:1002D00012F5800F80F09A80BCF1004F08BF5FEAF2
:1002E000500C50F1000041EB045141EA050130BDD2
:1002F0005FEA4C0C404141EB0101013C28BFB1F5E4
:10030000801FE9D291F0000F04BF01460020B1FA2E
:1003100081F308BF2033A3F10B03B3F120020CDA01
:100320000C3208DD02F1140CC2F10C0201FA0CF0DF
:1003300021FA02F10CE002F11402D8BFC2F1200C44
:1003400001FA02F120FA0CFCDCBF41EA0C019040FA
:10035000E41AA2BF01EB0451294330BD6FEA040443
:100360001F3C1CDA0C340EDC04F11404C4F120022E
:1003700020FA04F001FA02F340EA030021FA04F340
:1003800045EA030130BDC4F10C04C4F1200220FA97
:1003900002F001FA04F340EA0300294630BD21FAD5
:1003A00004F0294630BD94F0000F83F4801306BF9B
:1003B00081F480110134013D4EE77FEA645C18BF8F
:1003C0007FEA655C29D094EA050F08BF90EA020F26
:1003D00005D054EA000C04BF1946104630BD91EA1E
:1003E000030F1EBF0021002030BD5FEA545C05D121
:1003F0004000494128BF41F0004130BD14F5800460
:100400003CBF01F5801130BD01F0004545F0FE41D3
:1004100041F470014FF0000030BD7FEA645C1ABF08
:10042000194610467FEA655C1CBF0B46024650EA3F
:10043000013406BF52EA033591EA030F41F400216B
:1004400030BD00BF90F0000F04BF0021704730B5F1
:100450004FF4806404F132044FF000054FF00001C6
:1004600050E700BF90F0000F04BF0021704730B587
:100470004FF4806404F1320410F0004548BF40425C
:100480004FF000013EE700BF42004FEAE2014FEAB1
:1004900031014FEA02701FBF12F07F4393F07F4F8C
:1004A00081F06051704732F07F4208BF704793F08F
:1004B0007F4F04BF41F40021704730B54FF46074A2
:1004C00001F0004521F000411CE700BF50EA0102A5
:1004D00008BF704730B54FF000050AE050EA01024E
:1004E00008BF704730B511F0004502D5404261EBBE
:1004F00041014FF4806404F132045FEA915C3FF4FF
:10050000D8AE4FF003025FEADC0C18BF03325FEA9B
:10051000DC0C18BF033202EBDC02C2F1200300FA4C
:1005200003FC20FA02F001FA03FE40EA0E0021FA71
:1005300002F11444BDE600BF70B54FF0FF0C4CF45F
:10054000E06C1CEA11541DBF1CEA135594EA0C0F11
:1005500095EA0C0F00F0DEF82C4481EA030621EA4C
:100560004C5123EA4C5350EA013518BF52EA033587
:1005700041F4801143F4801338D0A0FB02CE4FF039
:100580000005E1FB02E506F00042E0FB03E54FF069
:100590000006E1FB03569CF0000F18BF4EF0010E61
:1005A000A4F1FF04B6F5007F64F5407404D25FEA5D
:1005B0004E0E6D4146EB060642EAC62141EA555110
:1005C0004FEAC52040EA5E504FEACE2EB4F1FD0C52
:1005D00088BFBCF5E06F1ED8BEF1004F08BF5FEAD0
:1005E000500E50F1000041EB045170BD06F0004682
:1005F00046EA010140EA020081EA0301B4EB5C042F
:10060000C2BFD4EB0C0541EA045170BD41F4801126
:100610004FF0000E013C00F3AB8014F1360FDEBF4B
:10062000002001F0004170BDC4F10004203C35DA27
:100630000C341BDC04F11404C4F1200500FA05F3AA
:1006400020FA04F001FA05F240EA020001F000424B
:1006500021F0004110EBD37021FA04F642EB0601C1
:100660005EEA430E08BF20EAD37070BDC4F10C04EB
:10067000C4F1200500FA04F320FA05F001FA04F2AF
:1006800040EA020001F0004110EBD37041F100019B
:100690005EEA430E08BF20EAD37070BDC4F12005A6
:1006A00000FA05F24EEA020E20FA04F301FA05F20E
:1006B00043EA020321FA04F001F0004121FA04F2B6
:1006C00020EA020000EBD3705EEA430E08BF20EA86
:1006D000D37070BD94F0000F0FD101F000464000C0
:1006E00041EB010111F4801F08BF013CF7D041EA42
:1006F000060195F0000F18BF704703F00046520046
:1007000043EB030313F4801F08BF013DF7D043EA16
:100710000603704794EA0C0F0CEA135518BF95EACC
:100720000C0F0CD050EA410618BF52EA4306D1D153
:1007300081EA030101F000414FF0000070BD50EA72
:10074000410606BF1046194652EA430619D094EAFC
:100750000C0F02D150EA013613D195EA0C0F05D1E6
:1007600052EA03361CBF104619460AD181EA03013A
:1007700001F0004141F0FE4141F470014FF00000F2
:1007800070BD41F0FE4141F4780170BD70B54FF08D
:10079000FF0C4CF4E06C1CEA11541DBF1CEA13550D
:1007A00094EA0C0F95EA0C0F00F0A7F8A4EB0504EF
:1007B00081EA030E52EA03354FEA013100F08880E6
:1007C0004FEA03334FF0805545EA131343EA1263AF
:1007D0004FEA022245EA111545EA10654FEA002664
:1007E0000EF000419D4208BF964244F1FD0404F51D
:1007F000407402D25B084FEA3202B61A65EB030579
:100800005B084FEA32024FF480104FF4002CB6EB35
:10081000020E75EB030E22BFB61A754640EA0C00B5
:100820005B084FEA3202B6EB020E75EB030E22BFF5
:10083000B61A754640EA5C005B084FEA3202B6EB36
:10084000020E75EB030E22BFB61A754640EA9C00F5
:100850005B084FEA3202B6EB020E75EB030E22BFC5
:10086000B61A754640EADC0055EA060E18D04FEA83
:10087000051545EA16754FEA06164FEAC30343EA23
:1008800052734FEAC2025FEA1C1CC0D111F4801FF0
:100890000BD141EA00014FF000004FF0004CB6E7E9
:1008A00011F4801F04BF01430020B4F1FD0C88BF88
:1008B000BCF5E06F3FF6AFAEB5EB030C04BFB6EB93
:1008C000020C5FEA500C50F1000041EB045170BD86
:1008D0000EF0004E4EEA113114EB5C04C2BFD4EBB3
:1008E0000C0541EA045170BD41F480114FF0000E37
:1008F000013C90E645EA060E8DE60CEA135594EAB3
:100900000C0F08BF95EA0C0F3FF43BAF94EA0C0FB5
:100910000AD150EA01347FF434AF95EA0C0F7FF42A
:1009200025AF104619462CE795EA0C0F06D152EA7E
:1009300003353FF4FDAE1046194622E750EA410662
:1009400018BF52EA43067FF4C5AE50EA41047FF473
:100950000DAF52EA43057FF4EBAE12E74FF0FF3CD8
:1009600006E000BF4FF0010C02E000BF4FF0010CA9
:100970004DF804CD4FEA410C7FEA6C5C4FEA430C22
:1009800018BF7FEA6C5C1BD001B050EA410C0CBF71
:1009900052EA430C91EA030F02BF90EA020F0020D3
:1009A000704710F1000F91EA030F58BF994208BF3A
:1009B00090422CBFD8176FEAE37040F001007047F7
:1009C0004FEA410C7FEA6C5C02D150EA013C07D14E
:1009D0004FEA430C7FEA6C5CD6D152EA033CD3D099
:1009E0005DF8040B704700BF8446104662468C4693
:1009F0001946634600E000BF01B5FFF7B7FF0028C6
:100A000048BF10F1000F01BD4DF808EDFFF7F4FFEE
:100A10000CBF012000205DF808FB00BF4DF808ED79
:100A2000FFF7EAFF34BF012000205DF808FB00BF9C
:100A30004DF808EDFFF7E0FF94BF012000205DF8BE
:100A400008FB00BF4DF808EDFFF7CEFF94BF012073
:100A500000205DF808FB00BF4DF808EDFFF7C4FF6C
:100A600034BF012000205DF808FB00BF4FEA410CB5
:100A70007FEA6C5C02D150EA013C0AD14FEA430C98
:100A80007FEA6C5C02D152EA033C02D14FF00000D5
:100A900070474FF0010070474FEA410212F5001213
:100AA00015D211D56FF47873B3EB625212D94FEAB5
:100AB000C12343F0004343EA505311F0004F23FA9F
:100AC00002F018BF404270474FF00000704750EAF4
:100AD000013005D111F0004008BF6FF000407047B1
:100AE0004FF00000704700BF4FEA4102B2F1E0430F
:100AF00024BFB3F5001CDCF1FE5C0DD901F0004C05
:100B00004FEAC0024CEA5070B2F1004F40EB830054
:100B100008BF20F00100704711F0804F21D113F180
:100B20003872BCBF01F00040704741F480114FEAB9
:100B30005252C2F11802C2F1200C10FA0CF320FA42
:100B400002F018BF40F001004FEAC1234FEAD3235F
:100B500003FA0CFC40EA0C0023FA02F34FEA4303C9
:100B6000CCE77FEA625307D150EA01331EBF4FF052
:100B7000FE4040F44000704701F0004040F0FE406D
:100B800040F40000704700BF80F0004002E000BF6A
:100B900081F0004142001FBF5FEA410392EA030F68
:100BA0007FEA226C7FEA236C6AD04FEA1262D2EBB2
:100BB0001363C1BFD218414048404140B8BF5B42B7
:100BC000192B88BF704710F0004F40F4000020F050
:100BD0007F4018BF404211F0004F41F4000121F066
:100BE0007F4118BF494292EA030F3FD0A2F10102B0
:100BF00041FA03FC10EB0C00C3F1200301FA03F1EE
:100C000000F0004302D5494260EB4000B0F5000F10
:100C100013D3B0F1807F06D340084FEA310102F1CF
:100C20000102FE2A51D2B1F1004F40EBC25008BF81
:100C300020F0010040EA03007047490040EB00004B
:100C4000013A28BFB0F5000FEDD2B0FA80FCACF14C
:100C5000080CB2EB0C0200FA0CF0AABF00EBC25079
:100C600052421843BCBFD0401843704792F0000F67
:100C700081F4000106BF80F400000132013BB5E7BA
:100C80004FEA41037FEA226C18BF7FEA236C21D030
:100C900092EA030F04D092F0000F08BF0846704795
:100CA00090EA010F1CBF0020704712F07F4F04D163
:100CB000400028BF40F00040704712F100723CBF76
:100CC00000F50000704700F0004343F0FE4040F4A0
:100CD000000070477FEA226216BF08467FEA23635E
:100CE0000146420206BF5FEA412390EA010F40F449
:100CF000800070474FF0000304E000BF10F0004395
:100D000048BF40425FEA000C08BF704743F096437B
:100D100001464FF000001CE050EA010208BF704796
:100D20004FF000030AE000BF50EA010208BF70471D
:100D300011F0004302D5404261EB41015FEA010C32
:100D400002BF84460146002043F0B64308BFA3F12A
:100D50008053A3F50003BCFA8CF2083AA3EBC2530C
:100D600010DB01FA02FC634400FA02FCC2F120022B
:100D7000BCF1004F20FA02F243EB020008BF20F062
:100D80000100704702F1200201FA02FCC2F12002C8
:100D900050EA4C0021FA02F243EB020008BF20EABD
:100DA000DC7070474FF0FF0C1CEAD0521EBF1CEAEB
:100DB000D15392EA0C0F93EA0C0F6FD01A4480EAD9
:100DC000010C400218BF5FEA41211ED04FF00063C2
:100DD00043EA501043EA5111A0FB01310CF00040EE
:100DE000B1F5000F3EBF490041EAD3715B0040EA14
:100DF000010062F17F02FD2A1DD8B3F1004F40EBE4
:100E0000C25008BF20F00100704790F0000F0CF0B6
:100E1000004C08BF49024CEA502040EA51207F3A7A
:100E2000C2BFD2F1FF0340EAC250704740F4000055
:100E30004FF00003013A5DDC12F1190FDCBF00F046
:100E400000407047C2F10002410021FA02F1C2F1F4
:100E5000200200FA02FC5FEA310040F1000053EA90
:100E60004C0308BF20EADC70704792F0000F00F0DE
:100E7000004C02BF400010F4000F013AF9D040EAE4
:100E80000C0093F0000F01F0004C02BF490011F478
:100E9000000F013BF9D041EA0C018FE70CEAD15376
:100EA00092EA0C0F18BF93EA0C0F0AD030F0004CF6
:100EB00018BF31F0004CD8D180EA010000F00040AA
:100EC000704790F0000F17BF90F0004F084691F068
:100ED000000F91F0004F14D092EA0C0F01D14202A2
:100EE0000FD193EA0C0F03D14B0218BF084608D16B
:100EF00080EA010000F0004040F0FE4040F40000B5
:100F0000704740F0FE4040F4400070474FF0FF0C47
:100F10001CEAD0521EBF1CEAD15392EA0C0F93EA8E
:100F20000C0F69D0A2EB030280EA010C49024FEAE0
:100F3000402037D04FF0805343EA111143EA101399
:100F40000CF000408B4238BF5B0042F17D024FF451
:100F5000000C8B4224BF5B1A40EA0C00B3EB510F2C
:100F600024BFA3EB510340EA5C00B3EB910F24BF15
:100F7000A3EB910340EA9C00B3EBD10F24BFA3EB9A
:100F8000D10340EADC001B0118BF5FEA1C1CE0D162
:100F9000FD2A3FF650AF8B4240EBC25008BF20F015
:100FA000010070470CF0004C4CEA50207F32C2BF69
:100FB000D2F1FF0340EAC250704740F400004FF006
:100FC0000003013A37E792F0000F00F0004C02BF37
:100FD000400010F4000F013AF9D040EA0C0093F001
:100FE000000F01F0004C02BF490011F4000F013B5B
:100FF000F9D041EA0C0195E70CEAD15392EA0C0FC3
:1010000008D142027FF47DAF93EA0C0F7FF470AFFA
:10101000084676E793EA0C0F04D14B023FF44CAF3D
:1010200008466EE730F0004C18BF31F0004CCAD1D2
:1010300030F000427FF45CAF31F000437FF43CAF0E
:101040005FE700BF4FF0FF3C06E000BF4FF0010C30
:1010500002E000BF4FF0010C4DF804CD4FEA400212
:101060004FEA41037FEA226C18BF7FEA236C11D05C
:1010700001B052EA530C18BF90EA010F58BFB2EB0F
:10108000030088BFC81738BF6FEAE17018BF40F08F
:10109000010070477FEA226C02D15FEA402C05D143
:1010A0007FEA236CE4D15FEA412CE1D05DF8040BC8
:1010B000704700BF844608466146FFE70FB5FFF75B
:1010C000C9FF002848BF10F1000F0FBD4DF808ED13
:1010D000FFF7F4FF0CBF012000205DF808FB00BF04
:1010E0004DF808EDFFF7EAFF34BF012000205DF85E
:1010F00008FB00BF4DF808EDFFF7E0FF94BF0120AB
:1011000000205DF808FB00BF4DF808EDFFF7D2FFA7
:1011100094BF012000205DF808FB00BF4DF808EDEA
:10112000FFF7C8FF34BF012000205DF808FB00BFB7
:101130004FEA40024FEA41037FEA226C02D15FEAA4
:10114000402C08D17FEA236C02D15FEA412C02D106
:101150004FF0000070474FF0010070474FEA400227
:10116000B2F1FE4F0FD34FF09E03B3EB12620DD9D5
:101170004FEA002343F0004310F0004F23FA02F03F
:1011800018BF404270474FF00000704712F1610FE6
:1011900001D1420205D110F0004008BF6FF00040BD
:1011A00070474FF00000704753B94AB9002908BF93
:1011B00000281CBF4FF0FF314FF0FF3000F0E2B8C5
:1011C000ADF1080C6DE904CE06F01EFFDDF804E079
:1011D000DDE9022304B0704700F1340191E83800E2
:1011E0009C46A6464CF8045D90E8FF0FE54600BD1E
:1011F00090EC210B704700BF80EC210B704700BFC3
:1012000090EC200B704700BF80EC200B704700BFB4
:10121000D0EC200B704700BFC0EC200B704700BF24
:10122000F0EC0201F0EC0211F0EC0221F0EC0231E2
:10123000F0EC0241F0EC0251F0EC0261F0EC0271D2
:10124000F0EC0281F0EC0291F0EC02A1F0EC02B1C2
:10125000F0EC02C1F0EC02D1F0EC02E1F0EC02F1B2
:10126000704700BFE0EC0201E0EC0211E0EC02216B
:10127000E0EC0231E0EC0241E0EC0251E0EC026112
:10128000E0EC0271E0EC0281E0EC0291E0EC02A102
:10129000E0EC02B1E0EC02C1E0EC02D1E0EC02E1F2
:1012A000E0EC02F1704700BFB0FC0181B0FC01919D
:1012B000B0FC01A1B0FC01B1704700BFA0FC0181EE
:1012C000A0FC0191A0FC01A1A0FC01B1704700BFEE
:1012D000EC4600B52DE900502DE9FF1F4FF000034B
:1012E0002DE90C0001A907F041F9DDF840E012B04A
:1012F000704700BFEC4600B52DE900502DE9FF1FF7
:101300004FF000032DE90C0001A907F06BF9DDF89F
:1013100040E012B0704700BFEC4600B52DE9005028
:101320002DE9FF1F4FF000032DE90C0001A907F084
:1013300079F9DDF840E012B0704700BFEC4600B527
:101340002DE900502DE9FF1F4FF000032DE90C009F
:1013500001AB07F03FF9DDF840E012B0704700BF85
:10136000EC4600B52DE900502DE9FF1F4FF00003BA
:101370002DE90C0001AA07F0ADF9DDF840E012B04C
:10138000704700BF704700BF844641EA000313F076
:1013900003036DD1403A41D351F8043B40F8043B7C
:1013A00051F8043B40F8043B51F8043B40F8043B3F
:1013B00051F8043B40F8043B51F8043B40F8043B2F
:1013C00051F8043B40F8043B51F8043B40F8043B1F
:1013D00051F8043B40F8043B51F8043B40F8043B0F
:1013E00051F8043B40F8043B51F8043B40F8043BFF
:1013F00051F8043B40F8043B51F8043B40F8043BEF
:1014000051F8043B40F8043B51F8043B40F8043BDE
:1014100051F8043B40F8043B403ABDD2303211D37E
:1014200051F8043B40F8043B51F8043B40F8043BBE
:1014300051F8043B40F8043B51F8043B40F8043BAE
:10144000103AEDD20C3205D351F8043B40F8043B7E
:10145000043AF9D2043208D0D2071CBF11F8013B7C
:1014600000F8013B01D30B8803806046704700BF42
:10147000082A13D38B078DD010F003038AD0C3F151
:101480000403D21ADB071CBF11F8013B00F8013B33
:1014900080D331F8023B20F8023B7BE7043AD9D3F2
:1014A000013A11F8013B00F8013BF9D20B780370C7
:1014B0004B7843708B788370604670470000000063
:1014C00001F0FF01102A2BDB10F0070F08D010F8F5
:1014D000013B013A8B422DD010F0070F42B3F6D1F9
:1014E000F0B441EA012141EA014122F007047FF012
:1014F00000070023F0E80256083C85EA010586EA69
:10150000010685FA47F5A3FA87F586FA47F6A5FAA4
:1015100087F68EB9EED1F0BC01F0FF0102F00702B0
:1015200032B110F8013B013A83EA010313B1F8D15B
:101530000020704701387047002D06BF354603383C
:10154000073815F0010F07D1013015F4807F02BF75
:10155000013015F4C03F01300138F0BC704700BFC6
:10156000000000000000000000000000000000007B
:10157000000000000000000000000000000000006B
:1015800030B490F800F020F007016FF0000C10F07C
:10159000070491F820F040F048804FF000046FF00D
:1015A0000700D1E9002391F840F000F1080082FA29
:1015B0004CF2A4FA8CF283FA4CF3A2FA8CF34BBBF4
:1015C000D1E9022382FA4CF200F10800A4FA8CF26D
:1015D00083FA4CF3A2FA8CF3E3B9D1E9042382FA3B
:1015E0004CF200F10800A4FA8CF283FA4CF3A2FA50
:1015F0008CF37BB9D1E9062301F1200182FA4CF288
:1016000000F10800A4FA8CF283FA4CF3A2FA8CF3EE
:10161000002BC6D0002A04BF04301A4612BAB2FA10
:1016200082F200EBD20030BC7047D1E9002304F015
:101630000305C4F100004FEAC50514F0040F91F84A
:1016400040F00CFA05F562EA05021CBF63EA0503E7
:1016500062464FF00004AAE70348044B834202D0DD
:10166000034B03B1184770470C0700200C070020FC
:10167000000000000548064B1B1AD90F01EBA3011F
:10168000491002D0034B03B1184770470C070020E4
:101690000C0700200000000010B5064C237843B969
:1016A000FFF7DAFF044B13B10448AFF300800123C6
:1016B000237010BD0C07002000000000A4F30008F8
:1016C00008B5054B1BB105490548AFF30080BDE8DF
:1016D0000840FFF7CFBF00BF000000001007002048
:1016E000A4F300082DE9F84305460C462A4B1B7865
:1016F0000133092B00DD01235F1C55F82300FFF7A0
:10170000F9FA06462060092F00DD012707F10108DC
:1017100055F82700FFF7EEFA07466060B8F1090FA9
:1017200001DD4FF0010808F1010955F82800FFF725
:10173000E1FA8046A060B9F1090F01DD4FF001091F
:1017400055F82900FFF7D6FA0546E060134B1968F3
:101750004046FFF71DFAA0601149FFF7D7FBA060D4
:1017600010493846FFF714FA0D49FFF7CFFB6060C8
:101770000C492846FFF70CFAE0600949FFF7C6FB61
:10178000E06008493046FFF703FA0549FFF7BEFB62
:101790002060BDE8F88300BF0400002000000020A6
:1017A0000000E14300C0A844012301E001339BB2E3
:1017B0008B420AD2054A127850F8222050F823C0F2
:1017C0009445F3D9014A1370F0E7704704000020F4
:1017D00038B504460D4603E029462046FFF7E4FFEE
:1017E000034B187854F82030B3F5FA6FF4D338BDB2
:1017F00004000020014B1860704700BF280700203C
:101800002DE9F047044617461E460B9D00F0A3FB4A
:1018100004F148093946484600F09DFB04F1900A5E
:101820003146504600F097FB04F1D808089940462D
:1018300000F091FB04F590770999384600F08BFB96
:1018400004F5B4760A99304600F085FB2968C4F89F
:10185000B0116B68C4F8B431AB68C4F8B831EB6848
:10186000C4F8BC312B69C4F8C0316B69C4F8C43109
:10187000204600F0BBFAD4F8B411484600F0B6FA9E
:10188000D4F8B811504600F0B1FAD4F8BC11404673
:1018900000F0ACFAD4F8C011384600F0A7FAD4F83A
:1018A000C411304600F0A2FA012384F8E031BDE80B
:1018B000F08700000000000070B504460B68C0F817
:1018C000B0314B68C0F8B4318E68C0F8B861CB68ED
:1018D000C0F8BC310B69C0F8C0314D69C0F8C451C3
:1018E0002846FEF7D1FD20A3D3E90023FFF7B4F883
:1018F00040B121492846FFF74BF91F49FFF748F946
:10190000C4F8C401D4F8C4512846FEF7BDFD18A39D
:10191000D3E90023FFF782F840B117492846FFF7C3
:1019200039F91549FFF736F9C4F8C401314604F115
:10193000900000F05BFAD4F8C41104F5B47000F024
:1019400055FAD4F8C01104F5907000F04FFAD4F8AD
:10195000BC1104F1D80000F049FA94F8E03143F0EA
:10196000010384F8E03170BD4AD8124DFB210940D3
:101970004AD8124DFB2109C0DA0F49400B68C0F864
:10198000C8314B68C0F8CC318B68C0F8D031CB6817
:10199000C0F8D4310B69C0F8D8314B69C0F8DC31DC
:1019A00090F8E03143F0020380F8E0317047000026
:1019B0002DE9F04F87B005460C46164602F10801A6
:1019C000903000F0C5FA06F10C0105F1D80000F0E6
:1019D000BFFA06F1100105F5907000F0B9FA06F1B2
:1019E000140105F5B47000F0B3FAB068FEF74CFDD1
:1019F000BDA3D3E90023FFF711F808B1C44BB360CE
:101A0000C449B068FFF7C6F88346F568D6F810A059
:101A1000D6F814804FF07C51FFF7C4F9FEF734FD7F
:101A2000B3A3D3E90023FEF7B1FE0022BA4BFEF7C1
:101A300083FDCDE9000128F000404FF07C51FFF715
:101A4000B1F9FEF721FDAAA3D3E90023FEF79EFE1C
:101A500006460F462AF0004025F00041FFF79AF8AD
:101A6000FEF712FDA2A3D3E90023FEF78FFEA2A387
:101A7000D3E90023FEF78AFE02460B46304639467C
:101A8000FEF7A4FB06460F4602460B46DDE90001C1
:101A9000FEF7C4FF68B34046FEF7F6FC8046894671
:101AA00032463B46DDE90001FEF770FE06460F4672
:101AB00002460B4640464946FEF73EFDFFF714F846
:101AC00080465046FEF7E0FC02460B46304639465B
:101AD000FEF732FDFFF708F882462846FEF7D4FCF1
:101AE00002460B4630463946FEF726FDFEF7FCFF60
:101AF00005464FF07A515846FFF754F9FEF7C4FCFB
:101B00007BA3D3E90023FEF741FECDE900014FF0AE
:101B10007A514046FFF746F9FEF7B6FC74A3D3E9C5
:101B20000023FEF733FE06460F4602460B46DDE96C
:101B30000001FEF74BFB804689464FF07C51504632
:101B4000FFF730F9FEF7A0FC69A3D3E90023FEF705
:101B50001DFE69A3D3E90023FEF718FE02460B46DB
:101B6000CDE90423CDE9028940464946FEF72CFB26
:101B7000FEF7BAFF8246206032463B46DDE90001AF
:101B8000FEF722FB06460F464FF07C512846FFF732
:101B900009F9FEF779FC56A3D3E90023FEF7F6FD19
:101BA00055A3D3E90023FEF7F1FD8046894602469E
:101BB0000B46CDE9006730463946FEF707FBFEF7D6
:101BC00093FF07466060DDE90423DDE90201FEF7CB
:101BD000FDFAFEF789FF0646A06042464B46DDE966
:101BE0000001FEF7F1FAFEF77FFF0546E060394697
:101BF0005046FEF7CFFF01463046FEF7CBFF0146C9
:101C00002846FEF7C7FF00905846FEF73DFC00222D
:101C1000424BFEF791FC3AA3D3E90023FEF7B6FD51
:101C200039A3D3E90023FEF787FC00223C4BFEF7E3
:101C300083FC804689460098FEF726FC02460B4648
:101C400040464946FEF7A2FDFEF74EFF814601469B
:101C50005046FFF7A7F805F04FFE80462060494642
:101C60003846FFF79FF805F047FE07466060494693
:101C70003046FFF797F805F03FFE0646A06049465C
:101C80002846FFF78FF805F037FE0546E0604FF075
:101C90007E514046FFF742FA08B14FF07E58C4F833
:101CA00000804FF07E513846FFF738FA08B14FF008
:101CB0007E5767604FF07E513046FFF72FFA08B12C
:101CC0004FF07E56A6604FF07E512846FFF726FA69
:101CD00008B14FF07E55E5600D494046FFF700FA28
:101CE00020E000BFAFF300809A9999999999B93F84
:101CF000FCA9F1D24D62503F333333333333D33FFA
:101D00009A99999999992340CDCCCCCCCCCCDC3FF5
:101D1000CDCCCC3DCDCC9C410000E83F0000E03F65
:101D20000000104008B1DFF83880C4F800800C498A
:101D30003846FFF7D5F900B1094F676008493046CA
:101D4000FFF7CEF900B1064EA66005492846FFF719
:101D5000C7F900B1024DE56007B0BDE8F08F00BFE4
:101D6000CDCCCC3D10B50446D0F8D011903000F069
:101D7000BAF8D4F8D41104F1D80000F0B4F8D4F8CB
:101D8000D81104F5907000F0AEF8D4F8DC1104F529
:101D9000B47000F0A8F810BD10B50446FFF7E2FFDC
:101DA00094F8E03103F0FD0384F8E03110BD000049
:101DB00070B505460C4683688B600A494068FEF79B
:101DC000F1FFE06007492868FEF7ECFF20616669D3
:101DD0000549E868FEF7E6FF01463046FEF7DAFE01
:101DE000606170BD0E2D323E6F12033B012380F8FF
:101DF0002430C16270472DE9F0410446876A3946B4
:101E00000068FEF7CFFF8046E5682946FEF7C0FE72
:101E1000064629464046FEF7BDFE80460021304674
:101E2000FFF77CF9002837D0A3690133A36165630C
:101E3000D4F83480256929464046FEF7A9FE0646B7
:101E400029464046FEF7A6FE804600213046FFF7B1
:101E500065F900282DD0E3690133E3616563216CE6
:101E60003846FEF795FEA168FEF79CFF07466569B8
:101E70002946FEF78DFE064629463846FEF78AFEBD
:101E8000074600213046FFF749F9F8B1236A0133CC
:101E90002362A563BDE8F08100214046FFF720F9E9
:101EA0000028C5D0A3690133A36105F1004565632E
:101EB000BEE700214046FFF713F90028CFD0E369C1
:101EC0000133E36105F100456563C8E70021384649
:101ED000FFF706F90028DDD0236A0133236205F1FC
:101EE0000045A563D6E770B504460163012380F879
:101EF000253090F824301BB9002384F8253070BDBC
:101F0000C06AFEF745FE0546A0622168FEF74AFF5B
:101F1000E063666B61682846FEF744FF0146304681
:101F2000FEF738FE6063216C2846FEF731FEA1689B
:101F3000FEF738FFA06325642046FFF75CFF616B66
:101F4000E06BFEF727FEA16BFEF724FE6064D3E78B
:101F5000436C0B6070470B6803604B6843608B6891
:101F6000836070477047000070B504460D46164602
:101F700000680146FEF716FF2A49FEF713FFFFF738
:101F8000EDF83368D86320680146FEF70BFF25495A
:101F9000FEF708FFFFF7E2F833681864606801464F
:101FA000FEF700FF1F49FEF7FDFEFFF7D7F8336885
:101FB000586360680146FEF7F5FE1A49FEF7F2FE27
:101FC000FFF7CCF833689863A0680146FEF7EAFE95
:101FD0001449FEF7E7FEFFF7C1F82B685863A068C5
:101FE0000146FEF7DFFE0F49FEF7DCFEFFF7B6F80D
:101FF0002B689863E0680146FEF7D4FE0949FEF7B6
:10200000D1FEFFF7ABF82B68D863E0680146FEF716
:10201000C9FE0449FEF7C6FEFFF7A0F82B68186456
:1020200070BD00BF00409C467047000010B50446DC
:102030004FF07C51FEF7B6FE01462346094CA4EB57
:1020400063042046FEF7AEFE01462046FEF7AAFED8
:1020500001464FF07F50FEF79BFD01462046FEF7FC
:10206000A1FE10BDDF59375F2DE9F04F85B0054661
:102070000C4603921E46DDF83890DDF83C800021C6
:102080001846FFF723F858B100214846FFF71EF81D
:1020900030B100214046FFF719F8002840F00081D8
:1020A00031463046FEF77EFE074649464846FEF773
:1020B00079FE01463846FEF76DFD0746414640462B
:1020C000FEF770FE01463846FEF764FDFFF7AEFFEF
:1020D000074601463046FEF765FE029039464846FF
:1020E000FEF760FE019039464046FEF75BFE8346F0
:1020F000DFF8CC92D9F80000B24F3968FEF752FEF3
:102100000646DFF8C482D8F80000DFF8C0A2DAF88B
:102110000010FEF747FE01463046FEF739FD064641
:10212000D8F80000D9F80010FEF73CFE8146DAF836
:1021300000003968FEF736FE01464846FEF72AFDE4
:102140008146D8F80000D8F80010FEF72BFE4FF0BB
:102150007C51FEF71DFD804638683968FEF722FE87
:1021600001464046FEF716FD074601460198FEF778
:1021700019FE804649465846FEF714FE0146404681
:10218000FEF706FD804631465846FEF70BFE8246B6
:102190003946DDF808B05846FEF704FE01465046C1
:1021A000FEF7F6FC074649465846FEF7FBFD81461A
:1021B00031460198FEF7F6FD01464846FEF7E8FC79
:1021C0000646834B18680021FEF7A8FF002800F0A0
:1021D0003C81DFF8FC91D9F800004146FEF7E2FDB2
:1021E0007C49FEF7DFFD0146DFF8ECB1DBF80000CB
:1021F000FEF7D0FCCBF80000D9F800003946FEF716
:10220000D1FD7449FEF7CEFD0146DFF8D0A1DAF822
:102210000000FEF7BFFCCAF80000D9F80000314604
:10222000FEF7C0FD6B49FEF7BDFD0146DFF8B0913A
:10223000D9F80000FEF7AEFCC9F80000DBF800108A
:102240002846FEF7A7FC0546DAF800102046FEF700
:10225000A1FC0446D9F800100398FEF79BFC0390FC
:10226000DFF88091D9F800004146FEF79BFD01465A
:102270002846FEF78FFC0546D9F800003946FEF7E0
:1022800091FD01462046FEF785FC0446D9F8000082
:102290003146FEF787FD01460398FEF77BFC03906D
:1022A00051492846FEF77EFD01904F492046FEF732
:1022B00079FD02904C490398FEF774FD8046424F29
:1022C000D7F800B03E4ED6F800A0404DD5F80090AB
:1022D0000AF100400199FEF765FD0446494602985F
:1022E000FEF760FD01462046FEF752FC0390354C98
:1022F00020684146FEF756FD01460398FEF748FC6C
:1023000001463868FEF746FC386059460198FEF7EA
:1023100049FD039049464046FEF744FD01460398B7
:10232000FEF738FC039020680299FEF73BFD01465A
:102330000398FEF72DFC01463068FEF72BFC306059
:1023400059460298FEF72EFD039051464046FEF78F
:1023500029FD01460398FEF71BFC039020680199B4
:10236000FEF720FD01460398FEF714FC014628689D
:10237000FEF710FC286059464046FEF713FD8046E4
:1023800051460298FEF70EFD01464046FEF702FC5C
:10239000804649460198FEF705FD01464046FEF796
:1023A000F7FB2168FEF7F6FB206038683968FEF716
:1023B000F9FC804630683168FEF7F4FC014615E010
:1023C0004C07002044070020080000204807002098
:1023D0000C0000200AD7233C400700203C070020C7
:1023E00038070020100000200AD7A33B4046FEF724
:1023F000D1FB804628682968FEF7D4FC0146404698
:10240000FEF7C8FB804620682168FEF7CBFC01463A
:102410004046FEF7BFFBFFF709FE8046386841469D
:10242000FEF7C0FC386030684146FEF7BBFC306008
:1024300028684146FEF7B6FC286020684146FEF752
:10244000B1FC206005B0BDE8F08F0023034A1360A3
:10245000034A1360034A136002E700BF40070020ED
:102460003C070020380700202DE9F04F91B0029082
:10247000039104921C461A9FDDF86CA01C9EDDF8A7
:102480007490DDF8788000213046FEF71FFE58B1C9
:1024900000214846FEF71AFE30B100214046FEF703
:1024A00015FE002840F0C78200212046FEF70EFEF0
:1024B00058B100213846FEF709FE30B100215046E0
:1024C000FEF704FE002840F0F78121462046FEF783
:1024D00069FC054639463846FEF764FC0146284645
:1024E000FEF758FB054651465046FEF75BFC014699
:1024F0002846FEF74FFB05F0FFF901464FF07E50EE
:10250000FEF704FD054601462046FEF74BFC099008
:1025100029463846FEF746FC0A9029465046FEF703
:1025200041FC0B9031463046FEF73CFC04464946E0
:102530004846FEF737FC01462046FEF72BFB0446D3
:1025400041464046FEF72EFC01462046FEF722FBA0
:1025500005F0D2F901464FF07E50FEF7D7FC044655
:1025600001463046FEF71EFC834621464846FEF7EC
:1025700019FC824621464046FEF714FC0546AA4C4B
:1025800020682168FEF70EFC0C902068A74E316889
:10259000FEF708FC06902068A54F3968FEF702FC9C
:1025A00007902068A34C2168FEF7FCFB804630684A
:1025B0003168FEF7F7FB0D9030683968FEF7F2FBE3
:1025C000089030682168FEF7EDFB064638683968E8
:1025D000FEF7E8FB814638682168FEF7E3FB074613
:1025E00020682168FEF7DEFB044649464FF07C5028
:1025F000FEF7CEFA2146FEF7CBFA0E90CDF814B0D6
:102600005946FEF7CFFB834641460898FEF7C0FACD
:102610000F905146FEF7C6FB01465846FEF7BAFA40
:10262000834631460798FEF7B5FA2946FEF7BAFB0E
:1026300001465846FEF7AEFA0146FEF7ABFA83466E
:1026400008994046FEF7A6FA0599FEF7ABFB8046CF
:102650000D994FF07C50FEF79BFA08902146FEF74B
:1026600097FA5146FEF79EFB01464046FEF792FA66
:10267000804606993846FEF78BFA2946FEF792FB0C
:1026800001464046FEF786FA0146FEF783FA804689
:1026900059465846FEF786FB834641464046FEF7BC
:1026A00081FB01465846FEF775FA05F025F980468C
:1026B00007993046FEF76CFA06460599FEF772FB5D
:1026C000834639460698FEF765FA07465146FEF7F7
:1026D00069FB01465846FEF75DFA8346494608986D
:1026E000FEF756FA2946FEF75DFB01465846FEF70F
:1026F00051FA0146FEF74EFA05464FF07C510C9810
:10270000FEF746FA2146FEF745FA044641460E9882
:10271000FEF748FB814629463046FEF743FB01465B
:102720004846FEF737FA814641460F98FEF73AFBD6
:10273000804629463846FEF735FB01464046FEF7FF
:1027400029FA054621460A98FEF72CFB8046DDF85B
:102750002CB059463846FEF725FB01464046FEF7A9
:1027600017FA3549FEF71EFB074659463046FEF775
:1027700019FB064621460998FEF714FB0146304630
:10278000FEF706FA2C49FEF70DFB0446294605988C
:10279000FEF708FB054649465046FEF703FB014697
:1027A0002846FEF7F5F92449FEF7FCFA0546234BC7
:1027B0001F60234B1C60234B1860234B18680021BB
:1027C000FEF7ACFC002800F040811F4E306839460F
:1027D000FEF7E8FA1D49FEF7E5FA0146DFF87090CA
:1027E000D9F80000FEF7D6F9C9F800003068214694
:1027F000FEF7D8FA1549FEF7D5FA0146DFF85480FE
:10280000D8F80000FEF7C6F9C8F80000306829467D
:10281000FEF7C8FA0D49FEF7C5FA01460E4E3068BC
:10282000FEF7B8F91AE000BF080000204C070020AE
:102830004807002044070020000020403407002003
:10284000300700202C0700200C0000200AD7233C72
:10285000400700203C070020380700203060D9F8EE
:1028600000100298FEF796F90290D8F8001003982D
:10287000FEF790F9039031680498FEF78BF9049005
:10288000764E30683946FEF78DFA01460298FEF71B
:1028900081F9029030682146FEF784FA01460398D8
:1028A000FEF778F9039030682946FEF77BFA014677
:1028B0000498FEF76FF9049069490298FEF772FADE
:1028C000044667490398FEF76DFA0290644904983C
:1028D000FEF768FA8046634FD7F800B0624ED6F82C
:1028E00000A0624DD5F800900AF100400394214603
:1028F000FEF758FA044649460298FEF753FA014695
:102900002046FEF745F90490594C20684146FEF7F1
:1029100049FA01460498FEF73BF901463868FEF78C
:1029200039F9386059460398FEF73CFA0490494655
:102930004046FEF737FA01460498FEF72BF904905B
:1029400020680299FEF72EFA01460498FEF720F956
:1029500001463068FEF71EF9306059460298FEF7CE
:1029600021FA049051464046FEF71CFA01460498AD
:10297000FEF70EF9049020680399FEF713FA01465A
:102980000498FEF707F901462868FEF703F9286066
:1029900059464046FEF706FA804651460298FEF731
:1029A00001FA01464046FEF7F5F88046494603988D
:1029B000FEF7F8F901464046FEF7EAF82168FEF70F
:1029C000E9F8206038683968FEF7ECF9804630682D
:1029D0003168FEF7E7F901464046FEF7DBF880462E
:1029E00028682968FEF7DEF901464046FEF7D2F86E
:1029F000804620682168FEF7D5F901464046FEF77B
:102A0000C9F8FFF713FB804638684146FEF7CAF95C
:102A1000386030684146FEF7C5F9306028684146A5
:102A2000FEF7C0F9286020684146FEF7BBF9206038
:102A300011B0BDE8F08FCDF804A000972346049AAA
:102A400003990298FFF710FBF2E70023094A13608D
:102A5000094A1360094A136012E700BF1000002002
:102A60000AD7A33B080000204C070020480700209D
:102A700044070020400700203C07002038070020C2
:102A80002DE9F0418CB000240794089409940A942D
:102A90000B9401944E4B1A6B42F080021A631A6B2E
:102AA00002F080020192019A02941A6B42F0010234
:102AB0001A631A6B02F001020292029A03941A6BD3
:102AC00042F002021A631A6B02F002020392039AA6
:102AD00004941A6B42F004021A631A6B02F00402A7
:102AE0000492049A05941A6B42F008021A631A6B56
:102AF00002F008020592059A06941A6B42F0100241
:102B00001A631B6B03F010030693069B314F22469A
:102B10003021384602F0BAFCDFF8BC8022464FF480
:102B2000F941404602F0B2FC032607960894099446
:102B300007A9384602F0B0FB30230793012508951A
:102B400009940A9407A9384602F0A6FB4FF4F9430A
:102B50000793089509940A9407A9404602F09CFB44
:102B60004FF40043079309944FF4881308930A968F
:102B700007F5006707A9384602F08EFB022307938A
:102B800008960994A8F5006807A9404602F084FB5E
:102B900048F20C030793089509940A960B9507A928
:102BA0000E4802F079FB0823079307A9404602F07C
:102BB00073FB4FF4D4430793089509940A960B9539
:102BC00007A9384602F068FB0CB0BDE8F08100BFF1
:102BD0000038024000080240000C024000000240A1
:102BE00008B50020034602460146FFF71DFAFFF72D
:102BF000B9F908BD30B585B0314B324A1A60324B55
:102C0000324A1A60324B334A1A6000240094324B25
:102C10005A6C42F001025A645A6C02F001020092AE
:102C2000009A01941A6C42F001021A641A6C02F0C4
:102C300001020192019A02941A6C42F010021A6485
:102C40001A6C02F010020292029A03941A6C42F07B
:102C500020021A641B6C03F020030393039B1F499B
:102C6000CA6822F4E0621204120C1D4B1343CB60BD
:102C700002222146362002F071FA362002F0A0FA34
:102C8000184D2A68D36843F03603D360362002F02B
:102C900075FA284603F0F6FD22462146282002F068
:102CA0005DFA114B4FF480725A60224601211220C6
:102CB00002F054FA122002F061FA05B030BD00BFF4
:102CC000F8070020C8080020F4070020280A002088
:102CD000F0070020840800200038024000ED00E0EA
:102CE0000002FA059809002000E100E0835C01324F
:102CF000002BFBD1D0B270474FF07E510160002213
:102D0000426082604FF0804CC0F80CC0DFF828C0F1
:102D1000C0F810C0416100218161C161016280F889
:102D2000241080F825108262C262026342638263CB
:102D3000C2630264426470470000204110B504463B
:102D4000FFF7DAFF04F14800FFF7D6FF04F1900027
:102D5000FFF7D2FF04F1D800FFF7CEFF04F5907023
:102D6000FFF7CAFF04F5B470FFF7C6FF002384F82D
:102D7000E0310F2384F8E131204610BD08B50A4642
:102D8000002306E010F803C04CF0800C00F803C0EC
:102D900001339A42F6DC4FF4FA730146014804F01D
:102DA0001CFB08BDC808002008B50A46002306E041
:102DB00010F803C04CF0800C00F803C0013302F19E
:102DC000FF3C9C45F4DCFF2383544FF4FA73014627
:102DD000014804F002FB08BDC808002008B50368DC
:102DE000254A934215D0254A934217D0244A93424C
:102DF00019D001222349244804F03FFD0122234930
:102E0000234804F03AFD01222249234804F035FD0D
:102E100008BD2021214802F03FFBEAE701211B48C1
:102E2000FFF7ACFFE5E71E4A13780133DBB21370FE
:102E30001378DBB2012B08D0194B1B78DBB2022BC5
:102E40000BD0174B00221A70D3E7164A00231380C9
:102E5000104B1B78DBB21380CBE7114B00221A70AA
:102E600010490B889BB21B029BB20A4A127813448A
:102E70009BB20B80BDE700BF004400400010014042
:102E800000480040D0070020C8080020B0070020FC
:102E9000840800209007002040080020000802401D
:102EA000520700205007002072B6FEE700B587B039
:102EB00000230093204A516C41F480715164516C9D
:102EC00001F48071009100990193516C41F40071FB
:102ED0005164526C02F400720192019A02930393BE
:102EE000049305931548164A0260436083600361AA
:102EF0000122027680F82030C36212498162C360E9
:102F0000C26180F83030426101F09AFE80B9092335
:102F10000293012303930023049302A9074802F0BC
:102F20000BF838B9054801F0B7FE07B05DF804FBAF
:102F3000FFF7BAFFFFF7B8FF00380240C80B0020C8
:102F4000002001400100000F70B588B000250195F8
:102F5000224C236B43F002032363236B03F0020331
:102F60000193019B0295236C43F400132364236CAB
:102F700003F400130293029B402303931223049350
:102F800005950323069304230793154E03A93046A2
:102F900002F082F98023039303A9304602F07CF902
:102FA000236A43F400132362236A23F40013236289
:102FB0000C480D4B03600D4B43608560C5604FF4BA
:102FC0008043036145618561C561056202F0BAFC19
:102FD00008B908B070BDFFF767FF00BF00380240B6
:102FE00000040240740B002000540040801A0600C8
:102FF00070B588B000250195234C236B43F0020384
:103000002363236B03F002030193019B0295236C5E
:1030100043F480032364236C03F480030293029B34
:103020004FF400630393122304930595032306933F
:1030300004230793154E03A9304602F02DF94FF4EF
:103040008063039303A9304602F026F9236A43F410
:1030500080032362236A23F4800323620C480D4B10
:1030600003600D4B43608560C5604FF4804303618E
:1030700045618561C561056202F064FC08B908B06C
:1030800070BDFFF711FF00BF00380240000402408E
:10309000200B002000580040801A060008B50D489B
:1030A0000D4B03604FF48273436000238360C36061
:1030B000036143614FF400728261C3610362436242
:1030C00083620A23C36203F065FA00B908BDFFF703
:1030D000EBFE00BFC80A00200030014008B50D48D3
:1030E0000D4B03604FF48273436000238360C36021
:1030F000036143614FF400728261C3610362436202
:1031000083620A23C36203F045FA00B908BDFFF7E2
:10311000CBFE00BF700A00200038004010B596B00A
:1031200000241294139414941594109411940994F7
:103130000A940B940C940D940E940F942022214623
:1031400001A806F0B9F83D483D4B03600F234360EA
:10315000846044F61F63C36004614461846103F0CA
:10316000FDFC002855D14FF48053129312A9334827
:1031700003F059FE00284ED1304803F047FD0028E7
:103180004BD12E4803F016FD002848D100231093A0
:10319000119310A9294803F057FF002841D160235B
:1031A000099342F210730A9300220B920C920D9233
:1031B0000E920F9209A9214803F0BBFD002832D1DD
:1031C00000230993042209A91C4803F083FD60BB76
:1031D000082209A9194803F07DFD40BB0C2209A96A
:1031E000164803F077FD20BB00230193029303935D
:1031F0000A22049205934FF400520692089301A903
:103200000E4803F067FFB0B90C4801F0A1F916B001
:1032100010BDFFF749FEFFF747FEFFF745FEFFF73A
:1032200043FEFFF741FEFFF73FFEFFF73DFEFFF7CE
:103230003BFEFFF739FEFFF737FE00BF280A0020EC
:103240000000014010B58EB0002300933B4A116C82
:1032500041F001011164126C02F001020092009A27
:103260000A930B930C930D93089309930193029384
:103270000393049305930693079331484FF08042DC
:1032800002600F224260836044F61F62C2600361E5
:10329000836103F063FC00283FD14FF480530A930D
:1032A0000AA9274803F0BFFD002838D1244803F0BD
:1032B000ADFC002835D100230893099308A92048C4
:1032C00003F0C2FE78BB6023019342F210730293B5
:1032D00000220392059201A9194803F02AFD20BBA0
:1032E00004220DEB0201164803F023FDF8B9082271
:1032F00001A9134803F01DFDD8B90C2201A91048FB
:1033000003F017FDB8B90E4C3C21204603F01AFE1D
:10331000204601F01DF90EB010BDFFF7C5FDFFF707
:10332000C3FDFFF7C1FDFFF7BFFDFFF7BDFDFFF7D1
:10333000BBFDFFF7B9FDFFF7B7FD00BF0038024046
:10334000E009002008B50A480A4B03604FF4E13356
:10335000436000238360C36003610C224261836188
:10336000C36104F00BF800B908BDFFF79DFD00BF75
:103370000C090020004C004000B583B000230093EE
:10338000144A116B41F001011163116B01F001014D
:10339000009100990193516C41F010015164526CFD
:1033A00002F010020192019A0B480C4A02604FF49D
:1033B000E13242608360C36003610C224261836139
:1033C000C36103F0DBFF10B903B05DF804FBFFF746
:1033D0006BFD00BF00380240C8080020001001400B
:1033E00000B583B000230093144A116C41F40031FE
:1033F0001164116C01F40031009100990193116B7B
:1034000041F008011163126B02F008020192019A67
:103410000B480C4A02604FF4E13242608360C360A3
:1034200003610C2242618361C36103F0A7FF10B9FD
:1034300003B05DF804FBFFF737FD00BF0038024022
:10344000840800200044004000B583B000230093AE
:10345000144A116C41F480211164116C01F4802133
:10346000009100990193116B41F008011163126BF7
:1034700002F008020192019A0B480C4A02604FF4D4
:10348000E13242608360C36003610C224261836168
:10349000C36103F073FF10B903B05DF804FBFFF7DD
:1034A00003FD00BF003802404008002000480040F3
:1034B00008B50A480A4B03604FF4E1334360002328
:1034C0008360C36003610C2242618361C36103F0C6
:1034D00055FF00B908BDFFF7E7FC00BFFC0700205F
:1034E0000014014000B583B00023009301930E48FF
:1034F0000E4A026040F23F62426083606422C26012
:10350000836103F02BFB50B90023009301936946BC
:10351000054803F099FD20B903B05DF804FBFFF7FF
:10352000C3FCFFF7C1FC00BF980900200010004059
:1035300010B582B00023009301931148114A026034
:1035400010224260836041F28832C260836103F0DE
:1035500005FB80B90023009301936946084803F0F6
:1035600073FD50B9064C204603F078F92368002219
:103570005A6202B010BDFFF797FCFFF795FC00BF41
:10358000500900200014004000B595B03022002101
:1035900008A805F091FE0023039304930593069376
:1035A000079301931C4A116C41F080511164126C15
:1035B00002F080520192019A0293184A116841F474
:1035C00080411160126802F480420292029A022243
:1035D000089201210B9110210C910E920F931091E2
:1035E000C023119312920423139308A802F0ACFC99
:1035F00068B90F2303930021049105910691079167
:1036000003A802F0F1FE20B915B05DF804FBFFF746
:103610004BFCFFF749FC00BF00380240007000403F
:103620002DE9F04FADF56D7D01F044FAFFF7ACFFE9
:10363000FFF726FAFFF73AFCFFF786FCFFF7D8FC06
:10364000FFF72CFDFFF74AFDFFF768FDFFF7FAFDD6
:10365000FFF778FEFFF790FEFFF7C2FEFFF7F4FEDC
:10366000FFF726FFFFF73EFFFFF762FFFFF7B8FA0D
:10367000FFF7C0FA5E4C2046FEF7BCF801225D4918
:10368000204604F0FAF801225B495C4804F0F5F8A2
:1036900001225B495B4804F0F0F85B4C01221021E9
:1036A000204601F0F3FE01222021204601F0EEFE2B
:1036B000564D284600F094FD554C204600F0CDFBB9
:1036C000204600F0A5FD204600F0AAFD00231A4682
:1036D0002946204600F03CFC00F044FC0024E8941D
:1036E000E994EA94EB946FA8FFF728FB4822494934
:1036F0005DA8FDF749FE5794589459945A945B94E9
:103700005C9451AB51945294539454945594569460
:1037100003936CAB029369AB019366AB009363AB0D
:1037200060AA5DA96FA8FEF76BF84D944E944F9474
:1037300050944794489449944A944B944C94364BF3
:103740001B680023369337933893012305E0334AEF
:1037500041F2883142F823100133092BF7DD2F4B5A
:103760001A6841F288339A42F9D02C4B5A6841F2D8
:1037700088339A42F3D0294B9A6841F288339A42AF
:10378000EDD0264BDA6841F288339A42E7D0234BDA
:103790001A6941F288339A42E1D0204B5A6941F2CA
:1037A00088339A42DBD01D4B9A6941F288339A42A2
:1037B000D5D01A4BDA6941F288339A42CFD0174BF1
:1037C0001A6A41F288339A42C9D0144B5A6A41F2BC
:1037D00088339A42C3D0642313B30F4A1268002A75
:1037E000FAD0013B9BB20C4A00211160F4E700BF04
:1037F000C8080020D0070020B0070020840800205F
:10380000900700204008002000080240200B002004
:10381000740B0020C0F300088C0700201400002067
:103820000B219348FDF7D4FF4FF00008914B1B6824
:10383000002BFBD08F4B1A6800221A6008F1010898
:103840003EA944A800F0D4FC39A93CA800F0E4FC4F
:10385000894800F0E9FC002302930193009339AA00
:1038600041A93EA800F002FC399B3A9A3B99049189
:1038700002F10042039203F100430293409B019343
:103880003F9B00933E9B439A42994198FEF7ECFD83
:103890007A4B1F68E8977A4B1D68E995794B1E684B
:1038A000EA96794B1C68EB9431463846FDF77AFA74
:1038B000814621462846FDF775FA01464846FDF740
:1038C00067F90146FDF766F903F0F4FF82462946E1
:1038D0003846FDF767FA814621463046FDF762FA21
:1038E00001464846FDF756F90146FDF753F9814672
:1038F00029462846FDF756FA0F9031463046FDF727
:1039000051FA834601460F98FDF744F90146FDF749
:1039100041F901464FF07E50FDF73AF9014648461D
:10392000FDF7F4FA04F004F8814621463846FDF725
:1039300039FA074631462846FDF734FA014638463B
:10394000FDF728F90146FDF725F9054621462046F1
:10395000FDF728FA01465846FDF71CF90146FDF728
:1039600019F901464FF07E50FDF712F9014628463D
:1039700003F0C0FFCDF868A1CDF86C915C9057A919
:103980006FA8FDF7FBFF414C21463948FDF7AAFE21
:1039900051A92046FEF70CFA51A96FA8FDF78CFF3C
:1039A0006FA8FEF7F9F947AA4DA96FA8FEF700F82E
:1039B000374A38494DA8FEF7D7FAB8F1040F7FF718
:1039C00035AF1021344801F067FD0021109192229B
:1039D00011A805F071FCDDF824A14A9FDDF82C81C7
:1039E000DDF83091539C2D495498FDF7DBF90F9089
:1039F0002A495598FDF7D6F9054628495698FDF706
:103A0000D1F906465046FCF73FFD82468B463046CC
:103A1000FCF73AFDCDE90C012846FCF735FDCDE970
:103A20000A010F98FCF730FDCDE908012046FCF7AC
:103A30002BFDCDE906014846FCF726FDCDE9040142
:103A40004046FCF721FDCDE902013846FCF71CFD9C
:103A5000CDE9000152465B46114910A805F0C4FBB0
:103A600010A8FFF743F9014610A8FFF79DF9DBE620
:103A7000140000208C0700204008002008000020CF
:103A80004C0700204807002044070020540700206E
:103A9000E0090020280A002000080240E12E6542CB
:103AA00044F400082DE9F04184B006464FF00008C8
:103AB00088F800804FF47A77029701240194CDF8BA
:103AC000008023461922D02102F01AF888F80080DD
:103AD00002970194CDF8008023461A22D021304667
:103AE00002F00EF8E02388F8003002970194CDF838
:103AF000008023461C22D021304602F001F8F0233A
:103B000088F8003002970194CDF8008023461B22EC
:103B1000D021304601F0F4FF88F80080029701942C
:103B2000CDF8008023466B22D021304601F0E8FF1B
:103B300004B0BDE8F081F0B585B006460D464FF4FF
:103B40007A77029701240194009123463C22D021E8
:103B500002F088F8029701942B19009323463B2228
:103B6000D021304602F07EF802970194AB1C0093FE
:103B700023463E22D021304602F074F80297019489
:103B8000EB1C009323463D22D021304602F06AF818
:103B9000029701942B1D009323464022D0213046EA
:103BA00002F060F8029701946B1D009323463F22B8
:103BB000D021304602F056F802970194AB1D0093D5
:103BC00023464422D021304602F04CF8029701945B
:103BD000EB1D009323464322D021304602F042F8E9
:103BE0000297019405F10803009323464622D02151
:103BF000304602F037F80297019405F1090300936B
:103C000023464522D021304602F02CF80297019439
:103C100005F10A03009323464822D021304602F0E2
:103C200021F8029701940B35009523464722D021B5
:103C3000304602F017F805B0F0BD2DE9F04387B02B
:103C40000D464278ADF80C20037803EB02239AB2BC
:103C5000ADF80C20C178ADF80E10837803EB01238A
:103C60001FFA83F9ADF80E904179ADF81010037981
:103C700003EB01231FFA83F8ADF81080C179ADF88A
:103C80001210837903EB01239FB2ADF81270417AD1
:103C9000ADF81410037A03EB01239BB2ADF8143096
:103CA000C17AADF81610847A04EB0124A4B2ADF801
:103CB000164010B2ADF800000FFA89F9ADF8029085
:103CC0000FFA88F8ADF804803FB2ADF806701EB266
:103CD000ADF8086024B2ADF80A40FDF70FF828608F
:103CE0004846FDF70BF868604046FDF707F8A86006
:103CF0003846FDF703F8E8603046FCF7FFFF28611F
:103D00002046FCF7FBFF686107B0BDE8F0830000C8
:103D1000F0B587B038238DF81730144D28604FF474
:103D2000FA770297012401940DF1170600962346B5
:103D300000223C2101F0E4FE20238DF81730029789
:103D400001940096234622463C21286801F0D8FEC3
:103D500000238DF817300297019400962346022223
:103D60003C21286801F0CCFE07B0F0BD100C00200B
:103D7000F0B585B00546204E4FF4FA77029701243E
:103D800001940090234603223D21306801F06AFF30
:103D9000029701942B190093234604223D21306899
:103DA00001F060FF02970194AB1C009323460522AB
:103DB0003D21306801F056FF02970194EB1C0093FF
:103DC000234606223D21306801F04CFF0297019402
:103DD0002B1D0093234607223D21306801F042FF4E
:103DE0000297019405350095234608223D2130684D
:103DF00001F038FF05B0F0BD100C002070B582B0A6
:103E000004460E46FFF7B4FF2378ADF80030607823
:103E100000EB032080B2ADF80000A378ADF80230CB
:103E2000E57805EB0325ADB2ADF802502379ADF886
:103E30000430647904EB0324A4B2ADF8044000B26A
:103E4000FCF75CFF306028B2FCF758FF706020B2CE
:103E5000FCF754FFB06002B070BDF0B587B0054606
:103E600001248DF817404FF47A77029701940DF1F1
:103E700017060096234610221C2101F041FE002364
:103E80008DF8173002970194009623460A221C21D0
:103E9000284601F035FE02970194009623460B2236
:103EA0001C21284601F02CFE02970194009623461F
:103EB0000C221C21284601F023FE02970194009653
:103EC00023460D221C21284601F01AFE0297019478
:103ED000009623460E221C21284601F011FE02976F
:103EE0000194009623460F221C21284601F008FE6B
:103EF00007B0F0BD00B587B0144B186000238DF8F3
:103F000017304FF4FA730293012301930DF1170256
:103F10000092D022EF2101F0A5FE9DF81730552B1D
:103F200002D007B05DF804FB2E238DF817304FF454
:103F3000FA730293012301930DF117020092F42208
:103F4000EE210248006801F0DBFDEAE7140C0020D6
:103F5000024B1860024B1960704700BF1C0C002018
:103F6000180C002010B590B0214C0DF1280CA6467D
:103F7000BEE80F00ACE80F009EE803008CE80300E9
:103F80001C4B1D4A1A601D4A5A601D4A9A601D4A00
:103F9000DA601D4A1A614FF042425A610DF11C0C61
:103FA00004F1180207CA8CE80700184A9A61184AF7
:103FB000DA61184A1A620DF1100C04F1240207CAE2
:103FC0008CE80700144A9A621449D9621A63144AA9
:103FD0009A650DF1040C303494E807008CE8070072
:103FE000104ADA64104A1A65104A5A6510B010BDBA
:103FF00008F40008200C0020008009440080BB4425
:10400000004035C59A9981C2000093430000704179
:1040100000C0EE430000DBC282A8FB38F7CC1239A7
:10402000000030430080B6430000D34200C0C343C9
:1040300010B504464FF07C51FCF7B4FE0146234610
:10404000094CA4EB63042046FCF7ACFE0146204675
:10405000FCF7A8FE01464FF07F50FCF799FD0146A2
:104060002046FCF79FFE10BDDF59375F2DE9F84F62
:1040700006460F461546584C21680068FCF788FD37
:104080005649FCF743FF8246306061687068FCF770
:104090007FFD5249FCF73AFF81467060A168B06825
:1040A000FCF776FD4D49FCF731FF8046B060514684
:1040B0005046FCF777FE834649464846FCF772FEB9
:1040C00001465846FCF766FD834641464046FCF7EC
:1040D00069FE01465846FCF75DFD01464FF07E50F3
:1040E000FCF714FF83460146A06DFCF75BFE01461A
:1040F0005046FCF757FE30605946A06DFCF752FE63
:1041000001464846FCF74EFE70605946A06DFCF72C
:1041100049FE01464046FCF745FEB060E16838685C
:10412000FCF736FDA16AFCF73DFE3860216978682E
:10413000FCF72EFDE16AFCF735FE78606169B8682E
:10414000FCF726FD216BFCF72DFEB860A1692868FD
:10415000FCF71EFDE16CFCF7D9FE07462860E1691B
:104160006868FCF715FD216DFCF7D0FE0646686017
:10417000216AA868FCF70CFD616DFCF7C7FE0446D8
:10418000A86039463846FCF70DFE80463146304679
:10419000FCF708FE01464046FCF7FCFC8046214641
:1041A0002046FCF7FFFD01464046FCF7F3FCFFF715
:1041B0003FFF804601463846FCF7F4FD2860414643
:1041C0003046FCF7EFFD686041462046FCF7EAFD0B
:1041D000A860BDE8F88F00BF200C00200000C84296
:1041E00008B5024B1860FFF75DFC08BD7C0C002091
:1041F00038B504460D460C220146044B1868FFF7FB
:104200009AFC29462046FFF718FD38BD7C0C00209B
:1042100008B5FFF77DFD08BD08B5FFF7EFFD08BD48
:1042200008B5FFF767FE08BD00B583B055238DF8CC
:1042300007304FF4FA7301220DF1070103F0CDF8B6
:1042400003B05DF804FB000082B0002100910B4B2D
:104250005A6C42F480425A645A6C02F480420092D2
:10426000009A01911A6C42F080521A641B6C03F0A0
:1042700080530193019B02B0704700BF0038024099
:1042800000B589B000230393049305930693079325
:10429000026803F1804303F590339A4202D009B0DB
:1042A0005DF804FB0021019103F58C335A6C42F454
:1042B00080725A645A6C02F480720192019A0291DF
:1042C0001A6B42F002021A631B6B03F002030293A3
:1042D000029B022303930323049303A9014800F0E4
:1042E000DBFFDCE70004024030B58BB00023059310
:1042F00006930793089309930368274A934204D0CF
:10430000264A934224D00BB030BD00250195244CA1
:10431000236B43F002032363236B03F00203019337
:10432000019BC023059312230693032308930423C0
:10433000099305A91B4800F0AFFF0295236C43F4D5
:1043400000132364236C03F400130293029BDAE747
:1043500000250395124C236B43F002032363236B68
:1043600003F002030393039B4FF44063059312236E
:104370000693032308930423099305A9094800F031
:104380008BFF0495236C43F480032364236C03F4B4
:1043900080030493049BB6E700540040005800409B
:1043A0000038024000040240F0B58BB000230593B2
:1043B00006930793089309930368314A934204D004
:1043C000304A934224D00BB0F0BD002100912E4B17
:1043D0005A6C42F480525A645A6C02F48052009231
:1043E000009A01911A6B42F001021A631B6B03F0F1
:1043F00001030193019BE02305930223069303230A
:1044000008930523099305A9204800F045FFDAE742
:10441000002402941C4B1A6C42F480421A641A6CF9
:1044200002F480420292029A03941A6B42F0040250
:104430001A631A6B02F004020392039A04941A6B33
:1044400042F002021A631B6B03F002030493049B05
:104450000C23059302270697032608960525099540
:1044600005A90B4800F018FF4FF400530593069779
:1044700007940896099505A9064800F00DFFA2E7E4
:104480000030014000380040003802400000024087
:10449000000802400004024000B585B00368284AC5
:1044A00093420BD0B3F1804F15D0264A93421FD0D0
:1044B000254A934230D005B05DF804FB00230093F9
:1044C000224B5A6C42F001025A645B6C03F0010308
:1044D0000093009BEFE7002301931C4B1A6C42F002
:1044E00001021A641B6C03F001030193019BE2E7D4
:1044F00000210291154B1A6C42F010021A641B6CD9
:1045000003F010030293029B0A46362000F026FEB9
:10451000362000F033FECEE7002103910B4B1A6CDE
:1045200042F020021A641B6C03F020030393039BE8
:104530000A46372000F012FE372000F01FFEBAE7CF
:10454000000001400010004000140040003802400C
:1045500070B588B0002303930493059306930793E3
:104560000368264A934204D0B3F1804F19D008B0B3
:1045700070BD00230093224B1A6B42F010021A63A5
:104580001B6B03F010030093009B4FF4D443039381
:10459000022304930123079303A91A4800F07CFE29
:1045A000E5E70024019403F50E331A6B42F0010293
:1045B0001A631A6B02F001020192019A02941A6BBB
:1045C00042F002021A631B6B03F002030293029B88
:1045D00048F20C030393022604960125079503A9CC
:1045E000094800F059FE08230393049605940694A5
:1045F000079503A9054800F04FFEB8E70000014009
:104600000038024000100240000002400004024056
:1046100010B590B000230B930C930D930E930F9352
:104620000368754A93420FD0744A934236D0744A55
:1046300093425FD0734A934200F08780724A93425C
:1046400000F0AF8010B010BD002401946F4B1A6CC5
:1046500042F400221A641A6C02F400220192019AB8
:1046600002941A6B42F001021A631B6B03F0010300
:104670000293029B03230B9302220C920E930823B6
:104680000F930BA9624800F007FE22462146342012
:1046900000F064FD342000F071FDD3E700240394A2
:1046A0005A4B5A6C42F010025A645A6C02F01002D3
:1046B0000392039A04941A6B42F001021A631B6B73
:1046C00003F001030493049B4FF4C0630B93022394
:1046D0000C9303230E9307230F930BA94C4800F070
:1046E000DBFD22462146252000F038FD252000F084
:1046F00045FDA7E700240594444B1A6C42F40032B0
:104700001A641A6C02F400320592059A06941A6B28
:1047100042F008021A631B6B03F008030693069B22
:1047200060230B9302230C9303230E9307230F9311
:104730000BA9384800F0B0FD22462146262000F0A3
:104740000DFD262000F01AFD7CE7002407942F4B76
:104750001A6C42F480221A641A6C02F480220792C6
:10476000079A08941A6B42F008021A631B6B03F055
:1047700008030893089B4FF440730B9302230C9398
:1047800003230E9307230F930BA9224800F084FD07
:1047900022462146272000F0E1FC272000F0EEFC15
:1047A00050E700240994194B5A6C42F020025A64D5
:1047B0005A6C02F020020992099A0A941A6B42F08C
:1047C00004021A631B6B03F004030A930A9BC023C1
:1047D0000B9302230C9303230E9308230F930BA92F
:1047E0000D4800F059FD22462146472000F0B6FC56
:1047F000472000F0C3FC25E7004C004000100140BA
:1048000000440040004800400014014000380240CD
:1048100000000240000C024000080240FEE7FEE7F4
:10482000FEE7FEE7FEE770477047704708B500F007
:104830005BF908BD08B5024802F0C4FE08BD00BF20
:10484000C808002008B5024802F0BCFE08BD00BF41
:104850008408002008B5024802F0B4FE08BD00BF7D
:104860004008002008B5024802F0ACFE08BD00BFB9
:104870000C09002008B5054B01221A60362000F013
:104880009FFC034802F049F808BD00BF8C070020D8
:104890009809002008B5024802F03FF808BD00BFA3
:1048A0005009002008B5024802F08CFE08BD00BF88
:1048B000FC07002008B5024B186802F02EF808BD6E
:1048C000F407002038B5124C204601F0C7FF2368DA
:1048D0005D6A00225A62204601F082FF0D4803788B
:1048E0000D4A42F8235001330C4981FB032101F0AA
:1048F000FC0202EBA10251005B1ADBB203700BB9A0
:1049000001220270064B4FF400425A6138BD00BFCD
:1049100050090020800700201400002067666666AA
:10492000003C014010B5084C204600F05DFA0749F4
:104930000860074A13681844086001331360204672
:1049400000F058FA10BD00BFC80B002088070020F7
:10495000840700200120704708B504F097FD162356
:1049600003604FF0FF3008BD08B54FF0FF31FFF78F
:10497000F3FFFEE770B50C461646002506E0AFF3E0
:104980000080214601F8010B01350C46B542F6DBEB
:10499000304670BD70B50C461646002504E014F88C
:1049A000010BAFF300800135B542F8DB304670BD36
:1049B0004FF0FF3070474FF400534B6000207047BA
:1049C000012070470020704710B503460C4A0D497E
:1049D0000D48006840B10C4800680344521A9342E5
:1049E00006D8094A136010BD0748084C0460F2E776
:1049F00004F04CFD0C2303604FF0FF30F3E700BFE1
:104A00000000022000040000800C0020A00F002005
:104A100070470000DFF834D00D480E490E4A0023DD
:104A200002E0D458C4500433C4188C42F9D30B4A62
:104A30000B4C002301E013600432A242FBD3FFF7CA
:104A4000E7FF04F029FDFEF7EBFD704700000220B0
:104A5000000000200C07002070FB00080C0700205D
:104A60009C0F0020FEE7000010B504460E4B1A789C
:104A70004FF47A73B3FBF2F30C4A1068B0FBF3F017
:104A800000F08AFB68B90F2C01D901200AE000224E
:104A900021464FF0FF3000F061FB054B1C60002009
:104AA00000E0012010BD00BF4400002040000020B5
:104AB0004800002008B50B4B1A6842F400721A60D7
:104AC0001A6842F480621A601A6842F480721A60AE
:104AD000032000F031FB0F20FFF7C6FFFFF7B4FB08
:104AE000002008BD003C0240034A1168034B1B78BC
:104AF0000B441360704700BF840C0020440000206A
:104B0000014B1868704700BF840C00204A4B5A685C
:104B100022F440325A605A6841680A435A60026877
:104B2000536823F48073536002685368016943EA51
:104B3000012353600268536823F040735360026896
:104B4000536881680B4353600268936823F40063E1
:104B5000936002689368C1680B439360826A374B25
:104B60009A4257D00268936823F07063936002689A
:104B70009368816A0B4393600268936823F0405303
:104B8000936002689368C16A0B43936002689368FC
:104B900023F00203936002689368017E43EA4103B5
:104BA000936090F82030002B3FD00268536843F4A4
:104BB000006353600268536823F4604353600168E4
:104BC0004B68426A013A43EA42334B600268D36A57
:104BD00023F47003D3620168CB6AC269013A43EAE5
:104BE0000253CB620268936823F4007393600268F7
:104BF000936890F8301043EA412393600268936809
:104C000023F48063936002689368416943EA8123D7
:104C1000936070470268936823F070639360026842
:104C2000936823F040539360B0E70268536823F41D
:104C300000635360CAE700BF002301400100000F7A
:104C400038B310B50446036C43B1236C13F0100F56
:104C50000BD00120002384F83C3010BDFFF710FB7F
:104C60000023636484F83C30EFE7236C23F488531B
:104C700023F0020343F0020323642046FFF746FFBC
:104C800000206064236C23F0030343F001032364DA
:104C9000E0E701207047000082B00023019390F804
:104CA0003C30012B00F09080012380F83C300368F9
:104CB0009A6812F0010F13D19A6842F001029A60CB
:104CC000444B1B68444AA2FB03239B0C03EB4303A6
:104CD000019302E0019B013B0193019B002BF9D161
:104CE0000268936813F0010F63D0036C23F4E06350
:104CF00023F0010343F480730364536813F4806F5B
:104D000005D0036C23F4405343F480530364036CD5
:104D100013F4805F22D0436C23F006034364002326
:104D200080F83C306FF0220313600268536843F050
:104D3000806343F020035360284B5B6813F01F0F20
:104D400027D10368264A934211D002F5807293421C
:104D500007D0244A934214D0002033E00023436458
:104D6000DDE702F50072526812F01F0FF1D19A6868
:104D700012F0405F2AD19A6842F080429A60002087
:104D800020E002F58072526812F0100FEFD0002080
:104D900018E00368124A934201D0002012E09A689A
:104DA00012F0405F14D19A6842F080429A6000206D
:104DB00008E0036C43F010030364436C43F0010309
:104DC0004364002002B070470220FBE70020F9E7AF
:104DD0000020F7E74000002083DE1B430023014052
:104DE00000200140002201400368D86C70477047E2
:104DF0007047704770B5044603681E685D6816F01A
:104E0000020F2FD005F0200262B3026C12F0100FD7
:104E100003D1026C42F4007202649A6812F0405F9F
:104E200019D1227EBAB9DA6A12F4700F03D09A68E7
:104E300012F4806F0FD15A6822F020025A60236C5E
:104E400023F480732364236C13F4805F03D1236CF9
:104E500043F0010323642046FFF7C9FF23686FF086
:104E600012021A6005F0800316F0040F37D0002BF1
:104E700035D0236C13F0100F03D1236C43F400538F
:104E8000236423689A6812F4401F21D19A6B12F4AC
:104E9000401F03D09A6812F4806F19D15A6812F437
:104EA000806F15D19A6812F0405F11D1227E7AB9D5
:104EB0005A6822F080025A60236C23F480532364E2
:104EC000236C13F4807F03D1236C43F0010323642C
:104ED000204600F0FBF823686FF00C021A6005F022
:104EE000400316F0010F05D023B123681B6813F0AF
:104EF000010F06D105F0806516F0200F00D065B9CE
:104F000070BD236C43F4803323642046FFF770FFA9
:104F100023686FF001021A60ECE7636C43F0020350
:104F2000636423686FF020051D602046FFF761FF72
:104F300023681D60E4E7000030B482B000220192D3
:104F400090F83C20012A00F0B6800346012280F848
:104F50003C200A68092A40D90468E06892B202EB52
:104F600042021E3A4FF0070C0CFA02F220EA02024B
:104F7000E2601C68E0680A8802EB42021E3A8D6813
:104F800005FA02F20243E2604A68062A3CD81C682D
:104F9000606B02EB8202053A4FF01F0C0CFA02F232
:104FA00020EA020262631C68606B4A6802EB8202BC
:104FB000053AB1F800C00CFA02F2024362631868C5
:104FC0003E4A904250D018683C4A904255D000204A
:104FD00083F83C0002B030BC70470468206992B28C
:104FE00002EB42024FF0070C0CFA02F220EA020236
:104FF00022611C6820690A8802EB42028D6805FA6A
:1050000002F202432261BFE70C2A16D81D68286B02
:1050100002EB8202233A1F2404FA02F220EA02027F
:105020002A631D68286B4A6802EB8202233A0C88C7
:1050300004FA02F202432A63C1E71D68E86A02EB40
:105040008202413A1F2404FA02F220EA0202EA62D2
:105050001D68E86A4A6802EB8202413A0C8804FA49
:1050600002F20243EA62AAE70A68122AABD11448A4
:10507000426842F480024260A5E70A68103A012AB9
:10508000A5D80F48426842F4000242600A68102A1C
:105090009DD10C4A12680C49A1FB0212920C02EB42
:1050A00082025200019202E0019A013A0192019AB1
:1050B000002AF9D18BE702208CE700BF00200140D5
:1050C000002301404000002083DE1B4370470000A6
:1050D000002808DB0901C9B200F1604000F5614019
:1050E00080F80013704700F00F000901C9B2014BAE
:1050F0001954704714ED00E000B500F00700C0F14E
:10510000070CBCF1040F28BF4FF0040C031D062B45
:105110000FD9C31E4FF0FF3E0EFA0CF021EA00013A
:1051200099400EFA03FE22EA0E0241EA02005DF8FF
:1051300004FB0023EEE70000074AD36823F4E06392
:105140001B041B0C000200F4E060034343F0BF6348
:1051500043F40033D360704700ED00E010B504461F
:10516000054BD868C0F30220FFF7C6FF0146204672
:10517000FFF7AEFF10BD00BF00ED00E0002807DB29
:1051800000F01F02400901239340024A42F82030F8
:10519000704700BF00E100E00138B0F1807F0BD222
:1051A0004FF0E0235861054AF02182F823100020D7
:1051B000986107221A6170470120704700ED00E0F6
:1051C000002808DB00F01F024009012393406030F3
:1051D000014A42F82030704700E100E070B5044613
:1051E000866DFFF78DFC94F83530DBB2022B06D0CC
:1051F00080236365002384F83430012070BD0546A8
:105200002268136823F0160313602268536923F0A1
:1052100080035361236CE3B12268136823F0080311
:1052200013602268136823F00103136023681B686E
:1052300013F0010F11D0FFF763FC431B052BF5D9C9
:1052400020236365032084F83500002384F834307C
:10525000D4E7A36C002BDFD1E3E7E26D3F2393405B
:10526000B360012384F83530002084F83400C5E7AA
:1052700090F83530DBB2022B03D080234365012048
:105280007047052380F835300268136823F0010366
:10529000136000207047000000230F2B00F2EC8009
:1052A00030B583B068E085684FEA430E032404FA02
:1052B0000EF425EA0405CC6804FA0EF42C4384604D
:1052C000446824EA02044A68C2F300129A40224366
:1052D00042605FE0DC08083450F8242003F0070542
:1052E000AD004FF00F0E0EFA05FE22EA0E0E0A690F
:1052F000AA4042EA0E0240F824205FE0072200E0C4
:10530000002202FA0EF22A4302345C4D45F82420B2
:105310005B4A94686FEA0C0224EA0C05D1F804E0B9
:105320001EF4801F01D04CEA0405554CA560E468CA
:1053300002EA0405D1F804E01EF4001F01D04CEA93
:1053400004054F4CE560646802EA0405D1F804E006
:105350001EF4003F01D04CEA0405494C6560246806
:1053600022404D6815F4803F01D04CEA0402444CC1
:10537000226001330F2B7DD801229A400C6804EA89
:10538000020C32EA0404F4D14C6804F00304013C3A
:10539000012C88D94A6802F00302032A09D0C468A4
:1053A0005D000322AA4024EA02048A68AA4022433C
:1053B000C2604A6802F00302022A8BD004684FEAF6
:1053C000430E032202FA0EF224EA02044A6802F0B3
:1053D000030202FA0EF2224302604A6812F4403FCE
:1053E000C7D000220192274A546C44F4804454648C
:1053F000526C02F480420192019A9C08A51C1F4A3B
:1054000052F8255003F0030E4FEA8E0E0F2202FAD7
:105410000EF225EA02051C4A90423FF471AF02F5F4
:10542000806290421AD002F58062904218D002F554
:105430008062904216D002F58062904214D002F54C
:105440008062904212D002F58062904210D002F544
:10545000806290423FF452AF082252E7012250E7A7
:1054600002224EE703224CE704224AE7052248E7DE
:10547000062246E703B030BD704700BF0038014048
:10548000003C014000380240000002400AB1816146
:105490007047090481617047436901EA030221EA08
:1054A000030141EA02418161704703685A6912F4BD
:1054B000806F01D1002070476FF480625A61002331
:1054C0000363202280F83D2080F83E30026C42F0D9
:1054D0000402026480F83C30012070472DE9F0415D
:1054E00007460D4690461E4624E0FFF709FB069B43
:1054F000C01AB04200D8EEB900233B63202287F8DF
:105500003D2087F83E303A6C42F020023A6487F83A
:105510003C3001201EE03B689C6925EA040C1FFA20
:105520008CFCBCFA8CFC4FEA5C1CE04511D1B6F156
:10553000FF3FDAD1C5F30743012BECD13B685B6930
:1055400025EA030C1FFA8CFCBCFA8CFC4FEA5C1CAD
:10555000EBE70020BDE8F0812DE9F04105460E465D
:10556000174698463DE01A6842F400721A602B68AC
:105570006FF480625A6100232B63202285F83D205E
:1055800085F83E302A6C42F004022A6485F83C30EB
:10559000012034E0FFF7B4FAA0EB0800B84200D8CD
:1055A000FFB900232B63202285F83D2085F83E308B
:1055B0002A6C42F020022A6485F83C3001201EE06B
:1055C0002B689C6926EA0404A4B2003C18BF01249D
:1055D000A4B12B685A6912F4806FC4D1B7F1FF3FB0
:1055E000D8D1C6F30743012BEAD12B685C6926EAC0
:1055F0000404A4B2003C18BF0124E9E70020BDE880
:10560000F08170B504460D46164623685B6913F0B9
:10561000800F1CD12046FFF748FFD0B9B5F1FF3FFE
:10562000F3D0FFF76DFA801BA84201D8002DECD112
:1056300000232363202284F83D2084F83E30226C2E
:1056400042F02002226484F83C30012000E0002077
:1056500070BD0120FCE700002DE9F04385B0044651
:105660000D4691461F46DDF830800D9E036819688F
:1056700041F4807119600096434600224FF00111F9
:10568000FFF72CFF60B9236805F0FE051D61334666
:10569000424626492046FFF75FFF68B1012008E037
:1056A00023681B6813F4807F02D04FF400732364D7
:1056B000032005B0BDE8F0830023039323685A69F3
:1056C00003929B690393039B324641462046FFF7B2
:1056D00098FF30B9012F0FD123685FFA89F61E6158
:1056E000E7E7236C042B01D00120E2E7226813686E
:1056F00043F400731360F7E723684FEA19221A6135
:10570000324641462046FFF77CFF20B923685FFA06
:1057100089F61E61CDE7236C042B01D00120C8E778
:105720002268136843F400731360F7E70200010076
:105730002DE9F04784B004460D46164699460C9F65
:10574000DDF834800268136843F4806313600368F3
:10575000196841F480711960CDF800803B46002241
:105760004FF00111FFF7BAFE70B95FFA85FA2368AE
:1057700005F0FE051D6143463A4641492046FFF7C4
:10578000EBFE68B1012008E023681B6813F4807FFA
:1057900002D04FF400732364032004B0BDE8F08707
:1057A0000023039323685A6903929B690393039B25
:1057B000424639462046FFF724FF80B9B9F1010F70
:1057C00018D12368F6B21E61424639462046FFF7DB
:1057D00018FF68B3236C042B24D00120DDE7236C71
:1057E000042B01D00120D8E72268136843F400732A
:1057F0001360F7E72368320A1A61424639462046A9
:10580000FFF7FFFE18B92368F6B21E61DCE7236CD0
:10581000042B01D00120C0E72268136843F4007311
:105820001360F7E72268136843F400731360D4E74A
:105830002268136843F480731360CDF800803B4600
:1058400000224FF001112046FFF748FE68B9226898
:105850004AF00103136143463A4609492046FFF7DF
:105860007BFE002899D0012097E723681B6813F47A
:10587000807F02D04FF40073236403208DE700BFC4
:105880000200010070B504460D46164623685B69A8
:1058900013F0040F1CD12046FFF707FED0B9B5F175
:1058A000FF3FF3D0FFF72CF9801BA84201D8002D51
:1058B000ECD100232363202284F83D2084F83E307D
:1058C000226C42F02002226484F83C30012000E087
:1058D000002070BD0120FCE770B505460C46164659
:1058E0002B68596911F0400F29D1596911F0100F37
:1058F00015D1FFF705F9801BA04201D8002CEFD18C
:1059000000232B63202285F83D2085F83E302A6C49
:1059100042F020022A6485F83C30012070BD6FF00F
:1059200010025A6100232B63202285F83D2085F860
:105930003E302A6C2A6485F83C300120EEE70020D6
:10594000ECE70000002800F0CC8070B5044690F829
:105950003D30002B77D0242384F83D302268136833
:1059600023F0010313602268136843F400431360BB
:105970002268136823F40043136000F0EBFD6268B3
:105980005A4B9A4264D85A4B98428CBF0023012349
:10599000002B40F0A8805749A1FB00318B0C2568F3
:1059A0006A6822F03F0242EA91426A6021680A6A0C
:1059B00022F03F0266684D4DAE424FD8013313438B
:1059C0000B622168CA6922F44F4222F0FF02656827
:1059D000464B9D424CD8431E6D00B3FBF5F301339B
:1059E00040F6FC70034278D0C3F30B031A43CA613C
:1059F00021680B6823F0C003E269206A0243134365
:105A00000B6021688B6823F4034323F0FF032269B2
:105A1000E068024313438B602168CB6823F0FF03E7
:105A20006269A06902431343CB602268136843F0A4
:105A30000103136000202064202384F83D3020639C
:105A400084F83E0070BD80F83C30FEF74DFC82E7E4
:105A5000294B98428CBF0023012399E74FF4967598
:105A600005FB03F3254DA5FB03539B090133A6E773
:105A7000A668BEB9431E05EB450CB3FBFCF301332E
:105A8000C3F30B03B3FA83F35B0943BBC6B9431EED
:105A900005EB4505B3FBF5F30133C3F30B0343F407
:105AA0000043A3E7431E05EB850C0CEB8C0CB3FB0A
:105AB000FCF30133C3F30B03B3FA83F35B09E4E7AD
:105AC000431E05EB850505EB8505B3FBF5F30133B7
:105AD000C3F30B0343F4404388E7042386E7012321
:105AE00084E7012070470120ACE700BFA0860100D9
:105AF0007F841E0083DE1B43FF083D00D34D6210F0
:105B00002DE9F04383B004460F46904699460C9E1B
