:020000040800F2
:1000000000000220D94400089143000893430008EF
:10001000954300089743000899430008000000003A
:100020000000000000000000000000009B430008EA
:100030009D430008000000009F430008A143000802
:1000400029450008294500082945000829450008D8
:1000500029450008294500082945000829450008C8
:1000600029450008294500082945000829450008B8
:1000700029450008294500082945000829450008A8
:100080002945000829450008294500082945000898
:100090002945000829450008294500082945000888
:1000A00029450008F94300082945000829450008AA
:1000B0002945000829450008294500082945000868
:1000C0002945000829450008294500082945000858
:1000D00029450008A9430008B9430008C94300089E
:1000E0002945000829450008294500082945000838
:1000F0002945000829450008294500082945000828
:100100002945000829450008294500082945000817
:10011000D943000829450008294500082945000859
:1001200029450008294500082945000829450008F7
:1001300029450008294500082945000829450008E7
:1001400029450008294500082945000829450008D7
:10015000294500082945000829450008E943000809
:1001600029450008294500082945000829450008B7
:10017000294500082945000829450008000000001D
:0801800029450008294500088B
:1001C00081F0004102E000BF83F0004330B54FEA08
:1001D00041044FEA430594EA050F08BF90EA020F75
:1001E0001FBF54EA000C55EA020C7FEA645C7FEA08
:1001F000655C00F0E2804FEA5454D4EB5555B8BF2B
:100200006D420CDD2C4480EA020281EA030382EA9B
:10021000000083EA010180EA020281EA0303362D2D
:1002200088BF30BD11F0004F4FEA01314FF4801C00
:100230004CEA113102D0404261EB410113F0004F12
:100240004FEA03334CEA133302D0524263EB4303C9
:1002500094EA050F00F0A780A4F10104D5F1200E67
:100260000DDB02FA0EFC22FA05F2801841F10001C2
:1002700003FA0EF2801843FA05F359410EE0A5F196
:1002800020050EF1200E012A03FA0EFC28BF4CF0C7
:10029000020C43FA05F3C01851EBE37101F000457D
:1002A00007D54FF0000EDCF1000C7EEB00006EEB8A
:1002B0000101B1F5801F1BD3B1F5001F0CD3490814
:1002C0005FEA30004FEA3C0C04F101044FEA44526B
:1002D00012F5800F80F09A80BCF1004F08BF5FEAF2
:1002E000500C50F1000041EB045141EA050130BDD2
:1002F0005FEA4C0C404141EB0101013C28BFB1F5E4
:10030000801FE9D291F0000F04BF01460020B1FA2E
:1003100081F308BF2033A3F10B03B3F120020CDA01
:100320000C3208DD02F1140CC2F10C0201FA0CF0DF
:1003300021FA02F10CE002F11402D8BFC2F1200C44
:1003400001FA02F120FA0CFCDCBF41EA0C019040FA
:10035000E41AA2BF01EB0451294330BD6FEA040443
:100360001F3C1CDA0C340EDC04F11404C4F120022E
:1003700020FA04F001FA02F340EA030021FA04F340
:1003800045EA030130BDC4F10C04C4F1200220FA97
:1003900002F001FA04F340EA0300294630BD21FAD5
:1003A00004F0294630BD94F0000F83F4801306BF9B
:1003B00081F480110134013D4EE77FEA645C18BF8F
:1003C0007FEA655C29D094EA050F08BF90EA020F26
:1003D00005D054EA000C04BF1946104630BD91EA1E
:1003E000030F1EBF0021002030BD5FEA545C05D121
:1003F0004000494128BF41F0004130BD14F5800460
:100400003CBF01F5801130BD01F0004545F0FE41D3
:1004100041F470014FF0000030BD7FEA645C1ABF08
:10042000194610467FEA655C1CBF0B46024650EA3F
:10043000013406BF52EA033591EA030F41F400216B
:1004400030BD00BF90F0000F04BF0021704730B5F1
:100450004FF4806404F132044FF000054FF00001C6
:1004600050E700BF90F0000F04BF0021704730B587
:100470004FF4806404F1320410F0004548BF40425C
:100480004FF000013EE700BF42004FEAE2014FEAB1
:1004900031014FEA02701FBF12F07F4393F07F4F8C
:1004A00081F06051704732F07F4208BF704793F08F
:1004B0007F4F04BF41F40021704730B54FF46074A2
:1004C00001F0004521F000411CE700BF50EA0102A5
:1004D00008BF704730B54FF000050AE050EA01024E
:1004E00008BF704730B511F0004502D5404261EBBE
:1004F00041014FF4806404F132045FEA915C3FF4FF
:10050000D8AE4FF003025FEADC0C18BF03325FEA9B
:10051000DC0C18BF033202EBDC02C2F1200300FA4C
:1005200003FC20FA02F001FA03FE40EA0E0021FA71
:1005300002F11444BDE600BF70B54FF0FF0C4CF45F
:10054000E06C1CEA11541DBF1CEA135594EA0C0F11
:1005500095EA0C0F00F0DEF82C4481EA030621EA4C
:100560004C5123EA4C5350EA013518BF52EA033587
:1005700041F4801143F4801338D0A0FB02CE4FF039
:100580000005E1FB02E506F00042E0FB03E54FF069
:100590000006E1FB03569CF0000F18BF4EF0010E61
:1005A000A4F1FF04B6F5007F64F5407404D25FEA5D
:1005B0004E0E6D4146EB060642EAC62141EA555110
:1005C0004FEAC52040EA5E504FEACE2EB4F1FD0C52
:1005D00088BFBCF5E06F1ED8BEF1004F08BF5FEAD0
:1005E000500E50F1000041EB045170BD06F0004682
:1005F00046EA010140EA020081EA0301B4EB5C042F
:10060000C2BFD4EB0C0541EA045170BD41F4801126
:100610004FF0000E013C00F3AB8014F1360FDEBF4B
:10062000002001F0004170BDC4F10004203C35DA27
:100630000C341BDC04F11404C4F1200500FA05F3AA
:1006400020FA04F001FA05F240EA020001F000424B
:1006500021F0004110EBD37021FA04F642EB0601C1
:100660005EEA430E08BF20EAD37070BDC4F10C04EB
:10067000C4F1200500FA04F320FA05F001FA04F2AF
:1006800040EA020001F0004110EBD37041F100019B
:100690005EEA430E08BF20EAD37070BDC4F12005A6
:1006A00000FA05F24EEA020E20FA04F301FA05F20E
:1006B00043EA020321FA04F001F0004121FA04F2B6
:1006C00020EA020000EBD3705EEA430E08BF20EA86
:1006D000D37070BD94F0000F0FD101F000464000C0
:1006E00041EB010111F4801F08BF013CF7D041EA42
:1006F000060195F0000F18BF704703F00046520046
:1007000043EB030313F4801F08BF013DF7D043EA16
:100710000603704794EA0C0F0CEA135518BF95EACC
:100720000C0F0CD050EA410618BF52EA4306D1D153
:1007300081EA030101F000414FF0000070BD50EA72
:10074000410606BF1046194652EA430619D094EAFC
:100750000C0F02D150EA013613D195EA0C0F05D1E6
:1007600052EA03361CBF104619460AD181EA03013A
:1007700001F0004141F0FE4141F470014FF00000F2
:1007800070BD41F0FE4141F4780170BD70B54FF08D
:10079000FF0C4CF4E06C1CEA11541DBF1CEA13550D
:1007A00094EA0C0F95EA0C0F00F0A7F8A4EB0504EF
:1007B00081EA030E52EA03354FEA013100F08880E6
:1007C0004FEA03334FF0805545EA131343EA1263AF
:1007D0004FEA022245EA111545EA10654FEA002664
:1007E0000EF000419D4208BF964244F1FD0404F51D
:1007F000407402D25B084FEA3202B61A65EB030579
:100800005B084FEA32024FF480104FF4002CB6EB35
:10081000020E75EB030E22BFB61A754640EA0C00B5
:100820005B084FEA3202B6EB020E75EB030E22BFF5
:10083000B61A754640EA5C005B084FEA3202B6EB36
:10084000020E75EB030E22BFB61A754640EA9C00F5
:100850005B084FEA3202B6EB020E75EB030E22BFC5
:10086000B61A754640EADC0055EA060E18D04FEA83
:10087000051545EA16754FEA06164FEAC30343EA23
:1008800052734FEAC2025FEA1C1CC0D111F4801FF0
:100890000BD141EA00014FF000004FF0004CB6E7E9
:1008A00011F4801F04BF01430020B4F1FD0C88BF88
:1008B000BCF5E06F3FF6AFAEB5EB030C04BFB6EB93
:1008C000020C5FEA500C50F1000041EB045170BD86
:1008D0000EF0004E4EEA113114EB5C04C2BFD4EBB3
:1008E0000C0541EA045170BD41F480114FF0000E37
:1008F000013C90E645EA060E8DE60CEA135594EAB3
:100900000C0F08BF95EA0C0F3FF43BAF94EA0C0FB5
:100910000AD150EA01347FF434AF95EA0C0F7FF42A
:1009200025AF104619462CE795EA0C0F06D152EA7E
:1009300003353FF4FDAE1046194622E750EA410662
:1009400018BF52EA43067FF4C5AE50EA41047FF473
:100950000DAF52EA43057FF4EBAE12E74FF0FF3CD8
:1009600006E000BF4FF0010C02E000BF4FF0010CA9
:100970004DF804CD4FEA410C7FEA6C5C4FEA430C22
:1009800018BF7FEA6C5C1BD001B050EA410C0CBF71
:1009900052EA430C91EA030F02BF90EA020F0020D3
:1009A000704710F1000F91EA030F58BF994208BF3A
:1009B00090422CBFD8176FEAE37040F001007047F7
:1009C0004FEA410C7FEA6C5C02D150EA013C07D14E
:1009D0004FEA430C7FEA6C5CD6D152EA033CD3D099
:1009E0005DF8040B704700BF8446104662468C4693
:1009F0001946634600E000BF01B5FFF7B7FF0028C6
:100A000048BF10F1000F01BD4DF808EDFFF7F4FFEE
:100A10000CBF012000205DF808FB00BF4DF808ED79
:100A2000FFF7EAFF34BF012000205DF808FB00BF9C
:100A30004DF808EDFFF7E0FF94BF012000205DF8BE
:100A400008FB00BF4DF808EDFFF7CEFF94BF012073
:100A500000205DF808FB00BF4DF808EDFFF7C4FF6C
:100A600034BF012000205DF808FB00BF4FEA410CB5
:100A70007FEA6C5C02D150EA013C0AD14FEA430C98
:100A80007FEA6C5C02D152EA033C02D14FF00000D5
:100A900070474FF0010070474FEA410212F5001213
:100AA00015D211D56FF47873B3EB625212D94FEAB5
:100AB000C12343F0004343EA505311F0004F23FA9F
:100AC00002F018BF404270474FF00000704750EAF4
:100AD000013005D111F0004008BF6FF000407047B1
:100AE0004FF00000704700BF80F0004002E000BF00
:100AF00081F0004142001FBF5FEA410392EA030F09
:100B00007FEA226C7FEA236C6AD04FEA1262D2EB52
:100B10001363C1BFD218414048404140B8BF5B4257
:100B2000192B88BF704710F0004F40F4000020F0F0
:100B30007F4018BF404211F0004F41F4000121F006
:100B40007F4118BF494292EA030F3FD0A2F1010250
:100B500041FA03FC10EB0C00C3F1200301FA03F18E
:100B600000F0004302D5494260EB4000B0F5000FB1
:100B700013D3B0F1807F06D340084FEA310102F170
:100B80000102FE2A51D2B1F1004F40EBC25008BF22
:100B900020F0010040EA03007047490040EB0000EC
:100BA000013A28BFB0F5000FEDD2B0FA80FCACF1ED
:100BB000080CB2EB0C0200FA0CF0AABF00EBC2501A
:100BC00052421843BCBFD0401843704792F0000F08
:100BD00081F4000106BF80F400000132013BB5E75B
:100BE0004FEA41037FEA226C18BF7FEA236C21D0D1
:100BF00092EA030F04D092F0000F08BF0846704736
:100C000090EA010F1CBF0020704712F07F4F04D103
:100C1000400028BF40F00040704712F100723CBF16
:100C200000F50000704700F0004343F0FE4040F440
:100C3000000070477FEA226216BF08467FEA2363FE
:100C40000146420206BF5FEA412390EA010F40F4E9
:100C5000800070474FF0000304E000BF10F0004335
:100C600048BF40425FEA000C08BF704743F096431C
:100C700001464FF000001CE050EA010208BF704737
:100C80004FF000030AE000BF50EA010208BF7047BE
:100C900011F0004302D5404261EB41015FEA010CD3
:100CA00002BF84460146002043F0B64308BFA3F1CB
:100CB0008053A3F50003BCFA8CF2083AA3EBC253AD
:100CC00010DB01FA02FC634400FA02FCC2F12002CC
:100CD000BCF1004F20FA02F243EB020008BF20F003
:100CE0000100704702F1200201FA02FCC2F1200269
:100CF00050EA4C0021FA02F243EB020008BF20EA5E
:100D0000DC7070474FF0FF0C1CEAD0521EBF1CEA8B
:100D1000D15392EA0C0F93EA0C0F6FD01A4480EA79
:100D2000010C400218BF5FEA41211ED04FF0006362
:100D300043EA501043EA5111A0FB01310CF000408E
:100D4000B1F5000F3EBF490041EAD3715B0040EAB4
:100D5000010062F17F02FD2A1DD8B3F1004F40EB84
:100D6000C25008BF20F00100704790F0000F0CF057
:100D7000004C08BF49024CEA502040EA51207F3A1B
:100D8000C2BFD2F1FF0340EAC250704740F40000F6
:100D90004FF00003013A5DDC12F1190FDCBF00F0E7
:100DA00000407047C2F10002410021FA02F1C2F195
:100DB000200200FA02FC5FEA310040F1000053EA31
:100DC0004C0308BF20EADC70704792F0000F00F07F
:100DD000004C02BF400010F4000F013AF9D040EA85
:100DE0000C0093F0000F01F0004C02BF490011F419
:100DF000000F013BF9D041EA0C018FE70CEAD15317
:100E000092EA0C0F18BF93EA0C0F0AD030F0004C96
:100E100018BF31F0004CD8D180EA010000F000404A
:100E2000704790F0000F17BF90F0004F084691F008
:100E3000000F91F0004F14D092EA0C0F01D1420242
:100E40000FD193EA0C0F03D14B0218BF084608D10B
:100E500080EA010000F0004040F0FE4040F4000055
:100E6000704740F0FE4040F4400070474FF0FF0CE8
:100E70001CEAD0521EBF1CEAD15392EA0C0F93EA2F
:100E80000C0F69D0A2EB030280EA010C49024FEA81
:100E9000402037D04FF0805343EA111143EA10133A
:100EA0000CF000408B4238BF5B0042F17D024FF4F2
:100EB000000C8B4224BF5B1A40EA0C00B3EB510FCD
:100EC00024BFA3EB510340EA5C00B3EB910F24BFB6
:100ED000A3EB910340EA9C00B3EBD10F24BFA3EB3B
:100EE000D10340EADC001B0118BF5FEA1C1CE0D103
:100EF000FD2A3FF650AF8B4240EBC25008BF20F0B6
:100F0000010070470CF0004C4CEA50207F32C2BF09
:100F1000D2F1FF0340EAC250704740F400004FF0A6
:100F20000003013A37E792F0000F00F0004C02BFD7
:100F3000400010F4000F013AF9D040EA0C0093F0A1
:100F4000000F01F0004C02BF490011F4000F013BFB
:100F5000F9D041EA0C0195E70CEAD15392EA0C0F63
:100F600008D142027FF47DAF93EA0C0F7FF470AF9B
:100F7000084676E793EA0C0F04D14B023FF44CAFDE
:100F800008466EE730F0004C18BF31F0004CCAD173
:100F900030F000427FF45CAF31F000437FF43CAFAF
:100FA0005FE700BF4FF0FF3C06E000BF4FF0010CD1
:100FB00002E000BF4FF0010C4DF804CD4FEA4002B3
:100FC0004FEA41037FEA226C18BF7FEA236C11D0FD
:100FD00001B052EA530C18BF90EA010F58BFB2EBB0
:100FE000030088BFC81738BF6FEAE17018BF40F030
:100FF000010070477FEA226C02D15FEA402C05D1E4
:101000007FEA236CE4D15FEA412CE1D05DF8040B68
:10101000704700BF844608466146FFE70FB5FFF7FB
:10102000C9FF002848BF10F1000F0FBD4DF808EDB3
:10103000FFF7F4FF0CBF012000205DF808FB00BFA4
:101040004DF808EDFFF7EAFF34BF012000205DF8FE
:1010500008FB00BF4DF808EDFFF7E0FF94BF01204B
:1010600000205DF808FB00BF4DF808EDFFF7D2FF48
:1010700094BF012000205DF808FB00BF4DF808ED8B
:10108000FFF7C8FF34BF012000205DF808FB00BF58
:101090004FEA40024FEA41037FEA226C02D15FEA45
:1010A000402C08D17FEA236C02D15FEA412C02D1A7
:1010B0004FF0000070474FF0010070474FEA4002C8
:1010C000B2F1FE4F0FD34FF09E03B3EB12620DD976
:1010D0004FEA002343F0004310F0004F23FA02F0E0
:1010E00018BF404270474FF00000704712F1610F87
:1010F00001D1420205D110F0004008BF6FF000405E
:1011000070474FF00000704753B94AB9002908BF33
:1011100000281CBF4FF0FF314FF0FF3000F0E2B865
:10112000ADF1080C6DE904CE07F0C0F9DDF804E07C
:10113000DDE9022304B0704700F1340191E8380082
:101140009C46A6464CF8045D90E8FF0FE54600BDBE
:1011500090EC210B704700BF80EC210B704700BF63
:1011600090EC200B704700BF80EC200B704700BF55
:10117000D0EC200B704700BFC0EC200B704700BFC5
:10118000F0EC0201F0EC0211F0EC0221F0EC023183
:10119000F0EC0241F0EC0251F0EC0261F0EC027173
:1011A000F0EC0281F0EC0291F0EC02A1F0EC02B163
:1011B000F0EC02C1F0EC02D1F0EC02E1F0EC02F153
:1011C000704700BFE0EC0201E0EC0211E0EC02210C
:1011D000E0EC0231E0EC0241E0EC0251E0EC0261B3
:1011E000E0EC0271E0EC0281E0EC0291E0EC02A1A3
:1011F000E0EC02B1E0EC02C1E0EC02D1E0EC02E193
:10120000E0EC02F1704700BFB0FC0181B0FC01913D
:10121000B0FC01A1B0FC01B1704700BFA0FC01818E
:10122000A0FC0191A0FC01A1A0FC01B1704700BF8E
:10123000EC4600B52DE900502DE9FF1F4FF00003EB
:101240002DE90C0001A907F0E3FBDDF840E012B046
:10125000704700BFEC4600B52DE900502DE9FF1F97
:101260004FF000032DE90C0001A907F00DFCDDF89B
:1012700040E012B0704700BFEC4600B52DE90050C9
:101280002DE9FF1F4FF000032DE90C0001A907F025
:101290001BFCDDF840E012B0704700BFEC4600B523
:1012A0002DE900502DE9FF1F4FF000032DE90C0040
:1012B00001AB07F0E1FBDDF840E012B0704700BF82
:1012C000EC4600B52DE900502DE9FF1F4FF000035B
:1012D0002DE90C0001AA07F04FFCDDF840E012B048
:1012E000704700BF704700BF844641EA000313F017
:1012F00003036DD1403A41D351F8043B40F8043B1D
:1013000051F8043B40F8043B51F8043B40F8043BDF
:1013100051F8043B40F8043B51F8043B40F8043BCF
:1013200051F8043B40F8043B51F8043B40F8043BBF
:1013300051F8043B40F8043B51F8043B40F8043BAF
:1013400051F8043B40F8043B51F8043B40F8043B9F
:1013500051F8043B40F8043B51F8043B40F8043B8F
:1013600051F8043B40F8043B51F8043B40F8043B7F
:1013700051F8043B40F8043B403ABDD2303211D31F
:1013800051F8043B40F8043B51F8043B40F8043B5F
:1013900051F8043B40F8043B51F8043B40F8043B4F
:1013A000103AEDD20C3205D351F8043B40F8043B1F
:1013B000043AF9D2043208D0D2071CBF11F8013B1D
:1013C00000F8013B01D30B8803806046704700BFE3
:1013D000082A13D38B078DD010F003038AD0C3F1F2
:1013E0000403D21ADB071CBF11F8013B00F8013BD4
:1013F00080D331F8023B20F8023B7BE7043AD9D393
:10140000013A11F8013B00F8013BF9D20B78037067
:101410004B7843708B788370604670470000000003
:1014200001F0FF01102A2BDB10F0070F08D010F895
:10143000013B013A8B422DD010F0070F42B3F6D199
:10144000F0B441EA012141EA014122F007047FF0B2
:1014500000070023F0E80256083C85EA010586EA09
:10146000010685FA47F5A3FA87F586FA47F6A5FA45
:1014700087F68EB9EED1F0BC01F0FF0102F0070251
:1014800032B110F8013B013A83EA010313B1F8D1FC
:101490000020704701387047002D06BF35460338DD
:1014A000073815F0010F07D1013015F4807F02BF16
:1014B000013015F4C03F01300138F0BC704700BF67
:1014C00030B490F800F020F007016FF0000C10F03D
:1014D000070491F820F040F048804FF000046FF0CE
:1014E0000700D1E9002391F840F000F1080082FAEA
:1014F0004CF2A4FA8CF283FA4CF3A2FA8CF34BBBB5
:10150000D1E9022382FA4CF200F10800A4FA8CF22D
:1015100083FA4CF3A2FA8CF3E3B9D1E9042382FAFB
:101520004CF200F10800A4FA8CF283FA4CF3A2FA10
:101530008CF37BB9D1E9062301F1200182FA4CF248
:1015400000F10800A4FA8CF283FA4CF3A2FA8CF3AF
:10155000002BC6D0002A04BF04301A4612BAB2FAD1
:1015600082F200EBD20030BC7047D1E9002304F0D6
:101570000305C4F100004FEAC50514F0040F91F80B
:1015800040F00CFA05F562EA05021CBF63EA0503A8
:1015900062464FF00004AAE70348044B834202D09E
:1015A000034B03B118477047EC060020EC060020FF
:1015B000000000000548064B1B1AD90F01EBA301E0
:1015C000491002D0034B03B118477047EC060020C6
:1015D000EC0600200000000010B5064C237843B94B
:1015E000FFF7DAFF044B13B10448AFF30080012387
:1015F000237010BDEC0600200000000044F8000835
:1016000008B5054B1BB105490548AFF30080BDE89F
:101610000840FFF7CFBF00BF00000000F006002029
:1016200044F80008014B1860704700BF080700200D
:1016300010B504464FF07C51FFF764FB014623468A
:10164000094CA4EB63042046FFF75CFB01462046EF
:10165000FFF758FB01464FF07F50FFF749FA01466C
:101660002046FFF74FFB10BDDF59375F2DE9F04FE4
:1016700085B005460C4603921E46DDF83890DDF82D
:101680003C8000211846FFF7D1FC58B100214846A4
:10169000FFF7CCFC30B100214046FFF7C7FC002823
:1016A00040F0008131463046FFF72CFB07464946A3
:1016B0004846FFF727FB01463846FFF71BFA074667
:1016C00041464046FFF71EFB01463846FFF712FA37
:1016D000FFF7AEFF074601463046FFF713FB0290C7
:1016E00039464846FFF70EFB019039464046FFF762
:1016F00009FB8346DFF8CC92D9F80000B24F396875
:10170000FFF700FB0646DFF8C482D8F80000DFF8D8
:10171000C0A2DAF80010FFF7F5FA01463046FFF7ED
:10172000E7F90646D8F80000D9F80010FFF7EAFA02
:101730008146DAF800003968FFF7E4FA01464846C6
:10174000FFF7D8F98146D8F80000D8F80010FFF765
:10175000D9FA4FF07C51FFF7CBF9804638683968E9
:10176000FFF7D0FA01464046FFF7C4F907460146A5
:101770000198FFF7C7FA804649465846FFF7C2FA74
:1017800001464046FFF7B4F9804631465846FFF718
:10179000B9FA82463946DDF808B05846FFF7B2FA82
:1017A00001465046FFF7A4F9074649465846FFF759
:1017B000A9FA814631460198FFF7A4FA0146484646
:1017C000FFF796F90646834B18680021FFF756FC91
:1017D000002800F03C81DFF8FC91D9F80000414678
:1017E000FFF790FA7C49FFF78DFA0146DFF8ECB17C
:1017F000DBF80000FFF77EF9CBF80000D9F8000015
:101800003946FFF77FFA7449FFF77CFA0146DFF8A3
:10181000D0A1DAF80000FFF76DF9CAF80000D9F896
:1018200000003146FFF76EFA6B49FFF76BFA01468D
:10183000DFF8B091D9F80000FFF75CF9C9F80000B3
:10184000DBF800102846FFF755F90546DAF80010D6
:101850002046FFF74FF90446D9F800100398FFF728
:1018600049F90390DFF88091D9F800004146FFF76D
:1018700049FA01462846FFF73DF90546D9F8000028
:101880003946FFF73FFA01462046FFF733F9044691
:10189000D9F800003146FFF735FA01460398FFF703
:1018A00029F9039051492846FFF72CFA01904F4936
:1018B0002046FFF727FA02904C490398FFF722FAD7
:1018C0008046424FD7F800B03E4ED6F800A0404DBB
:1018D000D5F800900AF100400199FFF713FA044689
:1018E00049460298FFF70EFA01462046FFF700F935
:1018F0000390354C20684146FFF704FA01460398EF
:10190000FFF7F6F801463868FFF7F4F838605946F3
:101910000198FFF7F7F9039049464046FFF7F2F9BF
:1019200001460398FFF7E6F8039020680299FFF755
:10193000E9F901460398FFF7DBF801463068FFF745
:10194000D9F8306059460298FFF7DCF90390514608
:101950004046FFF7D7F901460398FFF7C9F803900F
:1019600020680199FFF7CEF901460398FFF7C2F806
:1019700001462868FFF7BEF8286059464046FFF741
:10198000C1F9804651460298FFF7BCF9014640462E
:10199000FFF7B0F8804649460198FFF7B3F90146D2
:1019A0004046FFF7A5F82168FFF7A4F820603868E3
:1019B0003968FFF7A7F9804630683168FFF7A2F968
:1019C000014615E02C07002024070020000000201D
:1019D00028070020040000200AD7233C200700200D
:1019E0001C07002018070020080000200AD7A33B8E
:1019F0004046FFF77FF8804628682968FFF782F99C
:101A000001464046FFF776F8804620682168FFF7D8
:101A100079F901464046FFF76DF8FFF709FE804669
:101A200038684146FFF76EF9386030684146FFF785
:101A300069F9306028684146FFF764F9286020683A
:101A40004146FFF75FF9206005B0BDE8F08F002345
:101A5000034A1360034A1360034A136002E700BF9E
:101A6000200700201C070020180700202DE9F04F58
:101A700091B00290039104921C461A9FDDF86CA06D
:101A80001C9EDDF87490DDF8788000213046FFF769
:101A9000CDFA58B100214846FFF7C8FA30B100210D
:101AA0004046FFF7C3FA002840F0C78200212046D5
:101AB000FFF7BCFA58B100213846FFF7B7FA30B14A
:101AC00000215046FFF7B2FA002840F0F781214686
:101AD0002046FFF717F9054639463846FFF712F951
:101AE00001462846FFF706F8054651465046FFF7DF
:101AF00009F901462846FEF7FDFF05F029FA0146DF
:101B00004FF07E50FFF7B2F9054601462046FFF739
:101B1000F9F8099029463846FFF7F4F80A90294663
:101B20005046FFF7EFF80B9031463046FFF7EAF8E2
:101B3000044649464846FFF7E5F801462046FEF7C9
:101B4000D9FF044641464046FFF7DCF801462046EF
:101B5000FEF7D0FF05F0FCF901464FF07E50FFF78D
:101B600085F9044601463046FFF7CCF88346214606
:101B70004846FFF7C7F8824621464046FFF7C2F8BD
:101B80000546AA4C20682168FFF7BCF80C90206835
:101B9000A74E3168FFF7B6F806902068A54F396860
:101BA000FFF7B0F807902068A34C2168FFF7AAF868
:101BB000804630683168FFF7A5F80D9030683968C5
:101BC000FFF7A0F8089030682168FFF79BF80646F9
:101BD00038683968FFF796F8814638682168FFF75A
:101BE00091F8074620682168FFF78CF804464946BB
:101BF0004FF07C50FEF77CFF2146FEF779FF0E90F8
:101C0000CDF814B05946FFF77DF883464146089851
:101C1000FEF76EFF0F905146FFF774F801465846E5
:101C2000FEF768FF834631460798FEF763FF2946B3
:101C3000FFF768F801465846FEF75CFF0146FEF7DD
:101C400059FF834608994046FEF754FF0599FFF770
:101C500059F880460D994FF07C50FEF749FF0890E7
:101C60002146FEF745FF5146FFF74CF80146404636
:101C7000FEF740FF804606993846FEF739FF2946B1
:101C8000FFF740F801464046FEF734FF0146FEF7F5
:101C900031FF804659465846FFF734F8834641469F
:101CA0004046FFF72FF801465846FEF723FF05F0A0
:101CB0004FF9804607993046FEF71AFF0646059908
:101CC000FFF720F8834639460698FEF713FF0746CC
:101CD0005146FFF717F801465846FEF70BFF8346BB
:101CE00049460898FEF704FF2946FFF70BF801461E
:101CF0005846FEF7FFFE0146FEF7FCFE05464FF094
:101D00007C510C98FEF7F4FE2146FEF7F3FE0446E4
:101D100041460E98FEF7F6FF814629463046FEF70B
:101D2000F1FF01464846FEF7E5FE814641460F9821
:101D3000FEF7E8FF804629463846FEF7E3FF0146F6
:101D40004046FEF7D7FE054621460A98FEF7DAFF21
:101D50008046DDF82CB059463846FEF7D3FF0146E1
:101D60004046FEF7C5FE3549FEF7CCFF074659460B
:101D70003046FEF7C7FF064621460998FEF7C2FF28
:101D800001463046FEF7B4FE2C49FEF7BBFF044681
:101D900029460598FEF7B6FF054649465046FEF728
:101DA000B1FF01462846FEF7A3FE2449FEF7AAFF2D
:101DB0000546234B1F60234B1C60234B1860234BAD
:101DC00018680021FFF75AF9002800F040811F4EE3
:101DD00030683946FEF796FF1D49FEF793FF01462E
:101DE000DFF87090D9F80000FEF784FEC9F8000013
:101DF00030682146FEF786FF1549FEF783FF01464E
:101E0000DFF85480D8F80000FEF774FEC8F8000030
:101E100030682946FEF776FF0D49FEF773FF01464D
:101E20000E4E3068FEF766FE1AE000BF000000208C
:101E30002C07002028070020240700200000204055
:101E400014070020100700200C07002004000020C9
:101E50000AD7233C200700201C0700201807002079
:101E60003060D9F800100298FEF744FE0290D8F8CE
:101E700000100398FEF73EFE039031680498FEF7C9
:101E800039FE0490764E30683946FEF73BFF014636
:101E90000298FEF72FFE029030682146FEF732FFCF
:101EA00001460398FEF726FE039030682946FEF7A8
:101EB00029FF01460498FEF71DFE04906949029827
:101EC000FEF720FF044667490398FEF71BFF0290C8
:101ED00064490498FEF716FF8046634FD7F800B0B8
:101EE000624ED6F800A0624DD5F800900AF100408D
:101EF00003942146FEF706FF044649460298FEF782
:101F000001FF01462046FEF7F3FD0490594C20687E
:101F10004146FEF7F7FE01460498FEF7E9FD01464B
:101F20003868FEF7E7FD386059460398FEF7EAFE89
:101F3000049049464046FEF7E5FE01460498FEF748
:101F4000D9FD049020680299FEF7DCFE0146049852
:101F5000FEF7CEFD01463068FEF7CCFD30605946F5
:101F60000298FEF7CFFE049051464046FEF7CAFEA7
:101F700001460498FEF7BCFD049020680399FEF723
:101F8000C1FE01460498FEF7B5FD01462868FEF73C
:101F9000B1FD286059464046FEF7B4FE80465146E2
:101FA0000298FEF7AFFE01464046FEF7A3FD8046CD
:101FB00049460398FEF7A6FE01464046FEF798FD07
:101FC0002168FEF797FD206038683968FEF79AFEB1
:101FD000804630683168FEF795FE01464046FEF7C0
:101FE00089FD804628682968FEF78CFE0146404638
:101FF000FEF780FD804620682168FEF783FE0146DB
:102000004046FEF777FDFFF713FB804638684146F0
:10201000FEF778FE386030684146FEF773FE3060A8
:1020200028684146FEF76EFE286020684146FEF7AC
:1020300069FE206011B0BDE8F08FCDF804A00097D4
:102040002346049A03990298FFF710FBF2E7002356
:10205000094A1360094A1360094A136012E700BF76
:10206000080000200AD7A33B000000202C07002016
:102070002807002024070020200700201C0700203C
:1020800018070020F0B58BB000240594069407943F
:102090000894099400942E4B1A6B42F004021A63C0
:1020A0001A6B02F004020092009A01941A6B42F03B
:1020B00001021A631A6B02F001020192019A029462
:1020C0001A6B42F002021A631A6B02F002020292C9
:1020D000029A03941A6B42F010021A631A6B02F010
:1020E00010020392039A04941A6B42F008021A63D6
:1020F0001B6B03F008030493049B164D224630210A
:10210000284602F0D3FD144E22464FF4F9413046E2
:1021100002F0CCFD032305930694079405A92846F5
:1021200002F0CAFC30230593012706970794089410
:1021300005A9284602F0C0FC4FF4F9430593069721
:102140000794089405A9304602F0B6FC0BB0F0BD28
:102150000038024000080240000C024010B582B076
:10216000184B194A1A60194C194B1C60194B1A4A22
:102170001A6000210191194B5A6C42F001025A6415
:102180005B6C03F001030193019B1548C26822F4C4
:10219000E0621204120C134B1343C3600122192096
:1021A00002F0ECFB192002F01BFC2268D36843F01C
:1021B0001903D360192002F0F1FB204603F020FF41
:1021C00002B010BD7C0700204C0800201C09002034
:1021D000780700207407002008080020003802401B
:1021E00000ED00E00002FA05835C0132002BFBD118
:1021F000D0B2704708B50A46002306E010F803C0C5
:102200004CF0800C00F803C001339A42F6DC4FF426
:10221000FA730146014804F00CFC08BD4C0800208C
:1022200008B50A46002306E010F803C04CF0800C05
:1022300000F803C0013302F1FF3C9C45F4DCFF23AE
:1022400083544FF4FA730146014804F0F2FB08BDD1
:102250004C08002008B503680D4A93420DD00D4A82
:1022600093420FD001220C490C4804F032FE0122A7
:102270000B490C4804F02DFE08BD20210A4802F04D
:102280001BFDEFE701210648FFF7B4FFEAE700BFB7
:102290000044004000100140540700204C0800207A
:1022A00034070020080800200008024072B6FEE74C
:1022B00000B585B000230093019302930393134864
:1022C000134A0260436083600361037680F8203024
:1022D000C362104A8262C3600122C26180F830305A
:1022E000426102F00FFA68B90923009301230193B8
:1022F000002302936946054802F030FA20B905B080
:102300005DF804FBFFF7D2FFFFF7D0FFBC0A002007
:10231000002001400100000F70B588B00025019534
:10232000224C236B43F002032363236B03F002036D
:102330000193019B0295236C43F400132364236CE7
:1023400003F400130293029B40230393122304938C
:1023500005950323069304230793154E03A93046DE
:1023600002F0AAFB8023039303A9304602F0A4FBEA
:10237000236A43F400132362236A23F400132362C5
:102380000C480D4B03600D4B43608560C5604FF4F6
:102390008043036145618561C561056202F0E2FE2B
:1023A00008B908B070BDFFF781FF00BF00380240D8
:1023B00000040240680A002000540040801A060011
:1023C00070B588B000250195234C236B43F00203C0
:1023D0002363236B03F002030193019B0295236C9B
:1023E00043F480032364236C03F480030293029B71
:1023F0004FF400630393122304930595032306937C
:1024000004230793154E03A9304602F055FB4FF401
:102410008063039303A9304602F04EFB236A43F422
:1024200080032362236A23F4800323620C480D4B4C
:1024300003600D4B43608560C5604FF480430361CA
:1024400045618561C561056202F08CFE08B908B07E
:1024500070BDFFF72BFF00BF0038024000040240B0
:10246000140A002000580040801A060008B50D48E4
:102470000D4B03604FF48273436000238360C3609D
:10248000036143614FF400728261C361036243627E
:1024900083620A23C36203F08DFC00B908BDFFF715
:1024A00005FF00BFBC0900200030014008B50D4801
:1024B0000D4B03604FF48273436000238360C3605D
:1024C000036143614FF400728261C361036243623E
:1024D00083620A23C36203F06DFC00B908BDFFF7F5
:1024E000E5FE00BF640900200038004010B596B03A
:1024F0000024129413941494159410941194099434
:102500000A940B940C940D940E940F94202221465F
:1025100001A807F023F93C483C4B03604FF4C86323
:10252000436084606423C3600461446180238361E9
:1025300003F0D2FE002852D14FF48053129312A917
:10254000314804F02EF800284BD12F4803F01CFF2F
:10255000002848D12C4803F0EBFE002845D1002389
:102560001093119310A9284804F09AF800283ED13E
:102570006023099300220A920B920C920D920E9204
:102580000F9209A9204803F092FF002831D10023BF
:102590000993042209A91C4803F05AFF58BB0822DA
:1025A00009A9194803F054FF38BB0C2209A91648A1
:1025B00003F04EFF18BB002301930293039304938F
:1025C00005934FF400520692089301A90E4804F0B7
:1025D000ADF8B0B90C4801F075FD16B010BDFFF7AD
:1025E00065FEFFF763FEFFF761FEFFF75FFEFFF793
:1025F0005DFEFFF75BFEFFF759FEFFF757FEFFF7A3
:1026000055FEFFF753FE00BF1C09002000000140EB
:1026100000B58FB000230A930B930C930D9308938E
:1026200009930193029303930493059306930793ED
:102630002C484FF080420260436083604FF0FF32CD
:10264000C2600361836103F047FE002839D14FF473
:1026500080530A930AA9234803F0A3FF002832D12C
:10266000204803F091FE00282FD1002308930993FE
:1026700008A91C4804F014F848BB60230193002209
:1026800002920392059201A9164803F010FF00BBC5
:1026900004220DEB0201134803F009FFD8B9082208
:1026A00001A9104803F003FFB8B90C2201A90D4895
:1026B00003F0FDFE98B90B4801F004FD0FB05DF882
:1026C00004FBFFF7F3FDFFF7F1FDFFF7EFFDFFF769
:1026D000EDFDFFF7EBFDFFF7E9FDFFF7E7FDFFF786
:1026E000E5FD00BFD408002008B50A480A4B036086
:1026F0004FF4E133436000238360C36003610C2225
:1027000042618361C36104F065F900B908BDFFF758
:10271000CDFD00BF90080020004C004000B583B004
:1027200000230093144A116B41F001011163116BF6
:1027300001F00101009100990193516C41F01001E9
:102740005164526C02F010020192019A0B480C4A3B
:1027500002604FF4E13242608360C36003610C2287
:1027600042618361C36104F035F910B903B05DF8CB
:1027700004FBFFF79BFD00BF003802404C0800201F
:102780000010014000B583B000230093144A116C7F
:1027900041F400311164116C01F400310091009991
:1027A0000193116B41F008011163126B02F00802F2
:1027B0000192019A0B480C4A02604FF41652426093
:1027C0008360C36003610C2242618361C36104F0D2
:1027D00001F910B903B05DF804FBFFF767FD00BF16
:1027E00000380240080800200044004000B583B0D3
:1027F00000230093144A116C41F480211164116C80
:1028000001F48021009100990193116B41F00801BE
:102810001163126B02F008020192019A0B480C4AF4
:1028200002604FF4E13242608360C36003610C22B6
:1028300042618361C36104F0CDF810B903B05DF863
:1028400004FBFFF733FD00BF00380240C40700203F
:102850000048004000B583B000230093144A516C37
:1028600041F020015164516C01F020010091009968
:102870000193116B41F004011163126B02F0040229
:102880000192019A0B480C4A02604FF4E132426017
:102890008360C36003610C2242618361C36104F001
:1028A00099F810B903B05DF804FBFFF7FFFC00BF17
:1028B00000380240800700200014014000B595B0A8
:1028C0003022002108A806F049FF00230393049357
:1028D00005930693079301931C4A116C41F08051B4
:1028E0001164126C02F080520192019A0293184A0C
:1028F000116841F480411160126802F48042029232
:10290000029A0222089201210B9110210C910E9241
:102910000F931091C023119312920423139308A8CC
:1029200002F022FF68B90F2303930021049105915F
:102930000691079103A803F067F920B915B05DF877
:1029400004FBFFF7B3FCFFF7B1FC00BF0038024007
:10295000007000402DE9F04FC7B001F00DFEFFF709
:10296000ADFFFFF78FFBFFF7A3FCFFF7D5FCFFF7E9
:1029700027FDFFF77BFDFFF799FDFFF7B7FDFFF799
:1029800047FEFFF7B1FEFFF7C9FEFFF7FBFEFFF7BB
:102990002DFFFFF75FFFFFF7E1FB864D2846FEF7AF
:1029A00041FE01228449284604F093FA012283491A
:1029B000834804F08EFA834C00221021204602F056
:1029C00075F900222021204602F070F97E4F38462A
:1029D00000F00CF97D4E304600F03DFA00234393A1
:1029E00044934593002440944194429423462246C4
:1029F0003946304600F0AEFB284600F0DDFB744B54
:102A00001B78002BFBD0724B00221A70013401227C
:102A10000AA96D4800F033F914A90AA800F0B1F929
:102A200008A96A4800F064FA0DA908A800F064FB40
:102A300000250295019500952B460DAA17A914A80B
:102A400001F0DEF804950E9B03930F9B0293169BF7
:102A50000193159B0093149B199A18991798FFF7E7
:102A600005F8092CCBDD1021564802F025F9002489
:102A70001A94922221461BA806F070FE554BD3F8FB
:102A80000090CDF84090544B1E681196534B1F6830
:102A90001297534B1D68139539464846FEF732F995
:102AA000804629463046FEF72DF901464046FEF79E
:102AB0001FF80146FEF71EF804F028FA4949FEF710
:102AC00021F9079031464846FEF71CF98046294611
:102AD0003846FEF717F901464046FEF70BF8014667
:102AE000FEF708F8824631463046FEF70BF983467A
:102AF00039463846FEF706F9804601465846FDF746
:102B0000F9FF0146FDF7F6FF01464FF07E50FDF755
:102B1000EFFF01465046FEF7A9F904F035FA3149B6
:102B2000FEF7F0F8824629464846FEF7EBF8814664
:102B300039463046FEF7E6F801464846FDF7DAFF2B
:102B40000146FDF7D7FF064629462846FEF7DAF884
:102B500001464046FDF7CEFF0146FDF7CBFF01469B
:102B60004FF07E50FDF7C4FF0146304604F0EEF909
:102B70001C49FEF7C7F805460798FDF785FC064691
:102B80000F462846FDF780FCCDE902015046FDF7CF
:102B90007BFCCDE9000132463B4613491AA806F0FA
:102BA00075FD1AA8FFF720FB01461AA8FFF738FBAE
:102BB00025E700BF4C080020540700203407002000
:102BC0000808002000080240140A0020680A0020BB
:102BD00030070020000000202C07002028070020DC
:102BE00024070020E12E654260F800082DE9F0413D
:102BF00084B006464FF0000888F800804FF47A77DA
:102C0000029701240194CDF8008023461922D02197
:102C100002F086FB88F8008002970194CDF80080CE
:102C200023461A22D021304602F07AFBE02388F8AE
:102C3000003002970194CDF8008023461C22D02159
:102C4000304602F06DFBF02388F8003002970194C3
:102C5000CDF8008023461B22D021304602F060FBD5
:102C600088F8008002970194CDF8008023466B22FB
:102C7000D021304602F054FB04B0BDE8F081F0B53D
:102C800085B006460D464FF47A77029701240194E9
:102C9000009123463C22D02102F0F4FB02970194DC
:102CA0002B19009323463B22D021304602F0EAFB49
:102CB00002970194AB1C009323463E22D02130465C
:102CC00002F0E0FB02970194EB1C009323463D22A7
:102CD000D021304602F0D6FB029701942B1D0093C1
:102CE00023464022D021304602F0CCFB02970194CB
:102CF0006B1D009323463F22D021304602F0C2FBD9
:102D000002970194AB1D009323464422D021304604
:102D100002F0B8FB02970194EB1D00932346432277
:102D2000D021304602F0AEFB0297019405F1080372
:102D3000009323464622D021304602F0A3FB02979F
:102D4000019405F10903009323464522D021304622
:102D500002F098FB0297019405F10A0300932346C1
:102D60004822D021304602F08DFB029701940B35AA
:102D7000009523464722D021304602F083FB05B060
:102D8000F0BD2DE9F04387B00D464278ADF80C2038
:102D9000037803EB02239AB2ADF80C20C178ADF8AA
:102DA0000E10837803EB01231FFA83F9ADF80E9020
:102DB0004179ADF81010037903EB01231FFA83F872
:102DC000ADF81080C179ADF81210837903EB0123BF
:102DD0009FB2ADF81270417AADF81410037A03EB8C
:102DE00001239BB2ADF81430C17AADF81610847A85
:102DF00004EB0124A4B2ADF8164010B2ADF8000007
:102E00000FFA89F9ADF802900FFA88F8ADF804804E
:102E10003FB2ADF806701EB2ADF8086024B2ADF84E
:102E20000A40FDF71BFF28604846FDF717FF686062
:102E30004046FDF713FFA8603846FDF70FFFE86036
:102E40003046FDF70BFF28612046FDF707FF68615C
:102E500007B0BDE8F083F0B587B0054601248DF8D2
:102E600017404FF47A77029701940DF117060096F8
:102E7000234610221C2102F053FA00238DF817304C
:102E800002970194009623460A221C21284602F04C
:102E900047FA02970194009623460B221C212846EC
:102EA00002F03EFA02970194009623460C221C2160
:102EB000284602F035FA02970194009623460D2227
:102EC0001C21284602F02CFA029701940096234612
:102ED0000E221C21284602F023FA02970194009644
:102EE00023460F221C21284602F01AFA07B0F0BD33
:102EF000F0B585B006460D464FF47A770297012467
:102F000001940091234602221C2102F0BBFA029791
:102F100001942B190093234622461C21304602F0CF
:102F2000B1FA02970194AB1C0093234604221C21A2
:102F3000304602F0A7FA02970194EB1C0093234657
:102F400003221C21304602F09DFA029701942B1DAA
:102F50000093234606221C21304602F093FA029782
:102F6000019405350095234605221C21304602F0C8
:102F700089FA05B0F0BD00002DE9F04786B00346A0
:102F80000F4600785A7800EB022000B2ADF810002E
:102F90009D78DA7805EB02252DB2ADF812501C7938
:102FA0005B7904EB032424B2ADF81440FDF756FE20
:102FB000064601902846FDF751FE05460290204640
:102FC000FDF74CFE044603904A4BD3F80090494667
:102FD0003046FEF735F800B1B146464BC3F80090D5
:102FE000D3F8048041463046FEF748F800B1B046B9
:102FF000404BC3F80480D3F808A051462846FEF79A
:103000001FF800B1AA463B4BC3F808A0D3F80CA0A8
:1030100051462846FEF732F800B1AA46354BC3F8B0
:103020000CA0D3F810A051462046FEF709F800B1D5
:10303000A246304BC3F810A0D3F814A05146204646
:10304000FEF71CF800B1A2462A4BC3F814A0414673
:103050004846FDF7EBFF90B931464046FDF748FD85
:10306000064649464046FDF743FD01463046FDF71A
:10307000FDFE01464FF07E50FDF73AFD38601D4BD6
:10308000DE68D3F8088041463046FDF7CFFF90B99F
:1030900029463046FDF72CFD054641463046FDF7F2
:1030A00027FD01462846FDF7E1FE01464FF07E5020
:1030B000FDF71EFD78600F4B5D691E69314628469D
:1030C000FDF7B4FF90B921462846FDF711FD0446EF
:1030D00031462846FDF70CFD01462046FDF7C6FEA9
:1030E00001464FF07E50FDF703FDB86006B0BDE825
:1030F000F08700BF0C00002070B582B003460E467A
:1031000000785A7800EB022000B2ADF800009D78FC
:10311000DA7805EB02252DB2ADF802501C795B7907
:1031200004EB032424B2ADF80440FDF797FD3060B2
:103130002846FDF793FD70602046FDF78FFDB060D7
:1031400002B070BD0023C25C12B101330A2AFAD169
:10315000D8B27047024B1860024B1960704700BF2D
:10316000080B0020040B002048B1054B1B78002BF6
:10317000FAD0013880B2024B00221A70F4E770478F
:103180003007002008B580B2FFF7EEFF08BD08B594
:10319000002306E011F803C04CF0800C01F803C0D6
:1031A000013302F1FF3C9C45F4DCFF238B544FF4C8
:1031B000FA7303F03EFC08BD2DE9F04FADB0824636
:1031C000904B02E0002243F8042B8F4A9342F9D13E
:1031D00000240DE02046FDF741FD4FF07E51FDF744
:1031E00089FC04F10C02874B03EB82035860013425
:1031F000052CEFDD844B03E04FF07E5243F8042BA7
:10320000824A9342F8D102F1180303E04FF07E5254
:1032100043F8042B7E4A9342F8D1A2F158030022CE
:103220009A65002505956022294606A806F096FABB
:1032300005AC784E0FCE0FC496E8030044F8040B9B
:1032400024F8021B090C217005A8FFF77BFF02463A
:1032500005A95046FFF79BFF71E021A96E4B186846
:10326000FFF746FE1EA921A8FFF786FE012229A925
:103270006A4B1868FFF703FD23A929A8FFF781FD12
:10328000604C266866492398FDF7F0FD01463046FC
:10329000FDF730FC2060666861492498FDF7E6FD83
:1032A00001463046FDF726FC6060A6685C4925981B
:1032B000FDF7DCFD01463046FDF71CFCA060E6682A
:1032C00057492698FDF7D2FD01463046FDF712FC1E
:1032D000E060266952492798FDF7C8FD014630464F
:1032E000FDF708FC206166694D492898FDF7BEFD91
:1032F00001463046FDF7FEFB6061A66948491E980D
:10330000FDF7B4FD01463046FDF7F4FBA061E66928
:1033100043491F98FDF7AAFD01463046FDF7EAFB39
:10332000E061266A3E492098FDF7A0FD014630463F
:10333000FDF7E0FB20620120FFF716FF0135B5F530
:10334000167F8ADB05AC374D0FCD0FC42B6824F8F0
:10335000023B1B0C237005A8FFF7F4FE024605A9EB
:103360005046FFF714FF0025002416E0012229A98A
:103370002A4B1868FFF783FC23A929A8FFF701FD52
:1033800029492898FDF7BEFC01462046FDF7B2FB0F
:1033900004460120FFF7F6FE0135B5F5167FE5DBA3
:1033A00021462248FDF762FD164B186305AC204DFF
:1033B0000FCD0FC495E8030044F8040B24F8021B5A
:1033C000090C217005A8FFF7BDFE024605A950466D
:1033D000FFF7DDFE4FF4FA70FFF7C6FE05AC154DA2
:1033E0000FCD0FC495E8030044F8040B217005A825
:1033F000FFF7A8FE024605A95046FFF7C8FE0025C4
:10340000002430E00C0B0020340B0020400B002087
:10341000640B00207CF80008080B0020040B00203F
:103420000000164494F800080AD7A33BDA0F493F7E
:10343000A8F80008DCF80008012229A9A44B1868A4
:10344000FFF71DFC23A929A8FFF79BFCA14927989A
:10345000FDF758FC01462046FDF74CFB04460120D1
:10346000FFF790FE0135B5F5167FE5DB21469A485A
:10347000FDF7FCFC994BD86205AC994D0FCD0FC4FC
:1034800095E8030044F8040B24F8021B090C217092
:1034900005A8FFF757FE024605A95046FFF777FE3D
:1034A0004FF4FA70FFF760FE05AC8E4D0FCD0FC4E0
:1034B0002B68236005A8FFF745FE024605A9504684
:1034C000FFF765FE0025002416E0012229A9804BA4
:1034D0001868FFF7D4FB23A929A8FFF752FC7D4900
:1034E0002698FDF70FFC01462046FDF703FB044636
:1034F0000120FFF747FE0135B5F5167FE5DB2146D4
:103500007548FDF7B3FC754EB06205AC744D0FCD38
:103510000FC495E8030044F8040B24F8021B090CBF
:10352000217005A8FFF70EFE024605A95046FFF7D9
:103530002EFE4FF4FA70FFF717FE05AC6A4D0FCD63
:103540000FC495E80F0007C4237005A8FFF7FAFD24
:10355000024605A95046FFF71AFE4FF44870FFF7E0
:1035600003FE0023B360002418E0012229A9584B70
:103570001868FFF784FB23A929A8FFF702FC574D21
:10358000AE685A492598FDF771FC01463046FDF7B3
:10359000B1FAA8600120FFF7F5FD0134B4F5167FFC
:1035A000E3DB05AC4E4D0FCD0FC495E8030044F8A6
:1035B000040B24F8021B090C217005A8FFF7C2FDBB
:1035C000024605A95046FFF7E2FD4FF4FA70FFF7F7
:1035D000CBFD05AC464D0FCD0FC40FCD0FC42B68EE
:1035E000236005A8FFF7AEFD024605A95046FFF788
:1035F000CEFD3A4B3F4959633F4A9A63D9631A64F7
:1036000059649A64002605E0344B9C640120FFF75E
:10361000B9FD0136B6F5167F42DA21A9374B186895
:10362000FFF766FC1EA921A8FFF766FD2B4B5D6B1B
:103630001E9C21462846FDF721FD00B92546274B53
:103640005D639D6B29462046FDF718FD00B12C46B1
:10365000224B9C63DD6B1F9C21462846FDF70EFD27
:1036600000B925461D4BDD631D6C29462046FDF73C
:1036700005FD00B12C46194B1C645D6C209C214655
:103680002846FDF7FBFC00B92546144B5D649D6C94
:1036900029462046FDF7F2FC0028B5D02C46B3E7BA
:1036A00005AC174D0FCD0FC40FCD0FC495E8070023
:1036B00084E807006420FFF757FD05A8FFF742FDE7
:1036C000024605A95046FFF762FD002620E000BF34
:1036D000040B00200AD7A33BDA0F493F0C0B002054
:1036E000A8F80008C0F80008D4F800080000164444
:1036F000F4F8000800B888C700B88847080B002015
:1037000018F90008584B9C640120FFF73BFD013677
:10371000B6F5966F42DA21A9544B1868FFF7E8FB1B
:103720001EA921A8FFF7E8FC4F4B5D6B1E9C2146AC
:103730002846FDF7A3FC00B925464B4B5D639D6B06
:1037400029462046FDF79AFC00B12C46464B9C6367
:10375000DD6B1F9C21462846FDF790FC00B92546ED
:10376000414BDD631D6C29462046FDF787FC00B107
:103770002C463D4B1C645D6C209C21462846FDF781
:103780007DFC00B92546384B5D649D6C294620467A
:10379000FDF774FC0028B5D02C46B3E7324C4FF04F
:1037A0007C51606BFDF7AEFA81464FF07C51A06B07
:1037B000FDF7A8FA834601464846FDF79BF9A0614C
:1037C0004FF07C51E06BFDF79DFA07464FF07C51BE
:1037D000206CFDF797FA804601463846FDF78AF9D6
:1037E000E0614FF07C51606CFDF78CFA05464FF0BC
:1037F0007C51A06CFDF786FA064601462846FDF787
:1038000079F9206259464846FDF772F9E06441466D
:103810003846FDF76DF9206531462846FDF768F911
:10382000606505AC124D0FCD0FC40FCD0FC40FCD89
:103830000FC495E8030044F8040B24F8021B090C9C
:10384000217005A8FFF77EFC024605A95046FFF748
:103850009EFC4FF4FA70FFF787FC4FF0000800243D
:103860002646274643E000BF0C0B0020080B002033
:1038700044F90008012229A9C14B1868FFF7FFF994
:1038800023A929A8FFF77DFABE4D29682398FDF7E3
:103890002FF9BD49FDF7EAFABC49FDF7E7FA014601
:1038A0003846FDF727F9074669682498FDF720F99F
:1038B000B549FDF7DBFAB549FDF7D8FA01463046C0
:1038C000FDF718F90646A9682598FDF711F9AE49E4
:1038D000FDF7CCFAAD49FDF7C9FA01462046FDF7E0
:1038E00009F904460120FFF74DFC08F10108B8F57D
:1038F000167FBFDB39463846FDF704FA05463146E8
:103900003046FDF7FFF901462846FDF7F3F8054676
:1039100021462046FDF7F6F901462846FDF7EAF86C
:1039200003F016FBDFF85CB2CBF8580005AC984DFD
:103930000FCD0FC40FCD0FC495E80F0007C423703F
:1039400005A8FFF7FFFB024605A95046FFF71FFC3D
:103950000520FFF717FC05AC8E4D0FCD0FC495E881
:10396000070003C424F8022B120C227005A8FFF7ED
:10397000E9FB024605A95046FFF709FC0520FFF7C1
:1039800001FCDBF80460DBF80870DBF80000FCF7F2
:103990007BFD04460D463846FCF776FDCDE9020175
:1039A0003046FCF771FDCDE9000122462B467A49ED
:1039B00005A805F06BFE05A8FFF7C4FB024605A9A4
:1039C0005046FFF7E4FB0520FFF7DCFBDBF8106057
:1039D000DBF81470DBF80C00FCF756FD04460D46CE
:1039E0003846FCF751FDCDE902013046FCF74CFDAD
:1039F000CDE9000122462B46684905A805F046FEA0
:103A000005A8FFF79FFB024605A95046FFF7BFFB3D
:103A10000520FFF7B7FBDBF81C60DBF82070DBF854
:103A20001800FCF731FD04460D463846FCF72CFD26
:103A3000CDE902013046FCF727FDCDE90001224621
:103A40002B46574905A805F021FE05A8FFF77AFB8C
:103A5000024605A95046FFF79AFB0520FFF792FBA7
:103A6000DBF82800FCF710FD80468946DBF82C00C7
:103A7000FCF70AFD04460D46DBF83000FCF704FDB8
:103A800006460F463CA3D3E9002340464946FCF7CF
:103A900053FD8046894638A3D3E900233046394692
:103AA000FCF74AFDCDE9020133A3D3E90023204608
:103AB0002946FCF741FDCDE9000142464B46394914
:103AC00005A805F0E3FD05A8FFF73CFB024605A9A4
:103AD0005046FFF75CFB0520FFF754FBDBF8506016
:103AE000DBF85470DBF84C00FCF7CEFC04460D46C6
:103AF0003846FCF7C9FCCDE902013046FCF7C4FCAE
:103B0000CDE9000122462B46274905A805F0BEFD58
:103B100005A8FFF717FB024605A95046FFF737FB3C
:103B20000520FFF72FFBDBF85800FCF7ADFC024641
:103B30000B461E4905A805F0A9FD05A8FFF702FBE5
:103B4000024605A95046FFF722FB0520FFF71AFBA6
:103B500005AC174D0FCD0FC40FCD0FC495E807006E
:103B600003C4227005A8FFF7EDFA024605A95046E6
:103B7000FFF70DFB1EE000BF000000000088C340FF
:103B8000040B00200C0B00200000C842000016446B
:103B90007CF90008ACF90008C8F90008ECF9000845
:103BA00010FA000834FA000878FA0008A0FA0008B1
:103BB000C4FA00084FF49670FFF7D6FA2DB0BDE8AE
:103BC000F08F00BF10B504464FF07C51FDF79AF816
:103BD00001462346094CA4EB63042046FDF792F806
:103BE00001462046FDF78EF801464FF07F50FCF766
:103BF0007FFF01462046FDF785F810BDDF59375F8E
:103C00002DE9F04F83B006460F4615460193834CCD
:103C100021680068FCF76CFF8149FDF727F98246AF
:103C2000306061687068FCF763FF7D49FDF71EF93D
:103C300081467060A168B068FCF75AFF7849FDF7CB
:103C400015F98046B06051465046FDF75BF8834653
:103C500049464846FDF756F801465846FCF74AFFE4
:103C6000834641464046FDF74DF801465846FCF76D
:103C700041FF01464FF07E50FDF7F8F883460146BC
:103C8000A06DFDF73FF801465046FDF73BF8306068
:103C90005946A06DFDF736F801464846FDF732F863
:103CA00070605946A06DFDF72DF801464046FDF7BE
:103CB00029F8B060E1683868FCF71AFFA16AFDF7DF
:103CC00021F8386021697868FCF712FFE16AFDF796
:103CD00019F878606169B868FCF70AFF216BFDF795
:103CE00011F8B86000272F60E1696868FCF700FFF1
:103CF000216DFDF7BBF806466860216AA868FCF7ED
:103D0000F7FE616DFDF7B2F8A86039460198FDF73E
:103D10008DF970B939460C98FDF788F948B93946DC
:103D20000D98FDF783F920B939460E98FDF77EF915
:103D300028B36F6839463846FCF7E4FF0021FCF7EA
:103D4000D9FE0446AE6831463046FCF7DBFF01463B
:103D50002046FCF7CFFEFFF735FF04460021FCF7B5
:103D6000D1FF286021463846FCF7CCFF6860214629
:103D70003046FCF7C7FFA86003B0BDE8F08F0D998F
:103D8000019F3846FCF7BEFF04460E990C98FCF7DD
:103D9000B9FF01462046FCF7ABFE0146FCF7AAFE40
:103DA00003F0B4F803F008FA01463046FDF75EF878
:103DB0000446A8600C993846FCF7A4FF06460E9905
:103DC0000D98FCF79FFF01463046FCF793FE014635
:103DD000FCF790FE06460C990846FCF793FF074651
:103DE0000D990846FCF78EFF01463846FCF782FE27
:103DF0000146FCF77FFE01464FF07E50FCF778FE4F
:103E000001463046FDF732F803F0BEF803F0D4F96E
:103E100001462046FDF72AF868608AE70C0B00206F
:103E20000000C84282B0002100910B4B5A6C42F452
:103E300080425A645A6C02F480420092009A0191C6
:103E40001A6C42F080521A641B6C03F08053019389
:103E5000019B02B0704700BF0038024000B589B036
:103E6000002303930493059306930793026803F1D9
:103E7000804303F590339A4202D009B05DF804FB09
:103E80000021019103F58C335A6C42F480725A641C
:103E90005A6C02F480720192019A02911A6B42F0FC
:103EA00002021A631B6B03F002030293029B0223BC
:103EB00003930323049303A9014800F0FDFDDCE70D
:103EC0000004024030B58BB000230593069307939E
:103ED000089309930368274A934204D0264A9342E1
:103EE00024D00BB030BD00250195244C236B43F04A
:103EF00002032363236B03F002030193019BC0239E
:103F0000059312230693032308930423099305A919
:103F10001B4800F0D1FD0295236C43F40013236489
:103F2000236C03F400130293029BDAE70025039548
:103F3000124C236B43F002032363236B03F0020351
:103F40000393039B4FF440630593122306930323CB
:103F500008930423099305A9094800F0ADFD0495D1
:103F6000236C43F480032364236C03F480030493E1
:103F7000049BB6E70054004000580040003802405F
:103F800000040240F0B58BB000230593069307931D
:103F9000089309930368314A934204D0304A93420C
:103FA00024D00BB0F0BD002100912E4B5A6C42F48E
:103FB00080525A645A6C02F480520092009A019125
:103FC0001A6B42F001021A631B6B03F001030193A9
:103FD000019BE02305930223069303230893052303
:103FE000099305A9204800F067FDDAE70024029450
:103FF0001C4B1A6C42F480421A641A6C02F4804220
:104000000292029A03941A6B42F004021A631A6B2A
:1040100002F004020392039A04941A6B42F0020223
:104020001A631B6B03F002030493049B0C23059398
:1040300002270697032608960525099505A90B482A
:1040400000F03AFD4FF40053059306970794089645
:10405000099505A9064800F02FFDA2E700300140B0
:1040600000380040003802400000024000080240D2
:104070000004024082B00368104A934204D0B3F1B6
:10408000804F0ED002B07047002300930C4B5A6C47
:1040900042F001025A645B6C03F001030093009B41
:1040A000F0E700230193064B1A6C42F001021A64F8
:1040B0001B6C03F001030193019BE3E70000014047
:1040C0000038024070B588B0002303930493059331
:1040D000069307930368264A934204D0B3F1804FB6
:1040E00019D008B070BD00230093224B1A6B42F028
:1040F00010021A631B6B03F010030093009B4FF434
:10410000D4430393022304930123079303A91A487A
:1041100000F0D2FCE5E70024019403F50E331A6B9E
:1041200042F001021A631A6B02F001020192019A35
:1041300002941A6B42F002021A631B6B03F0020333
:104140000293029B48F20C03039302260496012576
:10415000079503A9094800F0AFFC082303930496D0
:1041600005940694079503A9054800F0A5FCB8E757
:1041700000000140003802400010024000000240F0
:104180000004024010B590B000230B930C930D93E4
:104190000E930F930368754A93420FD0744A93426B
:1041A00036D0744A93425FD0734A934200F08780BE
:1041B000724A934200F0AF8010B010BD0024019409
:1041C0006F4B1A6C42F400221A641A6C02F400223B
:1041D0000192019A02941A6B42F001021A631B6B5E
:1041E00003F001030293029B03230B9302220C9220
:1041F0000E9308230F930BA9624800F05DFC224642
:104200002146342000F0BAFB342000F0C7FBD3E78E
:10421000002403945A4B5A6C42F010025A645A6CB0
:1042200002F010020392039A04941A6B42F0010206
:104230001A631B6B03F001030493049B4FF4C063E8
:104240000B9302230C9303230E9307230F930BA9C5
:104250004C4800F031FC22462146252000F08EFB20
:10426000252000F09BFBA7E700240594444B1A6C23
:1042700042F400321A641A6C02F400320592059A74
:1042800006941A6B42F008021A631B6B03F00803D2
:104290000693069B60230B9302230C9303230E9338
:1042A00007230F930BA9384800F006FC224621464D
:1042B000262000F063FB262000F070FB7CE7002442
:1042C00007942F4B1A6C42F480221A641A6C02F481
:1042D00080220792079A08941A6B42F008021A6328
:1042E0001B6B03F008030893089B4FF440730B9378
:1042F00002230C9303230E9307230F930BA9224849
:1043000000F0DAFB22462146272000F037FB272069
:1043100000F044FB50E700240994194B5A6C42F01A
:1043200020025A645A6C02F020020992099A0A94F7
:104330001A6B42F004021A631B6B03F004030A9326
:104340000A9BC0230B9302230C9303230E93082391
:104350000F930BA90D4800F0AFFB224621464720E2
:1043600000F00CFB472000F019FB25E7004C004053
:10437000001001400044004000480040001401408B
:104380000038024000000240000C024000080240D9
:10439000FEE7FEE7FEE7FEE7FEE77047704770477F
:1043A00008B500F003F908BD08B5024802F036FC74
:1043B00008BD00BF4C08002008B5024802F02EFCE2
:1043C00008BD00BF0808002008B5024802F026FC1E
:1043D00008BD00BFC407002008B5024802F01EFC5B
:1043E00008BD00BF9008002008B5024802F016FC86
:1043F00008BD00BF8007002008B5054B0F221A70CA
:10440000044B186801F047FE192000F0E9FA08BDD6
:1044100030070020780700200120704708B505F01C
:1044200087FA162303604FF0FF3008BD08B54FF040
:10443000FF31FFF7F3FFFEE770B50C461646002587
:1044400006E0AFF30080214601F8010B01350C4670
:10445000B542F6DB304670BD70B50C4616460025F9
:1044600004E014F8010BAFF300800135B542F8DB2E
:10447000304670BD4FF0FF3070474FF400534B6033
:1044800000207047012070470020704710B5034698
:104490000C4A0D490D48006840B10C4800680344BF
:1044A000521A934206D8094A136010BD0748084CB7
:1044B0000460F2E705F03CFA0C2303604FF0FF3094
:1044C000F3E700BF0000022000040000680B00209A
:1044D000880E002070470000DFF834D00D480E49E8
:1044E0000E4A002302E0D458C4500433C4188C424E
:1044F000F9D30B4A0B4C002301E013600432A242B3
:10450000FBD3FFF7E7FF05F019FAFEF723FA704730
:104510000000022000000020EC060020C404010876
:10452000EC060020840E0020FEE7000010B50446D3
:104530000E4B1A784FF47A73B3FBF2F30C4A1068FF
:10454000B0FBF3F000F038FA68B90F2C01D9012064
:104550000AE0002221464FF0FF3000F00FFA054B31
:104560001C60002000E0012010BD00BF28000020DA
:10457000240000202C00002008B50B4B1A6842F4E0
:1045800000721A601A6842F480621A601A6842F473
:1045900080721A60032000F0DFF90F20FFF7C6FFDA
:1045A000FFF740FC002008BD003C0240034A1168B0
:1045B000034B1B780B441360704700BF6C0B00204B
:1045C00028000020014B1868704700BF6C0B0020CA
:1045D0004A4B5A6822F440325A605A6841680A438A
:1045E0005A600268536823F480735360026853680A
:1045F000016943EA012353600268536823F0407362
:1046000053600268536881680B4353600268936883
:1046100023F40063936002689368C1680B4393605E
:10462000826A374B9A4257D00268936823F07063CE
:10463000936002689368816A0B4393600268936891
:1046400023F04053936002689368C16A0B43936000
:104650000268936823F00203936002689368017E06
:1046600043EA4103936090F82030002B3FD002686A
:10467000536843F4006353600268536823F4604353
:10468000536001684B68426A013A43EA42334B6027
:104690000268D36A23F47003D3620168CB6AC269EB
:1046A000013A43EA0253CB620268936823F4007331
:1046B00093600268936890F8301043EA4123936056
:1046C0000268936823F48063936002689368416989
:1046D00043EA8123936070470268936823F0706314
:1046E00093600268936823F040539360B0E70268D8
:1046F000536823F400635360CAE700BF00230140FE
:104700000100000F38B310B50446036C43B1236CAD
:1047100013F0100F0BD00120002384F83C3010BDA3
:10472000FFF79CFB0023636484F83C30EFE7236CC5
:1047300023F4885323F0020343F00203236420464A
:10474000FFF746FF00206064236C23F0030343F06F
:1047500001032364E0E701207047000030B482B019
:104760000022019290F83C20012A00F0B680034616
:10477000012280F83C200A68092A40D90468E068D0
:1047800092B202EB42021E3A4FF0070C0CFA02F210
:1047900020EA0202E2601C68E0680A8802EB42023A
:1047A0001E3A8D6805FA02F20243E2604A68062A60
:1047B0003CD81C68606B02EB8202053A4FF01F0C7C
:1047C0000CFA02F220EA020262631C68606B4A681B
:1047D00002EB8202053AB1F800C00CFA02F2024381
:1047E000626318683E4A904250D018683C4A904232
:1047F00055D0002083F83C0002B030BC70470468FC
:10480000206992B202EB42024FF0070C0CFA02F25E
:1048100020EA020222611C6820690A8802EB420237
:104820008D6805FA02F202432261BFE70C2A16D80E
:104830001D68286B02EB8202233A1F2404FA02F25D
:1048400020EA02022A631D68286B4A6802EB820292
:10485000233A0C8804FA02F202432A63C1E71D6876
:10486000E86A02EB8202413A1F2404FA02F220EACB
:104870000202EA621D68E86A4A6802EB8202413A73
:104880000C8804FA02F20243EA62AAE70A68122AD2
:10489000ABD11448426842F480024260A5E70A683E
:1048A000103A012AA5D80F48426842F4000242603B
:1048B0000A68102A9DD10C4A12680C49A1FB021209
:1048C000920C02EB82025200019202E0019A013A3C
:1048D0000192019A002AF9D18BE702208CE700BFF0
:1048E00000200140002301402400002083DE1B4300
:1048F000002808DB0901C9B200F1604000F5614001
:1049000080F80013704700F00F000901C9B2014B95
:104910001954704714ED00E000B500F00700C0F135
:10492000070CBCF1040F28BF4FF0040C031D062B2D
:104930000FD9C31E4FF0FF3E0EFA0CF021EA000122
:1049400099400EFA03FE22EA0E0241EA02005DF8E7
:1049500004FB0023EEE70000074AD36823F4E0637A
:104960001B041B0C000200F4E060034343F0BF6330
:1049700043F40033D360704700ED00E010B5044607
:10498000054BD868C0F30220FFF7C6FF014620465A
:10499000FFF7AEFF10BD00BF00ED00E0002807DB11
:1049A00000F01F02400901239340024A42F82030E0
:1049B000704700BF00E100E00138B0F1807F0BD20A
:1049C0004FF0E0235861054AF02182F823100020BF
:1049D000986107221A6170470120704700ED00E0DE
:1049E000002808DB00F01F024009012393406030DB
:1049F000014A42F82030704700E100E070B50446FB
:104A0000866DFFF7DFFD94F83530DBB2022B06D060
:104A100080236365002384F83430012070BD05468F
:104A20002268136823F0160313602268536923F089
:104A300080035361236CE3B12268136823F00803F9
:104A400013602268136823F00103136023681B6856
:104A500013F0010F11D0FFF7B5FD431B052BF5D95E
:104A600020236365032084F83500002384F8343064
:104A7000D4E7A36C002BDFD1E3E7E26D3F23934043
:104A8000B360012384F83530002084F83400C5E792
:104A900090F83530DBB2022B03D080234365012030
:104AA0007047052380F835300268136823F001034E
:104AB000136000207047000000230F2B00F2EC80F1
:104AC00030B583B068E085684FEA430E032404FAEA
:104AD0000EF425EA0405CC6804FA0EF42C43846035
:104AE000446824EA02044A68C2F300129A4022434E
:104AF00042605FE0DC08083450F8242003F007052A
:104B0000AD004FF00F0E0EFA05FE22EA0E0E0A69F6
:104B1000AA4042EA0E0240F824205FE0072200E0AB
:104B2000002202FA0EF22A4302345C4D45F824209A
:104B30005B4A94686FEA0C0224EA0C05D1F804E0A1
:104B40001EF4801F01D04CEA0405554CA560E468B2
:104B500002EA0405D1F804E01EF4001F01D04CEA7B
:104B600004054F4CE560646802EA0405D1F804E0EE
:104B70001EF4003F01D04CEA0405494C65602468EE
:104B800022404D6815F4803F01D04CEA0402444CA9
:104B9000226001330F2B7DD801229A400C6804EA71
:104BA000020C32EA0404F4D14C6804F00304013C22
:104BB000012C88D94A6802F00302032A09D0C4688C
:104BC0005D000322AA4024EA02048A68AA40224324
:104BD000C2604A6802F00302022A8BD004684FEADE
:104BE000430E032202FA0EF224EA02044A6802F09B
:104BF000030202FA0EF2224302604A6812F4403FB6
:104C0000C7D000220192274A546C44F48044546473
:104C1000526C02F480420192019A9C08A51C1F4A22
:104C200052F8255003F0030E4FEA8E0E0F2202FABF
:104C30000EF225EA02051C4A90423FF471AF02F5DC
:104C4000806290421AD002F58062904218D002F53C
:104C50008062904216D002F58062904214D002F534
:104C60008062904212D002F58062904210D002F52C
:104C7000806290423FF452AF082252E7012250E78F
:104C800002224EE703224CE704224AE7052248E7C6
:104C9000062246E703B030BD704700BF0038014030
:104CA000003C014000380240000002400AB181612E
:104CB0007047090481617047436901EA030221EAF0
:104CC000030141EA02418161704703685A6912F4A5
:104CD000806F01D1002070476FF480625A61002319
:104CE0000363202280F83D2080F83E30026C42F0C1
:104CF0000402026480F83C30012070472DE9F04145
:104D000007460D4690461E4624E0FFF75BFC069BD7
:104D1000C01AB04200D8EEB900233B63202287F8C6
:104D20003D2087F83E303A6C42F020023A6487F822
:104D30003C3001201EE03B689C6925EA040C1FFA08
:104D40008CFCBCFA8CFC4FEA5C1CE04511D1B6F13E
:104D5000FF3FDAD1C5F30743012BECD13B685B6918
:104D600025EA030C1FFA8CFCBCFA8CFC4FEA5C1C95
:104D7000EBE70020BDE8F0812DE9F04105460E4645
:104D8000174698463DE01A6842F400721A602B6894
:104D90006FF480625A6100232B63202285F83D2046
:104DA00085F83E302A6C42F004022A6485F83C30D3
:104DB000012034E0FFF706FCA0EB0800B84200D861
:104DC000FFB900232B63202285F83D2085F83E3073
:104DD0002A6C42F020022A6485F83C3001201EE053
:104DE0002B689C6926EA0404A4B2003C18BF012485
:104DF000A4B12B685A6912F4806FC4D1B7F1FF3F98
:104E0000D8D1C6F30743012BEAD12B685C6926EAA7
:104E10000404A4B2003C18BF0124E9E70020BDE867
:104E2000F08170B504460D46164623685B6913F0A1
:104E3000800F1CD12046FFF748FFD0B9B5F1FF3FE6
:104E4000F3D0FFF7BFFB801BA84201D8002DECD1A7
:104E500000232363202284F83D2084F83E30226C16
:104E600042F02002226484F83C30012000E000205F
:104E700070BD0120FCE700002DE9F04385B0044639
:104E80000D4691461F46DDF830800D9E0368196877
:104E900041F4807119600096434600224FF00111E1
:104EA000FFF72CFF60B9236805F0FE051D6133464E
:104EB000424626492046FFF75FFF68B1012008E01F
:104EC00023681B6813F4807F02D04FF400732364BF
:104ED000032005B0BDE8F0830023039323685A69DB
:104EE00003929B690393039B324641462046FFF79A
:104EF00098FF30B9012F0FD123685FFA89F61E6140
:104F0000E7E7236C042B01D00120E2E72268136855
:104F100043F400731360F7E723684FEA19221A611C
:104F2000324641462046FFF77CFF20B923685FFAEE
:104F300089F61E61CDE7236C042B01D00120C8E760
:104F40002268136843F400731360F7E7020001005E
:104F50002DE9F04784B004460D46164699460C9F4D
:104F6000DDF834800268136843F4806313600368DB
:104F7000196841F480711960CDF800803B46002229
:104F80004FF00111FFF7BAFE70B95FFA85FA236896
:104F900005F0FE051D6143463A4641492046FFF7AC
:104FA000EBFE68B1012008E023681B6813F4807FE2
:104FB00002D04FF400732364032004B0BDE8F087EF
:104FC0000023039323685A6903929B690393039B0D
:104FD000424639462046FFF724FF80B9B9F1010F58
:104FE00018D12368F6B21E61424639462046FFF7C3
:104FF00018FF68B3236C042B24D00120DDE7236C59
:10500000042B01D00120D8E72268136843F4007311
:105010001360F7E72368320A1A6142463946204690
:10502000FFF7FFFE18B92368F6B21E61DCE7236CB8
:10503000042B01D00120C0E72268136843F40073F9
:105040001360F7E72268136843F400731360D4E732
:105050002268136843F480731360CDF800803B46E8
:1050600000224FF001112046FFF748FE68B9226880
:105070004AF00103136143463A4609492046FFF7C7
:105080007BFE002899D0012097E723681B6813F462
:10509000807F02D04FF40073236403208DE700BFAC
:1050A0000200010070B504460D46164623685B6990
:1050B00013F0040F1CD12046FFF707FED0B9B5F15D
:1050C000FF3FF3D0FFF77EFA801BA84201D8002DE6
:1050D000ECD100232363202284F83D2084F83E3065
:1050E000226C42F02002226484F83C30012000E06F
:1050F000002070BD0120FCE770B505460C46164641
:105100002B68596911F0400F29D1596911F0100F1E
:1051100015D1FFF757FA801BA04201D8002CEFD120
:1051200000232B63202285F83D2085F83E302A6C31
:1051300042F020022A6485F83C30012070BD6FF0F7
:1051400010025A6100232B63202285F83D2085F848
:105150003E302A6C2A6485F83C300120EEE70020BE
:10516000ECE70000002800F0CC8070B5044690F811
:105170003D30002B77D0242384F83D30226813681B
:1051800023F0010313602268136843F400431360A3
:105190002268136823F40043136000F0EBFD62689B
:1051A0005A4B9A4264D85A4B98428CBF0023012331
:1051B000002B40F0A8805749A1FB00318B0C2568DB
:1051C0006A6822F03F0242EA91426A6021680A6AF4
:1051D00022F03F0266684D4DAE424FD80133134373
:1051E0000B622168CA6922F44F4222F0FF0265680F
:1051F000464B9D424CD8431E6D00B3FBF5F3013383
:1052000040F6FC70034278D0C3F30B031A43CA6123
:1052100021680B6823F0C003E269206A024313434C
:105220000B6021688B6823F4034323F0FF0322699A
:10523000E068024313438B602168CB6823F0FF03CF
:105240006269A06902431343CB602268136843F08C
:105250000103136000202064202384F83D30206384
:1052600084F83E0070BD80F83C30FEF72BFE82E7EC
:10527000294B98428CBF0023012399E74FF4967580
:1052800005FB03F3254DA5FB03539B090133A6E75B
:10529000A668BEB9431E05EB450CB3FBFCF3013316
:1052A000C3F30B03B3FA83F35B0943BBC6B9431ED5
:1052B00005EB4505B3FBF5F30133C3F30B0343F4EF
:1052C0000043A3E7431E05EB850C0CEB8C0CB3FBF2
:1052D000FCF30133C3F30B03B3FA83F35B09E4E795
:1052E000431E05EB850505EB8505B3FBF5F301339F
:1052F000C3F30B0343F4404388E7042386E7012309
:1053000084E7012070470120ACE700BFA0860100C0
:105310007F841E0083DE1B43FF083D00D34D6210D7
:105320002DE9F04383B004460F46904699460C9E03
:10533000FFF748F9054694F83D00C0B2202803D095
:10534000022003B0BDE8F0830095192301224B49E8
:105350002046FFF7D3FC002840F0898094F83C30C9
:10536000012B00F08680012384F83C3023681A6802
:1053700012F0010F03D11A6842F001021A6022688C
:10538000136823F400631360212384F83D30402325
:1053900084F83E30002323640A9B6362BDF82C30FE
:1053A0006385638D2385364BE362019500964B46FA
:1053B000424639462046FFF75FFD00285BD1238D2A
:1053C000002B35D02A4631462046FFF72AFD20BB68
:1053D000626A236812781A61626A531C6362218DC3
:1053E000013989B22185638D9BB2013B9BB26385F4
:1053F0002368586910F0040FE1D00029DFD05278FB
:105400001A61636A01336362238D013B2385638DD7
:105410009BB2013B9BB26385D1E7236C042B01D087
:1054200001208EE72268136843F400731360F7E7E6
:105430002A4631462046FFF735FE50B1236C042B37
:1054400001D001207DE72268136843F400731360E4
:10545000F7E72268136843F400731360202384F88D
:105460003D30002384F83E3084F83C3069E7022068
:1054700067E7022065E7012063E700BF0200100034
:105480000000FFFF2DE9F04387B004460F46904629
:105490009946109EFFF796F8054694F83D00C0B275
:1054A000202804D00227384607B0BDE8F0830095D5
:1054B0001923012288492046FFF720FC002840F0EC
:1054C000438194F83C30012B00F04081012384F8A3
:1054D0003C3023681A6812F0010F03D11A6842F0B9
:1054E00001021A602268136823F400631360222308
:1054F00084F83D30402384F83E30002323640E9B23
:105500006362BDF83C306385638D2385734BE36232
:10551000019500964B46424639462046FFF718FD56
:105520000746002840F01481238D5BB9029323685D
:105530005A6902929A690292029A1A6842F40072B7
:105540001A6075E0012B0AD0022B1AD000230593B4
:1055500023685A6905929B690593059B68E0226858
:10556000136823F4806313600023039323685A694C
:1055700003929A690392039A1A6842F400721A60BD
:1055800056E02268136823F480631360226813686E
:1055900043F4006313600023049323685A69049260
:1055A0009B690493049B43E02A4631462046FFF75B
:1055B000A3FD002840F0CE8023681A69636A1A7040
:1055C000636A01336362238D013B2385638D9BB244
:1055D000013B9BB263852BE0009533460022404996
:1055E0002046FFF78BFB002840F0B6802268136846
:1055F00043F40073136023681A69636A1A70626A5D
:10560000531C6362238D013B2385638D9BB2013B59
:105610009BB2638523681B695370636A01336362BD
:10562000238D013B2385638D9BB2013B9BB2638538
:10563000238D002B7FD0032B54D8012BB4D0022B09
:10564000CAD000953346002225492046FFF756FB75
:10565000002840F083802268136823F4806313607D
:1056600023681A69636A1A70636A01336362238D5F
:10567000013B2385638D9BB2013B9BB26385009503
:105680003346002216492046FFF738FB002867D131
:105690002268136843F40073136023681A69636A0D
:1056A0001A70626A531C6362238D013B2385638DEC
:1056B0009BB2013B9BB2638523681B695370636A8D
:1056C00001336362238D013B2385638D9BB2013BD4
:1056D0009BB26385ACE700BF020010000000FFFF33
:1056E000040001002A4631462046FFF705FD002848
:1056F00038D123681A69636A1A70626A531C63623C
:10570000238D013B2385638D9BB2013B9BB2638557
:105710002368596911F0040F8AD01B695370636ABA
:1057200001336362238D013B2385638D9BB2013B73
:105730009BB263857CE7202384F83D30002384F806
:105740003E3084F83C30AEE60227ACE60227AAE6FB
:105750000127A8E60127A6E60127A4E60127A2E67D
:105760000127A0E601279EE6002800F0E08170B541
:1057700082B00446036813F0010F3BD09F4B9B6837
:1057800003F00C03042B2CD09C4B9B6803F00C0300
:10579000082B21D06368B3F5803F4FD0B3F5A02F1D
:1057A00052D0964B1A6822F480321A601A6822F49A
:1057B00080221A606368002B50D0FEF703FF054675
:1057C0008E4B1B6813F4003F14D1FEF7FBFE401B09
:1057D0006428F5D90320B1E1884B5B6813F4800F8E
:1057E000D8D0864B1B6813F4003F03D06368002BAE
:1057F00000F09F81236813F0020F54D07F4B9B6809
:1058000013F00C0F3ED07D4B9B6803F00C03082B6C
:1058100033D0E368002B68D0794B01221A60FEF781
:10582000D1FE0546754B1B6813F0020F54D1FEF7ED
:10583000C9FE401B0228F5D903207FE16F4A136897
:1058400043F480331360B5E76C4B1A6842F480224E
:105850001A601A6842F480321A60ABE7FEF7B2FEB3
:105860000546664B1B6813F4003FC3D0FEF7AAFE43
:10587000401B6428F5D9032060E1604B5B6813F49A
:10588000800FC6D15D4B1B6813F0020F03D0E36895
:10589000012B40F05081594A136823F0F803216925
:1058A00043EAC1031360236813F0080F42D0636911
:1058B0006BB3534B0122C3F8802EFEF783FE0546DF
:1058C0004E4B5B6F13F0020F34D1FEF77BFE401B93
:1058D0000228F5D9032031E1484A136823F0F80380
:1058E000216943EAC1031360DDE7454B00221A60DA
:1058F000FEF768FE0546414B1B6813F0020FD2D03D
:10590000FEF760FE401B0228F5D9032016E13C4B50
:105910000022C3F8802EFEF755FE0546374B5B6F1D
:1059200013F0020F06D0FEF74DFE401B0228F5D9FA
:10593000032003E1236813F0040F77D02F4B1B6C77
:1059400013F0805F33D1002301932C4B1A6C42F08B
:1059500080521A641B6C03F080530193019B012554
:10596000284B1B6813F4807F23D0A368012B34D00D
:10597000052B38D0214B1A6F22F001021A671A6FDB
:1059800022F004021A67A368002B3DD0FEF71AFE2E
:1059900006461A4B1B6F13F0020F46D1FEF712FE9C
:1059A000801B41F288339842F3D90320C6E00025DA
:1059B000D6E7144A136843F480731360FEF702FEBF
:1059C0000646104B1B6813F4807FCED1FEF7FAFD1C
:1059D000801B0228F5D90320B0E0084A136F43F07A
:1059E00001031367CFE7054B1A6F42F004021A67F1
:1059F0001A6F42F001021A67C5E700BF0038024083
:105A00000000474200700040FEF7DCFD0646524BA6
:105A10001B6F13F0020F08D0FEF7D4FD801B41F27C
:105A200088339842F3D9032088E0EDB9A369002BAD
:105A300000F08380484A926802F00C02082A51D094
:105A4000022B17D0454B00221A66FEF7BBFD044619
:105A5000414B1B6813F0007F42D0FEF7B3FD001BE3
:105A60000228F5D9032069E03B4A136C23F08053E8
:105A70001364DBE7394B00221A66FEF7A3FD0546E7
:105A8000354B1B6813F0007F06D0FEF79BFD401BD3
:105A90000228F5D9032051E0E369226A1343626AC0
:105AA00043EA8213A26A5208013A43EA0243E26AD5
:105AB00043EA0263284A5360284B01221A66FEF724
:105AC00081FD0446244B1B6813F0007F06D1FEF7CE
:105AD00079FD001B0228F5D903202FE000202DE0DE
:105AE00000202BE0012B2BD01B4B5B6803F48001C3
:105AF000E269914226D103F03F02216A8A4223D112
:105B0000616A47F6C0721A40B2EB811F1ED103F4DE
