:020000040800F2
:1000000000000220BD490008C5470008C747000896
:10001000C9470008CB470008CD4700080000000092
:10002000000000000000000000000000CF470008B2
:10003000D147000800000000D3470008D54700085A
:100040000D4A00080D4A00080D4A00080D4A000834
:100050000D4A00080D4A00080D4A00080D4A000824
:100060000D4A00080D4A00080D4A00080D4A000814
:100070000D4A00080D4A00080D4A00080D4A000804
:100080000D4A00080D4A0008CD4800080D4A000836
:100090000D4A00080D4A00080D4A00080D4A0008E4
:1000A0000D4A00085D4800080D4A00080D4A000886
:1000B0000D4A00080D4A00080D4A00080D4A0008C4
:1000C0000D4A00080D4A00080D4A00080D4A0008B4
:1000D0000D4A0008DD470008ED470008FD4700080D
:1000E0006D4800080D4A00080D4A00080D4A000836
:1000F0000D4A00080D4A00080D4A00080D4A000884
:100100000D4A00080D4A00080D4A00080D4A000873
:100110000D4800080D4A00081D4800083D48000829
:100120000D4A00080D4A00080D4A00080D4A000853
:100130000D4A00080D4A00080D4A00080D4A000843
:100140000D4A00080D4A00080D4A00080D4A000833
:100150000D4A00080D4A00080D4A00084D480008E5
:100160000D4A00080D4A00080D4A00080D4A000813
:100170000D4A00080D4A00080D4A00080000000062
:080180000D4A00080D4A0008B9
:1001C00081F0004102E000BF83F0004330B54FEA08
:1001D00041044FEA430594EA050F08BF90EA020F75
:1001E0001FBF54EA000C55EA020C7FEA645C7FEA08
:1001F000655C00F0E2804FEA5454D4EB5555B8BF2B
:100200006D420CDD2C4480EA020281EA030382EA9B
:10021000000083EA010180EA020281EA0303362D2D
:1002200088BF30BD11F0004F4FEA01314FF4801C00
:100230004CEA113102D0404261EB410113F0004F12
:100240004FEA03334CEA133302D0524263EB4303C9
:1002500094EA050F00F0A780A4F10104D5F1200E67
:100260000DDB02FA0EFC22FA05F2801841F10001C2
:1002700003FA0EF2801843FA05F359410EE0A5F196
:1002800020050EF1200E012A03FA0EFC28BF4CF0C7
:10029000020C43FA05F3C01851EBE37101F000457D
:1002A00007D54FF0000EDCF1000C7EEB00006EEB8A
:1002B0000101B1F5801F1BD3B1F5001F0CD3490814
:1002C0005FEA30004FEA3C0C04F101044FEA44526B
:1002D00012F5800F80F09A80BCF1004F08BF5FEAF2
:1002E000500C50F1000041EB045141EA050130BDD2
:1002F0005FEA4C0C404141EB0101013C28BFB1F5E4
:10030000801FE9D291F0000F04BF01460020B1FA2E
:1003100081F308BF2033A3F10B03B3F120020CDA01
:100320000C3208DD02F1140CC2F10C0201FA0CF0DF
:1003300021FA02F10CE002F11402D8BFC2F1200C44
:1003400001FA02F120FA0CFCDCBF41EA0C019040FA
:10035000E41AA2BF01EB0451294330BD6FEA040443
:100360001F3C1CDA0C340EDC04F11404C4F120022E
:1003700020FA04F001FA02F340EA030021FA04F340
:1003800045EA030130BDC4F10C04C4F1200220FA97
:1003900002F001FA04F340EA0300294630BD21FAD5
:1003A00004F0294630BD94F0000F83F4801306BF9B
:1003B00081F480110134013D4EE77FEA645C18BF8F
:1003C0007FEA655C29D094EA050F08BF90EA020F26
:1003D00005D054EA000C04BF1946104630BD91EA1E
:1003E000030F1EBF0021002030BD5FEA545C05D121
:1003F0004000494128BF41F0004130BD14F5800460
:100400003CBF01F5801130BD01F0004545F0FE41D3
:1004100041F470014FF0000030BD7FEA645C1ABF08
:10042000194610467FEA655C1CBF0B46024650EA3F
:10043000013406BF52EA033591EA030F41F400216B
:1004400030BD00BF90F0000F04BF0021704730B5F1
:100450004FF4806404F132044FF000054FF00001C6
:1004600050E700BF90F0000F04BF0021704730B587
:100470004FF4806404F1320410F0004548BF40425C
:100480004FF000013EE700BF42004FEAE2014FEAB1
:1004900031014FEA02701FBF12F07F4393F07F4F8C
:1004A00081F06051704732F07F4208BF704793F08F
:1004B0007F4F04BF41F40021704730B54FF46074A2
:1004C00001F0004521F000411CE700BF50EA0102A5
:1004D00008BF704730B54FF000050AE050EA01024E
:1004E00008BF704730B511F0004502D5404261EBBE
:1004F00041014FF4806404F132045FEA915C3FF4FF
:10050000D8AE4FF003025FEADC0C18BF03325FEA9B
:10051000DC0C18BF033202EBDC02C2F1200300FA4C
:1005200003FC20FA02F001FA03FE40EA0E0021FA71
:1005300002F11444BDE600BF70B54FF0FF0C4CF45F
:10054000E06C1CEA11541DBF1CEA135594EA0C0F11
:1005500095EA0C0F00F0DEF82C4481EA030621EA4C
:100560004C5123EA4C5350EA013518BF52EA033587
:1005700041F4801143F4801338D0A0FB02CE4FF039
:100580000005E1FB02E506F00042E0FB03E54FF069
:100590000006E1FB03569CF0000F18BF4EF0010E61
:1005A000A4F1FF04B6F5007F64F5407404D25FEA5D
:1005B0004E0E6D4146EB060642EAC62141EA555110
:1005C0004FEAC52040EA5E504FEACE2EB4F1FD0C52
:1005D00088BFBCF5E06F1ED8BEF1004F08BF5FEAD0
:1005E000500E50F1000041EB045170BD06F0004682
:1005F00046EA010140EA020081EA0301B4EB5C042F
:10060000C2BFD4EB0C0541EA045170BD41F4801126
:100610004FF0000E013C00F3AB8014F1360FDEBF4B
:10062000002001F0004170BDC4F10004203C35DA27
:100630000C341BDC04F11404C4F1200500FA05F3AA
:1006400020FA04F001FA05F240EA020001F000424B
:1006500021F0004110EBD37021FA04F642EB0601C1
:100660005EEA430E08BF20EAD37070BDC4F10C04EB
:10067000C4F1200500FA04F320FA05F001FA04F2AF
:1006800040EA020001F0004110EBD37041F100019B
:100690005EEA430E08BF20EAD37070BDC4F12005A6
:1006A00000FA05F24EEA020E20FA04F301FA05F20E
:1006B00043EA020321FA04F001F0004121FA04F2B6
:1006C00020EA020000EBD3705EEA430E08BF20EA86
:1006D000D37070BD94F0000F0FD101F000464000C0
:1006E00041EB010111F4801F08BF013CF7D041EA42
:1006F000060195F0000F18BF704703F00046520046
:1007000043EB030313F4801F08BF013DF7D043EA16
:100710000603704794EA0C0F0CEA135518BF95EACC
:100720000C0F0CD050EA410618BF52EA4306D1D153
:1007300081EA030101F000414FF0000070BD50EA72
:10074000410606BF1046194652EA430619D094EAFC
:100750000C0F02D150EA013613D195EA0C0F05D1E6
:1007600052EA03361CBF104619460AD181EA03013A
:1007700001F0004141F0FE4141F470014FF00000F2
:1007800070BD41F0FE4141F4780170BD70B54FF08D
:10079000FF0C4CF4E06C1CEA11541DBF1CEA13550D
:1007A00094EA0C0F95EA0C0F00F0A7F8A4EB0504EF
:1007B00081EA030E52EA03354FEA013100F08880E6
:1007C0004FEA03334FF0805545EA131343EA1263AF
:1007D0004FEA022245EA111545EA10654FEA002664
:1007E0000EF000419D4208BF964244F1FD0404F51D
:1007F000407402D25B084FEA3202B61A65EB030579
:100800005B084FEA32024FF480104FF4002CB6EB35
:10081000020E75EB030E22BFB61A754640EA0C00B5
:100820005B084FEA3202B6EB020E75EB030E22BFF5
:10083000B61A754640EA5C005B084FEA3202B6EB36
:10084000020E75EB030E22BFB61A754640EA9C00F5
:100850005B084FEA3202B6EB020E75EB030E22BFC5
:10086000B61A754640EADC0055EA060E18D04FEA83
:10087000051545EA16754FEA06164FEAC30343EA23
:1008800052734FEAC2025FEA1C1CC0D111F4801FF0
:100890000BD141EA00014FF000004FF0004CB6E7E9
:1008A00011F4801F04BF01430020B4F1FD0C88BF88
:1008B000BCF5E06F3FF6AFAEB5EB030C04BFB6EB93
:1008C000020C5FEA500C50F1000041EB045170BD86
:1008D0000EF0004E4EEA113114EB5C04C2BFD4EBB3
:1008E0000C0541EA045170BD41F480114FF0000E37
:1008F000013C90E645EA060E8DE60CEA135594EAB3
:100900000C0F08BF95EA0C0F3FF43BAF94EA0C0FB5
:100910000AD150EA01347FF434AF95EA0C0F7FF42A
:1009200025AF104619462CE795EA0C0F06D152EA7E
:1009300003353FF4FDAE1046194622E750EA410662
:1009400018BF52EA43067FF4C5AE50EA41047FF473
:100950000DAF52EA43057FF4EBAE12E74FF0FF3CD8
:1009600006E000BF4FF0010C02E000BF4FF0010CA9
:100970004DF804CD4FEA410C7FEA6C5C4FEA430C22
:1009800018BF7FEA6C5C1BD001B050EA410C0CBF71
:1009900052EA430C91EA030F02BF90EA020F0020D3
:1009A000704710F1000F91EA030F58BF994208BF3A
:1009B00090422CBFD8176FEAE37040F001007047F7
:1009C0004FEA410C7FEA6C5C02D150EA013C07D14E
:1009D0004FEA430C7FEA6C5CD6D152EA033CD3D099
:1009E0005DF8040B704700BF8446104662468C4693
:1009F0001946634600E000BF01B5FFF7B7FF0028C6
:100A000048BF10F1000F01BD4DF808EDFFF7F4FFEE
:100A10000CBF012000205DF808FB00BF4DF808ED79
:100A2000FFF7EAFF34BF012000205DF808FB00BF9C
:100A30004DF808EDFFF7E0FF94BF012000205DF8BE
:100A400008FB00BF4DF808EDFFF7CEFF94BF012073
:100A500000205DF808FB00BF4DF808EDFFF7C4FF6C
:100A600034BF012000205DF808FB00BF4FEA410CB5
:100A70007FEA6C5C02D150EA013C0AD14FEA430C98
:100A80007FEA6C5C02D152EA033C02D14FF00000D5
:100A900070474FF0010070474FEA410212F5001213
:100AA00015D211D56FF47873B3EB625212D94FEAB5
:100AB000C12343F0004343EA505311F0004F23FA9F
:100AC00002F018BF404270474FF00000704750EAF4
:100AD000013005D111F0004008BF6FF000407047B1
:100AE0004FF00000704700BF4FEA4102B2F1E0430F
:100AF00024BFB3F5001CDCF1FE5C0DD901F0004C05
:100B00004FEAC0024CEA5070B2F1004F40EB830054
:100B100008BF20F00100704711F0804F21D113F180
:100B20003872BCBF01F00040704741F480114FEAB9
:100B30005252C2F11802C2F1200C10FA0CF320FA42
:100B400002F018BF40F001004FEAC1234FEAD3235F
:100B500003FA0CFC40EA0C0023FA02F34FEA4303C9
:100B6000CCE77FEA625307D150EA01331EBF4FF052
:100B7000FE4040F44000704701F0004040F0FE406D
:100B800040F40000704700BF80F0004002E000BF6A
:100B900081F0004142001FBF5FEA410392EA030F68
:100BA0007FEA226C7FEA236C6AD04FEA1262D2EBB2
:100BB0001363C1BFD218414048404140B8BF5B42B7
:100BC000192B88BF704710F0004F40F4000020F050
:100BD0007F4018BF404211F0004F41F4000121F066
:100BE0007F4118BF494292EA030F3FD0A2F10102B0
:100BF00041FA03FC10EB0C00C3F1200301FA03F1EE
:100C000000F0004302D5494260EB4000B0F5000F10
:100C100013D3B0F1807F06D340084FEA310102F1CF
:100C20000102FE2A51D2B1F1004F40EBC25008BF81
:100C300020F0010040EA03007047490040EB00004B
:100C4000013A28BFB0F5000FEDD2B0FA80FCACF14C
:100C5000080CB2EB0C0200FA0CF0AABF00EBC25079
:100C600052421843BCBFD0401843704792F0000F67
:100C700081F4000106BF80F400000132013BB5E7BA
:100C80004FEA41037FEA226C18BF7FEA236C21D030
:100C900092EA030F04D092F0000F08BF0846704795
:100CA00090EA010F1CBF0020704712F07F4F04D163
:100CB000400028BF40F00040704712F100723CBF76
:100CC00000F50000704700F0004343F0FE4040F4A0
:100CD000000070477FEA226216BF08467FEA23635E
:100CE0000146420206BF5FEA412390EA010F40F449
:100CF000800070474FF0000304E000BF10F0004395
:100D000048BF40425FEA000C08BF704743F096437B
:100D100001464FF000001CE050EA010208BF704796
:100D20004FF000030AE000BF50EA010208BF70471D
:100D300011F0004302D5404261EB41015FEA010C32
:100D400002BF84460146002043F0B64308BFA3F12A
:100D50008053A3F50003BCFA8CF2083AA3EBC2530C
:100D600010DB01FA02FC634400FA02FCC2F120022B
:100D7000BCF1004F20FA02F243EB020008BF20F062
:100D80000100704702F1200201FA02FCC2F12002C8
:100D900050EA4C0021FA02F243EB020008BF20EABD
:100DA000DC7070474FF0FF0C1CEAD0521EBF1CEAEB
:100DB000D15392EA0C0F93EA0C0F6FD01A4480EAD9
:100DC000010C400218BF5FEA41211ED04FF00063C2
:100DD00043EA501043EA5111A0FB01310CF00040EE
:100DE000B1F5000F3EBF490041EAD3715B0040EA14
:100DF000010062F17F02FD2A1DD8B3F1004F40EBE4
:100E0000C25008BF20F00100704790F0000F0CF0B6
:100E1000004C08BF49024CEA502040EA51207F3A7A
:100E2000C2BFD2F1FF0340EAC250704740F4000055
:100E30004FF00003013A5DDC12F1190FDCBF00F046
:100E400000407047C2F10002410021FA02F1C2F1F4
:100E5000200200FA02FC5FEA310040F1000053EA90
:100E60004C0308BF20EADC70704792F0000F00F0DE
:100E7000004C02BF400010F4000F013AF9D040EAE4
:100E80000C0093F0000F01F0004C02BF490011F478
:100E9000000F013BF9D041EA0C018FE70CEAD15376
:100EA00092EA0C0F18BF93EA0C0F0AD030F0004CF6
:100EB00018BF31F0004CD8D180EA010000F00040AA
:100EC000704790F0000F17BF90F0004F084691F068
:100ED000000F91F0004F14D092EA0C0F01D14202A2
:100EE0000FD193EA0C0F03D14B0218BF084608D16B
:100EF00080EA010000F0004040F0FE4040F40000B5
:100F0000704740F0FE4040F4400070474FF0FF0C47
:100F10001CEAD0521EBF1CEAD15392EA0C0F93EA8E
:100F20000C0F69D0A2EB030280EA010C49024FEAE0
:100F3000402037D04FF0805343EA111143EA101399
:100F40000CF000408B4238BF5B0042F17D024FF451
:100F5000000C8B4224BF5B1A40EA0C00B3EB510F2C
:100F600024BFA3EB510340EA5C00B3EB910F24BF15
:100F7000A3EB910340EA9C00B3EBD10F24BFA3EB9A
:100F8000D10340EADC001B0118BF5FEA1C1CE0D162
:100F9000FD2A3FF650AF8B4240EBC25008BF20F015
:100FA000010070470CF0004C4CEA50207F32C2BF69
:100FB000D2F1FF0340EAC250704740F400004FF006
:100FC0000003013A37E792F0000F00F0004C02BF37
:100FD000400010F4000F013AF9D040EA0C0093F001
:100FE000000F01F0004C02BF490011F4000F013B5B
:100FF000F9D041EA0C0195E70CEAD15392EA0C0FC3
:1010000008D142027FF47DAF93EA0C0F7FF470AFFA
:10101000084676E793EA0C0F04D14B023FF44CAF3D
:1010200008466EE730F0004C18BF31F0004CCAD1D2
:1010300030F000427FF45CAF31F000437FF43CAF0E
:101040005FE700BF4FF0FF3C06E000BF4FF0010C30
:1010500002E000BF4FF0010C4DF804CD4FEA400212
:101060004FEA41037FEA226C18BF7FEA236C11D05C
:1010700001B052EA530C18BF90EA010F58BFB2EB0F
:10108000030088BFC81738BF6FEAE17018BF40F08F
:10109000010070477FEA226C02D15FEA402C05D143
:1010A0007FEA236CE4D15FEA412CE1D05DF8040BC8
:1010B000704700BF844608466146FFE70FB5FFF75B
:1010C000C9FF002848BF10F1000F0FBD4DF808ED13
:1010D000FFF7F4FF0CBF012000205DF808FB00BF04
:1010E0004DF808EDFFF7EAFF34BF012000205DF85E
:1010F00008FB00BF4DF808EDFFF7E0FF94BF0120AB
:1011000000205DF808FB00BF4DF808EDFFF7D2FFA7
:1011100094BF012000205DF808FB00BF4DF808EDEA
:10112000FFF7C8FF34BF012000205DF808FB00BFB7
:101130004FEA40024FEA41037FEA226C02D15FEAA4
:10114000402C08D17FEA236C02D15FEA412C02D106
:101150004FF0000070474FF0010070474FEA400227
:10116000B2F1FE4F0FD34FF09E03B3EB12620DD9D5
:101170004FEA002343F0004310F0004F23FA02F03F
:1011800018BF404270474FF00000704712F1610FE6
:1011900001D1420205D110F0004008BF6FF00040BD
:1011A00070474FF00000704753B94AB9002908BF93
:1011B00000281CBF4FF0FF314FF0FF3000F0E2B8C5
:1011C000ADF1080C6DE904CE06F0F2FEDDF804E0A6
:1011D000DDE9022304B0704700F1340191E83800E2
:1011E0009C46A6464CF8045D90E8FF0FE54600BD1E
:1011F00090EC210B704700BF80EC210B704700BFC3
:1012000090EC200B704700BF80EC200B704700BFB4
:10121000D0EC200B704700BFC0EC200B704700BF24
:10122000F0EC0201F0EC0211F0EC0221F0EC0231E2
:10123000F0EC0241F0EC0251F0EC0261F0EC0271D2
:10124000F0EC0281F0EC0291F0EC02A1F0EC02B1C2
:10125000F0EC02C1F0EC02D1F0EC02E1F0EC02F1B2
:10126000704700BFE0EC0201E0EC0211E0EC02216B
:10127000E0EC0231E0EC0241E0EC0251E0EC026112
:10128000E0EC0271E0EC0281E0EC0291E0EC02A102
:10129000E0EC02B1E0EC02C1E0EC02D1E0EC02E1F2
:1012A000E0EC02F1704700BFB0FC0181B0FC01919D
:1012B000B0FC01A1B0FC01B1704700BFA0FC0181EE
:1012C000A0FC0191A0FC01A1A0FC01B1704700BFEE
:1012D000EC4600B52DE900502DE9FF1F4FF000034B
:1012E0002DE90C0001A907F015F9DDF840E012B076
:1012F000704700BFEC4600B52DE900502DE9FF1FF7
:101300004FF000032DE90C0001A907F03FF9DDF8CB
:1013100040E012B0704700BFEC4600B52DE9005028
:101320002DE9FF1F4FF000032DE90C0001A907F084
:101330004DF9DDF840E012B0704700BFEC4600B553
:101340002DE900502DE9FF1F4FF000032DE90C009F
:1013500001AB07F013F9DDF840E012B0704700BFB1
:10136000EC4600B52DE900502DE9FF1F4FF00003BA
:101370002DE90C0001AA07F081F9DDF840E012B078
:10138000704700BF704700BF844641EA000313F076
:1013900003036DD1403A41D351F8043B40F8043B7C
:1013A00051F8043B40F8043B51F8043B40F8043B3F
:1013B00051F8043B40F8043B51F8043B40F8043B2F
:1013C00051F8043B40F8043B51F8043B40F8043B1F
:1013D00051F8043B40F8043B51F8043B40F8043B0F
:1013E00051F8043B40F8043B51F8043B40F8043BFF
:1013F00051F8043B40F8043B51F8043B40F8043BEF
:1014000051F8043B40F8043B51F8043B40F8043BDE
:1014100051F8043B40F8043B403ABDD2303211D37E
:1014200051F8043B40F8043B51F8043B40F8043BBE
:1014300051F8043B40F8043B51F8043B40F8043BAE
:10144000103AEDD20C3205D351F8043B40F8043B7E
:10145000043AF9D2043208D0D2071CBF11F8013B7C
:1014600000F8013B01D30B8803806046704700BF42
:10147000082A13D38B078DD010F003038AD0C3F151
:101480000403D21ADB071CBF11F8013B00F8013B33
:1014900080D331F8023B20F8023B7BE7043AD9D3F2
:1014A000013A11F8013B00F8013BF9D20B780370C7
:1014B0004B7843708B788370604670470000000063
:1014C00001F0FF01102A2BDB10F0070F08D010F8F5
:1014D000013B013A8B422DD010F0070F42B3F6D1F9
:1014E000F0B441EA012141EA014122F007047FF012
:1014F00000070023F0E80256083C85EA010586EA69
:10150000010685FA47F5A3FA87F586FA47F6A5FAA4
:1015100087F68EB9EED1F0BC01F0FF0102F00702B0
:1015200032B110F8013B013A83EA010313B1F8D15B
:101530000020704701387047002D06BF354603383C
:10154000073815F0010F07D1013015F4807F02BF75
:10155000013015F4C03F01300138F0BC704700BFC6
:10156000000000000000000000000000000000007B
:10157000000000000000000000000000000000006B
:1015800030B490F800F020F007016FF0000C10F07C
:10159000070491F820F040F048804FF000046FF00D
:1015A0000700D1E9002391F840F000F1080082FA29
:1015B0004CF2A4FA8CF283FA4CF3A2FA8CF34BBBF4
:1015C000D1E9022382FA4CF200F10800A4FA8CF26D
:1015D00083FA4CF3A2FA8CF3E3B9D1E9042382FA3B
:1015E0004CF200F10800A4FA8CF283FA4CF3A2FA50
:1015F0008CF37BB9D1E9062301F1200182FA4CF288
:1016000000F10800A4FA8CF283FA4CF3A2FA8CF3EE
:10161000002BC6D0002A04BF04301A4612BAB2FA10
:1016200082F200EBD20030BC7047D1E9002304F015
:101630000305C4F100004FEAC50514F0040F91F84A
:1016400040F00CFA05F562EA05021CBF63EA0503E7
:1016500062464FF00004AAE70348044B834202D0DD
:10166000034B03B1184770470C0700200C070020FC
:10167000000000000548064B1B1AD90F01EBA3011F
:10168000491002D0034B03B1184770470C070020E4
:101690000C0700200000000010B5064C237843B969
:1016A000FFF7DAFF044B13B10448AFF300800123C6
:1016B000237010BD0C070020000000004CF3000850
:1016C00008B5054B1BB105490548AFF30080BDE8DF
:1016D0000840FFF7CFBF00BF000000001007002048
:1016E0004CF300082DE9F84305460C46294B1B78BE
:1016F0000133092B00DD01235F1C55F82300FFF7A0
:10170000F9FA06462060092F00DD012707F10108DC
:1017100055F82700FFF7EEFA07466060B8F1090FA9
:1017200001DD4FF0010808F1010955F82800FFF725
:10173000E1FA8046A060B9F1090F01DD4FF001091F
:1017400055F82900FFF7D6FA0546E060124B1968F4
:101750004046FFF71DFA1149FFF7D8FBA06010497A
:101760003846FFF715FA0D49FFF7D0FB60600C49CA
:101770002846FFF70DFA0949FFF7C8FBE060084962
:101780003046FFF705FA0549FFF7C0FB2060BDE8CA
:10179000F88300BF04000020000000200000E143A7
:1017A00000C0A844012301E001339BB28B420AD25E
:1017B000054A127850F8222050F823C09445F3D9F6
:1017C000014A1370F0E770470400002038B5044662
:1017D0000D4603E029462046FFF7E4FF034B187847
:1017E00054F82030B3F5FA6FF4D338BD040000206C
:1017F000014B1860704700BF280700202DE9F04713
:10180000044617461E460B9D00F0A1FB04F1480953
:101810003946484600F09BFB04F1900A3146504699
:1018200000F095FB04F1D8080899404600F08FFBC2
:1018300004F590770999384600F089FB04F5B476F1
:101840000A99304600F083FB2968C4F8B0116B6830
:10185000C4F8B431AB68C4F8B831EB68C4F8BC3133
:101860002B69C4F8C0316B69C4F8C431204600F05C
:10187000B9FAD4F8B411484600F0B4FAD4F8B81163
:10188000504600F0AFFAD4F8BC11404600F0AAFA76
:10189000D4F8C011384600F0A5FAD4F8C411304687
:1018A00000F0A0FA012384F8E031BDE8F0870000E1
:1018B00070B504460B68C0F8B0314B68C0F8B4315D
:1018C0008E68C0F8B861CB68C0F8BC310B69C0F84D
:1018D000C0314D69C0F8C4512846FEF7D5FD20A39C
:1018E000D3E90023FFF7B8F840B121492846FFF7B4
:1018F0004FF91F49FFF74CF9C4F8C401D4F8C4519B
:101900002846FEF7C1FD18A3D3E90023FFF786F8A8
:1019100040B117492846FFF73DF91549FFF73AF955
:10192000C4F8C401314604F1900000F05BFAD4F829
:10193000C41104F5B47000F055FAD4F8C01104F5E0
:10194000907000F04FFAD4F8BC1104F1D80000F008
:1019500049FA94F8E03143F0010384F8E03170BDB6
:101960004AD8124DFB2109404AD8124DFB2109C02B
:10197000DA0F49400B68C0F8C8314B68C0F8CC3169
:101980008B68C0F8D031CB68C0F8D4310B69C0F88F
:10199000D8314B69C0F8DC3190F8E03143F00203F4
:1019A00080F8E031704700002DE9F04F87B0054620
:1019B0000C46164602F10801903000F0C5FA06F117
:1019C0000C0105F1D80000F0BFFA06F1100105F591
:1019D000907000F0B9FA06F1140105F5B47000F04A
:1019E000B3FAB068FEF750FDBDA3D3E90023FFF7BB
:1019F00015F808B1C44BB360C449B068FFF7CAF822
:101A00008346F568D6F810A0D6F814804FF07C51C4
:101A1000FFF7C8F9FEF738FDB3A3D3E90023FEF7BB
:101A2000B5FE0022BA4BFEF787FDCDE9000128F094
:101A300000404FF07C51FFF7B5F9FEF725FDAAA352
:101A4000D3E90023FEF7A2FE06460F462AF0004027
:101A500025F00041FFF79EF8FEF716FDA2A3D3E99B
:101A60000023FEF793FEA2A3D3E90023FEF78EFE28
:101A700002460B4630463946FEF7A8FB06460F469F
:101A800002460B46DDE90001FEF7C8FF68B3404699
:101A9000FEF7FAFC8046894632463B46DDE9000106
:101AA000FEF774FE06460F4602460B464046494680
:101AB000FEF742FDFFF718F880465046FEF7E4FCBB
:101AC00002460B4630463946FEF736FDFFF70CF866
:101AD00082462846FEF7D8FC02460B463046394679
:101AE000FEF72AFDFFF700F805464FF07A515846F9
:101AF000FFF758F9FEF7C8FC7BA3D3E90023FEF7F4
:101B000045FECDE900014FF07A514046FFF74AF912
:101B1000FEF7BAFC74A3D3E90023FEF737FE0646AE
:101B20000F4602460B46DDE90001FEF74FFB8046FB
:101B300089464FF07C515046FFF734F9FEF7A4FC7C
:101B400069A3D3E90023FEF721FE69A3D3E90023AB
:101B5000FEF71CFE02460B46CDE90423CDE90289BF
:101B600040464946FEF730FBFEF7BEFF8246206046
:101B700032463B46DDE90001FEF726FB06460F46EE
:101B80004FF07C512846FFF70DF9FEF77DFC56A378
:101B9000D3E90023FEF7FAFD55A3D3E90023FEF7AE
:101BA000F5FD8046894602460B46CDE90067304682
:101BB0003946FEF70BFBFEF797FF07466060DDE94D
:101BC0000423DDE90201FEF701FBFEF78DFF064667
:101BD000A06042464B46DDE90001FEF7F5FAFEF74C
:101BE00083FF0546E06039465046FEF7D3FF0146C5
:101BF0003046FEF7CFFF01462846FEF7CBFF0090A8
:101C00005846FEF741FC0022424BFEF795FC3AA3F2
:101C1000D3E90023FEF7BAFD39A3D3E90023FEF789
:101C20008BFC00223C4BFEF787FC804689460098DF
:101C3000FEF72AFC02460B4640464946FEF7A6FD43
:101C4000FEF752FF814601465046FFF7ABF805F01C
:101C500027FE8046206049463846FFF7A3F805F086
:101C60001FFE0746606049463046FFF79BF805F0C7
:101C700017FE0646A06049462846FFF793F805F090
:101C80000FFE0546E0604FF07E514046FFF746FAF2
:101C900008B14FF07E58C4F800804FF07E513846AE
:101CA000FFF73CFA08B14FF07E5767604FF07E5166
:101CB0003046FFF733FA08B14FF07E56A6604FF07A
:101CC0007E512846FFF72AFA08B14FF07E55E560AD
:101CD0000D494046FFF704FA20E000BFAFF3008053
:101CE0009A9999999999B93FFCA9F1D24D62503FBF
:101CF000333333333333D33F9A99999999992340A6
:101D0000CDCCCCCCCCCCDC3FCDCCCC3DCDCC9C41D7
:101D10000000E83F0000E03F0000104008B1DFF89D
:101D20003880C4F800800C493846FFF7D9F900B173
:101D3000094F676008493046FFF7D2F900B1064EF7
:101D4000A66005492846FFF7CBF900B1024DE560D2
:101D500007B0BDE8F08F00BFCDCCCC3D10B5044638
:101D6000D0F8D011903000F0BAF8D4F8D41104F1C2
:101D7000D80000F0B4F8D4F8D81104F5907000F051
:101D8000AEF8D4F8DC1104F5B47000F0A8F810BD7A
:101D900010B50446FFF7E2FF94F8E03103F0FD03CD
:101DA00084F8E03110BD000070B505460C4683682C
:101DB0008B600A494068FEF7F5FFE0600749286834
:101DC000FEF7F0FF206166690549E868FEF7EAFF63
:101DD00001463046FEF7DEFE606170BD0E2D323EDC
:101DE0006F12033B012380F82430C16270472DE954
:101DF000F0410446876A39460068FEF7D3FF804603
:101E0000E5682946FEF7C4FE064629464046FEF729
:101E1000C1FE804600213046FFF780F9002837D008
:101E2000A3690133A3616563D4F834802569294629
:101E30004046FEF7ADFE064629464046FEF7AAFE9E
:101E4000804600213046FFF769F900282DD0E3696C
:101E50000133E3616563216C3846FEF799FEA168A2
:101E6000FEF7A0FF074665692946FEF791FE064684
:101E700029463846FEF78EFE074600213046FFF71A
:101E80004DF9F8B1236A01332362A563BDE8F081FF
:101E900000214046FFF724F90028C5D0A36901338B
:101EA000A36105F100456563BEE700214046FFF7E9
:101EB00017F90028CFD0E3690133E36105F100454C
:101EC0006563C8E700213846FFF70AF90028DDD02E
:101ED000236A0133236205F10045A563D6E770B597
:101EE00004460163012380F8253090F824301BB9A3
:101EF000002384F8253070BDC06AFEF749FE054610
:101F0000A0622168FEF74EFFE063666B61682846B9
:101F1000FEF748FF01463046FEF73CFE6063216C49
:101F20002846FEF735FEA168FEF73CFFA063256456
:101F30002046FFF75CFF616BE06BFEF72BFEA16BA9
:101F4000FEF728FE6064D3E7436C0B6070470B68B4
:101F500003604B6843608B68836070477047000084
:101F600070B504460D46164600680146FEF71AFF96
:101F70002A49FEF717FFFFF7F1F83368D8632068A6
:101F80000146FEF70FFF2549FEF70CFFFFF7E6F8C5
:101F90003368186460680146FEF704FF1F49FEF7C6
:101FA00001FFFFF7DBF83368586360680146FEF70E
:101FB000F9FE1A49FEF7F6FEFFF7D0F8336898638A
:101FC000A0680146FEF7EEFE1449FEF7EBFEFFF7B0
:101FD000C5F82B685863A0680146FEF7E3FE0F4979
:101FE000FEF7E0FEFFF7BAF82B689863E068014659
:101FF000FEF7D8FE0949FEF7D5FEFFF7AFF82B68CC
:10200000D863E0680146FEF7CDFE0449FEF7CAFE3C
:10201000FFF7A4F82B68186470BD00BF00409C4611
:102020007047000010B504464FF07C51FEF7BAFE31
:1020300001462346094CA4EB63042046FEF7B2FE9A
:1020400001462046FEF7AEFE01464FF07F50FEF7F8
:102050009FFD01462046FEF7A5FE10BDDF59375F04
:102060002DE9F04F85B005460C4603921E46DDF87B
:102070003890DDF83C8000211846FFF727F858B16A
:1020800000214846FFF722F830B100214046FFF713
:102090001DF8002840F0008131463046FEF782FEF0
:1020A000074649464846FEF77DFE01463846FEF79C
:1020B00071FD074641464046FEF774FE014638462C
:1020C000FEF768FDFFF7AEFF074601463046FEF714
:1020D00069FE029039464846FEF764FE0190394693
:1020E0004046FEF75FFE8346DFF8CC92D9F8000049
:1020F000B24F3968FEF756FE0646DFF8C482D8F8BC
:102100000000DFF8C0A2DAF80010FEF74BFE01462F
:102110003046FEF73DFD0646D8F80000D9F800101D
:10212000FEF740FE8146DAF800003968FEF73AFE15
:1021300001464846FEF72EFD8146D8F80000D8F843
:102140000010FEF72FFE4FF07C51FEF721FD804678
:1021500038683968FEF726FE01464046FEF71AFD4C
:10216000074601460198FEF71DFE8046494658463F
:10217000FEF718FE01464046FEF70AFD804631464E
:102180005846FEF70FFE82463946DDF808B058463D
:10219000FEF708FE01465046FEF7FAFC07464946A0
:1021A0005846FEF7FFFD814631460198FEF7FAFDDD
:1021B00001464846FEF7ECFC0646834B18680021B2
:1021C000FEF7ACFF002800F03C81DFF8FC91D9F865
:1021D00000004146FEF7E6FD7C49FEF7E3FD0146BF
:1021E000DFF8ECB1DBF80000FEF7D4FCCBF8000020
:1021F000D9F800003946FEF7D5FD7449FEF7D2FD47
:102200000146DFF8D0A1DAF80000FEF7C3FCCAF8F7
:102210000000D9F800003146FEF7C4FD6B49FEF717
:10222000C1FD0146DFF8B091D9F80000FEF7B2FC1D
:10223000C9F80000DBF800102846FEF7ABFC0546A5
:10224000DAF800102046FEF7A5FC0446D9F8001085
:102250000398FEF79FFC0390DFF88091D9F8000007
:102260004146FEF79FFD01462846FEF793FC0546D2
:10227000D9F800003946FEF795FD01462046FEF7E5
:1022800089FC0446D9F800003146FEF78BFD014673
:102290000398FEF77FFC039051492846FEF782FD24
:1022A00001904F492046FEF77DFD02904C4903986E
:1022B000FEF778FD8046424FD7F800B03E4ED6F884
:1022C00000A0404DD5F800900AF100400199FEF7BA
:1022D00069FD044649460298FEF764FD0146204622
:1022E000FEF756FC0390354C20684146FEF75AFD38
:1022F00001460398FEF74CFC01463868FEF74AFC9D
:10230000386059460198FEF74DFD03904946404616
:10231000FEF748FD01460398FEF73CFC0390206859
:102320000299FEF73FFD01460398FEF731FC014696
:102330003068FEF72FFC306059460298FEF732FDF8
:10234000039051464046FEF72DFD01460398FEF7E7
:102350001FFC039020680199FEF724FD01460398B5
:10236000FEF718FC01462868FEF714FC2860594661
:102370004046FEF717FD804651460298FEF712FDD3
:1023800001464046FEF706FC804649460198FEF7A6
:1023900009FD01464046FEF7FBFB2168FEF7FAFB0C
:1023A000206038683968FEF7FDFC80463068316887
:1023B000FEF7F8FC014615E04C070020440700201A
:1023C00008000020480700200C0000200AD7233C0A
:1023D000400700203C0700203807002010000020A4
:1023E0000AD7A33B4046FEF7D5FB804628682968FC
:1023F000FEF7D8FC01464046FEF7CCFB804620683D
:102400002168FEF7CFFC01464046FEF7C3FBFFF70D
:1024100009FE804638684146FEF7C4FC38603068E3
:102420004146FEF7BFFC306028684146FEF7BAFC23
:10243000286020684146FEF7B5FC206005B0BDE885
:10244000F08F0023034A1360034A1360034A1360AA
:1024500002E700BF400700203C07002038070020AB
:102460002DE9F04F91B00290039104921C461A9FFF
:10247000DDF86CA01C9EDDF87490DDF878800021FA
:102480003046FEF723FE58B100214846FEF71EFEF7
:1024900030B100214046FEF719FE002840F0C78207
:1024A00000212046FEF712FE58B100213846FEF703
:1024B0000DFE30B100215046FEF708FE002840F026
:1024C000F78121462046FEF76DFC05463946384621
:1024D000FEF768FC01462846FEF75CFB05465146C0
:1024E0005046FEF75FFC01462846FEF753FB05F019
:1024F000D7F901464FF07E50FEF708FD054601462C
:102500002046FEF74FFC099029463846FEF74AFC64
:102510000A9029465046FEF745FC0B90314630465E
:10252000FEF740FC044649464846FEF73BFC0146A0
:102530002046FEF72FFB044641464046FEF732FC9C
:1025400001462046FEF726FB05F0AAF901464FF0AA
:102550007E50FEF7DBFC044601463046FEF722FCC7
:10256000834621464846FEF71DFC824621464046EA
:10257000FEF718FC0546AA4C20682168FEF712FCFD
:102580000C902068A74E3168FEF70CFC069020687E
:10259000A54F3968FEF706FC07902068A34C216818
:1025A000FEF700FC804630683168FEF7FBFB0D90BB
:1025B00030683968FEF7F6FB089030682168FEF74E
:1025C000F1FB064638683968FEF7ECFB814638684F
:1025D0002168FEF7E7FB074620682168FEF7E2FB6B
:1025E000044649464FF07C50FEF7D2FA2146FEF7EA
:1025F000CFFA0E90CDF814B05946FEF7D3FB8346C0
:1026000041460898FEF7C4FA0F905146FEF7CAFB00
:1026100001465846FEF7BEFA834631460798FEF754
:10262000B9FA2946FEF7BEFB01465846FEF7B2FA54
:102630000146FEF7AFFA834608994046FEF7AAFA2C
:102640000599FEF7AFFB80460D994FF07C50FEF7E1
:102650009FFA08902146FEF79BFA5146FEF7A2FB2F
:1026600001464046FEF796FA804606993846FEF740
:102670008FFA2946FEF796FB01464046FEF78AFA96
:102680000146FEF787FA804659465846FEF78AFB10
:10269000834641464046FEF785FB01465846FEF715
:1026A00079FA05F0FDF8804607993046FEF770FA92
:1026B00006460599FEF776FB834639460698FEF7EF
:1026C00069FA07465146FEF76DFB01465846FEF78C
:1026D00061FA834649460898FEF75AFA2946FEF7FA
:1026E00061FB01465846FEF755FA0146FEF752FADD
:1026F00005464FF07C510C98FEF74AFA2146FEF74A
:1027000049FA044641460E98FEF74CFB814629469D
:102710003046FEF747FB01464846FEF73BFA814646
:1027200041460F98FEF73EFB804629463846FEF7A5
:1027300039FB01464046FEF72DFA054621460A9828
:10274000FEF730FB8046DDF82CB059463846FEF7E0
:1027500029FB01464046FEF71BFA3549FEF722FBEE
:10276000074659463046FEF71DFB064621460998A6
:10277000FEF718FB01463046FEF70AFA2C49FEF731
:1027800011FB044629460598FEF70CFB0546494611
:102790005046FEF707FB01462846FEF7F9F92449A3
:1027A000FEF700FB0546234B1F60234B1C60234BA9
:1027B0001860234B18680021FEF7B0FC002800F0D9
:1027C00040811F4E30683946FEF7ECFA1D49FEF78E
:1027D000E9FA0146DFF87090D9F80000FEF7DAF95F
:1027E000C9F8000030682146FEF7DCFA1549FEF70B
:1027F000D9FA0146DFF85480D8F80000FEF7CAF98C
:10280000C8F8000030682946FEF7CCFA0D49FEF7FB
:10281000C9FA01460E4E3068FEF7BCF91AE000BF57
:10282000080000204C070020480700204407002033
:102830000000204034070020300700202C07002033
:102840000C0000200AD7233C400700203C07002052
:10285000380700203060D9F800100298FEF79AF986
:102860000290D8F800100398FEF794F903903168AD
:102870000498FEF78FF90490764E30683946FEF7DB
:1028800091FA01460298FEF785F9029030682146D8
:10289000FEF788FA01460398FEF77CF9039030684A
:1028A0002946FEF77FFA01460498FEF773F9049073
:1028B00069490298FEF776FA044667490398FEF7DD
:1028C00071FA029064490498FEF76CFA8046634FEF
:1028D000D7F800B0624ED6F800A0624DD5F800904F
:1028E0000AF1004003942146FEF75CFA044649468B
:1028F0000298FEF757FA01462046FEF749F9049080
:10290000594C20684146FEF74DFA01460498FEF7FF
:102910003FF901463868FEF73DF93860594603989B
:10292000FEF740FA049049464046FEF73BFA01465E
:102930000498FEF72FF9049020680299FEF732FA06
:1029400001460498FEF724F901463068FEF722F9A3
:10295000306059460298FEF725FA049051464046E9
:10296000FEF720FA01460498FEF712F90490206859
:102970000399FEF717FA01460498FEF70BF9014692
:102980002868FEF707F9286059464046FEF70AFA1C
:10299000804651460298FEF705FA01464046FEF78A
:1029A000F9F8804649460398FEF7FCF9014640468F
:1029B000FEF7EEF82168FEF7EDF820603868396818
:1029C000FEF7F0F9804630683168FEF7EBF9014612
:1029D0004046FEF7DFF8804628682968FEF7E2F9EE
:1029E00001464046FEF7D6F8804620682168FEF78B
:1029F000D9F901464046FEF7CDF8FFF713FB8046B4
:102A000038684146FEF7CEF9386030684146FEF737
:102A1000C9F9306028684146FEF7C4F9286020688B
:102A20004146FEF7BFF9206011B0BDE8F08FCDF848
:102A300004A000972346049A03990298FFF710FB1D
:102A4000F2E70023094A1360094A1360094A136038
:102A500012E700BF100000200AD7A33B08000020A7
:102A60004C070020480700204407002040070020B2
:102A70003C070020380700202DE9F0418CB00024ED
:102A80000794089409940A940B9401944E4B1A6B82
:102A900042F080021A631A6B02F080020192019ADE
:102AA00002941A6B42F001021A631A6B02F00102DF
:102AB0000292029A03941A6B42F002021A631A6B92
:102AC00002F002020392039A04941A6B42F0040289
:102AD0001A631A6B02F004020492049A05941A6BAA
:102AE00042F008021A631A6B02F008020592059A76
:102AF00006941A6B42F010021A631B6B03F010036A
:102B00000693069B314F22463021384602F092FC54
:102B1000DFF8BC8022464FF4F941404602F08AFCBF
:102B2000032607960894099407A9384602F088FB03
:102B3000302307930125089509940A9407A938467C
:102B400002F07EFB4FF4F9430793089509940A9429
:102B500007A9404602F074FB4FF400430793099421
:102B60004FF4881308930A9607F5006707A93846BB
:102B700002F066FB0223079308960994A8F5006803
:102B800007A9404602F05CFB48F20C030793089546
:102B900009940A960B9507A90E4802F051FB0823E9
:102BA000079307A9404602F04BFB4FF4D443079329
:102BB000089509940A960B9507A9384602F040FB40
:102BC0000CB0BDE8F08100BF0038024000080240B0
:102BD000000C02400000024008B5002003460246F7
:102BE0000146FFF71DFAFFF7B9F908BD30B585B00A
:102BF000314B324A1A60324B324A1A60324B334AF6
:102C00001A6000240094324B5A6C42F001025A645C
:102C10005A6C02F001020092009A01941A6C42F080
:102C200001021A641A6C02F001020192019A0294E4
:102C30001A6C42F010021A641A6C02F0100202922E
:102C4000029A03941A6C42F020021A641B6C03F07F
:102C500020030393039B1F49CA6822F4E062120415
:102C6000120C1D4B1343CB6002222146362002F08A
:102C700049FA362002F078FA184D2A68D36843F0F2
:102C80003603D360362002F04DFA284603F0CEFD1D
:102C900022462146282002F035FA114B4FF480726B
:102CA0005A6022460121122002F02CFA122002F072
:102CB00039FA05B030BD00BFF8070020C808002071
:102CC000F4070020280A0020F007002084080020D4
:102CD0000038024000ED00E00002FA0598090020EB
:102CE00000E100E0835C0132002BFBD1D0B27047E1
:102CF0004FF07E5101600022426082604FF0804CB4
:102D0000C0F80CC0DFF828C0C0F810C04161002135
:102D10008161C161016280F8241080F8251082620F
:102D2000C262026342638263C263026442647047A8
:102D30000000204110B50446FFF7DAFF04F1480017
:102D4000FFF7D6FF04F19000FFF7D2FF04F1D8009F
:102D5000FFF7CEFF04F59070FFF7CAFF04F5B470DB
:102D6000FFF7C6FF002384F8E0310F2384F8E13138
:102D7000204610BD08B50A46002306E010F803C03F
:102D80004CF0800C00F803C001339A42F6DC4FF49B
:102D9000FA730146014804F0F4FA08BDC80800209F
:102DA00008B50A46002306E010F803C04CF0800C7A
:102DB00000F803C0013302F1FF3C9C45F4DCFF2323
:102DC00083544FF4FA730146014804F0DAFA08BD5F
:102DD000C808002008B50368254A934215D0254A43
:102DE000934217D0244A934219D001222349244800
:102DF00004F017FD01222349234804F012FD0122AB
:102E00002249234804F00DFD08BD2021214802F08D
:102E100017FBEAE701211B48FFF7ACFFE5E71E4A75
:102E200013780133DBB213701378DBB2012B08D0B7
:102E3000194B1B78DBB2022B0BD0174B00221A70F8
:102E4000D3E7164A00231380104B1B78DBB21380A4
:102E5000CBE7114B00221A7010490B889BB21B0262
:102E60009BB20A4A127813449BB20B80BDE700BFA5
:102E7000004400400010014000480040D0070020FE
:102E8000C8080020B0070020840800209007002018
:102E90004008002000080240520700205007002090
:102EA00072B6FEE700B587B000230093204A516C4C
:102EB00041F480715164516C01F48071009100996A
:102EC0000193516C41F400715164526C02F4007230
:102ED0000192019A02930393049305931548164AAD
:102EE00002604360836003610122027680F8203033
:102EF000C36212498162C360C26180F830304261AE
:102F000001F072FE80B90923029301230393002389
:102F1000049302A9074801F0E3FF38B9054801F01E
:102F20008FFE07B05DF804FBFFF7BAFFFFF7B8FFAD
:102F300000380240C80B0020002001400100000FB3
:102F400070B588B000250195224C236B43F0020335
:102F50002363236B03F002030193019B0295236C0F
:102F600043F400132364236C03F400130293029BC5
:102F7000402303931223049305950323069304230C
:102F80000793154E03A9304602F05AF980230393A4
:102F900003A9304602F054F9236A43F40013236274
:102FA000236A23F4001323620C480D4B03600D4B7E
:102FB00043608560C5604FF480430361456185616E
:102FC000C561056202F092FC08B908B070BDFFF758
:102FD00067FF00BF0038024000040240740B00206D
:102FE00000540040801A060070B588B00025019595
:102FF000234C236B43F002032363236B03F0020390
:103000000193019B0295236C43F480032364236C9A
:1030100003F480030293029B4FF400630393122393
:10302000049305950323069304230793154E03A9E0
:10303000304602F005F94FF48063039303A930464C
:1030400002F0FEF8236A43F480032362236A23F428
:10305000800323620C480D4B03600D4B4360856079
:10306000C5604FF48043036145618561C5610562B8
:1030700002F03CFC08B908B070BDFFF711FF00BFBB
:103080000038024000040240200B0020005800409D
:10309000801A060008B50D480D4B03604FF482738B
:1030A000436000238360C360036143614FF4007297
:1030B0008261C3610362436283620A23C36203F0D5
:1030C0003DFA00B908BDFFF7EBFE00BFC80A0020BB
:1030D0000030014008B50D480D4B03604FF482737A
:1030E000436000238360C360036143614FF4007257
:1030F0008261C3610362436283620A23C36203F095
:103100001DFA00B908BDFFF7CBFE00BF700A002012
:103110000038004010B596B0002412941394149413
:1031200015941094119409940A940B940C940D9492
:103130000E940F942022214601A806F091F83D48F4
:103140003D4B03600F234360846044F61F63C360FC
:1031500004614461846103F0D5FC002855D14FF42B
:103160008053129312A9334803F031FE00284ED148
:10317000304803F01FFD00284BD12E4803F0EEFC31
:10318000002848D100231093119310A9294803F077
:103190002FFF002841D16023099342F210730A9354
:1031A00000220B920C920D920E920F9209A92148C7
:1031B00003F093FD002832D100230993042209A9CA
:1031C0001C4803F05BFD60BB082209A9194803F005
:1031D00055FD40BB0C2209A9164803F04FFD20BB4A
:1031E00000230193029303930A22049205934FF460
:1031F00000520692089301A90E4803F03FFFB0B9B0
:103200000C4801F079F916B010BDFFF749FEFFF741
:1032100047FEFFF745FEFFF743FEFFF741FEFFF7CE
:103220003FFEFFF73DFEFFF73BFEFFF739FEFFF7DE
:1032300037FE00BF280A00200000014010B58EB004
:10324000002300933B4A116C41F001011164126CA0
:1032500002F001020092009A0A930B930C930D93D3
:1032600008930993019302930393049305930693A0
:10327000079331484FF0804202600F224260836022
:1032800044F61F62C2600361836103F03BFC0028C7
:103290003FD14FF480530A930AA9274803F097FDC2
:1032A000002838D1244803F085FC002835D10023BC
:1032B0000893099308A9204803F09AFE78BB60237D
:1032C000019342F21073029300220392059201A926
:1032D000194803F002FD20BB04220DEB0201164841
:1032E00003F0FBFCF8B9082201A9134803F0F5FC30
:1032F000D8B90C2201A9104803F0EFFCB8B90E4C64
:103300003C21204603F0F2FD204601F0F5F80EB016
:1033100010BDFFF7C5FDFFF7C3FDFFF7C1FDFFF7C8
:10332000BFFDFFF7BDFDFFF7BBFDFFF7B9FDFFF7E1
:10333000B7FD00BF00380240E009002008B50A4888
:103340000A4B03604FF4E133436000238360C360A2
:1033500003610C2242618361C36103F0E3FF00B9A2
:1033600008BDFFF79DFD00BF0C090020004C004088
:1033700000B583B000230093144A116B41F00101A2
:103380001163116B01F00101009100990193516CDF
:1033900041F010015164526C02F010020192019A46
:1033A0000B480C4A02604FF4E13242608360C36014
:1033B00003610C2242618361C36103F0B3FF10B962
:1033C00003B05DF804FBFFF76BFD00BF003802405F
:1033D000C80800200010014000B583B0002300930E
:1033E000144A116C41F400311164116C01F4003184
:1033F000009100990193116B41F008011163126B68
:1034000002F008020192019A0B480C4A02604FF444
:10341000E13242608360C36003610C2242618361D8
:10342000C36103F07FFF10B903B05DF804FBFFF741
:1034300037FD00BF003802408408002000440040EF
:1034400000B583B000230093144A116C41F480212D
:103450001164116C01F48021009100990193116BAA
:1034600041F008011163126B02F008020192019A07
:103470000B480C4A02604FF4E13242608360C36043
:1034800003610C2242618361C36103F04BFF10B9F9
:1034900003B05DF804FBFFF703FD00BF00380240F6
:1034A000400800200048004008B50A480A4B036065
:1034B0004FF4E133436000238360C36003610C2257
:1034C00042618361C36103F02DFF00B908BDFFF7BE
:1034D000E7FC00BFFC0700200014014000B583B0EA
:1034E0000023009301930E480E4A026040F23F62AF
:1034F000426083606422C260836103F003FB50B9C1
:103500000023009301936946054803F071FD20B93B
:1035100003B05DF804FBFFF7C3FCFFF7C1FC00BF7D
:10352000980900200010004010B582B000230093DD
:1035300001931148114A026010224260836041F2F7
:103540008832C260836103F0DDFA80B90023009302
:1035500001936946084803F04BFD50B9064C2046DC
:1035600003F050F9236800225A6202B010BDFFF741
:1035700097FCFFF795FC00BF5009002000140040A5
:1035800000B595B03022002108A805F069FE00239F
:103590000393049305930693079301931C4A116CBC
:1035A00041F080511164126C02F080520192019A34
:1035B0000293184A116841F480411160126802F4C4
:1035C00080420292029A0222089201210B9110215C
:1035D0000C910E920F931091C02311931292042319
:1035E000139308A802F084FC68B90F230393002109
:1035F000049105910691079103A802F0C9FE20B934
:1036000015B05DF804FBFFF74BFCFFF749FC00BF6A
:1036100000380240007000402DE9F04FADF5657DA7
:1036200001F01CFAFFF7ACFFFFF726FAFFF73AFCB0
:10363000FFF786FCFFF7D8FCFFF72CFDFFF74AFDEC
:10364000FFF768FDFFF7FAFDFFF778FEFFF790FE42
:10365000FFF7C2FEFFF7F4FEFFF726FFFFF73EFF7E
:10366000FFF762FFFFF7B8FAFFF7C0FA5E4C20469B
:10367000FEF7BEF801225D49204604F0D2F801228F
:103680005B495C4804F0CDF801225B495B4804F0DB
:10369000C8F85B4C01221021204601F0CBFE01222C
:1036A0002021204601F0C6FE564D284600F06CFD54
:1036B000554C204600F0A5FB204600F07DFD20463D
:1036C00000F082FD00231A462946204600F014FC33
:1036D00000F01CFC0024E094E194E294E39467A8D9
:1036E000FFF728FB4822494955A8FDF74DFE4F94A6
:1036F0005094519452945394549449AB49944A949D
:103700004B944C944D944E94039364AB029361ABF1
:1037100001935EAB00935BAB58AA55A967A8FEF76F
:103720006DF845944694479448943F94409441944E
:10373000429443944494364B1B6800232E932F935A
:103740003093012305E0334A41F2883142F82310D7
:103750000133092BF7DD2F4B1A6841F288339A4267
:10376000F9D02C4B5A6841F288339A42F3D0294B56
:103770009A6841F288339A42EDD0264BDA6841F2DA
:1037800088339A42E7D0234B1A6941F288339A4230
:10379000E1D0204B5A6941F288339A42DBD01D4B6D
:1037A0009A6941F288339A42D5D01A4BDA6941F2CC
:1037B00088339A42CFD0174B1A6A41F288339A4223
:1037C000C9D0144B5A6A41F288339A42C3D0642359
:1037D00013B30F4A1268002AFAD0013B9BB20C4A7D
:1037E00000211160F4E700BFC8080020D0070020C6
:1037F000B007002084080020900700204008002027
:1038000000080240200B0020740B002068F3000821
:103810008C070020140000200B218048FDF7D6FF04
:103820004FF000087E4B1B68002BFBD07C4B1A68C6
:1038300000221A6008F1010836A93CA800F0ACFC8F
:1038400031A934A800F0BCFC764800F0C1FC00238C
:1038500002930193009331AA39A936A800F0DAFB4C
:10386000319B329A3399049102F10042039203F1A1
:1038700000430293389B0193379B0093369B3B9AFE
:103880003A993998FEF7ECFD674B1F68E097674B54
:103890001D68E195664B1E68E296664B1C68E394D2
:1038A00031463846FDF77EFA814621462846FDF727
:1038B00079FA01464846FDF76BF90146FDF76AF9CA
:1038C00003F0CCFF824629463846FDF76BFA814665
:1038D00021463046FDF766FA01464846FDF75AF99B
:1038E0000146FDF757F9814629462846FDF75AFA61
:1038F000079031463046FDF755FA83460146079852
:10390000FDF748F90146FDF745F901464FF07E50B5
:10391000FDF73EF901464846FDF7F8FA03F0DCFFF3
:10392000814621463846FDF73DFA0746314628468E
:10393000FDF738FA01463846FDF72CF90146FDF748
:1039400029F9054621462046FDF72CFA014658463E
:10395000FDF720F90146FDF71DF901464FF07E50B5
:10396000FDF716F90146284603F098FFCDF848A167
:10397000CDF84C9154904FA967A8FDF7FBFF2E4C52
:1039800021462648FDF7AEFE49A92046FEF70CFA6F
:1039900049A967A8FDF78CFF67A8FEF7F9F93FAAC8
:1039A00045A967A8FEF700F8244A254945A8FEF76F
:1039B000D7FAB8F1040F7FF735AF1021214801F095
:1039C0003FFD00210891922209A805F049FC4C9E78
:1039D0004D9FDDF838814B98FCF756FD04460D46A7
:1039E0004046FCF751FDCDE904013846FCF74CFD9B
:1039F000CDE902013046FCF747FDCDE90001224642
:103A00002B46114908A805F0C3FB08A8FFF76AF97F
:103A1000014608A8FFF7C4F902E700BF1400002020
:103A20008C07002040080020080000204C070020E0
:103A3000480700204407002054070020E009002028
:103A4000280A002000080240ECF300082DE9F041AC
:103A500084B006464FF0000888F800804FF47A776B
:103A6000029701240194CDF8008023461922D02129
:103A700002F01AF888F8008002970194CDF80080CF
:103A800023461A22D021304602F00EF8E02388F8AF
:103A9000003002970194CDF8008023461C22D021EB
:103AA000304602F001F8F02388F8003002970194C4
:103AB000CDF8008023461B22D021304601F0F4FFD0
:103AC00088F8008002970194CDF8008023466B228D
:103AD000D021304601F0E8FF04B0BDE8F081F0B538
:103AE00085B006460D464FF47A770297012401947B
:103AF000009123463C22D02102F088F802970194DD
:103B00002B19009323463B22D021304602F07EF849
:103B100002970194AB1C009323463E22D0213046ED
:103B200002F074F802970194EB1C009323463D22A7
:103B3000D021304602F06AF8029701942B1D0093C1
:103B400023464022D021304602F060F802970194CB
:103B50006B1D009323463F22D021304602F056F8D9
:103B600002970194AB1D009323464422D021304696
:103B700002F04CF802970194EB1D00932346432278
:103B8000D021304602F042F80297019405F1080373
:103B9000009323464622D021304602F037F80297A0
:103BA000019405F10903009323464522D0213046B4
:103BB00002F02CF80297019405F10A0300932346C2
:103BC0004822D021304602F021F8029701940B35AB
:103BD000009523464722D021304602F017F805B061
:103BE000F0BD2DE9F04387B00D464278ADF80C20CA
:103BF000037803EB02239AB2ADF80C20C178ADF83C
:103C00000E10837803EB01231FFA83F9ADF80E90B1
:103C10004179ADF81010037903EB01231FFA83F803
:103C2000ADF81080C179ADF81210837903EB012350
:103C30009FB2ADF81270417AADF81410037A03EB1D
:103C400001239BB2ADF81430C17AADF81610847A16
:103C500004EB0124A4B2ADF8164010B2ADF8000098
:103C60000FFA89F9ADF802900FFA88F8ADF80480E0
:103C70003FB2ADF806701EB2ADF8086024B2ADF8E0
:103C80000A40FDF73BF828604846FDF737F86860C2
:103C90004046FDF733F8A8603846FDF72FF8E86096
:103CA0003046FDF72BF828612046FDF727F86861BC
:103CB00007B0BDE8F0830000F0B587B038238DF879
:103CC0001730144D28604FF4FA77029701240194BD
:103CD0000DF117060096234600223C2101F0E4FE78
:103CE00020238DF817300297019400962346224630
:103CF0003C21286801F0D8FE00238DF81730029788
:103D000001940096234602223C21286801F0CCFE53
:103D100007B0F0BD100C0020F0B585B00546204E70
:103D20004FF4FA770297012401940090234603226E
:103D30003D21306801F06AFF029701942B1900932E
:103D4000234604223D21306801F060FF0297019470
:103D5000AB1C0093234605223D21306801F056FF3D
:103D600002970194EB1C0093234606223D21306804
:103D700001F04CFF029701942B1D0093234607226C
:103D80003D21306801F042FF02970194053500950E
:103D9000234608223D21306801F038FF05B0F0BD10
:103DA000100C002070B582B004460E46FFF7B4FF39
:103DB0002378ADF80030607800EB032080B2ADF8D6
:103DC0000000A378ADF80230E57805EB0325ADB22D
:103DD000ADF802502379ADF80430647904EB032484
:103DE000A4B2ADF8044000B2FCF788FF306028B2FE
:103DF000FCF784FF706020B2FCF780FFB06002B077
:103E000070BDF0B587B0054601248DF817404FF41A
:103E10007A77029701940DF1170600962346102237
:103E20001C2101F041FE00238DF817300297019408
:103E3000009623460A221C21284601F035FE0297EF
:103E40000194009623460B221C21284601F02CFEEB
:103E500002970194009623460C221C21284601F06B
:103E600023FE02970194009623460D221C2128462A
:103E700001F01AFE02970194009623460E221C219F
:103E8000284601F011FE02970194009623460F2266
:103E90001C21284601F008FE07B0F0BD00B587B030
:103EA000144B186000238DF817304FF4FA73029307
:103EB000012301930DF117020092D022EF2101F0AE
:103EC000A5FE9DF81730552B02D007B05DF804FB16
:103ED0002E238DF817304FF4FA73029301230193C8
:103EE0000DF117020092F422EE210248006801F061
:103EF000DBFDEAE7140C0020024B1860024B19604E
:103F0000704700BF1C0C0020180C002010B590B0AA
:103F1000214C0DF1280CA646BEE80F00ACE80F00BE
:103F20009EE803008CE803001C4B1D4A1A601D4AE2
:103F30005A601D4A9A601D4ADA601D4A1A614FF0A4
:103F400042425A610DF11C0C04F1180207CA8CE8B8
:103F50000700184A9A61184ADA61184A1A620DF184
:103F6000100C04F1240207CA8CE80700144A9A6274
:103F70001449D9621A63144A9A650DF1040C30345D
:103F800094E807008CE80700104ADA64104A1A65C2
:103F9000104A5A6510B010BDB0F30008200C002084
:103FA000008009440080BB44004035C59A9981C215
:103FB000000093430000704100C0EE430000DBC2EC
:103FC00082A8FB38F7CC1239000030430080B6439A
:103FD0000000D34200C0C34310B504464FF07C51EB
:103FE000FCF7E0FE01462346094CA4EB630420469F
:103FF000FCF7D8FE01462046FCF7D4FE01464FF000
:104000007F50FCF7C5FD01462046FCF7CBFE10BDF6
:10401000DF59375F2DE9F84F06460F461546584CD5
:1040200021680068FCF7B4FD5649FCF76FFF824633
:10403000306061687068FCF7ABFD5249FCF766FFC1
:1040400081467060A168B068FCF7A2FD4D49FCF79D
:104050005DFF8046B06051465046FCF7A3FE8346A4
:1040600049464846FCF79EFE01465846FCF792FD3D
:10407000834641464046FCF795FE01465846FCF70C
:1040800089FD01464FF07E50FCF740FF8346014614
:10409000A06DFCF787FE01465046FCF783FE3060BA
:1040A0005946A06DFCF77EFE01464846FCF77AFEB5
:1040B00070605946A06DFCF775FE01464046FCF75E
:1040C00071FEB060E1683868FCF762FDA16AFCF738
:1040D00069FE386021697868FCF75AFDE16AFCF7EF
:1040E00061FE78606169B868FCF752FD216BFCF7EE
:1040F00059FEB860A1692868FCF74AFDE16CFCF73D
:1041000005FF07462860E1696868FCF741FD216DFD
:10411000FCF7FCFE06466860216AA868FCF738FDDB
:10412000616DFCF7F3FE0446A86039463846FCF79B
:1041300039FE804631463046FCF734FE01464046A3
:10414000FCF728FD804621462046FCF72BFE014661
:104150004046FCF71FFDFFF73FFF8046014638460B
:10416000FCF720FE286041463046FCF71BFE6860E5
:1041700041462046FCF716FEA860BDE8F88F00BF58
:10418000200C00200000C84208B5024B1860FFF761
:104190005DFC08BD7C0C002038B504460D460C22A1
:1041A0000146044B1868FFF79AFC29462046FFF7A2
:1041B00018FD38BD7C0C002008B5FFF77DFD08BD5B
:1041C00008B5FFF7EFFD08BD08B5FFF767FE08BDAE
:1041D00000B583B055238DF807304FF4FA730122F0
:1041E0000DF1070103F0CDF803B05DF804FB00000A
:1041F00082B0002100910B4B5A6C42F480425A6409
:104200005A6C02F480420092009A01911A6C42F0BA
:1042100080521A641B6C03F080530193019B02B01F
:10422000704700BF0038024000B589B000230393F7
:104230000493059306930793026803F1804303F503
:1042400090339A4202D009B05DF804FB002101913D
:1042500003F58C335A6C42F480725A645A6C02F43F
:1042600080720192019A02911A6B42F002021A6363
:104270001B6B03F002030293029B022303930323AD
:10428000049303A9014800F0DBFFDCE700040240CF
:1042900030B58BB0002305930693079308930993D9
:1042A0000368274A934204D0264A934224D00BB095
:1042B00030BD00250195244C236B43F0020323639A
:1042C000236B03F002030193019BC0230593122388
:1042D0000693032308930423099305A91B4800F0C0
:1042E000AFFF0295236C43F400132364236C03F4A3
:1042F00000130293029BDAE700250395124C236B0F
:1043000043F002032363236B03F002030393039B35
:104310004FF4406305931223069303230893042369
:10432000099305A9094800F08BFF0495236C43F419
:1043300080032364236C03F480030493049BB6E797
:104340000054004000580040003802400004024081
:10435000F0B58BB000230593069307930893099358
:104360000368314A934204D0304A934224D00BB0C0
:10437000F0BD002100912E4B5A6C42F480525A64D9
:104380005A6C02F480520092009A01911A6B42F02A
:1043900001021A631B6B03F001030193019BE023ED
:1043A000059302230693032308930523099305A984
:1043B000204800F045FFDAE7002402941C4B1A6CF9
:1043C00042F480421A641A6C02F480420292029A09
:1043D00003941A6B42F004021A631A6B02F004028F
:1043E0000392039A04941A6B42F002021A631B6B45
:1043F00003F002030493049B0C2305930227069702
:10440000032608960525099505A90B4800F018FF15
:104410004FF400530593069707940896099505A94C
:10442000064800F00DFFA2E70030014000380040D0
:104430000038024000000240000802400004024030
:1044400000B585B00368284A93420BD0B3F1804F82
:1044500015D0264A93421FD0254A934230D005B04A
:104460005DF804FB00230093224B5A6C42F00102DA
:104470005A645B6C03F001030093009BEFE7002399
:1044800001931C4B1A6C42F001021A641B6C03F07E
:1044900001030193019BE2E700210291154B1A6C85
:1044A00042F010021A641B6C03F010030293029B8B
:1044B0000A46362000F026FE362000F033FECEE716
:1044C000002103910B4B1A6C42F020021A641B6C02
:1044D00003F020030393039B0A46372000F012FEEB
:1044E000372000F01FFEBAE7000001400010004036
:1044F000001400400038024070B588B000230393D8
:1045000004930593069307930368264A934204D0C5
:10451000B3F1804F19D008B070BD00230093224B37
:104520001A6B42F010021A631B6B03F01003009326
:10453000009B4FF4D4430393022304930123079376
:1045400003A91A4800F07CFEE5E70024019403F576
:104550000E331A6B42F001021A631A6B02F0010269
:104560000192019A02941A6B42F002021A631B6BC9
:1045700003F002030293029B48F20C03039302260A
:1045800004960125079503A9094800F059FE082360
:104590000393049605940694079503A9054800F033
:1045A0004FFEB8E700000140003802400010024012
:1045B000000002400004024010B590B000230B93AD
:1045C0000C930D930E930F930368754A93420FD08B
:1045D000744A934236D0744A93425FD0734A9342EE
:1045E00000F08780724A934200F0AF8010B010BD97
:1045F000002401946F4B1A6C42F400221A641A6C66
:1046000002F400220192019A02941A6B42F0010214
:104610001A631B6B03F001030293029B03230B93AA
:1046200002220C920E9308230F930BA9624800F00C
:1046300007FE22462146342000F064FD342000F0BD
:1046400071FDD3E7002403945A4B5A6C42F01002D8
:104650005A645A6C02F010020392039A04941A6B83
:1046600042F001021A631B6B03F001030493049BE5
:104670004FF4C0630B9302230C9303230E93072381
:104680000F930BA94C4800F0DBFD22462146252064
:1046900000F038FD252000F045FDA7E70024059433
:1046A000444B1A6C42F400321A641A6C02F4003261
:1046B0000592059A06941A6B42F008021A631B6B66
:1046C00003F008030693069B60230B9302230C93CD
:1046D00003230E9307230F930BA9384800F0B0FD76
:1046E00022462146262000F00DFD262000F01AFD6E
:1046F0007CE7002407942F4B1A6C42F480221A6442
:104700001A6C02F480220792079A08941A6B42F0FE
:1047100008021A631B6B03F008030893089B4FF40D
:1047200040730B9302230C9303230E9307230F93E1
:104730000BA9224800F084FD22462146272000F0E4
:10474000E1FC272000F0EEFC50E700240994194B0F
:104750005A6C42F020025A645A6C02F0200209920C
:10476000099A0A941A6B42F004021A631B6B03F055
:1047700004030A930A9BC0230B9302230C93032385
:104780000E9308230F930BA90D4800F059FD224604
:104790002146472000F0B6FC472000F0C3FC25E787
:1047A000004C004000100140004400400048004020
:1047B000001401400038024000000240000C02409A
:1047C00000080240FEE7FEE7FEE7FEE7FEE770476F
:1047D0007047704708B500F05BF908BD08B502489E
:1047E00002F0C4FE08BD00BFC808002008B502489A
:1047F00002F0BCFE08BD00BF8408002008B50248D6
:1048000002F0B4FE08BD00BF4008002008B5024811
:1048100002F0ACFE08BD00BF0C09002008B5054B36
:1048200001221A60362000F09FFC034802F049F88C
:1048300008BD00BF8C0700209809002008B5024879
:1048400002F03FF808BD00BF5009002008B502483B
:1048500002F08CFE08BD00BFFC07002008B5024B2B
:10486000186802F02EF808BDF407002038B5124C85
:10487000204601F0C7FF23685D6A00225A62204685
:1048800001F082FF0D4803780D4A42F823500133AE
:104890000C4981FB032101F0FC0202EBA102510053
:1048A0005B1ADBB203700BB901220270064B4FF4A6
:1048B00000425A6138BD00BF500900208007002027
:1048C0001400002067666666003C014010B5084C85
:1048D000204600F05DFA07490860074A136818444B
:1048E000086001331360204600F058FA10BD00BF85
:1048F000C80B002088070020840700200120704793
:1049000008B504F097FD162303604FF0FF3008BD93
:1049100008B54FF0FF31FFF7F3FFFEE770B50C4627
:104920001646002506E0AFF30080214601F8010B92
:1049300001350C46B542F6DB304670BD70B50C460D
:104940001646002504E014F8010BAFF30080013592
:10495000B542F8DB304670BD4FF0FF3070474FF482
:1049600000534B60002070470120704700207047C3
:1049700010B503460C4A0D490D48006840B10C487B
:1049800000680344521A934206D8094A136010BDC6
:104990000748084C0460F2E704F04CFD0C23036068
:1049A0004FF0FF30F3E700BF0000022000040000DA
:1049B000800C0020A00F002070470000DFF834D0EA
:1049C0000D480E490E4A002302E0D458C450043367
:1049D000C4188C42F9D30B4A0B4C002301E013603E
:1049E0000432A242FBD3FFF7E7FF04F029FDFEF7F4
:1049F00013FE704700000220000000200C0700207A
:104A0000F8FA00080C0700209C0F0020FEE70000C9
:104A100010B504460E4B1A784FF47A73B3FBF2F3D9
:104A20000C4A1068B0FBF3F000F08AFB68B90F2C59
:104A300001D901200AE0002221464FF0FF3000F0AA
:104A400061FB054B1C60002000E0012010BD00BF91
:104A500044000020400000204800002008B50B4B17
:104A60001A6842F400721A601A6842F480621A608E
:104A70001A6842F480721A60032000F031FB0F20A4
:104A8000FFF7C6FFFFF7B4FB002008BD003C024063
:104A9000034A1168034B1B780B441360704700BF37
:104AA000840C002044000020014B1868704700BFB0
:104AB000840C00204A4B5A6822F440325A605A68EB
:104AC00041680A435A600268536823F48073536054
:104AD00002685368016943EA01235360026853681E
:104AE00023F0407353600268536881680B4353603E
:104AF0000268936823F40063936002689368C16856
:104B00000B439360826A374B9A4257D0026893688E
:104B100023F07063936002689368816A0B4393602B
:104B20000268936823F04053936002689368C16AF7
:104B30000B4393600268936823F00203936002685A
:104B40009368017E43EA4103936090F82030002B84
:104B50003FD00268536843F40063536002685368AF
:104B600023F46043536001684B68426A013A43EAA8
:104B700042334B600268D36A23F47003D362016846
:104B8000CB6AC269013A43EA0253CB620268936876
:104B900023F4007393600268936890F8301043EA3E
:104BA000412393600268936823F4806393600268F2
:104BB0009368416943EA8123936070470268936870
:104BC00023F0706393600268936823F0405393600E
:104BD000B0E70268536823F400635360CAE700BF7C
:104BE000002301400100000F38B310B50446036CE8
:104BF00043B1236C13F0100F0BD00120002384F875
:104C00003C3010BDFFF710FB0023636484F83C3098
:104C1000EFE7236C23F4885323F0020343F00203ED
:104C200023642046FFF746FF00206064236C23F0D6
:104C3000030343F001032364E0E701207047000011
:104C400082B00023019390F83C30012B00F090805B
:104C5000012380F83C3003689A6812F0010F13D1E9
:104C60009A6842F001029A60444B1B68444AA2FBD6
:104C700003239B0C03EB4303019302E0019B013BE5
:104C80000193019B002BF9D10268936813F0010F87
:104C900063D0036C23F4E06323F0010343F48073D7
:104CA0000364536813F4806F05D0036C23F44053FE
:104CB00043F480530364036C13F4805F22D0436C8D
:104CC00023F006034364002380F83C306FF0220396
:104CD00013600268536843F0806343F0200353601D
:104CE000284B5B6813F01F0F27D10368264A9342B5
:104CF00011D002F58072934207D0244A934214D017
:104D0000002033E000234364DDE702F500725268BF
:104D100012F01F0FF1D19A6812F0405F2AD19A6801
:104D200042F080429A60002020E002F580725268D2
:104D300012F0100FEFD0002018E00368124A9342DF
:104D400001D0002012E09A6812F0405F14D19A68F6
:104D500042F080429A60002008E0036C43F01003A8
:104D60000364436C43F001034364002002B07047C6
:104D70000220FBE70020F9E70020F7E740000020D1
:104D800083DE1B430023014000200140002201403C
:104D90000368D86C704770477047704770B5044619
:104DA00003681E685D6816F0020F2FD005F0200220
:104DB00062B3026C12F0100F03D1026C42F4007265
:104DC00002649A6812F0405F19D1227EBAB9DA6A99
:104DD00012F4700F03D09A6812F4806F0FD15A68E2
:104DE00022F020025A60236C23F480732364236C26
:104DF00013F4805F03D1236C43F001032364204646
:104E0000FFF7C9FF23686FF012021A6005F08003F4
:104E100016F0040F37D0002B35D0236C13F0100F91
:104E200003D1236C43F40053236423689A6812F47B
:104E3000401F21D19A6B12F4401F03D09A6812F4DC
:104E4000806F19D15A6812F4806F15D19A6812F0E8
:104E5000405F11D1227E7AB95A6822F080025A60EE
:104E6000236C23F480532364236C13F4807F03D1D9
:104E7000236C43F001032364204600F0FBF8236811
:104E80006FF00C021A6005F0400316F0010F05D018
:104E900023B123681B6813F0010F06D105F080656C
:104EA00016F0200F00D065B970BD236C43F4803339
:104EB00023642046FFF770FF23686FF001021A6039
:104EC000ECE7636C43F00203636423686FF0200532
:104ED0001D602046FFF761FF23681D60E4E70000C6
:104EE00030B482B00022019290F83C20012A00F0F8
:104EF000B6800346012280F83C200A68092A40D97E
:104F00000468E06892B202EB42021E3A4FF0070CCE
:104F10000CFA02F220EA0202E2601C68E0680A88E9
:104F200002EB42021E3A8D6805FA02F20243E26089
:104F30004A68062A3CD81C68606B02EB8202053A7C
:104F40004FF01F0C0CFA02F220EA020262631C68A6
:104F5000606B4A6802EB8202053AB1F800C00CFAB5
:104F600002F20243626318683E4A904250D01868C9
:104F70003C4A904255D0002083F83C0002B030BC3F
:104F800070470468206992B202EB42024FF0070CAE
:104F90000CFA02F220EA020222611C6820690A88E7
:104FA00002EB42028D6805FA02F202432261BFE77A
:104FB0000C2A16D81D68286B02EB8202233A1F24A4
:104FC00004FA02F220EA02022A631D68286B4A688A
:104FD00002EB8202233A0C8804FA02F202432A63AB
:104FE000C1E71D68E86A02EB8202413A1F2404FA15
:104FF00002F220EA0202EA621D68E86A4A6802EBED
:105000008202413A0C8804FA02F20243EA62AAE7F9
:105010000A68122AABD11448426842F48002426006
:10502000A5E70A68103A012AA5D80F48426842F459
:10503000000242600A68102A9DD10C4A12680C498D
:10504000A1FB0212920C02EB82025200019202E0DA
:10505000019A013A0192019A002AF9D18BE70220C4
:105060008CE700BF002001400023014040000020E9
:1050700083DE1B4370470000002808DB0901C9B22A
:1050800000F1604000F5614080F80013704700F0C7
:105090000F000901C9B2014B1954704714ED00E02B
:1050A00000B500F00700C0F1070CBCF1040F28BFE9
:1050B0004FF0040C031D062B0FD9C31E4FF0FF3E0B
:1050C0000EFA0CF021EA000199400EFA03FE22EAE2
:1050D0000E0241EA02005DF804FB0023EEE7000047
:1050E000074AD36823F4E0631B041B0C000200F49E
:1050F000E060034343F0BF6343F40033D360704781
:1051000000ED00E010B50446054BD868C0F302205E
:10511000FFF7C6FF01462046FFF7AEFF10BD00BFF8
:1051200000ED00E0002807DB00F01F02400901232A
:105130009340024A42F82030704700BF00E100E08F
:105140000138B0F1807F0BD24FF0E0235861054A5F
:10515000F02182F823100020986107221A6170471D
:105160000120704700ED00E0002808DB00F01F027E
:105170004009012393406030014A42F820307047D3
:1051800000E100E070B50446866DFFF78DFC94F8F1
:105190003530DBB2022B06D080236365002384F810
:1051A0003430012070BD05462268136823F01603D1
:1051B00013602268536923F080035361236CE3B1C9
:1051C0002268136823F0080313602268136823F031
:1051D0000103136023681B6813F0010F11D0FFF760
:1051E00063FC431B052BF5D920236365032084F85A
:1051F0003500002384F83430D4E7A36C002BDFD1D2
:10520000E3E7E26D3F239340B360012384F8353038
:10521000002084F83400C5E790F83530DBB2022B6B
:1052200003D08023436501207047052380F8353083
:105230000268136823F00103136000207047000028
:1052400000230F2B00F2EC8030B583B068E0856856
:105250004FEA430E032404FA0EF425EA0405CC6851
:1052600004FA0EF42C438460446824EA02044A6879
:10527000C2F300129A40224342605FE0DC08083427
:1052800050F8242003F00705AD004FF00F0E0EFA82
:1052900005FE22EA0E0E0A69AA4042EA0E0240F812
:1052A00024205FE0072200E0002202FA0EF22A43E7
:1052B00002345C4D45F824205B4A94686FEA0C0286
:1052C00024EA0C05D1F804E01EF4801F01D04CEA5A
:1052D0000405554CA560E46802EA0405D1F804E031
:1052E0001EF4001F01D04CEA04054F4CE5606468D1
:1052F00002EA0405D1F804E01EF4003F01D04CEAB4
:105300000405494C6560246822404D6815F4803FCF
:1053100001D04CEA0402444C226001330F2B7DD8AB
:1053200001229A400C6804EA020C32EA0404F4D127
:105330004C6804F00304013C012C88D94A6802F04F
:105340000302032A09D0C4685D000322AA4024EAAC
:1053500002048A68AA402243C2604A6802F003023B
:10536000022A8BD004684FEA430E032202FA0EF29F
:1053700024EA02044A6802F0030202FA0EF222430F
:1053800002604A6812F4403FC7D000220192274AC7
:10539000546C44F480445464526C02F48042019290
:1053A000019A9C08A51C1F4A52F8255003F0030ED1
:1053B0004FEA8E0E0F2202FA0EF225EA02051C4A6F
:1053C00090423FF471AF02F5806290421AD002F52C
:1053D0008062904218D002F58062904216D002F5A9
:1053E0008062904214D002F58062904212D002F5A1
:1053F0008062904210D002F5806290423FF452AF3A
:10540000082252E7012250E702224EE703224CE72E
:1054100004224AE7052248E7062246E703B030BDEA
:10542000704700BF00380140003C01400038024096
:10543000000002400AB18161704709048161704730
:10544000436901EA030221EA030141EA0241816161
:10545000704703685A6912F4806F01D100207047C9
:105460006FF480625A6100230363202280F83D209C
:1054700080F83E30026C42F00402026480F83C3056
:10548000012070472DE9F04107460D4690461E4623
:1054900024E0FFF709FB069BC01AB04200D8EEB922
:1054A00000233B63202287F83D2087F83E303A6C8A
:1054B00042F020023A6487F83C3001201EE03B684D
:1054C0009C6925EA040C1FFA8CFCBCFA8CFC4FEAA0
:1054D0005C1CE04511D1B6F1FF3FDAD1C5F30743BB
:1054E000012BECD13B685B6925EA030C1FFA8CFCAD
:1054F000BCFA8CFC4FEA5C1CEBE70020BDE8F081B5
:105500002DE9F04105460E46174698463DE01A68DB
:1055100042F400721A602B686FF480625A610023B3
:105520002B63202285F83D2085F83E302A6C42F01E
:1055300004022A6485F83C30012034E0FFF7B4FA15
:10554000A0EB0800B84200D8FFB900232B6320224B
:1055500085F83D2085F83E302A6C42F020022A640E
:1055600085F83C3001201EE02B689C6926EA040483
:10557000A4B2003C18BF0124A4B12B685A6912F4EC
:10558000806FC4D1B7F1FF3FD8D1C6F30743012BD9
:10559000EAD12B685C6926EA0404A4B2003C18BF77
:1055A0000124E9E70020BDE8F08170B504460D460E
:1055B000164623685B6913F0800F1CD12046FFF765
:1055C00048FFD0B9B5F1FF3FF3D0FFF76DFA801B6C
:1055D000A84201D8002DECD100232363202284F8B7
:1055E0003D2084F83E30226C42F02002226484F890
:1055F0003C30012000E0002070BD0120FCE70000ED
:105600002DE9F04385B004460D4691461F46DDF86E
:1056100030800D9E0368196841F48071196000960E
:10562000434600224FF00111FFF72CFF60B92368B9
:1056300005F0FE051D613346424626492046FFF728
:105640005FFF68B1012008E023681B6813F4807FC6
:1056500002D04FF400732364032005B0BDE8F0834B
:105660000023039323685A6903929B690393039B66
:10567000324641462046FFF798FF30B9012F0FD13F
:1056800023685FFA89F61E61E7E7236C042B01D0DB
:105690000120E2E72268136843F400731360F7E720
:1056A00023684FEA19221A61324641462046FFF725
:1056B0007CFF20B923685FFA89F61E61CDE7236C71
:1056C000042B01D00120C8E72268136843F400735B
:1056D0001360F7E7020001002DE9F04784B00446AB
:1056E0000D46164699460C9FDDF834800268136813
:1056F00043F4806313600368196841F48071196092
:10570000CDF800803B4600224FF00111FFF7BAFEB2
:1057100070B95FFA85FA236805F0FE051D614346FE
:105720003A4641492046FFF7EBFE68B1012008E008
:1057300023681B6813F4807F02D04FF40073236446
:10574000032004B0BDE8F0870023039323685A695F
:1057500003929B690393039B424639462046FFF719
:1057600024FF80B9B9F1010F18D12368F6B21E6188
:10577000424639462046FFF718FF68B3236C042BD6
:1057800024D00120DDE7236C042B01D00120D8E7D1
:105790002268136843F400731360F7E72368320A42
:1057A0001A61424639462046FFF7FFFE18B92368C2
:1057B000F6B21E61DCE7236C042B01D00120C0E7A8
:1057C0002268136843F400731360F7E722681368D4
:1057D00043F400731360D4E72268136843F48073C2
:1057E0001360CDF800803B4600224FF001112046A7
:1057F000FFF748FE68B922684AF001031361434687
:105800003A4609492046FFF77BFE002899D001203F
:1058100097E723681B6813F4807F02D04FF400736E
:10582000236403208DE700BF0200010070B5044629
:105830000D46164623685B6913F0040F1CD1204601
:10584000FFF707FED0B9B5F1FF3FF3D0FFF72CF912
:10585000801BA84201D8002DECD100232363202215
:1058600084F83D2084F83E30226C42F0200222640D
:1058700084F83C30012000E0002070BD0120FCE7EE
:1058800070B505460C4616462B68596911F0400F55
:1058900029D1596911F0100F15D1FFF705F9801BB7
:1058A000A04201D8002CEFD100232B63202285F8E1
:1058B0003D2085F83E302A6C42F020022A6485F8AB
:1058C0003C30012070BD6FF010025A6100232B6341
:1058D000202285F83D2085F83E302A6C2A6485F820
:1058E0003C300120EEE70020ECE70000002800F04B
:1058F000CC8070B5044690F83D30002B77D024233F
:1059000084F83D302268136823F001031360226895
:10591000136843F4004313602268136823F40043C0
:10592000136000F0EBFD62685A4B9A4264D85A4B00
:1059300098428CBF00230123002B40F0A8805749D8
:10594000A1FB00318B0C25686A6822F03F0242EA15
:1059500091426A6021680A6A22F03F0266684D4DF2
:10596000AE424FD8013313430B622168CA6922F457
:105970004F4222F0FF026568464B9D424CD8431EC1
:105980006D00B3FBF5F3013340F6FC70034278D0B1
:10599000C3F30B031A43CA6121680B6823F0C003E9
:1059A000E269206A024313430B6021688B6823F489
:1059B000034323F0FF032269E068024313438B6033
:1059C0002168CB6823F0FF036269A0690243134397
:1059D000CB602268136843F0010313600020206449
:1059E000202384F83D30206384F83E0070BD80F8A9
:1059F0003C30FEF74DFC82E7294B98428CBF0023D8
:105A0000012399E74FF4967505FB03F3254DA5FB9C
:105A100003539B090133A6E7A668BEB9431E05EBF5
:105A2000450CB3FBFCF30133C3F30B03B3FA83F36D
:105A30005B0943BBC6B9431E05EB4505B3FBF5F354
:105A40000133C3F30B0343F40043A3E7431E05EB09
:105A5000850C0CEB8C0CB3FBFCF30133C3F30B0391
:105A6000B3FA83F35B09E4E7431E05EB850505EB19
:105A70008505B3FBF5F30133C3F30B0343F4404354
:105A800088E7042386E7012384E70120704701208B
:105A9000ACE700BFA08601007F841E0083DE1B43AD
:105AA000FF083D00D34D62102DE9F04383B004465A
:105AB0000F46904699460C9EFEF7F6FF054694F871
:105AC0003D00C0B2202803D0022003B0BDE8F0831F
:105AD0000095192301224B492046FFF7D3FC0028EB
:105AE00040F0898094F83C30012B00F0868001233F
:105AF00084F83C3023681A6812F0010F03D11A6849
:105B000042F001021A602268136823F400631360F4
