:020000040800F2
:100000000000022051470008594500085B450008E0
:100010005D4500085F4500086145000800000000DC
:100020000000000000000000000000006345000820
:1000300065450008000000006745000869450008A4
:10004000A1470008A1470008A1470008A1470008F0
:10005000A1470008A1470008A1470008A1470008E0
:10006000A1470008A1470008A1470008A1470008D0
:10007000A1470008A1470008A1470008A1470008C0
:10008000A1470008A147000861460008A1470008F1
:10009000A1470008A1470008A1470008A1470008A0
:1000A000A1470008F1450008A1470008A147000842
:1000B000A1470008A1470008A1470008A147000880
:1000C000A1470008A1470008A1470008A147000870
:1000D000A1470008714500088145000891450008C6
:1000E00001460008A1470008A1470008A1470008F1
:1000F000A1470008A1470008A1470008A147000840
:10010000A1470008A1470008A1470008A14700082F
:10011000A1450008A1470008B1450008D1450008E5
:10012000A1470008A1470008A1470008A14700080F
:10013000A1470008A1470008A1470008A1470008FF
:10014000A1470008A1470008A1470008A1470008EF
:10015000A1470008A1470008A1470008E1450008A1
:10016000A1470008A1470008A1470008A1470008CF
:10017000A1470008A1470008A147000800000000AF
:08018000A1470008A147000897
:1001C00081F0004102E000BF83F0004330B54FEA08
:1001D00041044FEA430594EA050F08BF90EA020F75
:1001E0001FBF54EA000C55EA020C7FEA645C7FEA08
:1001F000655C00F0E2804FEA5454D4EB5555B8BF2B
:100200006D420CDD2C4480EA020281EA030382EA9B
:10021000000083EA010180EA020281EA0303362D2D
:1002200088BF30BD11F0004F4FEA01314FF4801C00
:100230004CEA113102D0404261EB410113F0004F12
:100240004FEA03334CEA133302D0524263EB4303C9
:1002500094EA050F00F0A780A4F10104D5F1200E67
:100260000DDB02FA0EFC22FA05F2801841F10001C2
:1002700003FA0EF2801843FA05F359410EE0A5F196
:1002800020050EF1200E012A03FA0EFC28BF4CF0C7
:10029000020C43FA05F3C01851EBE37101F000457D
:1002A00007D54FF0000EDCF1000C7EEB00006EEB8A
:1002B0000101B1F5801F1BD3B1F5001F0CD3490814
:1002C0005FEA30004FEA3C0C04F101044FEA44526B
:1002D00012F5800F80F09A80BCF1004F08BF5FEAF2
:1002E000500C50F1000041EB045141EA050130BDD2
:1002F0005FEA4C0C404141EB0101013C28BFB1F5E4
:10030000801FE9D291F0000F04BF01460020B1FA2E
:1003100081F308BF2033A3F10B03B3F120020CDA01
:100320000C3208DD02F1140CC2F10C0201FA0CF0DF
:1003300021FA02F10CE002F11402D8BFC2F1200C44
:1003400001FA02F120FA0CFCDCBF41EA0C019040FA
:10035000E41AA2BF01EB0451294330BD6FEA040443
:100360001F3C1CDA0C340EDC04F11404C4F120022E
:1003700020FA04F001FA02F340EA030021FA04F340
:1003800045EA030130BDC4F10C04C4F1200220FA97
:1003900002F001FA04F340EA0300294630BD21FAD5
:1003A00004F0294630BD94F0000F83F4801306BF9B
:1003B00081F480110134013D4EE77FEA645C18BF8F
:1003C0007FEA655C29D094EA050F08BF90EA020F26
:1003D00005D054EA000C04BF1946104630BD91EA1E
:1003E000030F1EBF0021002030BD5FEA545C05D121
:1003F0004000494128BF41F0004130BD14F5800460
:100400003CBF01F5801130BD01F0004545F0FE41D3
:1004100041F470014FF0000030BD7FEA645C1ABF08
:10042000194610467FEA655C1CBF0B46024650EA3F
:10043000013406BF52EA033591EA030F41F400216B
:1004400030BD00BF90F0000F04BF0021704730B5F1
:100450004FF4806404F132044FF000054FF00001C6
:1004600050E700BF90F0000F04BF0021704730B587
:100470004FF4806404F1320410F0004548BF40425C
:100480004FF000013EE700BF42004FEAE2014FEAB1
:1004900031014FEA02701FBF12F07F4393F07F4F8C
:1004A00081F06051704732F07F4208BF704793F08F
:1004B0007F4F04BF41F40021704730B54FF46074A2
:1004C00001F0004521F000411CE700BF50EA0102A5
:1004D00008BF704730B54FF000050AE050EA01024E
:1004E00008BF704730B511F0004502D5404261EBBE
:1004F00041014FF4806404F132045FEA915C3FF4FF
:10050000D8AE4FF003025FEADC0C18BF03325FEA9B
:10051000DC0C18BF033202EBDC02C2F1200300FA4C
:1005200003FC20FA02F001FA03FE40EA0E0021FA71
:1005300002F11444BDE600BF70B54FF0FF0C4CF45F
:10054000E06C1CEA11541DBF1CEA135594EA0C0F11
:1005500095EA0C0F00F0DEF82C4481EA030621EA4C
:100560004C5123EA4C5350EA013518BF52EA033587
:1005700041F4801143F4801338D0A0FB02CE4FF039
:100580000005E1FB02E506F00042E0FB03E54FF069
:100590000006E1FB03569CF0000F18BF4EF0010E61
:1005A000A4F1FF04B6F5007F64F5407404D25FEA5D
:1005B0004E0E6D4146EB060642EAC62141EA555110
:1005C0004FEAC52040EA5E504FEACE2EB4F1FD0C52
:1005D00088BFBCF5E06F1ED8BEF1004F08BF5FEAD0
:1005E000500E50F1000041EB045170BD06F0004682
:1005F00046EA010140EA020081EA0301B4EB5C042F
:10060000C2BFD4EB0C0541EA045170BD41F4801126
:100610004FF0000E013C00F3AB8014F1360FDEBF4B
:10062000002001F0004170BDC4F10004203C35DA27
:100630000C341BDC04F11404C4F1200500FA05F3AA
:1006400020FA04F001FA05F240EA020001F000424B
:1006500021F0004110EBD37021FA04F642EB0601C1
:100660005EEA430E08BF20EAD37070BDC4F10C04EB
:10067000C4F1200500FA04F320FA05F001FA04F2AF
:1006800040EA020001F0004110EBD37041F100019B
:100690005EEA430E08BF20EAD37070BDC4F12005A6
:1006A00000FA05F24EEA020E20FA04F301FA05F20E
:1006B00043EA020321FA04F001F0004121FA04F2B6
:1006C00020EA020000EBD3705EEA430E08BF20EA86
:1006D000D37070BD94F0000F0FD101F000464000C0
:1006E00041EB010111F4801F08BF013CF7D041EA42
:1006F000060195F0000F18BF704703F00046520046
:1007000043EB030313F4801F08BF013DF7D043EA16
:100710000603704794EA0C0F0CEA135518BF95EACC
:100720000C0F0CD050EA410618BF52EA4306D1D153
:1007300081EA030101F000414FF0000070BD50EA72
:10074000410606BF1046194652EA430619D094EAFC
:100750000C0F02D150EA013613D195EA0C0F05D1E6
:1007600052EA03361CBF104619460AD181EA03013A
:1007700001F0004141F0FE4141F470014FF00000F2
:1007800070BD41F0FE4141F4780170BD70B54FF08D
:10079000FF0C4CF4E06C1CEA11541DBF1CEA13550D
:1007A00094EA0C0F95EA0C0F00F0A7F8A4EB0504EF
:1007B00081EA030E52EA03354FEA013100F08880E6
:1007C0004FEA03334FF0805545EA131343EA1263AF
:1007D0004FEA022245EA111545EA10654FEA002664
:1007E0000EF000419D4208BF964244F1FD0404F51D
:1007F000407402D25B084FEA3202B61A65EB030579
:100800005B084FEA32024FF480104FF4002CB6EB35
:10081000020E75EB030E22BFB61A754640EA0C00B5
:100820005B084FEA3202B6EB020E75EB030E22BFF5
:10083000B61A754640EA5C005B084FEA3202B6EB36
:10084000020E75EB030E22BFB61A754640EA9C00F5
:100850005B084FEA3202B6EB020E75EB030E22BFC5
:10086000B61A754640EADC0055EA060E18D04FEA83
:10087000051545EA16754FEA06164FEAC30343EA23
:1008800052734FEAC2025FEA1C1CC0D111F4801FF0
:100890000BD141EA00014FF000004FF0004CB6E7E9
:1008A00011F4801F04BF01430020B4F1FD0C88BF88
:1008B000BCF5E06F3FF6AFAEB5EB030C04BFB6EB93
:1008C000020C5FEA500C50F1000041EB045170BD86
:1008D0000EF0004E4EEA113114EB5C04C2BFD4EBB3
:1008E0000C0541EA045170BD41F480114FF0000E37
:1008F000013C90E645EA060E8DE60CEA135594EAB3
:100900000C0F08BF95EA0C0F3FF43BAF94EA0C0FB5
:100910000AD150EA01347FF434AF95EA0C0F7FF42A
:1009200025AF104619462CE795EA0C0F06D152EA7E
:1009300003353FF4FDAE1046194622E750EA410662
:1009400018BF52EA43067FF4C5AE50EA41047FF473
:100950000DAF52EA43057FF4EBAE12E74FF0FF3CD8
:1009600006E000BF4FF0010C02E000BF4FF0010CA9
:100970004DF804CD4FEA410C7FEA6C5C4FEA430C22
:1009800018BF7FEA6C5C1BD001B050EA410C0CBF71
:1009900052EA430C91EA030F02BF90EA020F0020D3
:1009A000704710F1000F91EA030F58BF994208BF3A
:1009B00090422CBFD8176FEAE37040F001007047F7
:1009C0004FEA410C7FEA6C5C02D150EA013C07D14E
:1009D0004FEA430C7FEA6C5CD6D152EA033CD3D099
:1009E0005DF8040B704700BF8446104662468C4693
:1009F0001946634600E000BF01B5FFF7B7FF0028C6
:100A000048BF10F1000F01BD4DF808EDFFF7F4FFEE
:100A10000CBF012000205DF808FB00BF4DF808ED79
:100A2000FFF7EAFF34BF012000205DF808FB00BF9C
:100A30004DF808EDFFF7E0FF94BF012000205DF8BE
:100A400008FB00BF4DF808EDFFF7CEFF94BF012073
:100A500000205DF808FB00BF4DF808EDFFF7C4FF6C
:100A600034BF012000205DF808FB00BF4FEA410CB5
:100A70007FEA6C5C02D150EA013C0AD14FEA430C98
:100A80007FEA6C5C02D152EA033C02D14FF00000D5
:100A900070474FF0010070474FEA410212F5001213
:100AA00015D211D56FF47873B3EB625212D94FEAB5
:100AB000C12343F0004343EA505311F0004F23FA9F
:100AC00002F018BF404270474FF00000704750EAF4
:100AD000013005D111F0004008BF6FF000407047B1
:100AE0004FF00000704700BF4FEA4102B2F1E0430F
:100AF00024BFB3F5001CDCF1FE5C0DD901F0004C05
:100B00004FEAC0024CEA5070B2F1004F40EB830054
:100B100008BF20F00100704711F0804F21D113F180
:100B20003872BCBF01F00040704741F480114FEAB9
:100B30005252C2F11802C2F1200C10FA0CF320FA42
:100B400002F018BF40F001004FEAC1234FEAD3235F
:100B500003FA0CFC40EA0C0023FA02F34FEA4303C9
:100B6000CCE77FEA625307D150EA01331EBF4FF052
:100B7000FE4040F44000704701F0004040F0FE406D
:100B800040F40000704700BF80F0004002E000BF6A
:100B900081F0004142001FBF5FEA410392EA030F68
:100BA0007FEA226C7FEA236C6AD04FEA1262D2EBB2
:100BB0001363C1BFD218414048404140B8BF5B42B7
:100BC000192B88BF704710F0004F40F4000020F050
:100BD0007F4018BF404211F0004F41F4000121F066
:100BE0007F4118BF494292EA030F3FD0A2F10102B0
:100BF00041FA03FC10EB0C00C3F1200301FA03F1EE
:100C000000F0004302D5494260EB4000B0F5000F10
:100C100013D3B0F1807F06D340084FEA310102F1CF
:100C20000102FE2A51D2B1F1004F40EBC25008BF81
:100C300020F0010040EA03007047490040EB00004B
:100C4000013A28BFB0F5000FEDD2B0FA80FCACF14C
:100C5000080CB2EB0C0200FA0CF0AABF00EBC25079
:100C600052421843BCBFD0401843704792F0000F67
:100C700081F4000106BF80F400000132013BB5E7BA
:100C80004FEA41037FEA226C18BF7FEA236C21D030
:100C900092EA030F04D092F0000F08BF0846704795
:100CA00090EA010F1CBF0020704712F07F4F04D163
:100CB000400028BF40F00040704712F100723CBF76
:100CC00000F50000704700F0004343F0FE4040F4A0
:100CD000000070477FEA226216BF08467FEA23635E
:100CE0000146420206BF5FEA412390EA010F40F449
:100CF000800070474FF0000304E000BF10F0004395
:100D000048BF40425FEA000C08BF704743F096437B
:100D100001464FF000001CE050EA010208BF704796
:100D20004FF000030AE000BF50EA010208BF70471D
:100D300011F0004302D5404261EB41015FEA010C32
:100D400002BF84460146002043F0B64308BFA3F12A
:100D50008053A3F50003BCFA8CF2083AA3EBC2530C
:100D600010DB01FA02FC634400FA02FCC2F120022B
:100D7000BCF1004F20FA02F243EB020008BF20F062
:100D80000100704702F1200201FA02FCC2F12002C8
:100D900050EA4C0021FA02F243EB020008BF20EABD
:100DA000DC7070474FF0FF0C1CEAD0521EBF1CEAEB
:100DB000D15392EA0C0F93EA0C0F6FD01A4480EAD9
:100DC000010C400218BF5FEA41211ED04FF00063C2
:100DD00043EA501043EA5111A0FB01310CF00040EE
:100DE000B1F5000F3EBF490041EAD3715B0040EA14
:100DF000010062F17F02FD2A1DD8B3F1004F40EBE4
:100E0000C25008BF20F00100704790F0000F0CF0B6
:100E1000004C08BF49024CEA502040EA51207F3A7A
:100E2000C2BFD2F1FF0340EAC250704740F4000055
:100E30004FF00003013A5DDC12F1190FDCBF00F046
:100E400000407047C2F10002410021FA02F1C2F1F4
:100E5000200200FA02FC5FEA310040F1000053EA90
:100E60004C0308BF20EADC70704792F0000F00F0DE
:100E7000004C02BF400010F4000F013AF9D040EAE4
:100E80000C0093F0000F01F0004C02BF490011F478
:100E9000000F013BF9D041EA0C018FE70CEAD15376
:100EA00092EA0C0F18BF93EA0C0F0AD030F0004CF6
:100EB00018BF31F0004CD8D180EA010000F00040AA
:100EC000704790F0000F17BF90F0004F084691F068
:100ED000000F91F0004F14D092EA0C0F01D14202A2
:100EE0000FD193EA0C0F03D14B0218BF084608D16B
:100EF00080EA010000F0004040F0FE4040F40000B5
:100F0000704740F0FE4040F4400070474FF0FF0C47
:100F10001CEAD0521EBF1CEAD15392EA0C0F93EA8E
:100F20000C0F69D0A2EB030280EA010C49024FEAE0
:100F3000402037D04FF0805343EA111143EA101399
:100F40000CF000408B4238BF5B0042F17D024FF451
:100F5000000C8B4224BF5B1A40EA0C00B3EB510F2C
:100F600024BFA3EB510340EA5C00B3EB910F24BF15
:100F7000A3EB910340EA9C00B3EBD10F24BFA3EB9A
:100F8000D10340EADC001B0118BF5FEA1C1CE0D162
:100F9000FD2A3FF650AF8B4240EBC25008BF20F015
:100FA000010070470CF0004C4CEA50207F32C2BF69
:100FB000D2F1FF0340EAC250704740F400004FF006
:100FC0000003013A37E792F0000F00F0004C02BF37
:100FD000400010F4000F013AF9D040EA0C0093F001
:100FE000000F01F0004C02BF490011F4000F013B5B
:100FF000F9D041EA0C0195E70CEAD15392EA0C0FC3
:1010000008D142027FF47DAF93EA0C0F7FF470AFFA
:10101000084676E793EA0C0F04D14B023FF44CAF3D
:1010200008466EE730F0004C18BF31F0004CCAD1D2
:1010300030F000427FF45CAF31F000437FF43CAF0E
:101040005FE700BF4FF0FF3C06E000BF4FF0010C30
:1010500002E000BF4FF0010C4DF804CD4FEA400212
:101060004FEA41037FEA226C18BF7FEA236C11D05C
:1010700001B052EA530C18BF90EA010F58BFB2EB0F
:10108000030088BFC81738BF6FEAE17018BF40F08F
:10109000010070477FEA226C02D15FEA402C05D143
:1010A0007FEA236CE4D15FEA412CE1D05DF8040BC8
:1010B000704700BF844608466146FFE70FB5FFF75B
:1010C000C9FF002848BF10F1000F0FBD4DF808ED13
:1010D000FFF7F4FF0CBF012000205DF808FB00BF04
:1010E0004DF808EDFFF7EAFF34BF012000205DF85E
:1010F00008FB00BF4DF808EDFFF7E0FF94BF0120AB
:1011000000205DF808FB00BF4DF808EDFFF7D2FFA7
:1011100094BF012000205DF808FB00BF4DF808EDEA
:10112000FFF7C8FF34BF012000205DF808FB00BFB7
:101130004FEA40024FEA41037FEA226C02D15FEAA4
:10114000402C08D17FEA236C02D15FEA412C02D106
:101150004FF0000070474FF0010070474FEA400227
:10116000B2F1FE4F0FD34FF09E03B3EB12620DD9D5
:101170004FEA002343F0004310F0004F23FA02F03F
:1011800018BF404270474FF00000704712F1610FE6
:1011900001D1420205D110F0004008BF6FF00040BD
:1011A00070474FF00000704753B94AB9002908BF93
:1011B00000281CBF4FF0FF314FF0FF3000F0E2B8C5
:1011C000ADF1080C6DE904CE06F0BCFDDDF804E0DD
:1011D000DDE9022304B0704700F1340191E83800E2
:1011E0009C46A6464CF8045D90E8FF0FE54600BD1E
:1011F00090EC210B704700BF80EC210B704700BFC3
:1012000090EC200B704700BF80EC200B704700BFB4
:10121000D0EC200B704700BFC0EC200B704700BF24
:10122000F0EC0201F0EC0211F0EC0221F0EC0231E2
:10123000F0EC0241F0EC0251F0EC0261F0EC0271D2
:10124000F0EC0281F0EC0291F0EC02A1F0EC02B1C2
:10125000F0EC02C1F0EC02D1F0EC02E1F0EC02F1B2
:10126000704700BFE0EC0201E0EC0211E0EC02216B
:10127000E0EC0231E0EC0241E0EC0251E0EC026112
:10128000E0EC0271E0EC0281E0EC0291E0EC02A102
:10129000E0EC02B1E0EC02C1E0EC02D1E0EC02E1F2
:1012A000E0EC02F1704700BFB0FC0181B0FC01919D
:1012B000B0FC01A1B0FC01B1704700BFA0FC0181EE
:1012C000A0FC0191A0FC01A1A0FC01B1704700BFEE
:1012D000EC4600B52DE900502DE9FF1F4FF000034B
:1012E0002DE90C0001A906F0DFFFDDF840E012B0A7
:1012F000704700BFEC4600B52DE900502DE9FF1FF7
:101300004FF000032DE90C0001A907F009F8DDF802
:1013100040E012B0704700BFEC4600B52DE9005028
:101320002DE9FF1F4FF000032DE90C0001A907F084
:1013300017F8DDF840E012B0704700BFEC4600B58A
:101340002DE900502DE9FF1F4FF000032DE90C009F
:1013500001AB06F0DDFFDDF840E012B0704700BFE2
:10136000EC4600B52DE900502DE9FF1F4FF00003BA
:101370002DE90C0001AA07F04BF8DDF840E012B0AF
:10138000704700BF704700BF844641EA000313F076
:1013900003036DD1403A41D351F8043B40F8043B7C
:1013A00051F8043B40F8043B51F8043B40F8043B3F
:1013B00051F8043B40F8043B51F8043B40F8043B2F
:1013C00051F8043B40F8043B51F8043B40F8043B1F
:1013D00051F8043B40F8043B51F8043B40F8043B0F
:1013E00051F8043B40F8043B51F8043B40F8043BFF
:1013F00051F8043B40F8043B51F8043B40F8043BEF
:1014000051F8043B40F8043B51F8043B40F8043BDE
:1014100051F8043B40F8043B403ABDD2303211D37E
:1014200051F8043B40F8043B51F8043B40F8043BBE
:1014300051F8043B40F8043B51F8043B40F8043BAE
:10144000103AEDD20C3205D351F8043B40F8043B7E
:10145000043AF9D2043208D0D2071CBF11F8013B7C
:1014600000F8013B01D30B8803806046704700BF42
:10147000082A13D38B078DD010F003038AD0C3F151
:101480000403D21ADB071CBF11F8013B00F8013B33
:1014900080D331F8023B20F8023B7BE7043AD9D3F2
:1014A000013A11F8013B00F8013BF9D20B780370C7
:1014B0004B7843708B788370604670470000000063
:1014C00001F0FF01102A2BDB10F0070F08D010F8F5
:1014D000013B013A8B422DD010F0070F42B3F6D1F9
:1014E000F0B441EA012141EA014122F007047FF012
:1014F00000070023F0E80256083C85EA010586EA69
:10150000010685FA47F5A3FA87F586FA47F6A5FAA4
:1015100087F68EB9EED1F0BC01F0FF0102F00702B0
:1015200032B110F8013B013A83EA010313B1F8D15B
:101530000020704701387047002D06BF354603383C
:10154000073815F0010F07D1013015F4807F02BF75
:10155000013015F4C03F01300138F0BC704700BFC6
:10156000000000000000000000000000000000007B
:10157000000000000000000000000000000000006B
:1015800030B490F800F020F007016FF0000C10F07C
:10159000070491F820F040F048804FF000046FF00D
:1015A0000700D1E9002391F840F000F1080082FA29
:1015B0004CF2A4FA8CF283FA4CF3A2FA8CF34BBBF4
:1015C000D1E9022382FA4CF200F10800A4FA8CF26D
:1015D00083FA4CF3A2FA8CF3E3B9D1E9042382FA3B
:1015E0004CF200F10800A4FA8CF283FA4CF3A2FA50
:1015F0008CF37BB9D1E9062301F1200182FA4CF288
:1016000000F10800A4FA8CF283FA4CF3A2FA8CF3EE
:10161000002BC6D0002A04BF04301A4612BAB2FA10
:1016200082F200EBD20030BC7047D1E9002304F015
:101630000305C4F100004FEAC50514F0040F91F84A
:1016400040F00CFA05F562EA05021CBF63EA0503E7
:1016500062464FF00004AAE70348044B834202D0DD
:10166000034B03B11847704704070020040700200C
:10167000000000000548064B1B1AD90F01EBA3011F
:10168000491002D0034B03B11847704704070020EC
:10169000040700200000000010B5064C237843B971
:1016A000FFF7DAFF044B13B10448AFF300800123C6
:1016B000237010BD0407002000000000DCF00008CB
:1016C00008B5054B1BB105490548AFF30080BDE8DF
:1016D0000840FFF7CFBF00BF000000000807002050
:1016E000DCF00008014B1860704700BF20070020A5
:1016F0002DE9F047044617461E460B9D00F010FBEF
:1017000004F148093946484600F00AFB04F1900A02
:101710003146504600F004FB04F1D80808994046D1
:1017200000F0FEFA04F590770999384600F0F8FACF
:1017300004F5B4760A99304600F0F2FA2968C4F844
:10174000B0116B68C4F8B431AB68C4F8B831002389
:10175000C4F8BC31C4F8C0316B69C4F8C431204648
:1017600000F029FAD4F8B411484600F024FAD4F86D
:10177000B811504600F01FFAD4F8BC11404600F0F2
:101780001AFAD4F8C011384600F015FAD4F8C4118A
:10179000304600F010FA012384F8E031BDE8F0870C
:1017A0000B68C0F8C8314B68C0F8CC318B68C0F802
:1017B000D031CB68C0F8D4310B69C0F8D8314B694F
:1017C000C0F8DC3190F8E03143F0020380F8E031FA
:1017D00070470000000000002DE9F04F87B005467B
:1017E0000C46164602F10801903000F096FA06F118
:1017F0000C0105F1D80000F090FA06F1100105F592
:10180000907000F08AFA06F1140105F5B47000F04A
:1018100084FAC349B068FFF7BDF98346F568D6F886
:1018200010A0D6F814804FF07C51FFF7BBFAFEF7FA
:101830002BFEB3A3D3E90023FEF7A8FF0022B94B88
:10184000FEF77AFECDE9000128F000404FF07C5110
:10185000FFF7A8FAFEF718FEA9A3D3E90023FEF7C5
:1018600095FF06460F462AF0004025F00041FFF79D
:1018700091F9FEF709FEA2A3D3E90023FEF786FF44
:10188000A1A3D3E90023FEF781FF02460B463046B1
:101890003946FEF79BFC06460F4602460B46DDE93D
:1018A0000001FFF7BBF868B34046FEF7EDFD804648
:1018B000894632463B46DDE90001FEF767FF0646F2
:1018C0000F4602460B4640464946FEF735FEFFF7F7
:1018D0000BF980465046FEF7D7FD02460B463046D0
:1018E0003946FEF729FEFFF7FFF882462846FEF745
:1018F000CBFD02460B4630463946FEF71DFEFFF78C
:10190000F3F805464FF07A515846FFF74BFAFEF7C9
:10191000BBFD7BA3D3E90023FEF738FFCDE900012F
:101920004FF07A514046FFF73DFAFEF7ADFD74A344
:10193000D3E90023FEF72AFF06460F4602460B4670
:10194000DDE90001FEF742FC804689464FF07C51FC
:101950005046FFF727FAFEF797FD69A3D3E9002366
:10196000FEF714FF68A3D3E90023FEF70FFF02463A
:101970000B46CDE90423CDE9028940464946FEF7EE
:1019800023FCFFF7B1F88246206032463B46DDE992
:101990000001FEF719FC06460F464FF07C51284621
:1019A000FFF700FAFEF770FD55A3D3E90023FEF719
:1019B000EDFE55A3D3E90023FEF7E8FE80468946F5
:1019C00002460B46CDE9006730463946FEF7FEFB7E
:1019D000FFF78AF807466060DDE90423DDE90201CC
:1019E000FEF7F4FBFFF780F80646A06042464B4640
:1019F000DDE90001FEF7E8FBFFF776F80546E06059
:101A000039465046FFF7C6F801463046FFF7C2F8A0
:101A100001462846FFF7BEF800905846FEF734FD11
:101A20000022414BFEF788FD39A3D3E90023FEF7DE
:101A3000ADFE39A3D3E90023FEF77EFD00223B4B28
:101A4000FEF77AFD804689460098FEF71DFD0246A6
:101A50000B4640464946FEF799FEFFF745F881469A
:101A600001465046FFF79EF905F0E4FD80462060F0
:101A700049463846FFF796F905F0DCFD07466060F9
:101A800049463046FFF78EF905F0D4FD0646A060C2
:101A900049462846FFF786F905F0CCFD0546E0608B
:101AA0004FF07E514046FFF739FB08B14FF07E58AA
:101AB000C4F800804FF07E513846FFF72FFB08B185
:101AC0004FF07E5767604FF07E513046FFF726FBA0
:101AD00008B14FF07E56A6604FF07E512846FFF7C2
:101AE0001DFB08B14FF07E55E56011494046FFF7F8
:101AF000F7FAF8B1DFF838801CE000BFAFF30080E0
:101B0000FCA9F1D24D62503F333333333333D33FEB
:101B10009A99999999992340CDCCCCCCCCCCDC3FE7
:101B2000CDCC9C410000E83F0000E03F00001040A9
:101B3000CDCCCC3DC4F800800B493846FFF7D0FA35
:101B400000B1094F676008493046FFF7C9FA00B194
:101B5000054EA66004492846FFF7C2FA00B1024DBF
:101B6000E56007B0BDE8F08FCDCCCC3D10B50446A4
:101B7000D0F8D011903000F09BF8D4F8D41104F1D3
:101B8000D80000F095F8D4F8D81104F5907000F062
:101B90008FF8D4F8DC1104F5B47000F089F810BDAA
:101BA00010B50446FFF7E2FF94F8E03103F0FD03BF
:101BB00084F8E03110BD012380F82430C162704701
:101BC0002DE9F0410446876A39460068FFF7EAF8D4
:101BD0008046E5682946FEF7DBFF06462946404673
:101BE000FEF7D8FF804600213046FFF797FA00281D
:101BF00037D0A3690133A3616563D4F834802569C4
:101C000029464046FEF7C4FF064629464046FEF7F1
:101C1000C1FF804600213046FFF780FA00282DD012
:101C2000E3690133E3616563216C3846FEF7B0FF79
:101C3000A168FFF7B7F8074665692946FEF7A8FFD0
:101C4000064629463846FEF7A5FF074600213046DE
:101C5000FFF764FAF8B1236A01332362A563BDE894
:101C6000F08100214046FFF73BFA0028C5D0A36968
:101C70000133A36105F100456563BEE700214046DD
:101C8000FFF72EFA0028CFD0E3690133E36105F1B5
:101C900000456563C8E700213846FFF721FA0028B0
:101CA000DDD0236A0133236205F10045A563D6E741
:101CB00070B504460163012380F8253090F8243084
:101CC0001BB9002384F8253070BDC06AFEF760FFA1
:101CD0000546A0622168FFF765F8E063666B6168FE
:101CE0002846FFF75FF801463046FEF753FF606372
:101CF000216C2846FEF74CFFA168FFF753F8A0635C
:101D000025642046FFF75CFF616BE06BFEF742FF46
:101D1000A16BFEF73FFF6064D3E7436C0B60704735
:101D20000B6803604B6843608B6883607047704743
:101D300070B504460D46164600680146FFF732F8B6
:101D40002A49FFF72FF8FFF709FA3368D8632068AC
:101D50000146FFF727F82549FFF724F8FFF7FEF9BA
:101D60003368186460680146FFF71CF81F49FFF7E5
:101D700019F8FFF7F3F93368586360680146FFF715
:101D800011F81A49FFF70EF8FFF7E8F9336898637E
:101D9000A0680146FFF706F81449FFF703F8FFF7BC
:101DA000DDF92B685863A0680146FEF7FBFF0F4979
:101DB000FEF7F8FFFFF7D2F92B689863E068014659
:101DC000FEF7F0FF0949FEF7EDFFFFF7C7F92B68B3
:101DD000D863E0680146FEF7E5FF0449FEF7E2FF3D
:101DE000FFF7BCF92B68186470BD00BF00409C462B
:101DF0007047000010B504464FF07C51FEF7D2FF4B
:101E000001462346094CA4EB63042046FEF7CAFFB3
:101E100001462046FEF7C6FF01464FF07F50FEF711
:101E2000B7FE01462046FEF7BDFF10BDDF59375F04
:101E30002DE9F04F85B005460C4603921E46DDF8AD
:101E40003890DDF83C8000211846FFF73FF958B183
:101E500000214846FFF73AF930B100214046FFF72C
:101E600035F9002840F0008131463046FEF79AFFF0
:101E7000074649464846FEF795FF01463846FEF7B5
:101E800089FE074641464046FEF78CFF014638462C
:101E9000FEF780FEFFF7AEFF074601463046FEF72D
:101EA00081FF029039464846FEF77CFF0190394693
:101EB0004046FEF777FF8346DFF8CC92D9F8000062
:101EC000B24F3968FEF76EFF0646DFF8C482D8F8D5
:101ED0000000DFF8C0A2DAF80010FEF763FF014649
:101EE0003046FEF755FE0646D8F80000D9F8001037
:101EF000FEF758FF8146DAF800003968FEF752FF16
:101F000001464846FEF746FE8146D8F80000D8F85C
:101F10000010FEF747FF4FF07C51FEF739FE804678
:101F200038683968FEF73EFF01464046FEF732FE4C
:101F3000074601460198FEF735FF80464946584658
:101F4000FEF730FF01464046FEF722FE804631464E
:101F50005846FEF727FF82463946DDF808B0584656
:101F6000FEF720FF01465046FEF712FE074649469F
:101F70005846FEF717FF814631460198FEF712FFDB
:101F800001464846FEF704FE0646834B18680021CA
:101F9000FFF7C4F8002800F03C81DFF8FC91D9F885
:101FA00000004146FEF7FEFE7C49FEF7FBFE0146BF
:101FB000DFF8ECB1DBF80000FEF7ECFDCBF8000039
:101FC000D9F800003946FEF7EDFE7449FEF7EAFE47
:101FD0000146DFF8D0A1DAF80000FEF7DBFDCAF811
:101FE0000000D9F800003146FEF7DCFE6B49FEF731
:101FF000D9FE0146DFF8B091D9F80000FEF7CAFD1E
:10200000C9F80000DBF800102846FEF7C3FD0546BE
:10201000DAF800102046FEF7BDFD0446D9F800109E
:102020000398FEF7B7FD0390DFF88091D9F8000020
:102030004146FEF7B7FE01462846FEF7ABFD0546D2
:10204000D9F800003946FEF7ADFE01462046FEF7FE
:10205000A1FD0446D9F800003146FEF7A3FE014673
:102060000398FEF797FD039051492846FEF79AFE24
:1020700001904F492046FEF795FE02904C49039887
:10208000FEF790FE8046424FD7F800B03E4ED6F89D
:1020900000A0404DD5F800900AF100400199FEF7EC
:1020A00081FE044649460298FEF77CFE0146204622
:1020B000FEF76EFD0390354C20684146FEF772FE38
:1020C00001460398FEF764FD01463868FEF762FD9D
:1020D000386059460198FEF765FE03904946404630
:1020E000FEF760FE01460398FEF754FD039020685A
:1020F0000299FEF757FE01460398FEF749FD014697
:102100003068FEF747FD306059460298FEF74AFEF8
:10211000039051464046FEF745FE01460398FEF700
:1021200037FD039020680199FEF73CFE01460398B5
:10213000FEF730FD01462868FEF72CFD2860594661
:102140004046FEF72FFE804651460298FEF72AFED3
:1021500001464046FEF71EFD804649460198FEF7BF
:1021600021FE01464046FEF713FD2168FEF712FDF1
:10217000206038683968FEF715FE8046306831689F
:10218000FEF710FE014615E0440700203C07002042
:102190000000002040070020040000200AD7233C54
:1021A00038070020340700203007002008000020F6
:1021B0000AD7A33B4046FEF7EDFC80462868296815
:1021C000FEF7F0FD01464046FEF7E4FC804620683D
:1021D0002168FEF7E7FD01464046FEF7DBFCFFF70E
:1021E00009FE804638684146FEF7DCFD38603068FD
:1021F0004146FEF7D7FD306028684146FEF7D2FD24
:10220000286020684146FEF7CDFD206005B0BDE89E
:10221000F08F0023034A1360034A1360034A1360DC
:1022200002E700BF380700203407002030070020F5
:102230002DE9F04F91B00290039104921C461A9F31
:10224000DDF86CA01C9EDDF87490DDF8788000212C
:102250003046FEF73BFF58B100214846FEF736FFF7
:1022600030B100214046FEF731FF002840F0C78220
:1022700000212046FEF72AFF58B100213846FEF71C
:1022800025FF30B100215046FEF720FF002840F026
:10229000F78121462046FEF785FD0546394638463A
:1022A000FEF780FD01462846FEF774FC05465146C0
:1022B0005046FEF777FD01462846FEF76BFC05F019
:1022C000B9F901464FF07E50FEF720FE0546014663
:1022D0002046FEF767FD099029463846FEF762FD65
:1022E0000A9029465046FEF75DFD0B903146304678
:1022F000FEF758FD044649464846FEF753FD0146A1
:102300002046FEF747FC044641464046FEF74AFD9C
:1023100001462046FEF73EFC05F08CF901464FF0E1
:102320007E50FEF7F3FD044601463046FEF73AFDC7
:10233000834621464846FEF735FD82462146404603
:10234000FEF730FD0546AA4C20682168FEF72AFDFD
:102350000C902068A74E3168FEF724FD0690206897
:10236000A54F3968FEF71EFD07902068A34C216831
:10237000FEF718FD804630683168FEF713FD0D90BA
:1023800030683968FEF70EFD089030682168FEF766
:1023900009FD064638683968FEF704FD814638684D
:1023A0002168FEF7FFFC074620682168FEF7FAFC6B
:1023B000044649464FF07C50FEF7EAFB2146FEF703
:1023C000E7FB0E90CDF814B05946FEF7EBFC8346C0
:1023D00041460898FEF7DCFB0F905146FEF7E2FC01
:1023E00001465846FEF7D6FB834631460798FEF76E
:1023F000D1FB2946FEF7D6FC01465846FEF7CAFB3C
:102400000146FEF7C7FB834608994046FEF7C2FB2C
:102410000599FEF7C7FC80460D994FF07C50FEF7FA
:10242000B7FB08902146FEF7B3FB5146FEF7BAFC16
:1024300001464046FEF7AEFB804606993846FEF759
:10244000A7FB2946FEF7AEFC01464046FEF7A2FB7D
:102450000146FEF79FFB804659465846FEF7A2FC10
:10246000834641464046FEF79DFC01465846FEF72E
:1024700091FB05F0DFF8804607993046FEF788FBB0
:1024800006460599FEF78EFC834639460698FEF708
:1024900081FB07465146FEF785FC01465846FEF78C
:1024A00079FB834649460898FEF772FB2946FEF7FA
:1024B00079FC01465846FEF76DFB0146FEF76AFBC4
:1024C00005464FF07C510C98FEF762FB2146FEF763
:1024D00061FB044641460E98FEF764FC814629469E
:1024E0003046FEF75FFC01464846FEF753FB814647
:1024F00041460F98FEF756FC804629463846FEF7BF
:1025000051FC01464046FEF745FB054621460A9828
:10251000FEF748FC8046DDF82CB059463846FEF7F9
:1025200041FC01464046FEF733FB3549FEF73AFCD5
:10253000074659463046FEF735FC064621460998BF
:10254000FEF730FC01463046FEF722FB2C49FEF731
:1025500029FC044629460598FEF724FC0546494611
:102560005046FEF71FFC01462846FEF711FB2449A2
:10257000FEF718FC0546234B1F60234B1C60234BC2
:102580001860234B18680021FEF7C8FD002800F0F2
:1025900040811F4E30683946FEF704FC1D49FEF7A6
:1025A00001FC0146DFF87090D9F80000FEF7F2FA5E
:1025B000C9F8000030682146FEF7F4FB1549FEF724
:1025C000F1FB0146DFF85480D8F80000FEF7E2FA8C
:1025D000C8F8000030682946FEF7E4FB0D49FEF715
:1025E000E1FB01460E4E3068FEF7D4FA1AE000BF58
:1025F0000000002044070020400700203C07002086
:10260000000020402C07002028070020240700207D
:10261000040000200AD7233C38070020340700209C
:10262000300700203060D9F800100298FEF7B2FAA7
:102630000290D8F800100398FEF7ACFA03903168C6
:102640000498FEF7A7FA0490764E30683946FEF7F4
:10265000A9FB01460298FEF79DFA029030682146D8
:10266000FEF7A0FB01460398FEF794FA039030684A
:102670002946FEF797FB01460498FEF78BFA049073
:1026800069490298FEF78EFB044667490398FEF7F6
:1026900089FB029064490498FEF784FB8046634FEF
:1026A000D7F800B0624ED6F800A0624DD5F8009081
:1026B0000AF1004003942146FEF774FB04464946A4
:1026C0000298FEF76FFB01462046FEF761FA049080
:1026D000594C20684146FEF765FB01460498FEF719
:1026E00057FA01463868FEF755FA3860594603989C
:1026F000FEF758FB049049464046FEF753FB01465F
:102700000498FEF747FA049020680299FEF74AFB06
:1027100001460498FEF73CFA01463068FEF73AFAA3
:10272000306059460298FEF73DFB04905146404602
:10273000FEF738FB01460498FEF72AFA0490206859
:102740000399FEF72FFB01460498FEF723FA014692
:102750002868FEF71FFA286059464046FEF722FB1C
:10276000804651460298FEF71DFB01464046FEF7A3
:1027700011FA804649460398FEF714FB014640468D
:10278000FEF706FA2168FEF705FA20603868396816
:10279000FEF708FB804630683168FEF703FB014610
:1027A0004046FEF7F7F9804628682968FEF7FAFAEE
:1027B00001464046FEF7EEF9804620682168FEF7A4
:1027C000F1FA01464046FEF7E5F9FFF713FB8046B4
:1027D00038684146FEF7E6FA386030684146FEF751
:1027E000E1FA306028684146FEF7DCFA286020688C
:1027F0004146FEF7D7FA206011B0BDE8F08FCDF862
:1028000004A000972346049A03990298FFF710FB4F
:10281000F2E70023094A1360094A1360094A13606A
:1028200012E700BF080000200AD7A33B00000020E9
:1028300044070020400700203C0700203807002004
:1028400034070020300700202DE9F0418CB000242F
:102850000794089409940A940B9401944E4B1A6BB4
:1028600042F080021A631A6B02F080020192019A10
:1028700002941A6B42F001021A631A6B02F0010211
:102880000292029A03941A6B42F002021A631A6BC4
:1028900002F002020392039A04941A6B42F00402BB
:1028A0001A631A6B02F004020492049A05941A6BDC
:1028B00042F008021A631A6B02F008020592059AA8
:1028C00006941A6B42F010021A631B6B03F010039C
:1028D0000693069B314F22463021384602F074FCA5
:1028E000DFF8BC8022464FF4F941404602F06CFC10
:1028F000032607960894099407A9384602F06AFB54
:10290000302307930125089509940A9407A93846AE
:1029100002F060FB4FF4F9430793089509940A9479
:1029200007A9404602F056FB4FF400430793099471
:102930004FF4881308930A9607F5006707A93846ED
:1029400002F048FB0223079308960994A8F5006853
:1029500007A9404602F03EFB48F20C030793089596
:1029600009940A960B9507A90E4802F033FB082339
:10297000079307A9404602F02DFB4FF4D443079379
:10298000089509940A960B9507A9384602F022FB90
:102990000CB0BDE8F08100BF0038024000080240E2
:1029A000000C02400000024008B500200346024629
:1029B0000146FFF71DFAFFF7BAF908BD30B585B03B
:1029C000314B324A1A60324B324A1A60324B334A28
:1029D0001A6000240094324B5A6C42F001025A648F
:1029E0005A6C02F001020092009A01941A6C42F0B3
:1029F00001021A641A6C02F001020192019A029417
:102A00001A6C42F010021A641A6C02F01002029260
:102A1000029A03941A6C42F020021A641B6C03F0B1
:102A200020030393039B1F49CA6822F4E062120447
:102A3000120C1D4B1343CB6002222146362002F0BC
:102A40002BFA362002F05AFA184D2A68D36843F060
:102A50003603D360362002F02FFA284603F0B0FD8B
:102A600022462146282002F017FA114B4FF48072BB
:102A70005A6022460121122002F00EFA122002F0C2
:102A80001BFA05B030BD00BFC00700209008002031
:102A9000BC070020F0090020B80700204C080020E7
:102AA0000038024000ED00E00002FA056009002055
:102AB00000E100E0835C0132002BFBD1D0B2704713
:102AC0004FF07E5101600022426082604FF0804CE6
:102AD000C0F80CC0DFF828C0C0F810C04161002168
:102AE0008161C161016280F8241080F82510826242
:102AF000C262026342638263C263026442647047DB
:102B00000000204110B50446FFF7DAFF04F1480049
:102B1000FFF7D6FF04F19000FFF7D2FF04F1D800D1
:102B2000FFF7CEFF04F59070FFF7CAFF04F5B4700D
:102B3000FFF7C6FF002384F8E0310F2384F8E1316A
:102B4000204610BD08B50A46002306E010F803C071
:102B50004CF0800C00F803C001339A42F6DC4FF4CD
:102B6000FA730146014804F0D6FA08BD9008002027
:102B700008B50A46002306E010F803C04CF0800CAC
:102B800000F803C0013302F1FF3C9C45F4DCFF2355
:102B900083544FF4FA730146014804F0BCFA08BDAF
:102BA0009008002008B50368254A934215D0254AAD
:102BB000934217D0244A934219D001222349244832
:102BC00004F0F9FC01222349234804F0F4FC01221B
:102BD0002249234804F0EFFC08BD2021214802F0DF
:102BE000F9FAEAE701211B48FFF7ACFFE5E71E4AC7
:102BF00013780133DBB213701378DBB2012B08D0EA
:102C0000194B1B78DBB2022B0BD0174B00221A702A
:102C1000D3E7164A00231380104B1B78DBB21380D6
:102C2000CBE7114B00221A7010490B889BB21B0294
:102C30009BB20A4A127813449BB20B80BDE700BFD7
:102C40000044004000100140004800409807002068
:102C500090080020780700204C080020580700202A
:102C600008080020000802404A070020480700200A
:102C700072B6FEE700B587B000230093204A516C7E
:102C800041F480715164516C01F48071009100999C
:102C90000193516C41F400715164526C02F4007262
:102CA0000192019A02930393049305931548164ADF
:102CB00002604360836003610122027680F8203065
:102CC000C36212498162C360C26180F830304261E0
:102CD00001F054FE80B909230293012303930023DA
:102CE000049302A9074801F0C5FF38B9054801F06F
:102CF00071FE07B05DF804FBFFF7BAFFFFF7B8FFFE
:102D000000380240900B0020002001400100000F1D
:102D100070B588B000250195224C236B43F0020367
:102D20002363236B03F002030193019B0295236C41
:102D300043F400132364236C03F400130293029BF7
:102D4000402303931223049305950323069304233E
:102D50000793154E03A9304602F03CF980230393F4
:102D600003A9304602F036F9236A43F400132362C4
:102D7000236A23F4001323620C480D4B03600D4BB0
:102D800043608560C5604FF48043036145618561A0
:102D9000C561056202F074FC08B908B070BDFFF7A8
:102DA00067FF00BF00380240000402403C0B0020D7
:102DB00000540040801A060070B588B000250195C7
:102DC000234C236B43F002032363236B03F00203C2
:102DD0000193019B0295236C43F480032364236CCD
:102DE00003F480030293029B4FF4006303931223C6
:102DF000049305950323069304230793154E03A913
:102E0000304602F0E7F84FF48063039303A930469D
:102E100002F0E0F8236A43F480032362236A23F478
:102E2000800323620C480D4B03600D4B43608560AB
:102E3000C5604FF48043036145618561C5610562EA
:102E400002F01EFC08B908B070BDFFF711FF00BF0B
:102E50000038024000040240E80A00200058004008
:102E6000801A060008B50D480D4B03604FF48273BD
:102E7000436000238360C360036143614FF40072C9
:102E80008261C3610362436283620A23C36203F007
:102E90001FFA00B908BDFFF7EBFE00BF900A002043
:102EA0000030014008B50D480D4B03604FF48273AC
:102EB000436000238360C360036143614FF4007289
:102EC0008261C3610362436283620A23C36203F0C7
:102ED000FFF900B908BDFFF7CBFE00BF380A00209C
:102EE0000038004010B596B0002412941394149446
:102EF00015941094119409940A940B940C940D94C5
:102F00000E940F942022214601A806F073F83D4844
:102F10003D4B03600F234360846044F61F63C3602E
:102F200004614461846103F0B7FC002855D14FF47B
:102F30008053129312A9334803F013FE00284ED198
:102F4000304803F001FD00284BD12E4803F0D0FC9F
:102F5000002848D100231093119310A9294803F0A9
:102F600011FF002841D16023099342F210730A93A4
:102F700000220B920C920D920E920F9209A92148F9
:102F800003F075FD002832D100230993042209A91A
:102F90001C4803F03DFD60BB082209A9194803F055
:102FA00037FD40BB0C2209A9164803F031FD20BBB8
:102FB00000230193029303930A22049205934FF492
:102FC00000520692089301A90E4803F021FFB0B900
:102FD0000C4801F05BF916B010BDFFF749FEFFF792
:102FE00047FEFFF745FEFFF743FEFFF741FEFFF701
:102FF0003FFEFFF73DFEFFF73BFEFFF739FEFFF711
:1030000037FE00BFF00900200000014010B58EB06F
:10301000002300933B4A116C41F001011164126CD2
:1030200002F001020092009A0A930B930C930D9305
:1030300008930993019302930393049305930693D2
:10304000079331484FF0804202600F224260836054
:1030500044F61F62C2600361836103F01DFC002817
:103060003FD14FF480530A930AA9274803F079FD12
:10307000002838D1244803F067FC002835D100230C
:103080000893099308A9204803F07CFE78BB6023CD
:10309000019342F21073029300220392059201A958
:1030A000194803F0E4FC20BB04220DEB0201164892
:1030B00003F0DDFCF8B9082201A9134803F0D7FC9E
:1030C000D8B90C2201A9104803F0D1FCB8B90E4CB4
:1030D0003C21204603F0D4FD204601F0D7F80EB085
:1030E00010BDFFF7C5FDFFF7C3FDFFF7C1FDFFF7FB
:1030F000BFFDFFF7BDFDFFF7BBFDFFF7B9FDFFF714
:10310000B7FD00BF00380240A809002008B50A48F2
:103110000A4B03604FF4E133436000238360C360D4
:1031200003610C2242618361C36103F0C5FF00B9F2
:1031300008BDFFF79DFD00BFD4080020004C0040F3
:1031400000B583B000230093144A116B41F00101D4
:103150001163116B01F00101009100990193516C11
:1031600041F010015164526C02F010020192019A78
:103170000B480C4A02604FF4E13242608360C36046
:1031800003610C2242618361C36103F095FF10B9B2
:1031900003B05DF804FBFFF76BFD00BF0038024091
:1031A000900800200010014000B583B00023009378
:1031B000144A116C41F400311164116C01F40031B6
:1031C000009100990193116B41F008011163126B9A
:1031D00002F008020192019A0B480C4A02604FF477
:1031E000E13242608360C36003610C22426183610B
:1031F000C36103F061FF10B903B05DF804FBFFF792
:1032000037FD00BF003802404C0800200044004059
:1032100000B583B000230093144A116C41F480215F
:103220001164116C01F48021009100990193116BDC
:1032300041F008011163126B02F008020192019A39
:103240000B480C4A02604FF4E13242608360C36075
:1032500003610C2242618361C36103F02DFF10B949
:1032600003B05DF804FBFFF703FD00BF0038024028
:10327000080800200048004008B50A480A4B0360CF
:103280004FF4E133436000238360C36003610C2289
:1032900042618361C36103F00FFF00B908BDFFF70E
:1032A000E7FC00BFC40700200014014000B583B054
:1032B0000023009301930E480E4A026040F23F62E1
:1032C000426083606422C260836103F0E5FA50B912
:1032D0000023009301936946054803F053FD20B98C
:1032E00003B05DF804FBFFF7C3FCFFF7C1FC00BFB0
:1032F000600900200010004010B582B00023009348
:1033000001931148114A026010224260836041F229
:103310008832C260836103F0BFFA80B90023009352
:1033200001936946084803F02DFD50B9064C20462C
:1033300003F032F9236800225A6202B010BDFFF791
:1033400097FCFFF795FC00BF18090020001400400F
:1033500000B595B03022002108A805F04BFE0023EF
:103360000393049305930693079301931C4A116CEE
:1033700041F080511164126C02F080520192019A66
:103380000293184A116841F480411160126802F4F6
:1033900080420292029A0222089201210B9110218E
:1033A0000C910E920F931091C0231193129204234B
:1033B000139308A802F066FC68B90F230393002159
:1033C000049105910691079103A802F0ABFE20B984
:1033D00015B05DF804FBFFF74BFCFFF749FC00BF9D
:1033E00000380240007000402DE9F04FADF5697DD6
:1033F00001F0FEF9FFF7ACFFFFF726FAFFF73AFC02
:10340000FFF786FCFFF7D8FCFFF72CFDFFF74AFD1E
:10341000FFF768FDFFF7FAFDFFF778FEFFF790FE74
:10342000FFF7C2FEFFF7F4FEFFF726FFFFF73EFFB0
:10343000FFF762FFFFF7B8FAFFF7C0FAA24C204689
:10344000FEF750F90122A149204604F0B4F8012208
:103450009F49A04804F0AFF801229F499F4804F01B
:10346000AAF89F4C01221021204601F0ADFE012256
:103470002021204601F0A8FE9A4D284600F04EFD7E
:10348000994C204600F087FB204600F05FFD204667
:1034900000F064FD00231A462946204600F0F6FBA2
:1034A00000F0FEFB0024E494E594E694E7946BA816
:1034B000FFF728FB48228D4959A8FDF765FF53AB5C
:1034C000539454945594569457945894039368ABDA
:1034D000029365AB019362AB00935FAB5CAA59A901
:1034E0006BA8FEF705F94D944E944F945094519467
:1034F000529449944A944B944C94439444944594E4
:103500004694479448947A4B1B6800233293339334
:103510003493784B1A6841F288339A42F9D0754B4C
:103520005A6841F288339A42F3D0724B9A6841F25A
:1035300088339A42EDD06F4BDA6841F288339A4271
:10354000E7D06C4B1A6941F288339A42E1D0694B5B
:103550005A6941F288339A42DBD0664B9A6941F24C
:1035600088339A42D5D0634BDA6941F288339A4264
:10357000CFD0604B1A6A41F288339A42C9D05D4B72
:103580005A6A41F288339A42C3D04FF00008584B30
:103590001B68002BFBD0564B1A6800221A6008F1FA
:1035A00001083AA940A800F0C1FC35A938A800F0EC
:1035B000D1FC4A4800F0D6FC00230293019300930B
:1035C00035AA3DA93AA800F0EFFB359B369A37990A
:1035D000049102F10042039203F1004302933C9BE9
:1035E00001933B9B00933A9B3F9A3E993D98FEF78F
:1035F0001FFE414B1F68E497404B1D68E595404B0B
:103600001E68E6963F4B1C68E79431463846FDF746
:10361000C9FB814621462846FDF7C4FB01464846C2
:10362000FDF7B6FA0146FDF7B5FA03F0E1FF824671
:1036300029463846FDF7B6FB814621463046FDF760
:10364000B1FB01464846FDF7A5FA0146FDF7A2FA8F
:10365000814629462846FDF7A5FB0B9031463046AA
:10366000FDF7A0FB834601460B98FDF793FA014650
:10367000FDF790FA01464FF07E50FDF789FA0146BA
:103680004846FDF743FC03F0F1FF814621463846EA
:10369000FDF788FB074631462846FDF783FB0146C8
:1036A0003846FDF777FA0146FDF774FA05462146DC
:1036B0002046FDF777FB01465846FDF76BFA0146B9
:1036C000FDF768FA20E000BF90080020980700206E
:1036D000780700204C080020580700200808002028
:1036E00000080240E80A00203C0B0020F8F0000827
:1036F000540700200C000020000000204407002098
:10370000400700203C07002001464FF07E50FDF7A7
:103710003FFA0146284603F08BFFCDF840A1CDF8D3
:10372000449152904DA96BA8FEF73AF86BA8FEF7AA
:1037300037FA43AA49A96BA8FEF74EF8234A244951
:1037400049A8FEF7F5FAB8F1040F7FF720AF102172
:10375000204801F03FFD00210C9192220DA805F0B8
:1037600049FCDFF87480D8F80420D8F80830D8F87D
:103770000C00D8F81040D8F81450D8F81860D8F8D1
:103780001C70D8F820C0D8F824E0D1180144214496
:10379000294431443944614471440891D8F82810CF
:1037A0000791CDF818E0CDF814C004970396029560
:1037B0000194009009490CA805F0B4FB0CA8FFF790
:1037C00079F901460CA8FFF7D3F9DEE6A809002035
:1037D000F0090020000802400C0000207CF10008E5
:1037E0002DE9F04184B006464FF0000888F80080CB
:1037F0004FF47A77029701240194CDF80080234694
:103800001922D02102F01AF888F80080029701945A
:10381000CDF8008023461A22D021304602F00EF85F
:10382000E02388F8003002970194CDF80080234609
:103830001C22D021304602F001F8F02388F8003035
:1038400002970194CDF8008023461B22D0213046F8
:1038500001F0F4FF88F8008002970194CDF8008011
:1038600023466B22D021304601F0E8FF04B0BDE8CA
:10387000F081F0B585B006460D464FF47A77029791
:1038800001240194009123463C22D02102F088F8C3
:10389000029701942B19009323463B22D0213046F6
:1038A00002F07EF802970194AB1C009323463E225F
:1038B000D021304602F074F802970194EB1C00937B
:1038C00023463D22D021304602F06AF80297019447
:1038D0002B1D009323464022D021304602F060F891
:1038E000029701946B1D009323463F22D02130465E
:1038F00002F056F802970194AB1D00932346442230
:10390000D021304602F04CF802970194EB1D009351
:1039100023464322D021304602F042F80297019418
:1039200005F10803009323464622D021304602F0D9
:1039300037F80297019405F10903009323464522C5
:10394000D021304602F02CF80297019405F10A03C9
:10395000009323464822D021304602F021F80297F6
:1039600001940B35009523464722D021304602F0C2
:1039700017F805B0F0BD2DE9F04387B00D46427849
:10398000ADF80C20037803EB02239AB2ADF80C20BB
:10399000C178ADF80E10837803EB01231FFA83F989
:1039A000ADF80E904179ADF81010037903EB0123C7
:1039B0001FFA83F8ADF81080C179ADF81210837941
:1039C00003EB01239FB2ADF81270417AADF81410E9
:1039D000037A03EB01239BB2ADF81430C17AADF842
:1039E0001610847A04EB0124A4B2ADF8164010B28C
:1039F000ADF800000FFA89F9ADF802900FFA88F8D7
:103A0000ADF804803FB2ADF806701EB2ADF80860A4
:103A100024B2ADF80A40FDF771F928604846FDF779
:103A20006DF968604046FDF769F9A8603846FDF712
:103A300065F9E8603046FDF761F928612046FDF739
:103A40005DF9686107B0BDE8F0830000F0B587B0AC
:103A500038238DF81730144D28604FF4FA77029709
:103A6000012401940DF117060096234600223C2103
:103A700001F0E4FE20238DF81730029701940096A0
:103A8000234622463C21286801F0D8FE00238DF809
:103A90001730029701940096234602223C212868A1
:103AA00001F0CCFE07B0F0BDD80B0020F0B585B01A
:103AB0000546204E4FF4FA770297012401940090B6
:103AC000234603223D21306801F06AFF02970194EA
:103AD0002B190093234604223D21306801F060FF3A
:103AE00002970194AB1C0093234605223D213068C8
:103AF00001F056FF02970194EB1C00932346062227
:103B00003D21306801F04CFF029701942B1D00937A
:103B1000234607223D21306801F042FF02970194BD
:103B200005350095234608223D21306801F038FF15
:103B300005B0F0BDD80B002070B582B004460E462B
:103B4000FFF7B4FF2378ADF80030607800EB032076
:103B500080B2ADF80000A378ADF80230E57805EB4F
:103B60000325ADB2ADF802502379ADF80430647985
:103B700004EB0324A4B2ADF8044000B2FDF7BEF894
:103B8000306028B2FDF7BAF8706020B2FDF7B6F8E1
:103B9000B06002B070BDF0B587B0054601248DF865
:103BA00017404FF47A77029701940DF117060096AB
:103BB000234610221C2101F041FE00238DF817300E
:103BC00002970194009623460A221C21284601F000
:103BD00035FE02970194009623460B221C212846AD
:103BE00001F02CFE02970194009623460C221C2122
:103BF000284601F023FE02970194009623460D22E9
:103C00001C21284601F01AFE0297019400962346D3
:103C10000E221C21284601F011FE02970194009605
:103C200023460F221C21284601F008FE07B0F0BDF4
:103C300000B587B0144B186000238DF817304FF48F
:103C4000FA730293012301930DF117020092D0221F
:103C5000EF2101F0A5FE9DF81730552B02D007B0DB
:103C60005DF804FB2E238DF817304FF4FA7302939E
:103C7000012301930DF117020092F422EE21024874
:103C8000006801F0DBFDEAE7DC0B0020024B186066
:103C9000024B1960704700BFE40B0020E00B0020CE
:103CA00010B590B0214C0DF1280CA646BEE80F00CF
:103CB000ACE80F009EE803008CE803001C4B1D4A93
:103CC0001A601D4A5A601D4A9A601D4ADA601D4AF0
:103CD0001A614FF042425A610DF11C0C04F11802B6
:103CE00007CA8CE80700184A9A61184ADA61184A2C
:103CF0001A620DF1100C04F1240207CA8CE80700C7
:103D0000144A9A621449D9621A63144A9A650DF1E9
:103D1000040C303494E807008CE80700104ADA6499
:103D2000104A1A65104A5A6510B010BD40F10008DB
:103D3000E80B0020008009440080BB44004035C5EA
:103D40009A9981C2000093430000704100C0EE4385
:103D50000000DBC282A8FB38F7CC123900003043E8
:103D60000080B6430000D34200C0C34310B50446F0
:103D70004FF07C51FDF716F801462346094CA4EBA1
:103D800063042046FDF70EF801462046FDF70AF8C9
:103D900001464FF07F50FCF7FBFE01462046FDF741
:103DA00001F810BDDF59375F2DE9F84F06460F4681
:103DB0001546584C21680068FCF7EAFE5649FDF7A5
:103DC000A5F88246306061687068FCF7E1FE5249F0
:103DD000FDF79CF881467060A168B068FCF7D8FEDA
:103DE0004D49FDF793F88046B06051465046FCF7C8
:103DF000D9FF834649464846FCF7D4FF014658465A
:103E0000FCF7C8FE834641464046FCF7CBFF01461F
:103E10005846FCF7BFFE01464FF07E50FDF776F89E
:103E200083460146A06DFCF7BDFF01465046FCF7F6
:103E3000B9FF30605946A06DFCF7B4FF0146484613
:103E4000FCF7B0FF70605946A06DFCF7ABFF014670
:103E50004046FCF7A7FFB060E1683868FCF798FEC1
:103E6000A16AFCF79FFF386021697868FCF790FE33
:103E7000E16AFCF797FF78606169B868FCF788FE33
:103E8000216BFCF78FFFB860A1692868FCF780FE02
:103E9000E16CFDF73BF807462860E1696868FCF7CC
:103EA00077FE216DFDF732F806466860216AA86842
:103EB000FCF76EFE616DFDF729F80446A8603946EF
:103EC0003846FCF76FFF804631463046FCF76AFF04
:103ED00001464046FCF75EFE804621462046FCF740
:103EE00061FF01464046FCF755FEFFF73FFF804665
:103EF00001463846FCF756FF286041463046FCF73D
:103F000051FF686041462046FCF74CFFA860BDE8C1
:103F1000F88F00BFE80B00200000C84208B5024B34
:103F20001860FFF75DFC08BD440C002038B504465E
:103F30000D460C220146044B1868FFF79AFC2946EF
:103F40002046FFF718FD38BD440C002008B5FFF7E8
:103F50007DFD08BD08B5FFF7EFFD08BD08B5FFF70B
:103F600067FE08BD00B583B055238DF807304FF4C8
:103F7000FA7301220DF1070103F0CDF803B05DF8EB
:103F800004FB000082B0002100910B4B5A6C42F4FC
:103F900080425A645A6C02F480420092009A019165
:103FA0001A6C42F080521A641B6C03F08053019328
:103FB000019B02B0704700BF0038024000B589B0D5
:103FC000002303930493059306930793026803F178
:103FD000804303F590339A4202D009B05DF804FBA8
:103FE0000021019103F58C335A6C42F480725A64BB
:103FF0005A6C02F480720192019A02911A6B42F09B
:1040000002021A631B6B03F002030293029B02235A
:1040100003930323049303A9014800F0DBFFDCE7CB
:104020000004024030B58BB000230593069307933C
:10403000089309930368274A934204D0264A93427F
:1040400024D00BB030BD00250195244C236B43F0E8
:1040500002032363236B03F002030193019BC0233C
:10406000059312230693032308930423099305A9B8
:104070001B4800F0AFFF0295236C43F40013236448
:10408000236C03F400130293029BDAE700250395E7
:10409000124C236B43F002032363236B03F00203F0
:1040A0000393039B4FF4406305931223069303236A
:1040B00008930423099305A9094800F08BFF049590
:1040C000236C43F480032364236C03F48003049380
:1040D000049BB6E7005400400058004000380240FE
:1040E00000040240F0B58BB00023059306930793BC
:1040F000089309930368314A934204D0304A9342AB
:1041000024D00BB0F0BD002100912E4B5A6C42F42C
:1041100080525A645A6C02F480520092009A0191C3
:104120001A6B42F001021A631B6B03F00103019347
:10413000019BE023059302230693032308930523A1
:10414000099305A9204800F045FFDAE7002402940E
:104150001C4B1A6C42F480421A641A6C02F48042BE
:104160000292029A03941A6B42F004021A631A6BC9
:1041700002F004020392039A04941A6B42F00202C2
:104180001A631B6B03F002030493049B0C23059337
:1041900002270697032608960525099505A90B48C9
:1041A00000F018FF4FF40053059306970794089604
:1041B000099505A9064800F00DFFA2E7003001406F
:1041C0000038004000380240000002400008024071
:1041D0000004024000B585B00368284A93420BD022
:1041E000B3F1804F15D0264A93421FD0254A9342FF
:1041F00030D005B05DF804FB00230093224B5A6CCD
:1042000042F001025A645B6C03F001030093009BCF
:10421000EFE7002301931C4B1A6C42F001021A6471
:104220001B6C03F001030193019BE2E70021029163
:10423000154B1A6C42F010021A641B6C03F0100349
:104240000293029B0A46362000F026FE362000F03C
:1042500033FECEE7002103910B4B1A6C42F0200293
:104260001A641B6C03F020030393039B0A46372058
:1042700000F012FE372000F01FFEBAE700000140F8
:1042800000100040001400400038024070B588B0B3
:104290000023039304930593069307930368264A28
:1042A000934204D0B3F1804F19D008B070BD002301
:1042B0000093224B1A6B42F010021A631B6B03F03F
:1042C00010030093009B4FF4D44303930223049301
:1042D0000123079303A91A4800F07CFEE5E70024B8
:1042E000019403F50E331A6B42F001021A631A6B44
:1042F00002F001020192019A02941A6B42F002024A
:104300001A631B6B03F002030293029B48F20C0337
:104310000393022604960125079503A9094800F096
:1043200059FE08230393049605940694079503A960
:10433000054800F04FFEB8E7000001400038024099
:1043400000100240000002400004024010B590B08E
:1043500000230B930C930D930E930F930368754AF0
:1043600093420FD0744A934236D0744A93425FD03E
:10437000734A934200F08780724A934200F0AF8004
:1043800010B010BD002401946F4B1A6C42F400224F
:104390001A641A6C02F400220192019A02941A6BB8
:1043A00042F001021A631B6B03F001030293029BAC
:1043B00003230B9302220C920E9308230F930BA955
:1043C000624800F007FE22462146342000F064FDDA
:1043D000342000F071FDD3E7002403945A4B5A6C4B
:1043E00042F010025A645A6C02F010020392039ACF
:1043F00004941A6B42F001021A631B6B03F0010371
:104400000493049B4FF4C0630B9302230C93032388
:104410000E9307230F930BA94C4800F0DBFD2246B7
:104420002146252000F038FD252000F045FDA7E7B6
:1044300000240594444B1A6C42F400321A641A6C3E
:1044400002F400320592059A06941A6B42F00802B3
:104450001A631B6B03F008030693069B60230B9300
:1044600002230C9303230E9307230F930BA93848C1
:1044700000F0B0FD22462146262000F00DFD26204A
:1044800000F01AFD7CE7002407942F4B1A6C42F4CD
:1044900080221A641A6C02F480220792079A089408
:1044A0001A6B42F008021A631B6B03F008030893AF
:1044B000089B4FF440730B9302230C9303230E933A
:1044C00007230F930BA9224800F084FD22462146C2
:1044D000272000F0E1FC272000F0EEFC50E700244C
:1044E0000994194B5A6C42F020025A645A6C02F03B
:1044F00020020992099A0A941A6B42F004021A6384
:104500001B6B03F004030A930A9BC0230B93022343
:104510000C9303230E9308230F930BA90D4800F06F
:1045200059FD22462146472000F0B6FC472000F006
:10453000C3FC25E7004C004000100140004400404F
:1045400000480040001401400038024000000240D2
:10455000000C024000080240FEE7FEE7FEE7FEE72F
:10456000FEE770477047704708B500F05BF908BD7B
:1045700008B5024802F0C4FE08BD00BF9008002044
:1045800008B5024802F0BCFE08BD00BF4C08002080
:1045900008B5024802F0B4FE08BD00BF08080020BC
:1045A00008B5024802F0ACFE08BD00BFD4080020E8
:1045B00008B5054B01221A60362000F09FFC034825
:1045C00002F049F808BD00BF540700206009002030
:1045D00008B5024802F03FF808BD00BF18090020E6
:1045E00008B5024802F08CFE08BD00BFC4070020D9
:1045F00008B5024B186802F02EF808BDBC07002071
:1046000038B5124C204601F0C7FF23685D6A0022CE
:104610005A62204601F082FF0D4803780D4A42F8A5
:10462000235001330C4981FB032101F0FC0202EB12
:10463000A10251005B1ADBB203700BB901220270B8
:10464000064B4FF400425A6138BD00BF18090020E4
:104650004B0700200C00002067666666003C0140A6
:1046600010B5084C204600F05DFA07490860074A7B
:1046700013681844086001331360204600F058FAAC
:1046800010BD00BF900B0020500700204C070020F9
:104690000120704708B504F097FD162303604FF022
:1046A000FF3008BD08B54FF0FF31FFF7F3FFFEE71D
:1046B00070B50C461646002506E0AFF30080214693
:1046C00001F8010B01350C46B542F6DB304670BDF2
:1046D00070B50C461646002504E014F8010BAFF344
:1046E00000800135B542F8DB304670BD4FF0FF3039
:1046F00070474FF400534B60002070470120704713
:104700000020704710B503460C4A0D490D4800685B
:1047100040B10C4800680344521A934206D8094A33
:10472000136010BD0748084C0460F2E704F04CFD2C
:104730000C2303604FF0FF30F3E700BF00000220BE
:1047400000040000480C0020680F002070470000A3
:10475000DFF834D00D480E490E4A002302E0D45849
:10476000C4500433C4188C42F9D30B4A0B4C0023B9
:1047700001E013600432A242FBD3FFF7E7FF04F02D
:1047800029FDFEF731FE70470000022000000020E6
:104790000407002098F8000804070020640F002098
:1047A000FEE7000010B504460E4B1A784FF47A73FA
:1047B000B3FBF2F30C4A1068B0FBF3F000F08AFB95
:1047C00068B90F2C01D901200AE0002221464FF0E0
:1047D000FF3000F061FB054B1C60002000E0012071
:1047E00010BD00BF3C000020380000204000002029
:1047F00008B50B4B1A6842F400721A601A6842F44A
:1048000080621A601A6842F480721A60032000F015
:1048100031FB0F20FFF7C6FFFFF7B4FB002008BDF8
:10482000003C0240034A1168034B1B780B441360A1
:10483000704700BF4C0C00203C000020014B186862
:10484000704700BF4C0C00204A4B5A6822F440329B
:104850005A605A6841680A435A600268536823F4F0
:104860008073536002685368016943EA012353600F
:104870000268536823F0407353600268536881688C
:104880000B4353600268936823F4006393600268EB
:104890009368C1680B439360826A374B9A4257D042
:1048A0000268936823F07063936002689368816A7A
:1048B0000B4393600268936823F04053936002684F
:1048C0009368C16A0B4393600268936823F0020304
:1048D000936002689368017E43EA4103936090F815
:1048E0002030002B3FD00268536843F400635360CC
:1048F0000268536823F46043536001684B68426A5E
:10490000013A43EA42334B600268D36A23F47003EE
:10491000D3620168CB6AC269013A43EA0253CB62AF
:104920000268936823F4007393600268936890F8B8
:10493000301043EA412393600268936823F4806354
:10494000936002689368416943EA812393607047EA
:104950000268936823F0706393600268936823F0A1
:1049600040539360B0E70268536823F400635360D8
:10497000CAE700BF002301400100000F38B310B5A3
:104980000446036C43B1236C13F0100F0BD00120CD
:10499000002384F83C3010BDFFF710FB0023636454
:1049A00084F83C30EFE7236C23F4885323F00203B0
:1049B00043F0020323642046FFF746FF00206064B3
:1049C000236C23F0030343F001032364E0E7012099
:1049D0007047000082B00023019390F83C30012B17
:1049E00000F09080012380F83C3003689A6812F050
:1049F000010F13D19A6842F001029A60444B1B6880
:104A0000444AA2FB03239B0C03EB4303019302E004
:104A1000019B013B0193019B002BF9D10268936834
:104A200013F0010F63D0036C23F4E06323F0010360
:104A300043F480730364536813F4806F05D0036CF0
:104A400023F4405343F480530364036C13F4805FF6
:104A500022D0436C23F006034364002380F83C30EB
:104A60006FF0220313600268536843F0806343F0E1
:104A700020035360284B5B6813F01F0F27D1036896
:104A8000264A934211D002F58072934207D0244AFD
:104A9000934214D0002033E000234364DDE702F5A5
:104AA0000072526812F01F0FF1D19A6812F0405F45
:104AB0002AD19A6842F080429A60002020E002F5F4
:104AC0008072526812F0100FEFD0002018E00368D7
:104AD000124A934201D0002012E09A6812F0405F1F
:104AE00014D19A6842F080429A60002008E0036C7A
:104AF00043F010030364436C43F00103436400205C
:104B000002B070470220FBE70020F9E70020F7E73A
:104B10003800002083DE1B430023014000200140B9
:104B2000002201400368D86C704770477047704797
:104B300070B5044603681E685D6816F0020F2FD03A
:104B400005F0200262B3026C12F0100F03D1026C68
:104B500042F4007202649A6812F0405F19D1227E1A
:104B6000BAB9DA6A12F4700F03D09A6812F4806F3F
:104B70000FD15A6822F020025A60236C23F480730C
:104B80002364236C13F4805F03D1236C43F001038F
:104B900023642046FFF7C9FF23686FF012021A60F2
:104BA00005F0800316F0040F37D0002B35D0236CAE
:104BB00013F0100F03D1236C43F4005323642368D4
:104BC0009A6812F4401F21D19A6B12F4401F03D04F
:104BD0009A6812F4806F19D15A6812F4806F15D157
:104BE0009A6812F0405F11D1227E7AB95A6822F099
:104BF00080025A60236C23F480532364236C13F4E3
:104C0000807F03D1236C43F001032364204600F02E
:104C1000FBF823686FF00C021A6005F0400316F0F1
:104C2000010F05D023B123681B6813F0010F06D1D3
:104C300005F0806516F0200F00D065B970BD236CBB
:104C400043F4803323642046FFF770FF23686FF03E
:104C500001021A60ECE7636C43F0020363642368AB
:104C60006FF020051D602046FFF761FF23681D607F
:104C7000E4E7000030B482B00022019290F83C20BA
:104C8000012A00F0B6800346012280F83C200A6821
:104C9000092A40D90468E06892B202EB42021E3A47
:104CA0004FF0070C0CFA02F220EA0202E2601C68E4
:104CB000E0680A8802EB42021E3A8D6805FA02F2A9
:104CC0000243E2604A68062A3CD81C68606B02EB2B
:104CD0008202053A4FF01F0C0CFA02F220EA02029F
:104CE00062631C68606B4A6802EB8202053AB1F8A5
:104CF00000C00CFA02F20243626318683E4A904216
:104D000050D018683C4A904255D0002083F83C00AF
:104D100002B030BC70470468206992B202EB4202D4
:104D20004FF0070C0CFA02F220EA020222611C6822
:104D300020690A8802EB42028D6805FA02F20243FA
:104D40002261BFE70C2A16D81D68286B02EB82028D
:104D5000233A1F2404FA02F220EA02022A631D68A1
:104D6000286B4A6802EB8202233A0C8804FA02F2AA
:104D700002432A63C1E71D68E86A02EB8202413AF6
:104D80001F2404FA02F220EA0202EA621D68E86ABD
:104D90004A6802EB8202413A0C8804FA02F20243AA
:104DA000EA62AAE70A68122AABD11448426842F4C0
:104DB00080024260A5E70A68103A012AA5D80F4888
:104DC000426842F4000242600A68102A9DD10C4AEF
:104DD00012680C49A1FB0212920C02EB82025200F3
:104DE000019202E0019A013A0192019A002AF9D156
:104DF0008BE702208CE700BF002001400023014028
:104E00003800002083DE1B4370470000002808DBC9
:104E10000901C9B200F1604000F5614080F800135B
:104E2000704700F00F000901C9B2014B19547047D7
:104E300014ED00E000B500F00700C0F1070CBCF174
:104E4000040F28BF4FF0040C031D062B0FD9C31EFF
:104E50004FF0FF3E0EFA0CF021EA000199400EFAE5
:104E600003FE22EA0E0241EA02005DF804FB002381
:104E7000EEE70000074AD36823F4E0631B041B0C31
:104E8000000200F4E060034343F0BF6343F40033E7
:104E9000D360704700ED00E010B50446054BD868BC
:104EA000C0F30220FFF7C6FF01462046FFF7AEFF22
:104EB00010BD00BF00ED00E0002807DB00F01F027E
:104EC000400901239340024A42F82030704700BF56
:104ED00000E100E00138B0F1807F0BD24FF0E02319
:104EE0005861054AF02182F82310002098610722BA
:104EF0001A6170470120704700ED00E0002808DBD0
:104F000000F01F024009012393406030014A42F83B
:104F10002030704700E100E070B50446866DFFF771
:104F20008DFC94F83530DBB2022B06D0802363650C
:104F3000002384F83430012070BD054622681368D0
:104F400023F0160313602268536923F08003536132
:104F5000236CE3B12268136823F00803136022680E
:104F6000136823F00103136023681B6813F0010F1B
:104F700011D0FFF763FC431B052BF5D92023636594
:104F8000032084F83500002384F83430D4E7A36C80
:104F9000002BDFD1E3E7E26D3F239340B3600123B1
:104FA00084F83530002084F83400C5E790F83530B7
:104FB000DBB2022B03D08023436501207047052319
:104FC00080F835300268136823F001031360002075
:104FD0007047000000230F2B00F2EC8030B583B047
:104FE00068E085684FEA430E032404FA0EF425EACC
:104FF0000405CC6804FA0EF42C438460446824EA67
:1050000002044A68C2F300129A40224342605FE001
:10501000DC08083450F8242003F00705AD004FF0F9
:105020000F0E0EFA05FE22EA0E0E0A69AA4042EAA7
:105030000E0240F824205FE0072200E0002202FA7E
:105040000EF22A4302345C4D45F824205B4A9468F2
:105050006FEA0C0224EA0C05D1F804E01EF4801F6C
:1050600001D04CEA0405554CA560E46802EA040549
:10507000D1F804E01EF4001F01D04CEA04054F4CA7
:10508000E560646802EA0405D1F804E01EF4003F1C
:1050900001D04CEA0405494C6560246822404D6803
:1050A00015F4803F01D04CEA0402444C22600133E5
:1050B0000F2B7DD801229A400C6804EA020C32EAD8
:1050C0000404F4D14C6804F00304013C012C88D999
:1050D0004A6802F00302032A09D0C4685D00032273
:1050E000AA4024EA02048A68AA402243C2604A68AD
:1050F00002F00302022A8BD004684FEA430E032217
:1051000002FA0EF224EA02044A6802F0030202FAEA
:105110000EF2224302604A6812F4403FC7D00022D8
:105120000192274A546C44F480445464526C02F453
:1051300080420192019A9C08A51C1F4A52F82550F2
:1051400003F0030E4FEA8E0E0F2202FA0EF225EA4A
:1051500002051C4A90423FF471AF02F58062904212
:105160001AD002F58062904218D002F58062904217
:1051700016D002F58062904214D002F5806290420F
:1051800012D002F58062904210D002F58062904207
:105190003FF452AF082252E7012250E702224EE7C5
:1051A00003224CE704224AE7052248E7062246E7A5
:1051B00003B030BD704700BF00380140003C0140E3
:1051C00000380240000002400AB1816170470904C2
:1051D00081617047436901EA030221EA030141EA60
:1051E00002418161704703685A6912F4806F01D1EE
:1051F000002070476FF480625A610023036320220D
:1052000080F83D2080F83E30026C42F004020264D7
:1052100080F83C30012070472DE9F04107460D46EB
:1052200090461E4624E0FFF709FB069BC01AB042D9
:1052300000D8EEB900233B63202287F83D2087F891
:105240003E303A6C42F020023A6487F83C3001204C
:105250001EE03B689C6925EA040C1FFA8CFCBCFA32
:105260008CFC4FEA5C1CE04511D1B6F1FF3FDAD16E
:10527000C5F30743012BECD13B685B6925EA030CBE
:105280001FFA8CFCBCFA8CFC4FEA5C1CEBE700209C
:10529000BDE8F0812DE9F04105460E4617469846D7
:1052A0003DE01A6842F400721A602B686FF4806265
:1052B0005A6100232B63202285F83D2085F83E307B
:1052C0002A6C42F004022A6485F83C30012034E064
:1052D000FFF7B4FAA0EB0800B84200D8FFB90023EA
:1052E0002B63202285F83D2085F83E302A6C42F061
:1052F00020022A6485F83C3001201EE02B689C695E
:1053000026EA0404A4B2003C18BF0124A4B12B680F
:105310005A6912F4806FC4D1B7F1FF3FD8D1C6F3F8
:105320000743012BEAD12B685C6926EA0404A4B286
:10533000003C18BF0124E9E70020BDE8F08170B50A
:1053400004460D46164623685B6913F0800F1CD196
:105350002046FFF748FFD0B9B5F1FF3FF3D0FFF784
:105360006DFA801BA84201D8002DECD100232363E5
:10537000202284F83D2084F83E30226C42F0200246
:10538000226484F83C30012000E0002070BD012040
:10539000FCE700002DE9F04385B004460D46914638
:1053A0001F46DDF830800D9E0368196841F4807156
:1053B00019600096434600224FF00111FFF72CFFC1
:1053C00060B9236805F0FE051D6133464246264953
:1053D0002046FFF75FFF68B1012008E023681B68E3
:1053E00013F4807F02D04FF400732364032005B0D0
:1053F000BDE8F0830023039323685A6903929B69F5
:105400000393039B324641462046FFF798FF30B98D
:10541000012F0FD123685FFA89F61E61E7E7236C3D
:10542000042B01D00120E2E72268136843F40073E3
:105430001360F7E723684FEA19221A6132464146A2
:105440002046FFF77CFF20B923685FFA89F61E61CA
:10545000CDE7236C042B01D00120C8E72268136834
:1054600043F400731360F7E7020001002DE9F047F1
:1054700084B004460D46164699460C9FDDF83480EC
:105480000268136843F4806313600368196841F489
:1054900080711960CDF800803B4600224FF0011169
:1054A000FFF7BAFE70B95FFA85FA236805F0FE05CA
:1054B0001D6143463A4641492046FFF7EBFE68B17D
:1054C000012008E023681B6813F4807F02D04FF4AA
:1054D00000732364032004B0BDE8F0870023039326
:1054E00023685A6903929B690393039B424639469A
:1054F0002046FFF724FF80B9B9F1010F18D12368C6
:10550000F6B21E61424639462046FFF718FF68B3DF
:10551000236C042B24D00120DDE7236C042B01D065
:105520000120D8E72268136843F400731360F7E79B
:105530002368320A1A61424639462046FFF7FFFEC9
:1055400018B92368F6B21E61DCE7236C042B01D086
:105550000120C0E72268136843F400731360F7E783
:105560002268136843F400731360D4E72268136859
:1055700043F480731360CDF800803B4600224FF067
:1055800001112046FFF748FE68B922684AF001037E
:10559000136143463A4609492046FFF77BFE00283F
:1055A00099D0012097E723681B6813F4807F02D00D
:1055B0004FF40073236403208DE700BF0200010055
:1055C00070B504460D46164623685B6913F0040F58
:1055D0001CD12046FFF707FED0B9B5F1FF3FF3D04D
:1055E000FFF72CF9801BA84201D8002DECD1002335
:1055F0002363202284F83D2084F83E30226C42F060
:105600002002226484F83C30012000E0002070BDBC
:105610000120FCE770B505460C4616462B68596913
:1056200011F0400F29D1596911F0100F15D1FFF772
:1056300005F9801BA04201D8002CEFD100232B6379
:10564000202285F83D2085F83E302A6C42F0200269
:105650002A6485F83C30012070BD6FF010025A6159
:1056600000232B63202285F83D2085F83E302A6CEC
:105670002A6485F83C300120EEE70020ECE70000CA
:10568000002800F0CC8070B5044690F83D30002B27
:1056900077D0242384F83D302268136823F0010377
:1056A00013602268136843F4004313602268136890
:1056B00023F40043136000F0EBFD62685A4B9A42FA
:1056C00064D85A4B98428CBF00230123002B40F032
:1056D000A8805749A1FB00318B0C25686A6822F02D
:1056E0003F0242EA91426A6021680A6A22F03F0260
:1056F00066684D4DAE424FD8013313430B622168AB
:10570000CA6922F44F4222F0FF026568464B9D426F
:105710004CD8431E6D00B3FBF5F3013340F6FC702B
:10572000034278D0C3F30B031A43CA6121680B68A4
:1057300023F0C003E269206A024313430B6021682F
:105740008B6823F4034323F0FF032269E0680243DC
:1057500013438B602168CB6823F0FF036269A06963
:1057600002431343CB602268136843F001031360C4
:1057700000202064202384F83D30206384F83E001C
:1057800070BD80F83C30FEF74DFC82E7294B984213
:105790008CBF0023012399E74FF4967505FB03F3B3
:1057A000254DA5FB03539B090133A6E7A668BEB9A7
:1057B000431E05EB450CB3FBFCF30133C3F30B03B2
:1057C000B3FA83F35B0943BBC6B9431E05EB45053A
:1057D000B3FBF5F30133C3F30B0343F40043A3E737
:1057E000431E05EB850C0CEB8C0CB3FBFCF3013377
:1057F000C3F30B03B3FA83F35B09E4E7431E05EB42
:10580000850505EB8505B3FBF5F30133C3F30B0306
:1058100043F4404388E7042386E7012384E701201B
:1058200070470120ACE700BFA08601007F841E0006
:1058300083DE1B43FF083D00D34D62102DE9F0438A
:1058400083B004460F46904699460C9EFEF7F6FF3D
:10585000054694F83D00C0B2202803D0022003B0D2
:10586000BDE8F0830095192301224B492046FFF73C
:10587000D3FC002840F0898094F83C30012B00F0E4
:105880008680012384F83C3023681A6812F0010FE7
:1058900003D11A6842F001021A602268136823F4E7
:1058A00000631360212384F83D30402384F83E30A8
:1058B000002323640A9B6362BDF82C306385638DEB
:1058C0002385364BE362019500964B4642463946A6
:1058D0002046FFF75FFD00285BD1238D002B35D0DC
:1058E0002A4631462046FFF72AFD20BB626A23681C
:1058F00012781A61626A531C6362218D013989B280
:105900002185638D9BB2013B9BB2638523685869F7
:1059100010F0040FE1D00029DFD052781A61636AD9
:1059200001336362238D013B2385638D9BB2013B71
:105930009BB26385D1E7236C042B01D001208EE755
:105940002268136843F400731360F7E72A46314670
:105950002046FFF735FE50B1236C042B01D0012007
:105960007DE72268136843F400731360F7E7226849
:10597000136843F400731360202384F83D30002340
:1059800084F83E3084F83C3069E7022067E7022063
:1059900065E7012063E700BF020010000000FFFF81
:1059A0002DE9F04387B004460F4690469946109E75
:1059B000FEF744FF054694F83D00C0B2202804D00D
:1059C0000227384607B0BDE8F0830095192301226D
:1059D00088492046FFF720FC002840F0438194F8D6
:1059E0003C30012B00F04081012384F83C302368D7
:1059F0001A6812F0010F03D11A6842F001021A600E
:105A00002268136823F400631360222384F83D3076
:105A1000402384F83E30002323640E9B6362BDF86C
:105A20003C306385638D2385734BE362019500965B
:105A30004B46424639462046FFF718FD07460028E8
:105A400040F01481238D5BB9029323685A69029256
:105A50009A690292029A1A6842F400721A6075E01A
:105A6000012B0AD0022B1AD00023059323685A6910
:105A700005929B690593059B68E02268136823F4EF
:105A8000806313600023039323685A6903929A6921
:105A90000392039A1A6842F400721A6056E0226870
:105AA000136823F4806313602268136843F400636F
:105AB00013600023049323685A6904929B6904933A
:105AC000049B43E02A4631462046FFF7A3FD002809
:105AD00040F0CE8023681A69636A1A70636A0133E2
:105AE0006362238D013B2385638D9BB2013B9BB297
:105AF00063852BE000953346002240492046FFF79E
:105B00008BFB002840F0B6802268136843F40073D2
