:020000040800F2
:1000000000000220554C0008514A0008534A0008DD
:10001000554A0008574A0008594A000800000000E5
:100020000000000000000000000000005B4A000823
:100030005D4A0008000000005F4A0008614A0008AD
:10004000A54C0008A54C0008A54C0008A54C0008CC
:10005000A54C0008A54C0008A54C0008A54C0008BC
:10006000A54C0008A54C0008A54C0008A54C0008AC
:10007000A54C0008A54C0008A54C0008A54C00089C
:10008000A54C0008A54C0008654B0008A54C0008CD
:10009000A54C0008A54C0008A54C0008A54C00087C
:1000A000A54C0008E94A0008A54C0008A54C00082A
:1000B000A54C0008A54C0008A54C0008A54C00085C
:1000C000A54C0008A54C0008A54C0008A54C00084C
:1000D000A54C0008694A0008794A0008894A0008C6
:1000E000054B0008A54C0008A54C0008A54C0008CD
:1000F000A54C0008A54C0008A54C0008A54C00081C
:10010000A54C0008A54C0008A54C0008A54C00080B
:10011000994A0008A54C0008A94A0008C94A0008E5
:10012000A54C0008A54C0008A54C0008A54C0008EB
:10013000A54C0008A54C0008A54C0008A54C0008DB
:10014000A54C0008A54C0008A54C0008A54C0008CB
:10015000A54C0008A54C0008A54C0008D94A000889
:10016000A54C0008A54C0008A54C0008A54C0008AB
:10017000A54C0008A54C0008A54C00080000000094
:08018000A54C0008A54C000885
:1001C00081F0004102E000BF83F0004330B54FEA08
:1001D00041044FEA430594EA050F08BF90EA020F75
:1001E0001FBF54EA000C55EA020C7FEA645C7FEA08
:1001F000655C00F0E2804FEA5454D4EB5555B8BF2B
:100200006D420CDD2C4480EA020281EA030382EA9B
:10021000000083EA010180EA020281EA0303362D2D
:1002200088BF30BD11F0004F4FEA01314FF4801C00
:100230004CEA113102D0404261EB410113F0004F12
:100240004FEA03334CEA133302D0524263EB4303C9
:1002500094EA050F00F0A780A4F10104D5F1200E67
:100260000DDB02FA0EFC22FA05F2801841F10001C2
:1002700003FA0EF2801843FA05F359410EE0A5F196
:1002800020050EF1200E012A03FA0EFC28BF4CF0C7
:10029000020C43FA05F3C01851EBE37101F000457D
:1002A00007D54FF0000EDCF1000C7EEB00006EEB8A
:1002B0000101B1F5801F1BD3B1F5001F0CD3490814
:1002C0005FEA30004FEA3C0C04F101044FEA44526B
:1002D00012F5800F80F09A80BCF1004F08BF5FEAF2
:1002E000500C50F1000041EB045141EA050130BDD2
:1002F0005FEA4C0C404141EB0101013C28BFB1F5E4
:10030000801FE9D291F0000F04BF01460020B1FA2E
:1003100081F308BF2033A3F10B03B3F120020CDA01
:100320000C3208DD02F1140CC2F10C0201FA0CF0DF
:1003300021FA02F10CE002F11402D8BFC2F1200C44
:1003400001FA02F120FA0CFCDCBF41EA0C019040FA
:10035000E41AA2BF01EB0451294330BD6FEA040443
:100360001F3C1CDA0C340EDC04F11404C4F120022E
:1003700020FA04F001FA02F340EA030021FA04F340
:1003800045EA030130BDC4F10C04C4F1200220FA97
:1003900002F001FA04F340EA0300294630BD21FAD5
:1003A00004F0294630BD94F0000F83F4801306BF9B
:1003B00081F480110134013D4EE77FEA645C18BF8F
:1003C0007FEA655C29D094EA050F08BF90EA020F26
:1003D00005D054EA000C04BF1946104630BD91EA1E
:1003E000030F1EBF0021002030BD5FEA545C05D121
:1003F0004000494128BF41F0004130BD14F5800460
:100400003CBF01F5801130BD01F0004545F0FE41D3
:1004100041F470014FF0000030BD7FEA645C1ABF08
:10042000194610467FEA655C1CBF0B46024650EA3F
:10043000013406BF52EA033591EA030F41F400216B
:1004400030BD00BF90F0000F04BF0021704730B5F1
:100450004FF4806404F132044FF000054FF00001C6
:1004600050E700BF90F0000F04BF0021704730B587
:100470004FF4806404F1320410F0004548BF40425C
:100480004FF000013EE700BF42004FEAE2014FEAB1
:1004900031014FEA02701FBF12F07F4393F07F4F8C
:1004A00081F06051704732F07F4208BF704793F08F
:1004B0007F4F04BF41F40021704730B54FF46074A2
:1004C00001F0004521F000411CE700BF50EA0102A5
:1004D00008BF704730B54FF000050AE050EA01024E
:1004E00008BF704730B511F0004502D5404261EBBE
:1004F00041014FF4806404F132045FEA915C3FF4FF
:10050000D8AE4FF003025FEADC0C18BF03325FEA9B
:10051000DC0C18BF033202EBDC02C2F1200300FA4C
:1005200003FC20FA02F001FA03FE40EA0E0021FA71
:1005300002F11444BDE600BF70B54FF0FF0C4CF45F
:10054000E06C1CEA11541DBF1CEA135594EA0C0F11
:1005500095EA0C0F00F0DEF82C4481EA030621EA4C
:100560004C5123EA4C5350EA013518BF52EA033587
:1005700041F4801143F4801338D0A0FB02CE4FF039
:100580000005E1FB02E506F00042E0FB03E54FF069
:100590000006E1FB03569CF0000F18BF4EF0010E61
:1005A000A4F1FF04B6F5007F64F5407404D25FEA5D
:1005B0004E0E6D4146EB060642EAC62141EA555110
:1005C0004FEAC52040EA5E504FEACE2EB4F1FD0C52
:1005D00088BFBCF5E06F1ED8BEF1004F08BF5FEAD0
:1005E000500E50F1000041EB045170BD06F0004682
:1005F00046EA010140EA020081EA0301B4EB5C042F
:10060000C2BFD4EB0C0541EA045170BD41F4801126
:100610004FF0000E013C00F3AB8014F1360FDEBF4B
:10062000002001F0004170BDC4F10004203C35DA27
:100630000C341BDC04F11404C4F1200500FA05F3AA
:1006400020FA04F001FA05F240EA020001F000424B
:1006500021F0004110EBD37021FA04F642EB0601C1
:100660005EEA430E08BF20EAD37070BDC4F10C04EB
:10067000C4F1200500FA04F320FA05F001FA04F2AF
:1006800040EA020001F0004110EBD37041F100019B
:100690005EEA430E08BF20EAD37070BDC4F12005A6
:1006A00000FA05F24EEA020E20FA04F301FA05F20E
:1006B00043EA020321FA04F001F0004121FA04F2B6
:1006C00020EA020000EBD3705EEA430E08BF20EA86
:1006D000D37070BD94F0000F0FD101F000464000C0
:1006E00041EB010111F4801F08BF013CF7D041EA42
:1006F000060195F0000F18BF704703F00046520046
:1007000043EB030313F4801F08BF013DF7D043EA16
:100710000603704794EA0C0F0CEA135518BF95EACC
:100720000C0F0CD050EA410618BF52EA4306D1D153
:1007300081EA030101F000414FF0000070BD50EA72
:10074000410606BF1046194652EA430619D094EAFC
:100750000C0F02D150EA013613D195EA0C0F05D1E6
:1007600052EA03361CBF104619460AD181EA03013A
:1007700001F0004141F0FE4141F470014FF00000F2
:1007800070BD41F0FE4141F4780170BD70B54FF08D
:10079000FF0C4CF4E06C1CEA11541DBF1CEA13550D
:1007A00094EA0C0F95EA0C0F00F0A7F8A4EB0504EF
:1007B00081EA030E52EA03354FEA013100F08880E6
:1007C0004FEA03334FF0805545EA131343EA1263AF
:1007D0004FEA022245EA111545EA10654FEA002664
:1007E0000EF000419D4208BF964244F1FD0404F51D
:1007F000407402D25B084FEA3202B61A65EB030579
:100800005B084FEA32024FF480104FF4002CB6EB35
:10081000020E75EB030E22BFB61A754640EA0C00B5
:100820005B084FEA3202B6EB020E75EB030E22BFF5
:10083000B61A754640EA5C005B084FEA3202B6EB36
:10084000020E75EB030E22BFB61A754640EA9C00F5
:100850005B084FEA3202B6EB020E75EB030E22BFC5
:10086000B61A754640EADC0055EA060E18D04FEA83
:10087000051545EA16754FEA06164FEAC30343EA23
:1008800052734FEAC2025FEA1C1CC0D111F4801FF0
:100890000BD141EA00014FF000004FF0004CB6E7E9
:1008A00011F4801F04BF01430020B4F1FD0C88BF88
:1008B000BCF5E06F3FF6AFAEB5EB030C04BFB6EB93
:1008C000020C5FEA500C50F1000041EB045170BD86
:1008D0000EF0004E4EEA113114EB5C04C2BFD4EBB3
:1008E0000C0541EA045170BD41F480114FF0000E37
:1008F000013C90E645EA060E8DE60CEA135594EAB3
:100900000C0F08BF95EA0C0F3FF43BAF94EA0C0FB5
:100910000AD150EA01347FF434AF95EA0C0F7FF42A
:1009200025AF104619462CE795EA0C0F06D152EA7E
:1009300003353FF4FDAE1046194622E750EA410662
:1009400018BF52EA43067FF4C5AE50EA41047FF473
:100950000DAF52EA43057FF4EBAE12E74FF0FF3CD8
:1009600006E000BF4FF0010C02E000BF4FF0010CA9
:100970004DF804CD4FEA410C7FEA6C5C4FEA430C22
:1009800018BF7FEA6C5C1BD001B050EA410C0CBF71
:1009900052EA430C91EA030F02BF90EA020F0020D3
:1009A000704710F1000F91EA030F58BF994208BF3A
:1009B00090422CBFD8176FEAE37040F001007047F7
:1009C0004FEA410C7FEA6C5C02D150EA013C07D14E
:1009D0004FEA430C7FEA6C5CD6D152EA033CD3D099
:1009E0005DF8040B704700BF8446104662468C4693
:1009F0001946634600E000BF01B5FFF7B7FF0028C6
:100A000048BF10F1000F01BD4DF808EDFFF7F4FFEE
:100A10000CBF012000205DF808FB00BF4DF808ED79
:100A2000FFF7EAFF34BF012000205DF808FB00BF9C
:100A30004DF808EDFFF7E0FF94BF012000205DF8BE
:100A400008FB00BF4DF808EDFFF7CEFF94BF012073
:100A500000205DF808FB00BF4DF808EDFFF7C4FF6C
:100A600034BF012000205DF808FB00BF4FEA410CB5
:100A70007FEA6C5C02D150EA013C0AD14FEA430C98
:100A80007FEA6C5C02D152EA033C02D14FF00000D5
:100A900070474FF0010070474FEA410212F5001213
:100AA00015D211D56FF47873B3EB625212D94FEAB5
:100AB000C12343F0004343EA505311F0004F23FA9F
:100AC00002F018BF404270474FF00000704750EAF4
:100AD000013005D111F0004008BF6FF000407047B1
:100AE0004FF00000704700BF4FEA4102B2F1E0430F
:100AF00024BFB3F5001CDCF1FE5C0DD901F0004C05
:100B00004FEAC0024CEA5070B2F1004F40EB830054
:100B100008BF20F00100704711F0804F21D113F180
:100B20003872BCBF01F00040704741F480114FEAB9
:100B30005252C2F11802C2F1200C10FA0CF320FA42
:100B400002F018BF40F001004FEAC1234FEAD3235F
:100B500003FA0CFC40EA0C0023FA02F34FEA4303C9
:100B6000CCE77FEA625307D150EA01331EBF4FF052
:100B7000FE4040F44000704701F0004040F0FE406D
:100B800040F40000704700BF80F0004002E000BF6A
:100B900081F0004142001FBF5FEA410392EA030F68
:100BA0007FEA226C7FEA236C6AD04FEA1262D2EBB2
:100BB0001363C1BFD218414048404140B8BF5B42B7
:100BC000192B88BF704710F0004F40F4000020F050
:100BD0007F4018BF404211F0004F41F4000121F066
:100BE0007F4118BF494292EA030F3FD0A2F10102B0
:100BF00041FA03FC10EB0C00C3F1200301FA03F1EE
:100C000000F0004302D5494260EB4000B0F5000F10
:100C100013D3B0F1807F06D340084FEA310102F1CF
:100C20000102FE2A51D2B1F1004F40EBC25008BF81
:100C300020F0010040EA03007047490040EB00004B
:100C4000013A28BFB0F5000FEDD2B0FA80FCACF14C
:100C5000080CB2EB0C0200FA0CF0AABF00EBC25079
:100C600052421843BCBFD0401843704792F0000F67
:100C700081F4000106BF80F400000132013BB5E7BA
:100C80004FEA41037FEA226C18BF7FEA236C21D030
:100C900092EA030F04D092F0000F08BF0846704795
:100CA00090EA010F1CBF0020704712F07F4F04D163
:100CB000400028BF40F00040704712F100723CBF76
:100CC00000F50000704700F0004343F0FE4040F4A0
:100CD000000070477FEA226216BF08467FEA23635E
:100CE0000146420206BF5FEA412390EA010F40F449
:100CF000800070474FF0000304E000BF10F0004395
:100D000048BF40425FEA000C08BF704743F096437B
:100D100001464FF000001CE050EA010208BF704796
:100D20004FF000030AE000BF50EA010208BF70471D
:100D300011F0004302D5404261EB41015FEA010C32
:100D400002BF84460146002043F0B64308BFA3F12A
:100D50008053A3F50003BCFA8CF2083AA3EBC2530C
:100D600010DB01FA02FC634400FA02FCC2F120022B
:100D7000BCF1004F20FA02F243EB020008BF20F062
:100D80000100704702F1200201FA02FCC2F12002C8
:100D900050EA4C0021FA02F243EB020008BF20EABD
:100DA000DC7070474FF0FF0C1CEAD0521EBF1CEAEB
:100DB000D15392EA0C0F93EA0C0F6FD01A4480EAD9
:100DC000010C400218BF5FEA41211ED04FF00063C2
:100DD00043EA501043EA5111A0FB01310CF00040EE
:100DE000B1F5000F3EBF490041EAD3715B0040EA14
:100DF000010062F17F02FD2A1DD8B3F1004F40EBE4
:100E0000C25008BF20F00100704790F0000F0CF0B6
:100E1000004C08BF49024CEA502040EA51207F3A7A
:100E2000C2BFD2F1FF0340EAC250704740F4000055
:100E30004FF00003013A5DDC12F1190FDCBF00F046
:100E400000407047C2F10002410021FA02F1C2F1F4
:100E5000200200FA02FC5FEA310040F1000053EA90
:100E60004C0308BF20EADC70704792F0000F00F0DE
:100E7000004C02BF400010F4000F013AF9D040EAE4
:100E80000C0093F0000F01F0004C02BF490011F478
:100E9000000F013BF9D041EA0C018FE70CEAD15376
:100EA00092EA0C0F18BF93EA0C0F0AD030F0004CF6
:100EB00018BF31F0004CD8D180EA010000F00040AA
:100EC000704790F0000F17BF90F0004F084691F068
:100ED000000F91F0004F14D092EA0C0F01D14202A2
:100EE0000FD193EA0C0F03D14B0218BF084608D16B
:100EF00080EA010000F0004040F0FE4040F40000B5
:100F0000704740F0FE4040F4400070474FF0FF0C47
:100F10001CEAD0521EBF1CEAD15392EA0C0F93EA8E
:100F20000C0F69D0A2EB030280EA010C49024FEAE0
:100F3000402037D04FF0805343EA111143EA101399
:100F40000CF000408B4238BF5B0042F17D024FF451
:100F5000000C8B4224BF5B1A40EA0C00B3EB510F2C
:100F600024BFA3EB510340EA5C00B3EB910F24BF15
:100F7000A3EB910340EA9C00B3EBD10F24BFA3EB9A
:100F8000D10340EADC001B0118BF5FEA1C1CE0D162
:100F9000FD2A3FF650AF8B4240EBC25008BF20F015
:100FA000010070470CF0004C4CEA50207F32C2BF69
:100FB000D2F1FF0340EAC250704740F400004FF006
:100FC0000003013A37E792F0000F00F0004C02BF37
:100FD000400010F4000F013AF9D040EA0C0093F001
:100FE000000F01F0004C02BF490011F4000F013B5B
:100FF000F9D041EA0C0195E70CEAD15392EA0C0FC3
:1010000008D142027FF47DAF93EA0C0F7FF470AFFA
:10101000084676E793EA0C0F04D14B023FF44CAF3D
:1010200008466EE730F0004C18BF31F0004CCAD1D2
:1010300030F000427FF45CAF31F000437FF43CAF0E
:101040005FE700BF4FF0FF3C06E000BF4FF0010C30
:1010500002E000BF4FF0010C4DF804CD4FEA400212
:101060004FEA41037FEA226C18BF7FEA236C11D05C
:1010700001B052EA530C18BF90EA010F58BFB2EB0F
:10108000030088BFC81738BF6FEAE17018BF40F08F
:10109000010070477FEA226C02D15FEA402C05D143
:1010A0007FEA236CE4D15FEA412CE1D05DF8040BC8
:1010B000704700BF844608466146FFE70FB5FFF75B
:1010C000C9FF002848BF10F1000F0FBD4DF808ED13
:1010D000FFF7F4FF0CBF012000205DF808FB00BF04
:1010E0004DF808EDFFF7EAFF34BF012000205DF85E
:1010F00008FB00BF4DF808EDFFF7E0FF94BF0120AB
:1011000000205DF808FB00BF4DF808EDFFF7D2FFA7
:1011100094BF012000205DF808FB00BF4DF808EDEA
:10112000FFF7C8FF34BF012000205DF808FB00BFB7
:101130004FEA40024FEA41037FEA226C02D15FEAA4
:10114000402C08D17FEA236C02D15FEA412C02D106
:101150004FF0000070474FF0010070474FEA400227
:10116000B2F1FE4F0FD34FF09E03B3EB12620DD9D5
:101170004FEA002343F0004310F0004F23FA02F03F
:1011800018BF404270474FF00000704712F1610FE6
:1011900001D1420205D110F0004008BF6FF00040BD
:1011A00070474FF00000704753B94AB9002908BF93
:1011B00000281CBF4FF0FF314FF0FF3000F0E2B8C5
:1011C000ADF1080C6DE904CE07F052F8DDF804E04B
:1011D000DDE9022304B0704700F1340191E83800E2
:1011E0009C46A6464CF8045D90E8FF0FE54600BD1E
:1011F00090EC210B704700BF80EC210B704700BFC3
:1012000090EC200B704700BF80EC200B704700BFB4
:10121000D0EC200B704700BFC0EC200B704700BF24
:10122000F0EC0201F0EC0211F0EC0221F0EC0231E2
:10123000F0EC0241F0EC0251F0EC0261F0EC0271D2
:10124000F0EC0281F0EC0291F0EC02A1F0EC02B1C2
:10125000F0EC02C1F0EC02D1F0EC02E1F0EC02F1B2
:10126000704700BFE0EC0201E0EC0211E0EC02216B
:10127000E0EC0231E0EC0241E0EC0251E0EC026112
:10128000E0EC0271E0EC0281E0EC0291E0EC02A102
:10129000E0EC02B1E0EC02C1E0EC02D1E0EC02E1F2
:1012A000E0EC02F1704700BFB0FC0181B0FC01919D
:1012B000B0FC01A1B0FC01B1704700BFA0FC0181EE
:1012C000A0FC0191A0FC01A1A0FC01B1704700BFEE
:1012D000EC4600B52DE900502DE9FF1F4FF000034B
:1012E0002DE90C0001A907F075FADDF840E012B015
:1012F000704700BFEC4600B52DE900502DE9FF1FF7
:101300004FF000032DE90C0001A907F09FFADDF86A
:1013100040E012B0704700BFEC4600B52DE9005028
:101320002DE9FF1F4FF000032DE90C0001A907F084
:10133000ADFADDF840E012B0704700BFEC4600B5F2
:101340002DE900502DE9FF1F4FF000032DE90C009F
:1013500001AB07F073FADDF840E012B0704700BF50
:10136000EC4600B52DE900502DE9FF1F4FF00003BA
:101370002DE90C0001AA07F0E1FADDF840E012B017
:10138000704700BF704700BF844641EA000313F076
:1013900003036DD1403A41D351F8043B40F8043B7C
:1013A00051F8043B40F8043B51F8043B40F8043B3F
:1013B00051F8043B40F8043B51F8043B40F8043B2F
:1013C00051F8043B40F8043B51F8043B40F8043B1F
:1013D00051F8043B40F8043B51F8043B40F8043B0F
:1013E00051F8043B40F8043B51F8043B40F8043BFF
:1013F00051F8043B40F8043B51F8043B40F8043BEF
:1014000051F8043B40F8043B51F8043B40F8043BDE
:1014100051F8043B40F8043B403ABDD2303211D37E
:1014200051F8043B40F8043B51F8043B40F8043BBE
:1014300051F8043B40F8043B51F8043B40F8043BAE
:10144000103AEDD20C3205D351F8043B40F8043B7E
:10145000043AF9D2043208D0D2071CBF11F8013B7C
:1014600000F8013B01D30B8803806046704700BF42
:10147000082A13D38B078DD010F003038AD0C3F151
:101480000403D21ADB071CBF11F8013B00F8013B33
:1014900080D331F8023B20F8023B7BE7043AD9D3F2
:1014A000013A11F8013B00F8013BF9D20B780370C7
:1014B0004B7843708B788370604670470000000063
:1014C00001F0FF01102A2BDB10F0070F08D010F8F5
:1014D000013B013A8B422DD010F0070F42B3F6D1F9
:1014E000F0B441EA012141EA014122F007047FF012
:1014F00000070023F0E80256083C85EA010586EA69
:10150000010685FA47F5A3FA87F586FA47F6A5FAA4
:1015100087F68EB9EED1F0BC01F0FF0102F00702B0
:1015200032B110F8013B013A83EA010313B1F8D15B
:101530000020704701387047002D06BF354603383C
:10154000073815F0010F07D1013015F4807F02BF75
:10155000013015F4C03F01300138F0BC704700BFC6
:10156000000000000000000000000000000000007B
:10157000000000000000000000000000000000006B
:1015800030B490F800F020F007016FF0000C10F07C
:10159000070491F820F040F048804FF000046FF00D
:1015A0000700D1E9002391F840F000F1080082FA29
:1015B0004CF2A4FA8CF283FA4CF3A2FA8CF34BBBF4
:1015C000D1E9022382FA4CF200F10800A4FA8CF26D
:1015D00083FA4CF3A2FA8CF3E3B9D1E9042382FA3B
:1015E0004CF200F10800A4FA8CF283FA4CF3A2FA50
:1015F0008CF37BB9D1E9062301F1200182FA4CF288
:1016000000F10800A4FA8CF283FA4CF3A2FA8CF3EE
:10161000002BC6D0002A04BF04301A4612BAB2FA10
:1016200082F200EBD20030BC7047D1E9002304F015
:101630000305C4F100004FEAC50514F0040F91F84A
:1016400040F00CFA05F562EA05021CBF63EA0503E7
:1016500062464FF00004AAE70348044B834202D0DD
:10166000034B03B1184770470C0700200C070020FC
:10167000000000000548064B1B1AD90F01EBA3011F
:10168000491002D0034B03B1184770470C070020E4
:101690000C0700200000000010B5064C237843B969
:1016A000FFF7DAFF044B13B10448AFF300800123C6
:1016B000237010BD0C070020000000000CF600088D
:1016C00008B5054B1BB105490548AFF30080BDE8DF
:1016D0000840FFF7CFBF00BF000000001007002048
:1016E0000CF600082DE9F84305460C46304B1B78F4
:1016F0000133092B00DD01235F1C55F82300FFF7A0
:10170000F9FA06462060092F00DD012707F10108DC
:1017100055F82700FFF7EEFA07466060B8F1090FA9
:1017200001DD4FF0010808F1010955F82800FFF725
:10173000E1FA8046A060B9F1090F01DD4FF001091F
:1017400055F82900FFF7D6FA0546E060194B1968ED
:101750004046FFF71DFAA0601749FFF7D7FBA060CE
:1017600016493846FFF714FA1549FFF7CFFB6060BA
:1017700012492846FFF70CFA0546E0601149FFF7C9
:10178000AFFC30B110492846FFF7C8FC08B1002370
:10179000E3600B49E068FFF7B9FBE06007493046BA
:1017A000FFF7F6F90649FFF7B1FB2060BDE8F883C3
:1017B00004000020000000200000614400C0A84494
:1017C0000000E1430000A0410000A0C1012301E0AE
:1017D00001339BB28B420AD2054A127850F822207C
:1017E00050F823C09445F3D9014A1370F0E77047CD
:1017F0000400002038B504460D4603E02946204683
:10180000FFF7E4FF034B187854F82030B3F5FA6F74
:10181000F4D338BD04000020014B1860704700BFAE
:10182000280700202DE9F047044617461E460B9D69
:1018300000F0E9FB04F148093946484600F0E3FBB3
:1018400004F1900A3146504600F0DDFB04F1D8085F
:101850000899404600F0D7FB04F59077099938467F
:1018600000F0D1FB04F5B4760A99304600F0CBFBCA
:101870002968C4F8B0116B68C4F8B431AB68C4F817
:10188000B831EB68C4F8BC312B69C4F8C0316B695E
:10189000C4F8C431204600F001FBD4F8B411484626
:1018A00000F0FCFAD4F8B811504600F0F7FAD4F87A
:1018B000BC11404600F0F2FAD4F8C011384600F0EE
:1018C000EDFAD4F8C411304600F0E8FA012384F8A8
:1018D000E031BDE8F087000070B504460B68C0F841
:1018E000B0314B68C0F8B4318E68C0F8B861CB68CD
:1018F000C0F8BC310B69C0F8C0314D69C0F8C451A3
:101900002846FEF7C1FD20A3D3E90023FFF7A4F882
:1019100040B121492846FFF73BF91F49FFF738F945
:10192000C4F8C401D4F8C4512846FEF7ADFD18A38D
:10193000D3E90023FFF772F840B117492846FFF7B3
:1019400029F91549FFF726F9C4F8C401314604F115
:10195000900000F0A3FAD4F8C41104F5B47000F0BC
:101960009DFAD4F8C01104F5907000F097FAD4F8FD
:10197000BC1104F1D80000F091FA94F8E03143F082
:10198000010384F8E03170BD4AD8124DFB210940B3
:101990004AD8124DFB2109C0DA0F49400B68C0F844
:1019A000C8314B68C0F8CC318B68C0F8D031CB68F7
:1019B000C0F8D4310B69C0F8D8314B69C0F8DC31BC
:1019C00090F8E03143F0020380F8E0317047000006
:1019D0002DE9F04F87B005460C46164602F1080186
:1019E000903000F00DFB06F10C0105F1D80000F07D
:1019F00007FB06F1100105F5907000F001FB06F100
:101A0000140105F5B47000F0FBFAC749B068FFF7A0
:101A1000C1F88346D6F80CA03569D6F81480FEF7D5
:101A200033FD02460B46CDE90223B7A3D3E90023D9
:101A3000FEF7ACFE0022BD4BFEF77EFDCDE90001B6
:101A400028F00040FEF720FDAFA3D3E90023FEF706
:101A50009DFE06460F4625F000402AF00041FFF7A4
:101A600099F8FEF711FDA8A3D3E90023FEF78EFE37
:101A7000A7A3D3E90023FEF789FE02460B463046B2
:101A80003946FEF7A3FB06460F4602460B46DDE944
:101A90000001FEF7C3FF68B34046FEF7F5FC804641
:101AA000894632463B46DDE90001FEF76FFE0646F9
:101AB0000F4602460B4640464946FEF73DFDFFF7FE
:101AC00013F880462846FEF7DFFC02460B463046F8
:101AD0003946FEF731FDFFF707F805465046FEF799
:101AE000D3FC02460B4630463946FEF725FDFEF78D
:101AF000FBFF82464FF07A515846FFF753F9FEF745
:101B0000C3FC81A3D3E90023FEF740FECDE9000129
:101B10004FF07A514046FFF745F9FEF7B5FC7AA33E
:101B2000D3E90023FEF732FE06460F4602460B4677
:101B3000DDE90001FEF74AFB80468946294650460A
:101B4000FFF728F84FF07A51FFF72CF9FEF79CFCCD
:101B50006DA3D3E90023FEF719FE6DA3D3E900239B
:101B6000FEF714FE02460B46CDE90489404649467D
:101B7000FEF72AFBFEF7B8FF8346206032463B465D
:101B8000DDE90001FEF720FB8046894629465046E4
:101B9000FEF7FEFF4FF07A51FFF704F9FEF774FCF1
:101BA00059A3D3E90023FEF7F1FD59A3D3E900239C
:101BB000FEF7ECFD02460B4640464946FEF704FBA5
:101BC000FEF792FF0746606051462846FEF7E0FFA9
:101BD0004FF07A51FFF7E6F8FEF756FC4AA3D3E937
:101BE0000023FEF7D3FD4AA3D3E90023FEF7CEFD81
:101BF00002460B46DDE90401FEF7E6FAFEF774FF44
:101C00000646A06005F100405146FEF7C1FF4FF0C7
:101C10007A51FFF7C7F8FEF737FC3BA3D3E900235F
:101C2000FEF7B4FD3AA3D3E90023FEF7AFFD024669
:101C30000B4640464946FEF7C7FAFEF755FF0546F4
:101C4000E06039465846FEF7A5FF01463046FEF7EC
:101C5000A1FF01462846FEF79DFF82460022344B35
:101C6000DDE90201FEF768FC2BA3D3E90023FEF7B0
:101C70008DFD2BA3D3E90023FEF75EFC00222D4B44
:101C8000FEF75AFC804689465046FEF7FDFB0246A9
:101C90000B4640464946FEF779FDFEF725FF814693
:101CA00001465846FFF77EF805F05AFF804620604F
:101CB00049463846FFF776F805F052FF0746606060
:101CC00049463046FFF76EF805F04AFF0646A06029
:101CD00049462846FFF766F805F042FF0546E060F2
:101CE0004FF07E514046FFF719FA08B14FF07E5889
:101CF000C4F800804FF07E513846FFF70FFAD8B194
:101D00004FF07E5718E000BF2D431CEBE2361A3F20
:101D1000333333333333D33F9A9999999999234085
:101D2000CDCCCCCCCCCCDC3FCDCC9C410000E83F32
:101D30000000E03F0000104067604FF07E513046E9
:101D4000FFF7ECF908B14FF07E56A6604FF07E51D8
:101D50002846FFF7E3F908B14FF07E55E5601049DA
:101D60004046FFF7BDF908B1DFF83480C4F80080C1
:101D70000B493846FFF7B4F900B1094F67600849CD
:101D80003046FFF7ADF900B1054EA660044928467C
:101D9000FFF7A6F900B1024DE56007B0BDE8F08F8E
:101DA000CDCCCC3D10B50446D0F8D011903000F029
:101DB000F2F8D4F8D41104F1D80000F0ECF8D4F81B
:101DC000D81104F5907000F0E6F8D4F8DC1104F5B1
:101DD000B47000F0E0F810BD10B50446FFF7E2FF64
:101DE00094F8E03103F0FD0384F8E03110BD000009
:101DF00070B505460C4624498068FEF7C9FE2349A4
:101E0000FEF7D0FFA06022496868FEF7CBFFE060D4
:101E10001F492868FEF7C6FF206166691D49E8680A
:101E2000FEF7C0FF01463046FEF7B4FE054660618E
:101E3000FEF72AFB10A3D3E90023FEF70DFE38B10D
:101E400015492846FEF7A4FE1349FEF7A1FE60617E
:101E500065692846FEF718FB09A3D3E90023FEF7BE
:101E6000DDFD38B10C492846FEF794FE0A49FEF71D
:101E700091FE606170BD00BF4AD8124DFB21094040
:101E80004AD8124DFB2109C06666E63E0000C842F2
:101E90000E2D323E6F12033BDA0F4940012380F8CA
:101EA0002430C16270472DE9F0410446876A394603
:101EB0000068FEF777FF8046E5682946FEF768FE72
:101EC000064629464046FEF765FE8046002130461C
:101ED000FFF724F9002837D0A3690133A3616563B4
:101EE000D4F83480256929464046FEF751FE06465F
:101EF00029464046FEF74EFE804600213046FFF759
:101F00000DF900282DD0E3690133E3616563216C8D
:101F10003846FEF73DFEA168FEF744FF07466569B7
:101F20002946FEF735FE064629463846FEF732FEBC
:101F3000074600213046FFF7F1F8F8B1236A013374
:101F40002362A563BDE8F08100214046FFF7C8F891
:101F50000028C5D0A3690133A36105F1004565637D
:101F6000BEE700214046FFF7BBF80028CFD0E36969
:101F70000133E36105F100456563C8E70021384698
:101F8000FFF7AEF80028DDD0236A0133236205F1A4
:101F90000045A563D6E770B504460163012380F8C8
:101FA000253090F824301BB9002384F8253070BD0B
:101FB000C06AFEF7EDFD0546A0622168FEF7F2FE5D
:101FC000E063666B61682846FEF7ECFE014630462A
:101FD000FEF7E0FD6063216C2846FEF7D9FDA1689D
:101FE000FEF7E0FEA06325642046FFF75CFF616B0F
:101FF000E06BFEF7CFFDA16BFEF7CCFD6064D3E78D
:10200000436C0B6070470B6803604B6843608B68E0
:102010008360704770470000F8B504460D461646C9
:102020000068FEF731FA30A3D3E90023FEF784FA03
:102030002FA3D3E90023FEF7C9F8FEF755FD0746A5
:1020400020606068FEF720FA27A3D3E90023FEF79B
:1020500073FA27A3D3E90023FEF7B8F8FEF744FD8F
:102060006060A068FEF710FA1FA3D3E90023FEF713
:1020700063FA1FA3D3E90023FEF7A8F8FEF734FDA7
:10208000A060E068FEF700FA17A3D3E90023FEF78B
:1020900053FA17A3D3E90023FEF798F8FEF724FDBF
:1020A000E06015493846FEF77DFEFFF757F83368C4
:1020B000586311496068FEF775FEFFF74FF8336803
:1020C00098630D49A068FEF76DFEFFF747F82B688F
:1020D000D8630949E068FEF765FEFFF73FF82B6813
:1020E0001864F8BDAFF30080B81E85EB51B8BE3F51
:1020F0007B14AE47E17AB43F00401C4670470000B5
:1021000010B504464FF07C51FEF74CFE01462346C5
:10211000094CA4EB63042046FEF744FE014620462A
:10212000FEF740FE01464FF07F50FEF731FD0146BD
:102130002046FEF737FE10BDDF59375F2DE9F04F1F
:1021400085B005460C4603921E46DDF83890DDF852
:102150003C8000211846FEF7B9FF58B100214846DF
:10216000FEF7B4FF30B100214046FEF7AFFF002874
:1021700040F0008131463046FEF714FE07464946DE
:102180004846FEF70FFE01463846FEF703FD0746B8
:1021900041464046FEF706FE01463846FEF7FAFC89
:1021A000FFF7AEFF074601463046FEF7FBFD029003
:1021B00039464846FEF7F6FD019039464046FEF79F
:1021C000F1FD8346DFF8CC92D9F80000B24F3968B0
:1021D000FEF7E8FD0646DFF8C482D8F80000DFF815
:1021E000C0A2DAF80010FEF7DDFD01463046FEF72A
:1021F000CFFC0646D8F80000D9F80010FEF7D2FD53
:102200008146DAF800003968FEF7CCFD0146484601
:10221000FEF7C0FC8146D8F80000D8F80010FEF7A1
:10222000C1FD4FF07C51FEF7B3FC80463868396839
:10223000FEF7B8FD01464046FEF7ACFC07460146F6
:102240000198FEF7AFFD804649465846FEF7AAFDC5
:1022500001464046FEF79CFC804631465846FEF754
:10226000A1FD82463946DDF808B05846FEF79AFDD2
:1022700001465046FEF78CFC074649465846FEF795
:1022800091FD814631460198FEF78CFD0146484696
:10229000FEF77EFC0646834B18680021FEF73EFFE2
:1022A000002800F03C81DFF8FC91D9F8000041469D
:1022B000FEF778FD7C49FEF775FD0146DFF8ECB1CD
:1022C000DBF80000FEF766FCCBF80000D9F8000050
:1022D0003946FEF767FD7449FEF764FD0146DFF8F5
:1022E000D0A1DAF80000FEF755FCCAF80000D9F8D2
:1022F00000003146FEF756FD6B49FEF753FD0146DF
:10230000DFF8B091D9F80000FEF744FCC9F80000EE
:10231000DBF800102846FEF73DFC0546DAF8001011
:102320002046FEF737FC0446D9F800100398FEF764
:1023300031FC0390DFF88091D9F800004146FEF7A8
:1023400031FD01462846FEF725FC0546D9F8000078
:102350003946FEF727FD01462046FEF71BFC0446E2
:10236000D9F800003146FEF71DFD01460398FEF73F
:1023700011FC039051492846FEF714FD01904F4986
:102380002046FEF70FFD02904C490398FEF70AFD28
:102390008046424FD7F800B03E4ED6F800A0404DE0
:1023A000D5F800900AF100400199FEF7FBFC0446C5
:1023B00049460298FEF7F6FC01462046FEF7E8FB88
:1023C0000390354C20684146FEF7ECFC014603982B
:1023D000FEF7DEFB01463868FEF7DCFB3860594645
:1023E0000198FEF7DFFC039049464046FEF7DAFC11
:1023F00001460398FEF7CEFB039020680299FEF792
:10240000D1FC01460398FEF7C3FB01463068FEF796
:10241000C1FB306059460298FEF7C4FC0390514658
:102420004046FEF7BFFC01460398FEF7B1FB039060
:1024300020680199FEF7B6FC01460398FEF7AAFB57
:1024400001462868FEF7A6FB286059464046FEF77D
:10245000A9FC804651460298FEF7A4FC014640467E
:10246000FEF798FB804649460198FEF79BFC014623
:102470004046FEF78DFB2168FEF78CFB2060386834
:102480003968FEF78FFC804630683168FEF78AFCB9
:10249000014615E04C0700204407002008000020FA
:1024A000480700200C0000200AD7233C40070020EA
:1024B0003C07002038070020100000200AD7A33B6B
:1024C0004046FEF767FB804628682968FEF76AFCED
:1024D00001464046FEF75EFB804620682168FEF715
:1024E00061FC01464046FEF755FBFFF709FE8046BA
:1024F00038684146FEF756FC386030684146FEF7C2
:1025000051FC306028684146FEF74CFC286020688A
:102510004146FEF747FC206005B0BDE8F08F002380
:10252000034A1360034A1360034A136002E700BFC3
:10253000400700203C070020380700202DE9F04F1D
:1025400091B00290039104921C461A9FDDF86CA092
:102550001C9EDDF87490DDF8788000213046FEF78F
:10256000B5FD58B100214846FEF7B0FD30B100215D
:102570004046FEF7ABFD002840F0C7820021204610
:10258000FEF7A4FD58B100213846FEF79FFD30B19B
:1025900000215046FEF79AFD002840F0F7812146C1
:1025A0002046FEF7FFFB054639463846FEF7FAFBA4
:1025B00001462846FEF7EEFA054651465046FEF71C
:1025C000F1FB01462846FEF7E5FA05F0C9FA014697
:1025D0004FF07E50FEF79AFC054601462046FEF776
:1025E000E1FB099029463846FEF7DCFB0A902946B4
:1025F0005046FEF7D7FB0B9031463046FEF7D2FB34
:10260000044649464846FEF7CDFB01462046FEF704
:10261000C1FA044641464046FEF7C4FB0146204647
:10262000FEF7B8FA05F09CFA01464FF07E50FEF72F
:102630006DFC044601463046FEF7B4FB8346214656
:102640004846FEF7AFFB824621464046FEF7AAFB0E
:102650000546AA4C20682168FEF7A4FB0C90206870
:10266000A74E3168FEF79EFB06902068A54F39689B
:10267000FEF798FB07902068A34C2168FEF792FBB9
:10268000804630683168FEF78DFB0D903068396800
:10269000FEF788FB089030682168FEF783FB06464A
:1026A00038683968FEF77EFB814638682168FEF796
:1026B00079FB074620682168FEF774FB044649460B
:1026C0004FF07C50FEF764FA2146FEF761FA0E9057
:1026D000CDF814B05946FEF765FB8346414608988D
:1026E000FEF756FA0F905146FEF75CFB014658463E
:1026F000FEF750FA834631460798FEF74BFA294613
:10270000FEF750FB01465846FEF744FA0146FEF735
:1027100041FA834608994046FEF73CFA0599FEF7D0
:1027200041FB80460D994FF07C50FEF731FA08903E
:102730002146FEF72DFA5146FEF734FB014640468E
:10274000FEF728FA804606993846FEF721FA294610
:10275000FEF728FB01464046FEF71CFA0146FEF74D
:1027600019FA804659465846FEF71CFB83464146F7
:102770004046FEF717FB01465846FEF70BFA05F0F8
:10278000EFF9804607993046FEF702FA06460599AA
:10279000FEF708FB834639460698FEF7FBF9074625
:1027A0005146FEF7FFFA01465846FEF7F3F9834615
:1027B00049460898FEF7ECF92946FEF7F3FA014678
:1027C0005846FEF7E7F90146FEF7E4F905464FF0F3
:1027D0007C510C98FEF7DCF92146FEF7DBF9044644
:1027E00041460E98FEF7DEFA814629463046FEF74E
:1027F000D9FA01464846FEF7CDF9814641460F9881
:10280000FEF7D0FA804629463846FEF7CBFA014655
:102810004046FEF7BFF9054621460A98FEF7C2FA80
:102820008046DDF82CB059463846FEF7BBFA014623
:102830004046FEF7ADF93549FEF7B4FA074659466A
:102840003046FEF7AFFA064621460998FEF7AAFA87
:1028500001463046FEF79CF92C49FEF7A3FA0446E0
:1028600029460598FEF79EFA054649465046FEF76A
:1028700099FA01462846FEF78BF92449FEF792FAA9
:102880000546234B1F60234B1C60234B1860234BD2
:1028900018680021FEF742FC002800F040811F4E1E
:1028A00030683946FEF77EFA1D49FEF77BFA01468D
:1028B000DFF87090D9F80000FEF76CF9C9F8000055
:1028C00030682146FEF76EFA1549FEF76BFA0146AD
:1028D000DFF85480D8F80000FEF75CF9C8F8000073
:1028E00030682946FEF75EFA0D49FEF75BFA0146AD
:1028F0000E4E3068FEF74EF91AE000BF08000020C7
:102900004C0700204807002044070020000020401A
:1029100034070020300700202C0700200C00002086
:102920000AD7233C400700203C070020380700203E
:102930003060D9F800100298FEF72CF90290D8F810
:1029400000100398FEF726F9039031680498FEF70B
:1029500021F90490764E30683946FEF723FA014695
:102960000298FEF717F9029030682146FEF71AFA2E
:1029700001460398FEF70EF9039030682946FEF7EA
:1029800011FA01460498FEF705F904906949029886
:10299000FEF708FA044667490398FEF703FA029027
:1029A00064490498FEF7FEF98046634FD7F800B0FB
:1029B000624ED6F800A0624DD5F800900AF10040B2
:1029C00003942146FEF7EEF9044649460298FEF7C5
:1029D000E9F901462046FEF7DBF80490594C2068DF
:1029E0004146FEF7DFF901460498FEF7D1F80146AB
:1029F0003868FEF7CFF8386059460398FEF7D2F9E9
:102A0000049049464046FEF7CDF901460498FEF78A
:102A1000C1F8049020680299FEF7C4F901460498B1
:102A2000FEF7B6F801463068FEF7B4F83060594654
:102A30000298FEF7B7F9049051464046FEF7B2F906
:102A400001460498FEF7A4F8049020680399FEF765
:102A5000A9F901460498FEF79DF801462868FEF79B
:102A600099F8286059464046FEF79CF98046514641
:102A70000298FEF797F901464046FEF78BF880462C
:102A800049460398FEF78EF901464046FEF780F866
:102A90002168FEF77FF8206038683968FEF782F910
:102AA000804630683168FEF77DF901464046FEF702
:102AB00071F8804628682968FEF774F90146404697
:102AC000FEF768F8804620682168FEF76BF901463A
:102AD0004046FEF75FF8FFF713FB80463868414633
:102AE000FEF760F9386030684146FEF75BF9306008
:102AF00028684146FEF756F9286020684146FEF7EF
:102B000051F9206011B0BDE8F08FCDF804A0009716
:102B10002346049A03990298FFF710FBF2E700237B
:102B2000094A1360094A1360094A136012E700BF9B
:102B3000100000200AD7A33B080000204C0700200B
:102B40004807002044070020400700203C070020E1
:102B5000380700202DE9F0438DB000240794089435
:102B600009940A940B9401944E4B1A6B42F0800224
:102B70001A631A6B02F080020192019A02941A6B96
:102B800042F001021A631A6B02F001020292029AE9
:102B900003941A6B42F002021A631A6B02F00202EB
:102BA0000392039A04941A6B42F004021A631A6B9C
:102BB00002F004020492049A05941A6B42F008028F
:102BC0001A631A6B02F008020592059A06941A6BB2
:102BD00042F010021A631B6B03F010030693069B6E
:102BE000314F22463021384602F084FDDFF8BC80A8
:102BF00022464FF4F941404602F07CFD032507953B
:102C00000894099407A9384602F07AFC3023079308
:102C10000126089609940A9407A9384602F070FC28
:102C20004FF4F9430793089609940A9407A940467C
:102C300002F066FC4FF40043079309944FF48813A5
:102C400008930A9508F5806807A9404602F058FCE9
:102C50000227079708950994DFF8549007A948467A
:102C600002F04EFC48F20C030793089709940A956A
:102C70000B9607A90F4802F043FC0823079307A906
:102C8000484602F03DFC4FF4D4430793089709945B
:102C90000A950B9607A9404602F032FC0DB0BDE83C
:102CA000F08300BF0038024000080240000C0240E0
:102CB000000402400000024008B50020034602461E
:102CC0000146FFF71BFAFFF7A5F908BD70B584B000
:102CD0003A4B3B4A1A603B4D3B4B1D603B4B3C4AD9
:102CE0001A60002400943B4B5A6C42F001025A6473
:102CF0005A6C02F001020092009A01941A6C42F0A0
:102D000001021A641A6C02F001020192019A029403
:102D10001A6C42F010021A641A6C02F0100202924D
:102D2000029A03941A6C42F020021A641B6C03F09E
:102D300020030393039B2849CA6822F4E06212042B
:102D4000120C264B1343CB6002222146362002F0A0
:102D500039FB362002F068FB214E3268D36843F01D
:102D60003603D360362002F03DFB304603F0BEFE52
:102D700022462146282002F025FB1A4B4FF4807290
:102D80005A6022460121122002F01CFB122002F0A0
:102D900029FB01222146192002F014FB192002F020
:102DA00043FB2A68D36843F01903D360192002F06B
:102DB00019FB284603F09AFE04B070BD04080020F9
:102DC000D4080020340A002000080020FC0700205E
:102DD000900800200038024000ED00E00002FA05F3
:102DE000A409002000E100E0835C0132002BFBD14C
:102DF000D0B270474FF07E51016000224260826085
:102E00004FF0804CC0F80CC0DFF828C0C0F810C0EC
:102E1000416100218161C161016280F8241080F864
:102E200025108262C262026342638263C2630264EB
:102E3000426470470000204110B50446FFF7DAFFF6
:102E400004F14800FFF7D6FF04F19000FFF7D2FF2E
:102E500004F1D800FFF7CEFF04F59070FFF7CAFF2A
:102E600004F5B470FFF7C6FF002384F8E0310F23A8
:102E700084F8E131204610BD08B50A46002306E07B
:102E800010F803C04CF0800C00F803C0013302F1CD
:102E9000FF3C9C45F4DCFF2383544FF4FA73014656
:102EA000014804F0CEFB08BDD408002008B5036833
:102EB000214A934207D002F54C42934203D0A2F537
:102EC000484293420FD001221C491D4804F009FEDC
:102ED00001221C491C4804F004FE01221B491C4825
:102EE00004F0FFFD08BD1B4A13780133DBB21370F9
:102EF0001378DBB2012B08D0164B1B78DBB2022B08
:102F00000BD0144B00221A70DDE7134A0023138004
:102F10000E4B1B78DBB21380D5E70E4B00221A70E4
:102F20000D490B889BB21B029BB2084A12781344CE
:102F30009BB20B80C7E700BF00440040DC070020C5
:102F4000D4080020BC070020900800209C07002027
:102F50004C0800205E0700205C07002072B6FEE7E8
:102F600000B587B000230093204A516C41F4807172
:102F70005164516C01F48071009100990193516C7E
:102F800041F400715164526C02F400720192019A92
:102F900002930393049305931548164A0260436015
:102FA000836003610122027680F82030C3621249F7
:102FB0008162C360C26180F83030426101F074FF09
:102FC00080B909230293012303930023049302A9E8
:102FD000074802F0E5F838B9054801F091FF07B05D
:102FE0005DF804FBFFF7BAFFFFF7B8FF00380240B7
:102FF000D40B0020002001400100000F70B588B004
:1030000000250195224C236B43F002032363236BBD
:1030100003F002030193019B0295236C43F4001318
:103020002364236C03F400130293029B4023039355
:103030001223049305950323069304230793154E47
:1030400003A9304602F05CFA8023039303A93046BB
:1030500002F056FA236A43F400132362236A23F42E
:10306000001323620C480D4B03600D4B43608560D9
:10307000C5604FF48043036145618561C5610562A8
:1030800002F094FD08B908B070BDFFF767FF00BFFC
:103090000038024000040240800B00200054004031
:1030A000801A060070B588B000250195234C236B6B
:1030B00043F002032363236B03F002030193019B9C
:1030C0000295236C43F480032364236C03F4800390
:1030D0000293029B4FF4006303931223049305951C
:1030E0000323069304230793154E03A9304602F0E9
:1030F00007FA4FF48063039303A9304602F000FA05
:10310000236A43F480032362236A23F48003236247
:103110000C480D4B03600D4B43608560C5604FF458
:103120008043036145618561C561056202F03EFD32
:1031300008B908B070BDFFF711FF00BF00380240AA
:10314000000402402C0B002000580040801A0600AA
:1031500008B50D480D4B03604FF4827343600023A4
:103160008360C360036143614FF400728261C36195
:103170000362436283620A23C36203F03FFB00B928
:1031800008BDFFF7EBFE00BFD40A0020003001406D
:1031900008B50D480D4B03604FF482734360002364
:1031A0008360C360036143614FF400728261C36155
:1031B0000362436283620A23C36203F01FFB00B908
:1031C00008BDFFF7CBFE00BF7C0A0020003800409E
:1031D00010B596B00024129413941494159410947E
:1031E000119409940A940B940C940D940E940F94DA
:1031F0002022214601A806F093F94648464B036079
:103200000F234360846042F20F73C3600461446122
:10321000846103F0D7FD002867D14FF480531293E7
:1032200012A93C4803F033FF002860D1394803F06D
:1032300021FE00285DD1374803F0F0FD00285AD167
:1032400000231093119310A9324804F031F800289C
:1032500053D1602309934FF47A730A9300220B929F
:103260000C920D920E920F9209A92A4803F095FE36
:10327000002844D1042209A9264803F05FFE002853
:103280003FD1082209A9234803F058FE00283AD16B
:103290000C2209A91F4803F051FE002835D1002354
:1032A0000193029303930A22049205934FF4005270
:1032B0000692089301A9174804F040F838BB154C52
:1032C0000021204603F072FF0421204603F06EFF28
:1032D0000821204603F06AFF0C21204603F066FF18
:1032E000204601F04FFA16B010BDFFF737FEFFF78A
:1032F00035FEFFF733FEFFF731FEFFF72FFEFFF736
:103300002DFEFFF72BFEFFF729FEFFF727FEFFF745
:1033100025FE00BF340A00200000014010B58EB029
:1033200000230093434A116C41F001011164126CB7
:1033300002F001020092009A0A930B930C930D93F2
:1033400008930993019302930393049305930693BF
:10335000079339484FF0804202600F224260836039
:1033600042F20F72C2600361836103F02BFD0028FB
:1033700050D14FF480530A930AA92F4803F087FED7
:10338000002849D12C4803F075FD002846D10023C0
:103390000893099308A9284803F08AFF00283FD121
:1033A000602301934FF47A730293002203920592F3
:1033B00001A9214803F0F1FDA0BB04220DEB02019D
:1033C0001D4803F0EAFD78BB082201A91A4803F062
:1033D000E4FD58BB0C2201A9174803F0DEFD38BB01
:1033E000154C3C21204603F0E1FE0021204603F06D
:1033F000DDFE0421204603F0D9FE0821204603F01B
:10340000D5FE0C21204603F0D1FE204601F0BAF98A
:103410000EB010BDFFF7A2FDFFF7A0FDFFF79EFD68
:10342000FFF79CFDFFF79AFDFFF798FDFFF796FD6C
:10343000FFF794FD00380240EC09002008B50A4867
:103440000A4B03604FF4E133436000238360C360A1
:1034500003610C2242618361C36104F0C3F800B9C7
:1034600008BDFFF77BFD00BF18090020004C00409D
:1034700000B583B000230093144A116B41F00101A1
:103480001163116B01F00101009100990193516CDE
:1034900041F010015164526C02F010020192019A45
:1034A0000B480C4A02604FF4E13242608360C36013
:1034B00003610C2242618361C36104F093F810B987
:1034C00003B05DF804FBFFF749FD00BF0038024080
:1034D000D40800200010014000B583B00023009301
:1034E000144A116C41F400311164116C01F4003183
:1034F000009100990193116B41F008011163126B67
:1035000002F008020192019A0B480C4A02604FF443
:10351000E13242608360C36003610C2242618361D7
:10352000C36104F05FF810B903B05DF804FBFFF766
:1035300015FD00BF00380240900800200044004004
:1035400000B583B000230093144A116C41F480212C
:103550001164116C01F48021009100990193116BA9
:1035600041F008011163126B02F008020192019A06
:103570000B480C4A02604FF4E13242608360C36042
:1035800003610C2242618361C36104F02BF810B91E
:1035900003B05DF804FBFFF7E1FC00BF0038024018
:1035A0004C0800200048004008B50A480A4B036058
:1035B0004FF4E133436000238360C36003610C2256
:1035C00042618361C36104F00DF800B908BDFFF7E3
:1035D000C5FC00BF080800200014014000B583B0FE
:1035E0000023009301930E480E4A026040F23F62AE
:1035F000426083606422C260836103F0E3FB50B9E0
:103600000023009301936946054803F051FE20B959
:1036100003B05DF804FBFFF7A1FCFFF79FFC00BFC0
:10362000A40900200010004010B582B000230093D0
:1036300001931148114A026010224260836041F2F6
:103640008832C260836103F0BDFB80B90023009320
:1036500001936946084803F02BFE50B9064C2046FA
:1036600003F030FA236800225A6202B010BDFFF75F
:1036700075FCFFF773FC00BF5C09002000140040DC
:1036800000B595B03022002108A805F049FF0023BD
:103690000393049305930693079301931C4A116CBB
:1036A00041F080511164126C02F080520192019A33
:1036B0000293184A116841F480411160126802F4C3
:1036C00080420292029A0222089201210B9110215B
:1036D0000C910E920F931091C02311931292042318
:1036E000139308A802F064FD68B90F230393002127
:1036F000049105910691079103A802F0A9FF20B952
:1037000015B05DF804FBFFF729FCFFF727FC00BFAD
:1037100000380240007000402DE9F04FADF5777D94
:1037200001F0E8FAFFF7ACFFFFF714FAFFF718FC17
:10373000FFF764FCFFF7B6FCFFF70AFDFFF728FD73
:10374000FFF746FDFFF7EAFDFFF778FEFFF790FE73
:10375000FFF7C2FEFFF7F4FEFFF726FFFFF73EFF7D
:10376000FFF762FFFFF7A8FAFFF7B0FA704C2046A8
:10377000FEF752F801226F49204604F0B2F9012207
:103780006D496E4804F0ADF901226D496D4804F0B1
:10379000A8F96D4C01221021204601F0ABFF012257
:1037A0002021204601F0A6FF684D284600F042FE89
:1037B000674C204600F056FE204600F05BFE0023DA
:1037C0001A462946204600F0E9FC00F0F1FC0024EE
:1037D000F294F394F494F59479A8FFF72DFB482222
:1037E0005C4967A8FDF7D0FD61946294639464948A
:1037F000659466945BAB5B945C945D945E945F941B
:103800006094039376AB029373AB019370AB009318
:103810006DAB6AAA67A979A8FEF704F85794589483
:1038200059945A9451945294539454945594569450
:10383000494B1B680023409341934293012305E0C9
:10384000464A41F2883142F823100133092BF7DD53
:10385000424B1A6841F288339A42F9D03F4B5A687A
:1038600041F288339A42F3D03C4B9A6841F2883354
:103870009A42EDD0394BDA6841F288339A42E7D068
:10388000364B1A6941F288339A42E1D0334B5A6978
:1038900041F288339A42DBD0304B9A6941F2883347
:1038A0009A42D5D02D4BDA6941F288339A42CFD073
:1038B0002A4B1A6A41F288339A42C9D0274B5A6A76
:1038C00041F288339A42C3D064234BB1224A126832
:1038D000002AFAD0013B9BB21F4A00211160F4E795
:1038E0000B211E48FDF786FF33AC1D4D0FCD0FC4D5
:1038F00095E80F0084E80F0000243B943C943D942D
:103900003E94ADF8FC4033AD164E0FCE0FC596E891
:103910000F0085E80F0033A8FFF766FA014633A8C9
:10392000FFF7AAFA4FF47A7001F010FA1DE000BF19
:10393000D4080020DC070020BC07002090080020ED
:103940009C0700204C080020000802402C0B00209F
:10395000800B002028F600089807002014000020A3
:1039600070F60008E0F600080134B4F5FA6F80F252
:10397000C18048A94EA800F065FD43A946A800F003
:1039800075FD002302930193009343AA4BA948A815
:1039900000F096FC459B04930393449B02934A9B3F
:1039A0000193489B0093499B4D9A4B994C98FEF785
:1039B000C5FD4A4BD3F80090494B1E683146484636
:1039C000FDF7F0F98046474B1F68474B1D682946B5
:1039D0003846FDF7E7F901464046FDF7D9F80146BC
:1039E000FDF7D8F804F09AF8099039464846FDF7F3
:1039F000D9F9804629463046FDF7D4F901464046BC
:103A0000FDF7C8F80146FDF7C5F882463946384645
:103A1000FDF7C8F9834631463046FDF7C3F98046C5
:103A200001465846FDF7B6F80146FDF7B3F80146E2
:103A30004FF07E50FDF7ACF801465046FDF766FAB0
:103A400004F0AAF8824629464846FDF7ABF98146BC
:103A500039463046FDF7A6F901464846FDF79AF883
:103A60000146FDF797F8064629462846FDF79AF9DC
:103A700001464046FDF78EF80146FDF78BF80146FA
:103A80004FF07E50FDF784F80146304604F066F8AA
:103A90000646B4F57A7F7FF767AF144D2F68144957
:103AA0000998FDF733FA01463846FDF773F82860A8
:103AB0006F680F495046FDF729FA01463846FDF771
:103AC00069F86860AF680A493046FDF71FFA014699
:103AD0003846FDF75FF8A86046E700BF0800002001
:103AE000480700204C070020440700205007002012
:103AF00000007A444FF0000B954B1B68002BFBD065
:103B0000934B1A6800221A600BF1010B48A94EA8CA
:103B100000F098FC43A946A800F0A8FC00240294F9
:103B200001940094234643AA4BA948A800F0C8FB7F
:103B3000459B04930393449B02934A9B0193489BA8
:103B40000093499B4D9A4B994C98FEF7F7FC814B9B
:103B5000D3F800A0CDF8C8A37F4B1E68F3967F4B27
:103B60001F68F4977E4B1D68F59539465046FDF762
:103B700019F9804629463046FDF714F901464046BA
:103B8000FDF706F80146FDF705F803F0C7FFDFF87B
:103B9000D481D8F80010FCF7FBFF8146314650462F
:103BA000FDF700F9099029463846FDF7FBF8014674
:103BB0000998FCF7EFFF0146FCF7ECFF099031464E
:103BC0003046FDF7EFF80A9039463846FDF7EAF837
:103BD0000B9001460A98FCF7DDFF0146FCF7DAFF7F
:103BE00001464FF07E50FCF7D3FF01460998FDF7E0
:103BF0008DF903F0D1FFD8F80410FCF7C9FF804617
:103C000029465046FDF7CEF8824639463046FDF744
:103C1000C9F801465046FCF7BDFF0146FCF7BAFF64
:103C2000064629462846FDF7BDF801460B98FCF7E5
:103C3000B1FF0146FCF7AEFF01464FF07E50FCF7A6
:103C4000A7FF0146304603F089FF0546CDF8909165
:103C5000CDF89481669461A979A8FDF79FFE424E44
:103C600031464248FDF73EFD5BA93046FEF7C0F8FD
:103C700060945BA979A8FDF72FFE79A8FEF7ACF850
:103C800051AA57A979A8FDF7A3FE394A394957A87F
:103C9000FEF7C2F9BBF1040F7FF72EAF10213648B3
:103CA00001F02EFD00210D9192220EA805F038FCA6
:103CB00032494846FDF776F8044630494046FDF75C
:103CC00071F806462D492846FDF76CF807462C4941
:103CD0005798FDF767F8804629495898FDF762F82C
:103CE000814627495998FDF75DF8824624495A983C
:103CF000FDF758F883462046FCF7C6FB04460D4600
:103D00005846FDF72BFA07905046FDF727FA069024
:103D10004846FDF723FA05904046FDF71FFA049048
:103D20003846FCF7B1FBCDE902013046FCF7ACFBAD
:103D3000CDE9000122462B4612490DA805F088FB6B
:103D40000DA8FFF751F801460DA8FFF795F8D1E649
:103D500098070020080000204C070020480700209A
:103D600044070020500700206007002014000020B6
:103D7000EC090020340A002000080240E12E6542D0
:103D800000401C4600F700082DE9F04184B00646CB
:103D90004FF0000888F800804FF47A7702970124EA
:103DA0000194CDF8008023461922D02101F0DCFFD8
:103DB00088F8008002970194CDF8008023461A22EB
:103DC000D021304601F0D0FFE02388F80030029780
:103DD0000194CDF8008023461C22D021304601F00A
:103DE000C3FFF02388F8003002970194CDF80080DB
:103DF00023461B22D021304601F0B6FF88F8008010
:103E000002970194CDF8008023466B22D0213046E2
:103E100001F0AAFF04B0BDE8F081F0B585B0064618
:103E20000D464FF47A7702970124019400912346BE
:103E30003C22D02102F04AF8029701942B190093FA
:103E400023463B22D021304602F040F802970194ED
:103E5000AB1C009323463E22D021304602F036F8B8
:103E600002970194EB1C009323463D22D02130465B
:103E700002F02CF8029701942B1D00932346402258
:103E8000D021304602F022F8029701946B1D009376
:103E900023463F22D021304602F018F802970194C1
:103EA000AB1D009323464422D021304602F00EF889
:103EB00002970194EB1D009323464322D021304604
:103EC00002F004F80297019405F1080300932346D9
:103ED0004622D021304601F0F9FF0297019405F106
:103EE0000903009323464522D021304601F0EEFF1E
:103EF0000297019405F10A03009323464822D0213A
:103F0000304601F0E3FF029701940B3500952346FC
:103F10004722D021304601F0D9FF05B0F0BD2DE990
:103F2000F04387B00D464278ADF80C20037803EBE0
:103F300002239AB2ADF80C20C178ADF80E10837848
:103F400003EB01231FFA83F9ADF80E904179ADF828
:103F50001010037903EB01231FFA83F8ADF81080EA
:103F6000C179ADF81210837903EB01239FB2ADF84C
:103F70001270417AADF81410037A03EB01239BB25F
:103F8000ADF81430C17AADF81610847A04EB012430
:103F9000A4B2ADF8164010B2ADF800000FFA89F9DE
:103FA000ADF802900FFA88F8ADF804803FB2ADF892
:103FB00006701EB2ADF8086024B2ADF80A40FCF7F6
:103FC0009DFE28604846FCF799FE68604046FCF775
:103FD00095FEA8603846FCF791FEE8603046FCF795
:103FE0008DFE28612046FCF789FE686107B0BDE8B8
:103FF000F0830000F0B587B038238DF81730144DEA
:1040000028604FF4FA770297012401940DF1170606
:104010000096234600223C2101F0A6FE20238DF8C5
:104020001730029701940096234622463C212868C7
:1040300001F09AFE00238DF8173002970194009644
:10404000234602223C21286801F08EFE07B0F0BD15
:104050001C0C0020F0B585B00546204E4FF4FA77D1
:104060000297012401940090234603223D213068E9
:1040700001F02CFF029701942B1900932346042290
:104080003D21306801F022FF02970194AB1C0093A0
:10409000234605223D21306801F018FF0297019464
:1040A000EB1C0093234606223D21306801F00EFFF1
:1040B000029701942B1D0093234607223D2130686F
:1040C00001F004FF0297019405350095234608226C
:1040D0003D21306801F0FAFE05B0F0BD1C0C002057
:1040E00070B582B004460E46FFF7B4FF2378ADF8F2
:1040F0000030607800EB032080B2ADF80000A378B8
:10410000ADF80230E57805EB0325ADB2ADF802500D
:104110002379ADF80430647904EB0324A4B2ADF83C
:10412000044000B2FCF7EAFD306028B2FCF7E6FD7F
:10413000706020B2FCF7E2FDB06002B070BD00001C
:1041400000B587B0144B186000238DF817304FF47A
:10415000FA730293012301930DF117020092D0220A
:10416000EF2101F0B3FE9DF81730552B02D007B0B8
:104170005DF804FB2E238DF817304FF4FA73029389
:10418000012301930DF117020092F422EE2102485F
:10419000006801F0E9FDEAE7200C0020024B1860FE
:1041A000024B1960704700BF280C0020240C00202F
:1041B00010B590B0224C0DF1280CA646BEE80F00B9
:1041C000ACE80F009EE803008CE803001D4B1E4A7C
:1041D0001A601E4A5A601E4A9A601E4ADA601E4AD7
:1041E0001A614FF042425A610DF11C0C04F11802A1
:1041F00007CA8CE80700194A9A61194ADA61194A14
:104200001A620DF1100C04F1240207CA8CE80700B1
:10421000154A9A62154ADA62154A1A63154A9A656E
:104220000DF1040C303494E807008CE80700124AC2
:10423000DA64124A1A65124A5A6510B010BD00BFFE
:10424000A4F600082C0C0020008009440080BB4428
:10425000004035C59A9981C20000934300005F4336
:104260000080CAC3000045C382A8FB38F7CC1239CE
:1042700082A8FBB8000030430080E14300002343E4
:104280000080DE4310B504464FF07C51FCF78AFDF8
:1042900001462346094CA4EB63042046FCF782FD4B
:1042A00001462046FCF77EFD01464FF07F50FCF7AB
:1042B0006FFC01462046FCF775FD10BDDF59375FE6
:1042C0002DE9F84F06460F461546584C2168006800
:1042D000FCF75EFC5649FCF719FE824630606168C7
:1042E0007068FCF755FC5249FCF710FE814670607F
:1042F000A168B068FCF74CFC4D49FCF707FE80460E
:10430000B06051465046FCF74DFD8346494648464D
:10431000FCF748FD01465846FCF73CFC8346414605
:104320004046FCF73FFD01465846FCF733FC01468A
:104330004FF07E50FCF7EAFD83460146A06DFCF786
:1043400031FD01465046FCF72DFD30605946A06D09
:10435000FCF728FD01464846FCF724FD70605946ED
:10436000A06DFCF71FFD01464046FCF71BFDB06049
:10437000E1683868FCF70CFCA16AFCF713FD3860B3
:1043800021697868FCF704FCE16AFCF70BFD7860B2
:104390006169B868FCF7FCFB216BFCF703FDB860B2
:1043A000A1692868FCF7F4FBE16CFCF7AFFD074658
:1043B0002860E1696868FCF7EBFB216DFCF7A6FD5E
:1043C00006466860216AA868FCF7E2FB616DFCF7AD
:1043D0009DFD0446A86039463846FCF7E3FC80465C
:1043E00031463046FCF7DEFC01464046FCF7D2FB86
:1043F000804621462046FCF7D5FC01464046FCF7A6
:10440000C9FBFFF73FFF804601463846FCF7CAFC70
:10441000286041463046FCF7C5FC686041462046AE
:10442000FCF7C0FCA860BDE8F88F00BF2C0C002092
:104430000000C84208B5024B1860FFF7A5FC08BD94
:10444000880C002038B504460D460C220146044B6A
:104450001868FFF7E2FC29462046FFF760FD38BDEB
:10446000880C002008B5FFF7C5FD08BD08B5FFF7AB
:1044700037FE08BD08B5FFF763FE08BD82B0002116
:1044800000910B4B5A6C42F480425A645A6C02F40D
:1044900080420092009A01911A6C42F080521A6494
:1044A0001B6C03F080530193019B02B0704700BF67
:1044B0000038024000B589B00023039304930593AC
:1044C00006930793026803F1804303F590339A4201
:1044D00002D009B05DF804FB0021019103F58C3393
:1044E0005A6C42F480725A645A6C02F480720192DF
:1044F000019A02911A6B42F002021A631B6B03F0DD
:1045000002030293029B022303930323049303A950
:10451000014800F0F5FFDCE70004024030B58BB045
:104520000023059306930793089309930368274A8A
:10453000934204D0264A934224D00BB030BD0025CC
:104540000195244C236B43F002032363236B03F098
:1045500002030193019BC0230593122306930323B7
:1045600008930423099305A91B4800F0C9FF02958D
:10457000236C43F400132364236C03F400130293AD
:10458000029BDAE700250395124C236B43F00203EC
:104590002363236B03F002030393039B4FF44063F5
:1045A000059312230693032308930423099305A973
:1045B000094800F0A5FF0495236C43F480032364AD
:1045C000236C03F480030493049BB6E7005400407B
:1045D000005800400038024000040240F0B58BB0A3
:1045E0000023059306930793089309930368314AC0
:1045F000934204D0304A934224D00BB0F0BD002146
:1046000000912E4B5A6C42F480525A645A6C02F458
:1046100080520092009A01911A6B42F001021A63D3
:104620001B6B03F001030193019BE023059302231D
:104630000693032308930523099305A9204800F056
:104640005FFFDAE7002402941C4B1A6C42F48042AC
:104650001A641A6C02F480420292029A03941A6B52
:1046600042F004021A631A6B02F004020392039AE6
:1046700004941A6B42F002021A631B6B03F00203EC
:104680000493049B0C2305930227069703260896A0
:104690000525099505A90B4800F032FF4FF400539A
:1046A0000593069707940896099505A9064800F012
:1046B00027FFA2E7003001400038004000380240E8
:1046C00000000240000802400004024000B585B02E
:1046D0000368284A93420BD0B3F1804F15D0264A85
:1046E00093421FD0254A934230D005B05DF804FBB9
:1046F00000230093224B5A6C42F001025A645B6C17
:1047000003F001030093009BEFE7002301931C4B90
:104710001A6C42F001021A641B6C03F0010301934E
:10472000019BE2E700210291154B1A6C42F0100246
:104730001A641B6C03F010030293029B0A46362096
:1047400000F040FE362000F04DFECEE70021039140
:104750000B4B1A6C42F020021A641B6C03F020030E
:104760000393039B0A46372000F02CFE372000F00D
:1047700039FEBAE70000014000100040001400407C
:104780000038024070B588B000230393049305936A
:10479000069307930368264A934204D0B3F1804FEF
:1047A00019D008B070BD00230093224B1A6B42F061
:1047B00010021A631B6B03F010030093009B4FF46D
:1047C000D4430393022304930123079303A91A48B4
:1047D00000F096FEE5E70024019403F50E331A6B12
:1047E00042F001021A631A6B02F001020192019A6F
:1047F00002941A6B42F002021A631B6B03F002036D
:104800000293029B48F20C030393022604960125AF
:10481000079503A9094800F073FE08230393049643
:1048200005940694079503A9054800F069FEB8E7CA
:104830000000014000380240001002400000024029
:104840000004024010B590B000230B930C930D931D
:104850000E930F930368754A93420FD0744A9342A4
:1048600036D0744A93425FD0734A934200F08780F7
:10487000724A934200F0AF8010B010BD0024019442
:104880006F4B1A6C42F400221A641A6C02F4002274
:104890000192019A02941A6B42F001021A631B6B97
:1048A00003F001030293029B03230B9302220C9259
:1048B0000E9308230F930BA9624800F021FE2246B5
:1048C0002146342000F07EFD342000F08BFDD3E73C
:1048D000002403945A4B5A6C42F010025A645A6CEA
:1048E00002F010020392039A04941A6B42F0010240
:1048F0001A631B6B03F001030493049B4FF4C06322
:104900000B9302230C9303230E9307230F930BA9FE
:104910004C4800F0F5FD22462146252000F052FDCE
:10492000252000F05FFDA7E700240594444B1A6C96
:1049300042F400321A641A6C02F400320592059AAD
:1049400006941A6B42F008021A631B6B03F008030B
:104950000693069B60230B9302230C9303230E9371
:1049600007230F930BA9384800F0CAFD22462146C1
:10497000262000F027FD262000F034FD7CE70024EF
:1049800007942F4B1A6C42F480221A641A6C02F4BA
:1049900080220792079A08941A6B42F008021A6361
:1049A0001B6B03F008030893089B4FF440730B93B1
:1049B00002230C9303230E9307230F930BA9224882
:1049C00000F09EFD22462146272000F0FBFC272018
:1049D00000F008FD50E700240994194B5A6C42F08E
:1049E00020025A645A6C02F020020992099A0A9431
:1049F0001A6B42F004021A631B6B03F004030A9360
:104A00000A9BC0230B9302230C9303230E930823CA
:104A10000F930BA90D4800F073FD22462146472055
:104A200000F0D0FC472000F0DDFC25E7004C004002
:104A300000100140004400400048004000140140C4
:104A40000038024000000240000C02400008024012
:104A5000FEE7FEE7FEE7FEE7FEE7704770477047B8
:104A600008B500F061F908BD08B5024802F0DEFEA5
:104A700008BD00BFD408002008B5024802F0D6FEE9
:104A800008BD00BF9008002008B5024802F0CEFE25
:104A900008BD00BF4C08002008B5024802F0C6FE61
:104AA00008BD00BF1809002008B5054B01221A6097
:104AB000362000F0B9FC034802F063F808BD00BFDF
:104AC00098070020A409002008B5024802F059F810
:104AD00008BD00BF5C09002008B5024802F0A6FE30
:104AE00008BD00BF0808002008B5044B186802F094
:104AF00048F82021024800F003FE08BD000800200D
:104B00000008024038B5124C204601F0DBFF236854
:104B10005D6A00225A62204601F096FF0D48037834
:104B20000D4A42F8235001330C4981FB032101F067
:104B3000FC0202EBA10251005B1ADBB203700BB95D
:104B400001220270064B4FF400425A6138BD00BF8B
:104B50005C0900208C070020140000206766666650
:104B6000003C014010B5084C204600F071FA07499E
:104B70000860074A13681844086001331360204630
:104B800000F06CFA10BD00BFD40B00209407002089
:104B9000900700200120704708B504F0ABFD1623F4
:104BA00003604FF0FF3008BD08B54FF0FF31FFF74D
:104BB000F3FFFEE770B50C461646002506E0AFF39E
:104BC0000080214601F8010B01350C46B542F6DBA9
:104BD000304670BD70B50C461646002504E014F84A
:104BE000010BAFF300800135B542F8DB304670BDF4
:104BF0004FF0FF3070474FF400534B600020704778
:104C0000012070470020704710B503460C4A0D493B
:104C10000D48006840B10C4800680344521A9342A2
:104C200006D8094A136010BD0748084C0460F2E733
:104C300004F060FD0C2303604FF0FF30F3E700BF8A
:104C400000000220000400008C0C0020A80F0020AF
:104C500070470000DFF834D00D480E490E4A00239B
:104C600002E0D458C4500433C4188C42F9D30B4A20
:104C70000B4C002301E013600432A242FBD3FFF788
:104C8000E7FF04F03DFDFEF747FD704700000220FE
:104C9000000000200C070020D4FD00080C070020B5
:104CA000A80F0020FEE7000010B504460E4B1A784E
:104CB0004FF47A73B3FBF2F30C4A1068B0FBF3F0D5
:104CC00000F09EFB68B90F2C01D901200AE00022F8
:104CD00021464FF0FF3000F075FB054B1C600020B3
:104CE00000E0012010BD00BF440000204000002073
:104CF0004800002008B50B4B1A6842F400721A6095
:104D00001A6842F480621A601A6842F480721A606B
:104D1000032000F045FB0F20FFF7C6FFFFF7AEFBB7
:104D2000002008BD003C0240034A1168034B1B7879
:104D30000B441360704700BF900C0020440000201B
:104D4000014B1868704700BF900C002038B504462E
:104D5000FFF7F6FF0546B4F1FF3F02D0044B1B7886
:104D60001C44FFF7EDFF401BA042FAD338BD00BF43
:104D7000440000204A4B5A6822F440325A605A6874
:104D800041680A435A600268536823F48073536091
:104D900002685368016943EA01235360026853685B
:104DA00023F0407353600268536881680B4353607B
:104DB0000268936823F40063936002689368C16893
:104DC0000B439360826A374B9A4257D002689368CC
:104DD00023F07063936002689368816A0B43936069
:104DE0000268936823F04053936002689368C16A35
:104DF0000B4393600268936823F002039360026898
:104E00009368017E43EA4103936090F82030002BC1
:104E10003FD00268536843F40063536002685368EC
:104E200023F46043536001684B68426A013A43EAE5
:104E300042334B600268D36A23F47003D362016883
:104E4000CB6AC269013A43EA0253CB6202689368B3
:104E500023F4007393600268936890F8301043EA7B
:104E6000412393600268936823F48063936002682F
:104E70009368416943EA81239360704702689368AD
:104E800023F0706393600268936823F0405393604B
:104E9000B0E70268536823F400635360CAE700BFB9
:104EA000002301400100000F38B310B50446036C25
:104EB00043B1236C13F0100F0BD00120002384F8B2
:104EC0003C3010BDFFF7F6FA0023636484F83C30F1
:104ED000EFE7236C23F4885323F0020343F002032B
:104EE00023642046FFF746FF00206064236C23F014
:104EF000030343F001032364E0E70120704700004F
:104F000082B00023019390F83C30012B00F0908098
:104F1000012380F83C3003689A6812F0010F13D126
:104F20009A6842F001029A60444B1B68444AA2FB13
:104F300003239B0C03EB4303019302E0019B013B22
:104F40000193019B002BF9D10268936813F0010FC4
:104F500063D0036C23F4E06323F0010343F4807314
:104F60000364536813F4806F05D0036C23F440533B
:104F700043F480530364036C13F4805F22D0436CCA
:104F800023F006034364002380F83C306FF02203D3
:104F900013600268536843F0806343F0200353605A
:104FA000284B5B6813F01F0F27D10368264A9342F2
:104FB00011D002F58072934207D0244A934214D054
:104FC000002033E000234364DDE702F500725268FD
:104FD00012F01F0FF1D19A6812F0405F2AD19A683F
:104FE00042F080429A60002020E002F58072526810
:104FF00012F0100FEFD0002018E00368124A93421D
:1050000001D0002012E09A6812F0405F14D19A6833
:1050100042F080429A60002008E0036C43F01003E5
:105020000364436C43F001034364002002B0704703
:105030000220FBE70020F9E70020F7E7400000200E
:1050400083DE1B4300230140002001400022014079
:105050000368D86C704770477047704770B5044656
:1050600003681E685D6816F0020F2FD005F020025D
:1050700062B3026C12F0100F03D1026C42F40072A2
:1050800002649A6812F0405F19D1227EBAB9DA6AD6
:1050900012F4700F03D09A6812F4806F0FD15A681F
:1050A00022F020025A60236C23F480732364236C63
:1050B00013F4805F03D1236C43F001032364204683
:1050C000FFF7C9FF23686FF012021A6005F0800332
:1050D00016F0040F37D0002B35D0236C13F0100FCF
:1050E00003D1236C43F40053236423689A6812F4B9
:1050F000401F21D19A6B12F4401F03D09A6812F41A
:10510000806F19D15A6812F4806F15D19A6812F025
:10511000405F11D1227E7AB95A6822F080025A602B
:10512000236C23F480532364236C13F4807F03D116
:10513000236C43F001032364204600F0FBF823684E
:105140006FF00C021A6005F0400316F0010F05D055
:1051500023B123681B6813F0010F06D105F08065A9
:1051600016F0200F00D065B970BD236C43F4803376
:1051700023642046FFF770FF23686FF001021A6076
:10518000ECE7636C43F00203636423686FF020056F
:105190001D602046FFF761FF23681D60E4E7000003
:1051A00030B482B00022019290F83C20012A00F035
:1051B000B6800346012280F83C200A68092A40D9BB
:1051C0000468E06892B202EB42021E3A4FF0070C0C
:1051D0000CFA02F220EA0202E2601C68E0680A8827
:1051E00002EB42021E3A8D6805FA02F20243E260C7
:1051F0004A68062A3CD81C68606B02EB8202053ABA
:105200004FF01F0C0CFA02F220EA020262631C68E3
:10521000606B4A6802EB8202053AB1F800C00CFAF2
:1052200002F20243626318683E4A904250D0186806
:105230003C4A904255D0002083F83C0002B030BC7C
:1052400070470468206992B202EB42024FF0070CEB
:105250000CFA02F220EA020222611C6820690A8824
:1052600002EB42028D6805FA02F202432261BFE7B7
:105270000C2A16D81D68286B02EB8202233A1F24E1
:1052800004FA02F220EA02022A631D68286B4A68C7
:1052900002EB8202233A0C8804FA02F202432A63E8
:1052A000C1E71D68E86A02EB8202413A1F2404FA52
:1052B00002F220EA0202EA621D68E86A4A6802EB2A
:1052C0008202413A0C8804FA02F20243EA62AAE737
:1052D0000A68122AABD11448426842F48002426044
:1052E000A5E70A68103A012AA5D80F48426842F497
:1052F000000242600A68102A9DD10C4A12680C49CB
:10530000A1FB0212920C02EB82025200019202E017
:10531000019A013A0192019A002AF9D18BE7022001
:105320008CE700BF00200140002301404000002026
:1053300083DE1B4370470000002808DB0901C9B267
:1053400000F1604000F5614080F80013704700F004
:105350000F000901C9B2014B1954704714ED00E068
:1053600000B500F00700C0F1070CBCF1040F28BF26
:105370004FF0040C031D062B0FD9C31E4FF0FF3E48
:105380000EFA0CF021EA000199400EFA03FE22EA1F
:105390000E0241EA02005DF804FB0023EEE7000084
:1053A000074AD36823F4E0631B041B0C000200F4DB
:1053B000E060034343F0BF6343F40033D3607047BE
:1053C00000ED00E010B50446054BD868C0F302209C
:1053D000FFF7C6FF01462046FFF7AEFF10BD00BF36
:1053E00000ED00E0002807DB00F01F024009012368
:1053F0009340024A42F82030704700BF00E100E0CD
:105400000138B0F1807F0BD24FF0E0235861054A9C
:10541000F02182F823100020986107221A6170475A
:105420000120704700ED00E0002808DB00F01F02BB
:105430004009012393406030014A42F82030704710
:1054400000E100E070B50446866DFFF779FC94F842
:105450003530DBB2022B06D080236365002384F84D
:105460003430012070BD05462268136823F016030E
:1054700013602268536923F080035361236CE3B106
:105480002268136823F0080313602268136823F06E
:105490000103136023681B6813F0010F11D0FFF79D
:1054A0004FFC431B052BF5D920236365032084F8AB
:1054B0003500002384F83430D4E7A36C002BDFD10F
:1054C000E3E7E26D3F239340B360012384F8353076
:1054D000002084F83400C5E790F83530DBB2022BA9
:1054E00003D08023436501207047052380F83530C1
:1054F0000268136823F00103136000207047000066
:1055000000230F2B00F2EC8030B583B068E0856893
:105510004FEA430E032404FA0EF425EA0405CC688E
:1055200004FA0EF42C438460446824EA02044A68B6
:10553000C2F300129A40224342605FE0DC08083464
:1055400050F8242003F00705AD004FF00F0E0EFABF
:1055500005FE22EA0E0E0A69AA4042EA0E0240F84F
:1055600024205FE0072200E0002202FA0EF22A4324
:1055700002345C4D45F824205B4A94686FEA0C02C3
:1055800024EA0C05D1F804E01EF4801F01D04CEA97
:105590000405554CA560E46802EA0405D1F804E06E
:1055A0001EF4001F01D04CEA04054F4CE56064680E
:1055B00002EA0405D1F804E01EF4003F01D04CEAF1
:1055C0000405494C6560246822404D6815F4803F0D
:1055D00001D04CEA0402444C226001330F2B7DD8E9
:1055E00001229A400C6804EA020C32EA0404F4D165
:1055F0004C6804F00304013C012C88D94A6802F08D
:105600000302032A09D0C4685D000322AA4024EAE9
:1056100002048A68AA402243C2604A6802F0030278
:10562000022A8BD004684FEA430E032202FA0EF2DC
:1056300024EA02044A6802F0030202FA0EF222434C
:1056400002604A6812F4403FC7D000220192274A04
:10565000546C44F480445464526C02F480420192CD
:10566000019A9C08A51C1F4A52F8255003F0030E0E
:105670004FEA8E0E0F2202FA0EF225EA02051C4AAC
:1056800090423FF471AF02F5806290421AD002F569
:105690008062904218D002F58062904216D002F5E6
:1056A0008062904214D002F58062904212D002F5DE
:1056B0008062904210D002F5806290423FF452AF77
:1056C000082252E7012250E702224EE703224CE76C
:1056D00004224AE7052248E7062246E703B030BD28
:1056E000704700BF00380140003C014000380240D4
:1056F000000002400AB1816170470904816170476E
:10570000436901EA030221EA030141EA024181619E
:10571000704703685A6912F4806F01D10020704706
:105720006FF480625A6100230363202280F83D20D9
:1057300080F83E30026C42F00402026480F83C3093
:10574000012070472DE9F04107460D4690461E4660
:1057500024E0FFF7F5FA069BC01AB04200D8EEB974
:1057600000233B63202287F83D2087F83E303A6CC7
:1057700042F020023A6487F83C3001201EE03B688A
:105780009C6925EA040C1FFA8CFCBCFA8CFC4FEADD
:105790005C1CE04511D1B6F1FF3FDAD1C5F30743F8
:1057A000012BECD13B685B6925EA030C1FFA8CFCEA
:1057B000BCFA8CFC4FEA5C1CEBE70020BDE8F081F2
:1057C0002DE9F04105460E46174698463DE01A6819
:1057D00042F400721A602B686FF480625A610023F1
:1057E0002B63202285F83D2085F83E302A6C42F05C
:1057F00004022A6485F83C30012034E0FFF7A0FA67
:10580000A0EB0800B84200D8FFB900232B63202288
:1058100085F83D2085F83E302A6C42F020022A644B
:1058200085F83C3001201EE02B689C6926EA0404C0
:10583000A4B2003C18BF0124A4B12B685A6912F429
:10584000806FC4D1B7F1FF3FD8D1C6F30743012B16
:10585000EAD12B685C6926EA0404A4B2003C18BFB4
:105860000124E9E70020BDE8F08170B504460D464B
:10587000164623685B6913F0800F1CD12046FFF7A2
:1058800048FFD0B9B5F1FF3FF3D0FFF759FA801BBD
:10589000A84201D8002DECD100232363202284F8F4
:1058A0003D2084F83E30226C42F02002226484F8CD
:1058B0003C30012000E0002070BD0120FCE700002A
:1058C0002DE9F04385B004460D4691461F46DDF8AC
:1058D00030800D9E0368196841F48071196000964C
:1058E000434600224FF00111FFF72CFF60B92368F7
:1058F00005F0FE051D613346424626492046FFF766
:105900005FFF68B1012008E023681B6813F4807F03
:1059100002D04FF400732364032005B0BDE8F08388
:105920000023039323685A6903929B690393039BA3
:10593000324641462046FFF798FF30B9012F0FD17C
:1059400023685FFA89F61E61E7E7236C042B01D018
:105950000120E2E72268136843F400731360F7E75D
:1059600023684FEA19221A61324641462046FFF762
:105970007CFF20B923685FFA89F61E61CDE7236CAE
:10598000042B01D00120C8E72268136843F4007398
:105990001360F7E7020001002DE9F04784B00446E8
:1059A0000D46164699460C9FDDF834800268136850
:1059B00043F4806313600368196841F480711960CF
:1059C000CDF800803B4600224FF00111FFF7BAFEF0
:1059D00070B95FFA85FA236805F0FE051D6143463C
:1059E0003A4641492046FFF7EBFE68B1012008E046
:1059F00023681B6813F4807F02D04FF40073236484
:105A0000032004B0BDE8F0870023039323685A699C
:105A100003929B690393039B424639462046FFF756
:105A200024FF80B9B9F1010F18D12368F6B21E61C5
:105A3000424639462046FFF718FF68B3236C042B13
:105A400024D00120DDE7236C042B01D00120D8E70E
:105A50002268136843F400731360F7E72368320A7F
:105A60001A61424639462046FFF7FFFE18B92368FF
:105A7000F6B21E61DCE7236C042B01D00120C0E7E5
:105A80002268136843F400731360F7E72268136811
:105A900043F400731360D4E72268136843F48073FF
:105AA0001360CDF800803B4600224FF001112046E4
:105AB000FFF748FE68B922684AF0010313614346C4
:105AC0003A4609492046FFF77BFE002899D001207D
:105AD00097E723681B6813F4807F02D04FF40073AC
:105AE000236403208DE700BF0200010070B5044667
:105AF0000D46164623685B6913F0040F1CD120463F
:105B0000FFF707FED0B9B5F1FF3FF3D0FFF718F963
